{
  "contractName": "DelayOracle",
  "abi": [
    {
      "constant": false,
      "inputs": [
        {
          "name": "queryId",
          "type": "bytes32"
        },
        {
          "name": "result",
          "type": "string"
        }
      ],
      "name": "__callback",
      "outputs": [],
      "payable": false,
      "stateMutability": "nonpayable",
      "type": "function"
    },
    {
      "constant": false,
      "inputs": [
        {
          "name": "myid",
          "type": "bytes32"
        },
        {
          "name": "result",
          "type": "string"
        },
        {
          "name": "proof",
          "type": "bytes"
        }
      ],
      "name": "__callback",
      "outputs": [],
      "payable": false,
      "stateMutability": "nonpayable",
      "type": "function"
    },
    {
      "constant": true,
      "inputs": [
        {
          "name": "",
          "type": "bytes32"
        }
      ],
      "name": "results",
      "outputs": [
        {
          "name": "arrScheduled",
          "type": "string"
        },
        {
          "name": "arrActual",
          "type": "string"
        },
        {
          "name": "delays",
          "type": "int256"
        },
        {
          "name": "isDelay",
          "type": "bool"
        }
      ],
      "payable": false,
      "stateMutability": "view",
      "type": "function"
    },
    {
      "constant": false,
      "inputs": [
        {
          "name": "flightNo",
          "type": "string"
        },
        {
          "name": "flightDate",
          "type": "string"
        }
      ],
      "name": "query",
      "outputs": [],
      "payable": true,
      "stateMutability": "payable",
      "type": "function"
    },
    {
      "constant": true,
      "inputs": [
        {
          "name": "",
          "type": "bytes32"
        }
      ],
      "name": "queryRecords",
      "outputs": [
        {
          "name": "record",
          "type": "string"
        },
        {
          "name": "isValue",
          "type": "bool"
        }
      ],
      "payable": false,
      "stateMutability": "view",
      "type": "function"
    },
    {
      "constant": true,
      "inputs": [],
      "name": "queryID",
      "outputs": [
        {
          "name": "",
          "type": "bytes32"
        }
      ],
      "payable": false,
      "stateMutability": "view",
      "type": "function"
    },
    {
      "constant": true,
      "inputs": [],
      "name": "queryStr1",
      "outputs": [
        {
          "name": "",
          "type": "string"
        }
      ],
      "payable": false,
      "stateMutability": "view",
      "type": "function"
    },
    {
      "inputs": [
        {
          "name": "_key",
          "type": "string"
        }
      ],
      "payable": false,
      "stateMutability": "nonpayable",
      "type": "constructor"
    },
    {
      "payable": true,
      "stateMutability": "payable",
      "type": "fallback"
    },
    {
      "anonymous": false,
      "inputs": [
        {
          "indexed": false,
          "name": "condition",
          "type": "string"
        }
      ],
      "name": "LogDelayInfoUpdated",
      "type": "event"
    },
    {
      "anonymous": false,
      "inputs": [
        {
          "indexed": false,
          "name": "description",
          "type": "string"
        }
      ],
      "name": "LogNewOraclizeQuery",
      "type": "event"
    }
  ],
  "bytecode": "0x606060405234156200001057600080fd5b60405162002f6838038062002f68833981016040528080518201919050508060059080519060200190620000469291906200004e565b5050620000fd565b828054600181600116156101000203166002900490600052602060002090601f016020900481019282601f106200009157805160ff1916838001178555620000c2565b82800160010185558215620000c2579182015b82811115620000c1578251825591602001919060010190620000a4565b5b509050620000d19190620000d5565b5090565b620000fa91905b80821115620000f6576000816000905550600101620000dc565b5090565b90565b612e5b806200010d6000396000f300606060405260043610610083576000357c0100000000000000000000000000000000000000000000000000000000900463ffffffff16806327dc297e1461008557806338bbfa50146100ef5780634c6b25b11461019c57806381ade307146102f45780638964968814610389578063abcb878014610451578063bdf1e8eb14610482575b005b341561009057600080fd5b6100ed60048080356000191690602001909190803590602001908201803590602001908080601f01602080910402602001604051908101604052809392919081815260200183838082843782019150505050505091905050610510565b005b34156100fa57600080fd5b61019a60048080356000191690602001909190803590602001908201803590602001908080601f0160208091040260200160405190810160405280939291908181526020018383808284378201915050505050509190803590602001908201803590602001908080601f0160208091040260200160405190810160405280939291908181526020018383808284378201915050505050509190505061097e565b005b34156101a757600080fd5b6101c1600480803560001916906020019091905050610983565b6040518080602001806020018581526020018415151515815260200183810383528781815460018160011615610100020316600290048152602001915080546001816001161561010002031660029004801561025e5780601f106102335761010080835404028352916020019161025e565b820191906000526020600020905b81548152906001019060200180831161024157829003601f168201915b50508381038252868181546001816001161561010002031660029004815260200191508054600181600116156101000203166002900480156102e15780601f106102b6576101008083540402835291602001916102e1565b820191906000526020600020905b8154815290600101906020018083116102c457829003601f168201915b5050965050505050505060405180910390f35b610387600480803590602001908201803590602001908080601f0160208091040260200160405190810160405280939291908181526020018383808284378201915050505050509190803590602001908201803590602001908080601f016020809104026020016040519081016040528093929190818152602001838380828437820191505050505050919050506109be565b005b341561039457600080fd5b6103ae600480803560001916906020019091905050610d40565b6040518080602001831515151581526020018281038252848181546001816001161561010002031660029004815260200191508054600181600116156101000203166002900480156104415780601f1061041657610100808354040283529160200191610441565b820191906000526020600020905b81548152906001019060200180831161042457829003601f168201915b5050935050505060405180910390f35b341561045c57600080fd5b610464610d70565b60405180826000191660001916815260200191505060405180910390f35b341561048d57600080fd5b610495610d76565b6040518080602001828103825283818151815260200191508051906020019080838360005b838110156104d55780820151818401526020810190506104ba565b50505050905090810190601f1680156105025780820380516001836020036101000a031916815260200191505b509250505060405180910390f35b610518612c9c565b610520612c9c565b610528612cb6565b610530612cb6565b60008061053b610e14565b73ffffffffffffffffffffffffffffffffffffffff163373ffffffffffffffffffffffffffffffffffffffff1614151561057457600080fd5b60086000896000191660001916815260200190815260200160002060010160009054906101000a900460ff1615156105ab57600080fd5b6105b48761112a565b95506106066105f76040805190810160405280600281526020017f2c2000000000000000000000000000000000000000000000000000000000000081525061112a565b8761115890919063ffffffff16565b94506106586106496040805190810160405280600281526020017f5b2200000000000000000000000000000000000000000000000000000000000081525061112a565b8661117290919063ffffffff16565b94506106aa61069b6040805190810160405280600181526020017f220000000000000000000000000000000000000000000000000000000000000081525061112a565b866111fc90919063ffffffff16565b94506106b58561127d565b93506107076106f86040805190810160405280600281526020017f225d00000000000000000000000000000000000000000000000000000000000081525061112a565b876111fc90919063ffffffff16565b955061076161075c61074d6040805190810160405280600181526020017f220000000000000000000000000000000000000000000000000000000000000081525061112a565b8861117290919063ffffffff16565b61127d565b925061076d84846112db565b93509350505060806040519081016040528085815260200184815260200183815260200182151581525060096000600860008c6000191660001916815260200190815260200160002060000160405180828054600181600116156101000203166002900480156108145780601f106107f2576101008083540402835291820191610814565b820191906000526020600020905b815481529060010190602001808311610800575b50509150506040518091039020600019166000191681526020019081526020016000206000820151816000019080519060200190610853929190612cca565b506020820151816001019080519060200190610870929190612cca565b506040820151816002015560608201518160030160006101000a81548160ff0219169083151502179055509050507ff48965f6c2b0978c758455799d549084df6762871eafeff42a2c4ad84dc0bba9600860008a6000191660001916815260200190815260200160002060000160405180806020018281038252838181546001816001161561010002031660029004815260200191508054600181600116156101000203166002900480156109665780601f1061093b57610100808354040283529160200191610966565b820191906000526020600020905b81548152906001019060200180831161094957829003601f168201915b50509250505060405180910390a15050505050505050565b505050565b6009602052806000526040600020600091509050806000019080600101908060020154908060030160009054906101000a900460ff16905084565b6109c6612cb6565b6109ce612cb6565b6109d6612cb6565b6109de612cb6565b6109e6612cb6565b6000606060405190810160405280603681526020017f6a736f6e2868747470733a2f2f6f702e6a7568652e636e2f666c696768742f6481526020017f662f6866733f64747970653d26666c696768744e6f3d0000000000000000000081525095506040805190810160405280600c81526020017f26666c69676874446174653d00000000000000000000000000000000000000008152509450606060405190810160405280602181526020017f292e726573756c745b4172725363686564756c65642c2041727241637475616c81526020017f5d000000000000000000000000000000000000000000000000000000000000008152509350610bb86040805190810160405280600581526020017f266b65793d00000000000000000000000000000000000000000000000000000081525060058054600181600116156101000203166002900480601f016020809104026020016040519081016040528092919081815260200182805460018160011615610100020316600290048015610bad5780601f10610b8257610100808354040283529160200191610bad565b820191906000526020600020905b815481529060010190602001808311610b9057829003601f168201915b50505050508661132e565b9250610bc78689878a8761136c565b91508160079080519060200190610bdf929190612d4a565b50610c1f6040805190810160405280600381526020017f55524c0000000000000000000000000000000000000000000000000000000000815250836117a4565b905080600681600019169055507f621c2856e3b87f81235f8ac8a22bbb40a0142961960710d00b2b6c380902b57e6040518080602001828103825260358152602001807f4f7261636c697a65207175657279207761732073656e742c207374616e64696e81526020017f6720627920666f722074686520616e737765722e2e000000000000000000000081525060400191505060405180910390a16040805190810160405280610ccf8a8a611ce6565b8152602001600115158152506008600083600019166000191681526020019081526020016000206000820151816000019080519060200190610d12929190612cca565b5060208201518160010160006101000a81548160ff0219169083151502179055509050505050505050505050565b600860205280600052604060002060009150905080600001908060010160009054906101000a900460ff16905082565b60065481565b60078054600181600116156101000203166002900480601f016020809104026020016040519081016040528092919081815260200182805460018160011615610100020316600290048015610e0c5780601f10610de157610100808354040283529160200191610e0c565b820191906000526020600020905b815481529060010190602001808311610def57829003601f168201915b505050505081565b6000806000809054906101000a900473ffffffffffffffffffffffffffffffffffffffff1673ffffffffffffffffffffffffffffffffffffffff161480610e8457506000610e826000809054906101000a900473ffffffffffffffffffffffffffffffffffffffff16611d33565b145b15610e9557610e936000611d3e565b505b6000809054906101000a900473ffffffffffffffffffffffffffffffffffffffff1673ffffffffffffffffffffffffffffffffffffffff166338cc48316000604051602001526040518163ffffffff167c0100000000000000000000000000000000000000000000000000000000028152600401602060405180830381600087803b1515610f2257600080fd5b6102c65a03f11515610f3357600080fd5b5050506040518051905073ffffffffffffffffffffffffffffffffffffffff16600160009054906101000a900473ffffffffffffffffffffffffffffffffffffffff1673ffffffffffffffffffffffffffffffffffffffff1614151561107c576000809054906101000a900473ffffffffffffffffffffffffffffffffffffffff1673ffffffffffffffffffffffffffffffffffffffff166338cc48316000604051602001526040518163ffffffff167c0100000000000000000000000000000000000000000000000000000000028152600401602060405180830381600087803b151561102057600080fd5b6102c65a03f1151561103157600080fd5b50505060405180519050600160006101000a81548173ffffffffffffffffffffffffffffffffffffffff021916908373ffffffffffffffffffffffffffffffffffffffff1602179055505b600160009054906101000a900473ffffffffffffffffffffffffffffffffffffffff1673ffffffffffffffffffffffffffffffffffffffff1663c281d19e6000604051602001526040518163ffffffff167c0100000000000000000000000000000000000000000000000000000000028152600401602060405180830381600087803b151561110a57600080fd5b6102c65a03f1151561111b57600080fd5b50505060405180519050905090565b611132612c9c565b600060208301905060408051908101604052808451815260200182815250915050919050565b611160612c9c565b61116b838383611d4f565b5092915050565b61117a612c9c565b6000826000015184600001511015611194578391506111f5565b60019050826020015184602001511415156111c2578251602085015160208501518281208383201493505050505b80156111f157826000015184600001818151039150818152505082600001518460200181815101915081815250505b8391505b5092915050565b611204612c9c565b60008083600001518560000151101561121f57849250611275565b8360000151856000015186602001510103915060019050836020015182141515611256578351602085015181812082852014925050505b80156112715783600001518560000181815103915081815250505b8492505b505092915050565b611285612cb6565b61128d612cb6565b600083600001516040518059106112a15750595b9080825280601f01601f191660200182016040525091506020820190506112d18185602001518660000151611ded565b8192505050919050565b6000806000806000806112ed88611e38565b91506112f887611e38565b90508181039350610e108413156113125760019250611317565b600092505b818185859550955095509550505092959194509250565b611336612cb6565b6113638484846020604051908101604052806000815250602060405190810160405280600081525061136c565b90509392505050565b611374612cb6565b61137c612dca565b611384612dca565b61138c612dca565b611394612dca565b61139c612dca565b6113a4612cb6565b6113ac612dca565b6000808e98508d97508c96508b95508a94508451865188518a518c51010101016040518059106113d95750595b9080825280601f01601f1916602001820160405250935083925060009150600090505b88518110156114af57888181518110151561141357fe5b9060200101517f010000000000000000000000000000000000000000000000000000000000000090047f010000000000000000000000000000000000000000000000000000000000000002838380600101945081518110151561147257fe5b9060200101907effffffffffffffffffffffffffffffffffffffffffffffffffffffffffffff1916908160001a90535080806001019150506113fc565b600090505b87518110156115675787818151811015156114cb57fe5b9060200101517f010000000000000000000000000000000000000000000000000000000000000090047f010000000000000000000000000000000000000000000000000000000000000002838380600101945081518110151561152a57fe5b9060200101907effffffffffffffffffffffffffffffffffffffffffffffffffffffffffffff1916908160001a90535080806001019150506114b4565b600090505b865181101561161f57868181518110151561158357fe5b9060200101517f010000000000000000000000000000000000000000000000000000000000000090047f01000000000000000000000000000000000000000000000000000000000000000283838060010194508151811015156115e257fe5b9060200101907effffffffffffffffffffffffffffffffffffffffffffffffffffffffffffff1916908160001a905350808060010191505061156c565b600090505b85518110156116d757858181518110151561163b57fe5b9060200101517f010000000000000000000000000000000000000000000000000000000000000090047f010000000000000000000000000000000000000000000000000000000000000002838380600101945081518110151561169a57fe5b9060200101907effffffffffffffffffffffffffffffffffffffffffffffffffffffffffffff1916908160001a9053508080600101915050611624565b600090505b845181101561178f5784818151811015156116f357fe5b9060200101517f010000000000000000000000000000000000000000000000000000000000000090047f010000000000000000000000000000000000000000000000000000000000000002838380600101945081518110151561175257fe5b9060200101907effffffffffffffffffffffffffffffffffffffffffffffffffffffffffffff1916908160001a90535080806001019150506116dc565b82995050505050505050505095945050505050565b60008060008060009054906101000a900473ffffffffffffffffffffffffffffffffffffffff1673ffffffffffffffffffffffffffffffffffffffff161480611816575060006118146000809054906101000a900473ffffffffffffffffffffffffffffffffffffffff16611d33565b145b15611827576118256000611d3e565b505b6000809054906101000a900473ffffffffffffffffffffffffffffffffffffffff1673ffffffffffffffffffffffffffffffffffffffff166338cc48316000604051602001526040518163ffffffff167c0100000000000000000000000000000000000000000000000000000000028152600401602060405180830381600087803b15156118b457600080fd5b6102c65a03f115156118c557600080fd5b5050506040518051905073ffffffffffffffffffffffffffffffffffffffff16600160009054906101000a900473ffffffffffffffffffffffffffffffffffffffff1673ffffffffffffffffffffffffffffffffffffffff16141515611a0e576000809054906101000a900473ffffffffffffffffffffffffffffffffffffffff1673ffffffffffffffffffffffffffffffffffffffff166338cc48316000604051602001526040518163ffffffff167c0100000000000000000000000000000000000000000000000000000000028152600401602060405180830381600087803b15156119b257600080fd5b6102c65a03f115156119c357600080fd5b50505060405180519050600160006101000a81548173ffffffffffffffffffffffffffffffffffffffff021916908373ffffffffffffffffffffffffffffffffffffffff1602179055505b600160009054906101000a900473ffffffffffffffffffffffffffffffffffffffff1673ffffffffffffffffffffffffffffffffffffffff1663524f3889856000604051602001526040518263ffffffff167c01000000000000000000000000000000000000000000000000000000000281526004018080602001828103825283818151815260200191508051906020019080838360005b83811015611ac1578082015181840152602081019050611aa6565b50505050905090810190601f168015611aee5780820380516001836020036101000a031916815260200191505b5092505050602060405180830381600087803b1515611b0c57600080fd5b6102c65a03f11515611b1d57600080fd5b50505060405180519050905062030d403a02670de0b6b3a764000001811115611b4c5760006001029150611cdf565b600160009054906101000a900473ffffffffffffffffffffffffffffffffffffffff1673ffffffffffffffffffffffffffffffffffffffff1663adf59f9982600087876000604051602001526040518563ffffffff167c0100000000000000000000000000000000000000000000000000000000028152600401808481526020018060200180602001838103835285818151815260200191508051906020019080838360005b83811015611c0d578082015181840152602081019050611bf2565b50505050905090810190601f168015611c3a5780820380516001836020036101000a031916815260200191505b50838103825284818151815260200191508051906020019080838360005b83811015611c73578082015181840152602081019050611c58565b50505050905090810190601f168015611ca05780820380516001836020036101000a031916815260200191505b50955050505050506020604051808303818588803b1515611cc057600080fd5b6125ee5a03f11515611cd157600080fd5b505050506040518051905091505b5092915050565b611cee612cb6565b611d2b838360206040519081016040528060008152506020604051908101604052806000815250602060405190810160405280600081525061136c565b905092915050565b6000813b9050919050565b6000611d4861206a565b9050919050565b611d57612c9c565b6000611d7585600001518660200151866000015187602001516124f9565b90508460200151836020018181525050846020015181038360000181815250508460000151856020015101811415611db7576000856000018181525050611de2565b8360000151836000015101856000018181510391508181525050836000015181018560200181815250505b829150509392505050565b60005b602082101515611e155782518452602084019350602083019250602082039150611df0565b6001826020036101000a0390508019835116818551168181178652505050505050565b6000611e42612c9c565b611e4a612c9c565b611e52612c9c565b611e5a612c9c565b611e62612c9c565b611e6a612c9c565b611e72612c9c565b611e7b8961112a565b9650611ecd611ebe6040805190810160405280600181526020017f540000000000000000000000000000000000000000000000000000000000000081525061112a565b8861115890919063ffffffff16565b9550869450611f24611f136040805190810160405280600181526020017f2d0000000000000000000000000000000000000000000000000000000000000081525061112a565b8588611d4f9092919063ffffffff16565b50611f77611f666040805190810160405280600181526020017f2d0000000000000000000000000000000000000000000000000000000000000081525061112a565b8488611d4f9092919063ffffffff16565b50611fca611fb96040805190810160405280600181526020017f3a0000000000000000000000000000000000000000000000000000000000000081525061112a565b8387611d4f9092919063ffffffff16565b5061201d61200c6040805190810160405280600181526020017f3a0000000000000000000000000000000000000000000000000000000000000081525061112a565b8287611d4f9092919063ffffffff16565b5061205c61202a8561127d565b6120338561127d565b61203c8961127d565b6120458661127d565b61204e8661127d565b6120578b61127d565b6125df565b975050505050505050919050565b60008061208a731d3b2638a7cc9f2cb3d298a3da7a90b67e5506ed611d33565b111561212b57731d3b2638a7cc9f2cb3d298a3da7a90b67e5506ed6000806101000a81548173ffffffffffffffffffffffffffffffffffffffff021916908373ffffffffffffffffffffffffffffffffffffffff1602179055506121226040805190810160405280600b81526020017f6574685f6d61696e6e657400000000000000000000000000000000000000000081525061264c565b600190506124f6565b600061214a73c03a2615d5efaf5f49f60b7bb6583eaec212fdf1611d33565b11156121eb5773c03a2615d5efaf5f49f60b7bb6583eaec212fdf16000806101000a81548173ffffffffffffffffffffffffffffffffffffffff021916908373ffffffffffffffffffffffffffffffffffffffff1602179055506121e26040805190810160405280600c81526020017f6574685f726f707374656e33000000000000000000000000000000000000000081525061264c565b600190506124f6565b600061220a73b7a07bcf2ba2f2703b24c0691b5278999c59ac7e611d33565b11156122ab5773b7a07bcf2ba2f2703b24c0691b5278999c59ac7e6000806101000a81548173ffffffffffffffffffffffffffffffffffffffff021916908373ffffffffffffffffffffffffffffffffffffffff1602179055506122a26040805190810160405280600981526020017f6574685f6b6f76616e000000000000000000000000000000000000000000000081525061264c565b600190506124f6565b60006122ca73146500cfd35b22e4a392fe0adc06de1a1368ed48611d33565b111561236b5773146500cfd35b22e4a392fe0adc06de1a1368ed486000806101000a81548173ffffffffffffffffffffffffffffffffffffffff021916908373ffffffffffffffffffffffffffffffffffffffff1602179055506123626040805190810160405280600b81526020017f6574685f72696e6b65627900000000000000000000000000000000000000000081525061264c565b600190506124f6565b600061238a736f485c8bf6fc43ea212e93bbf8ce046c7f1cb475611d33565b11156123ed57736f485c8bf6fc43ea212e93bbf8ce046c7f1cb4756000806101000a81548173ffffffffffffffffffffffffffffffffffffffff021916908373ffffffffffffffffffffffffffffffffffffffff160217905550600190506124f6565b600061240c7320e12a1f859b3feae5fb2a0a32c18f5a65555bbf611d33565b111561246f577320e12a1f859b3feae5fb2a0a32c18f5a65555bbf6000806101000a81548173ffffffffffffffffffffffffffffffffffffffff021916908373ffffffffffffffffffffffffffffffffffffffff160217905550600190506124f6565b600061248e7351efaf4c8b3c9afbd5ab9f4bbc82784ab6ef8faa611d33565b11156124f1577351efaf4c8b3c9afbd5ab9f4bbc82784ab6ef8faa6000806101000a81548173ffffffffffffffffffffffffffffffffffffffff021916908373ffffffffffffffffffffffffffffffffffffffff160217905550600190506124f6565b600090505b90565b60008060008060008060008060008b97508c8b1115156125c95760208b1115156125835760018b60200360080260020a03196001029550858a511694508a8d8d010393508588511692505b8460001916836000191614151561257b578388101515612568578c8c0198506125cf565b8780600101985050858851169250612544565b8798506125cf565b8a8a209150600096505b8a8d03871115156125c8578a882090508060001916826000191614156125b5578798506125cf565b600188019750868060010197505061258d565b5b8c8c0198505b5050505050505050949350505050565b60008060008060008060006125f38d612666565b95506125fe8c612666565b94506126098b612666565b93506126148a612666565b925061261f89612666565b915061262a88612666565b905061263a86868686868661267a565b96505050505050509695505050505050565b8060029080519060200190612662929190612d4a565b5050565b6000612673826000612921565b9050919050565b600080612685612dde565b6107b291505b8861ffff168261ffff1610156126ce576126a482612c1b565b156126b7576301e28500830192506126c1565b6301e13380830192505b818060010192505061268b565b601f816000600c811015156126df57fe5b602002019060ff16908160ff16815250506126f989612c1b565b1561272557601d816001600c8110151561270f57fe5b602002019060ff16908160ff1681525050612748565b601c816001600c8110151561273657fe5b602002019060ff16908160ff16815250505b601f816002600c8110151561275957fe5b602002019060ff16908160ff1681525050601e816003600c8110151561277b57fe5b602002019060ff16908160ff1681525050601f816004600c8110151561279d57fe5b602002019060ff16908160ff1681525050601e816005600c811015156127bf57fe5b602002019060ff16908160ff1681525050601f816006600c811015156127e157fe5b602002019060ff16908160ff1681525050601f816007600c8110151561280357fe5b602002019060ff16908160ff1681525050601e816008600c8110151561282557fe5b602002019060ff16908160ff1681525050601f816009600c8110151561284757fe5b602002019060ff16908160ff1681525050601e81600a600c8110151561286957fe5b602002019060ff16908160ff1681525050601f81600b600c8110151561288b57fe5b602002019060ff16908160ff1681525050600191505b8760ff168261ffff1610156128e357806001830361ffff16600c811015156128c557fe5b602002015160ff1662015180028301925081806001019250506128a1565b6001870360ff166201518002830192508560ff16610e1002830192508460ff16603c02830192508360ff168301925082925050509695505050505050565b600061292b612dca565b60008060008693506000925060009150600090505b8351811015612bfc5760307f010000000000000000000000000000000000000000000000000000000000000002848281518110151561297b57fe5b9060200101517f010000000000000000000000000000000000000000000000000000000000000090047f0100000000000000000000000000000000000000000000000000000000000000027effffffffffffffffffffffffffffffffffffffffffffffffffffffffffffff191610158015612a93575060397f0100000000000000000000000000000000000000000000000000000000000000028482815181101515612a2357fe5b9060200101517f010000000000000000000000000000000000000000000000000000000000000090047f0100000000000000000000000000000000000000000000000000000000000000027effffffffffffffffffffffffffffffffffffffffffffffffffffffffffffff191611155b15612b44578115612ab6576000861415612aac57612bfc565b8580600190039650505b600a8302925060308482815181101515612acc57fe5b9060200101517f010000000000000000000000000000000000000000000000000000000000000090047f0100000000000000000000000000000000000000000000000000000000000000027f010000000000000000000000000000000000000000000000000000000000000090040383019250612bef565b602e7f0100000000000000000000000000000000000000000000000000000000000000028482815181101515612b7657fe5b9060200101517f010000000000000000000000000000000000000000000000000000000000000090047f0100000000000000000000000000000000000000000000000000000000000000027effffffffffffffffffffffffffffffffffffffffffffffffffffffffffffff19161415612bee57600191505b5b8080600101915050612940565b6000861115612c0e5785600a0a830292505b8294505050505092915050565b60008060048361ffff16811515612c2e57fe5b0661ffff16141515612c435760009050612c97565b600060648361ffff16811515612c5557fe5b0661ffff16141515612c6a5760019050612c97565b60006101908361ffff16811515612c7d57fe5b0661ffff16141515612c925760009050612c97565b600190505b919050565b604080519081016040528060008152602001600081525090565b602060405190810160405280600081525090565b828054600181600116156101000203166002900490600052602060002090601f016020900481019282601f10612d0b57805160ff1916838001178555612d39565b82800160010185558215612d39579182015b82811115612d38578251825591602001919060010190612d1d565b5b509050612d469190612e0a565b5090565b828054600181600116156101000203166002900490600052602060002090601f016020900481019282601f10612d8b57805160ff1916838001178555612db9565b82800160010185558215612db9579182015b82811115612db8578251825591602001919060010190612d9d565b5b509050612dc69190612e0a565b5090565b602060405190810160405280600081525090565b61018060405190810160405280600c905b600060ff16815260200190600190039081612def5790505090565b612e2c91905b80821115612e28576000816000905550600101612e10565b5090565b905600a165627a7a723058206b2d9ea79edf12e14be811b42732c9e4fd391b258e3f6065084b81d3c530c3fa0029",
  "source": "pragma solidity ^0.4.18;\nimport \"../../installed_contracts/ethereum-api/oraclizeAPI_0.5.sol\";\nimport \"../../installed_contracts/solidity-stringutils/strings.sol\";\nimport \"./Utility.sol\";\n\n/** @title DelayOracle smart contract. */\ncontract DelayOracle is usingOraclize {\n    using strings for *;\n    string private key;\n    struct Info {\n        string arrScheduled;\n        string arrActual;\n        int delays;\n        bool isDelay;\n    }\n    struct Record {\n        string record;\n        bool isValue;\n    }\n    bytes32 public queryID;\n    string public queryStr1;\n    mapping(bytes32=>Record) public queryRecords;\n    mapping(bytes32=>Info) public results;\n    // string public results;\n    event LogDelayInfoUpdated(string condition);\n    event LogNewOraclizeQuery(string description);\n    function DelayOracle(string _key) public {\n        key = _key;\n    }\n    function() public payable { \n    }\n    function __callback(bytes32 queryId, string result) public {\n        require(msg.sender == oraclize_cbAddress());\n        require(queryRecords[queryId].isValue);\n\n        var s = result.toSlice();\n        var d = s.split(\", \".toSlice());\n        d = d.beyond(\"[\\\"\".toSlice());\n        d = d.until(\"\\\"\".toSlice());\n        string memory _arrScheduled = d.toString();\n        s = s.until(\"\\\"]\".toSlice());\n        string memory _arrActual = s.beyond(\"\\\"\".toSlice()).toString();\n        var (, , delays, isDelay) = checkDelay(_arrScheduled, _arrActual);\n        results[keccak256(queryRecords[queryId].record)] = \n            Info({arrScheduled: _arrScheduled, arrActual: _arrActual, delays: delays, isDelay: isDelay });\n        LogDelayInfoUpdated(queryRecords[queryId].record);\n        \n    }\n    function checkDelay(string _arrScheduled, string _arrActual) internal returns (uint scheduledM, uint acrualM, int delays, bool isDelay){\n        uint aReturn = Utility.getDatetime(_arrScheduled);\n        uint bReturn = Utility.getDatetime(_arrActual);\n        delays = int(bReturn - aReturn);\n        if (delays > 3600) {\n            isDelay = true;\n        } else {\n            isDelay = false;\n        }\n        return (aReturn, bReturn, delays, isDelay);\n    }\n    // function getDatetime(string scheduled) internal returns (uint) {\n    //     var a = scheduled.toSlice();\n    //     var aDate = a.split(\"T\".toSlice());\n    //     var aTime = a;\n    //     strings.slice memory part;\n    //     string memory aYear = aDate.split(\"-\".toSlice(), part).toString();\n    //     string memory aMonth = aDate.split(\"-\".toSlice(), part).toString();\n    //     string memory aDay = aDate.split(\"-\".toSlice(), part).toString();\n    //     string memory aHour = aTime.split(\":\".toSlice(), part).toString();\n    //     string memory aMinute = aTime.split(\":\".toSlice(), part).toString();\n    //     string memory aSecond = aTime.split(\":\".toSlice(), part).toString();\n    //     uint aReturn = getDate(aYear, aMonth, aDay);\n    //     aReturn += getTime(aHour, aMinute, aSecond);\n    //     return aReturn;\n    // }\n    // function getDate(string year, string month, string day) internal pure returns (uint) {\n    //     uint aIntYear = parseInt(year);\n    //     uint aIntMonth = parseInt(month);\n    //     uint aIntDay = parseInt(day);\n    //     return aIntYear * 1 years + aIntMonth * 30 days  + aIntDay * 1 days;\n    // }\n    // function getTime(string hour, string minute, string second) internal pure returns (uint) {\n    //     uint aIntHour = parseInt(hour);\n    //     uint aIntMinute = parseInt(minute);\n    //     uint aIntSecond = parseInt(second);\n    //     return aIntHour * 1 hours + aIntMinute * 1 minutes + aIntSecond;\n    // }\n    /** @dev query delay info \n      * @param flightNo \n      * @param flightDate \n      */\n    function query(string flightNo, string flightDate) public payable {\n        // require(this.balance > oraclize_getPrice(\"URL\"));\n        string memory a = \"json(https://op.juhe.cn/flight/df/hfs?dtype=&flightNo=\";\n        string memory b = \"&flightDate=\";\n        string memory end = \").result[ArrScheduled, ArrActual]\";\n        string memory c = strConcat(\"&key=\", key, end);\n        string memory queryStr = strConcat(a, flightNo, b, flightDate, c);\n        queryStr1 = queryStr;\n        bytes32 queryId = oraclize_query(\"URL\", queryStr);\n        // bytes32 queryId = oraclize_query(\"URL\", \"json(https://api.kraken.com/0/public/Ticker?pair=ETHXBT).result.XETHXXBT.c.0\");\n        queryID = queryId;\n        LogNewOraclizeQuery(\"Oraclize query was sent, standing by for the answer..\");\n        queryRecords[queryId] = Record({record: strConcat(flightNo, flightDate), isValue: true});\n    }\n}",
  "sourcePath": "/Users/hanting/workspace/ethereum/truffle/huibaoSC/contracts/common/DelayOracle.sol",
  "compiler": {
    "name": "solc",
    "version": "0.4.18+commit.9cf6e910.Emscripten.clang"
  },
  "schemaVersion": "1.0.1",
  "updatedAt": "2018-05-08T05:36:47.132Z"
}