{
  "contractName": "FlightDelay",
  "abi": [
    {
      "constant": false,
      "inputs": [
        {
          "name": "flightNO",
          "type": "string"
        },
        {
          "name": "flightDate",
          "type": "string"
        }
      ],
      "name": "joinFlight",
      "outputs": [],
      "payable": false,
      "stateMutability": "nonpayable",
      "type": "function"
    },
    {
      "constant": false,
      "inputs": [
        {
          "name": "_interval",
          "type": "uint256"
        }
      ],
      "name": "setInterval",
      "outputs": [],
      "payable": false,
      "stateMutability": "nonpayable",
      "type": "function"
    },
    {
      "constant": true,
      "inputs": [
        {
          "name": "_sfIndex",
          "type": "bytes32"
        }
      ],
      "name": "getSFCount",
      "outputs": [
        {
          "name": "",
          "type": "uint256"
        }
      ],
      "payable": false,
      "stateMutability": "view",
      "type": "function"
    },
    {
      "constant": true,
      "inputs": [
        {
          "name": "flightDate",
          "type": "string"
        },
        {
          "name": "sfIndex",
          "type": "bytes32"
        },
        {
          "name": "tokenCount",
          "type": "uint256"
        }
      ],
      "name": "joinCheck",
      "outputs": [
        {
          "name": "",
          "type": "uint256"
        }
      ],
      "payable": false,
      "stateMutability": "view",
      "type": "function"
    },
    {
      "constant": true,
      "inputs": [],
      "name": "getFlightSts",
      "outputs": [
        {
          "name": "",
          "type": "uint256"
        }
      ],
      "payable": false,
      "stateMutability": "view",
      "type": "function"
    },
    {
      "constant": true,
      "inputs": [
        {
          "name": "flightNO",
          "type": "string"
        }
      ],
      "name": "getPrice",
      "outputs": [
        {
          "name": "",
          "type": "uint256"
        }
      ],
      "payable": false,
      "stateMutability": "view",
      "type": "function"
    },
    {
      "constant": true,
      "inputs": [
        {
          "name": "_sfIndex",
          "type": "bytes32"
        }
      ],
      "name": "checkCanEndByVote",
      "outputs": [
        {
          "name": "canEnd",
          "type": "bool"
        }
      ],
      "payable": false,
      "stateMutability": "view",
      "type": "function"
    },
    {
      "constant": false,
      "inputs": [],
      "name": "emergencyStop",
      "outputs": [],
      "payable": false,
      "stateMutability": "nonpayable",
      "type": "function"
    },
    {
      "constant": true,
      "inputs": [],
      "name": "stopped",
      "outputs": [
        {
          "name": "",
          "type": "bool"
        }
      ],
      "payable": false,
      "stateMutability": "view",
      "type": "function"
    },
    {
      "constant": true,
      "inputs": [],
      "name": "owner",
      "outputs": [
        {
          "name": "",
          "type": "address"
        }
      ],
      "payable": false,
      "stateMutability": "view",
      "type": "function"
    },
    {
      "constant": true,
      "inputs": [],
      "name": "interval",
      "outputs": [
        {
          "name": "",
          "type": "uint256"
        }
      ],
      "payable": false,
      "stateMutability": "view",
      "type": "function"
    },
    {
      "constant": true,
      "inputs": [],
      "name": "maxCount",
      "outputs": [
        {
          "name": "",
          "type": "uint256"
        }
      ],
      "payable": false,
      "stateMutability": "view",
      "type": "function"
    },
    {
      "constant": false,
      "inputs": [
        {
          "name": "count",
          "type": "uint256"
        }
      ],
      "name": "setMaxCount",
      "outputs": [],
      "payable": false,
      "stateMutability": "nonpayable",
      "type": "function"
    },
    {
      "constant": false,
      "inputs": [
        {
          "name": "flightNO",
          "type": "string"
        },
        {
          "name": "flightDate",
          "type": "string"
        },
        {
          "name": "votedSfIndex",
          "type": "bytes32"
        },
        {
          "name": "vote",
          "type": "uint8"
        }
      ],
      "name": "joinFlightByVote",
      "outputs": [],
      "payable": false,
      "stateMutability": "nonpayable",
      "type": "function"
    },
    {
      "constant": true,
      "inputs": [],
      "name": "testOK",
      "outputs": [
        {
          "name": "",
          "type": "uint256"
        }
      ],
      "payable": false,
      "stateMutability": "view",
      "type": "function"
    },
    {
      "constant": false,
      "inputs": [],
      "name": "start",
      "outputs": [],
      "payable": false,
      "stateMutability": "nonpayable",
      "type": "function"
    },
    {
      "constant": false,
      "inputs": [
        {
          "name": "newOwner",
          "type": "address"
        }
      ],
      "name": "transferOwnership",
      "outputs": [],
      "payable": false,
      "stateMutability": "nonpayable",
      "type": "function"
    },
    {
      "inputs": [
        {
          "name": "hbsAddress",
          "type": "address"
        },
        {
          "name": "tokenAddress",
          "type": "address"
        }
      ],
      "payable": false,
      "stateMutability": "nonpayable",
      "type": "constructor"
    },
    {
      "anonymous": false,
      "inputs": [
        {
          "indexed": false,
          "name": "flightNO",
          "type": "string"
        },
        {
          "indexed": false,
          "name": "flightDate",
          "type": "string"
        },
        {
          "indexed": false,
          "name": "user",
          "type": "address"
        }
      ],
      "name": "UserJoin",
      "type": "event"
    },
    {
      "anonymous": false,
      "inputs": [
        {
          "indexed": true,
          "name": "previousOwner",
          "type": "address"
        },
        {
          "indexed": true,
          "name": "newOwner",
          "type": "address"
        }
      ],
      "name": "OwnershipTransferred",
      "type": "event"
    }
  ],
  "bytecode": "0x606060405260186004556096600555341561001957600080fd5b604051604080612cfd8339810160405280805190602001909190805190602001909190505033336000806101000a81548173ffffffffffffffffffffffffffffffffffffffff021916908373ffffffffffffffffffffffffffffffffffffffff16021790555080600160006101000a81548173ffffffffffffffffffffffffffffffffffffffff021916908373ffffffffffffffffffffffffffffffffffffffff1602179055506000600160146101000a81548160ff0219169083151502179055505081600260006101000a81548173ffffffffffffffffffffffffffffffffffffffff021916908373ffffffffffffffffffffffffffffffffffffffff16021790555080600360006101000a81548173ffffffffffffffffffffffffffffffffffffffff021916908373ffffffffffffffffffffffffffffffffffffffff1602179055505050612b8e8061016f6000396000f3006060604052600436106100f1576000357c0100000000000000000000000000000000000000000000000000000000900463ffffffff1680631b33a162146100f657806322a90082146101385780632a9e90b91461015b5780632eac8f68146101965780634f0c6d741461021d578063524f3889146102465780635d1ca4fb146102b757806363a599a4146102f657806375f12b211461030b5780638da5cb5b14610338578063947a36fb1461038d5780639ef2d87a146103b6578063a35e617f146103df578063af3fc20814610402578063b325deae146104bb578063be9a6555146104e4578063f2fde38b146104f9575b600080fd5b341561010157600080fd5b610136600480803590602001908201803590602001919091929080359060200190820180359060200191909192905050610532565b005b341561014357600080fd5b61015960048080359060200190919050506105c5565b005b341561016657600080fd5b61018060048080356000191690602001909190505061062a565b6040518082815260200191505060405180910390f35b34156101a157600080fd5b610207600480803590602001908201803590602001908080601f01602080910402602001604051908101604052809392919081815260200183838082843782019150505050505091908035600019169060200190919080359060200190919050506106ef565b6040518082815260200191505060405180910390f35b341561022857600080fd5b610230610abe565b6040518082815260200191505060405180910390f35b341561025157600080fd5b6102a1600480803590602001908201803590602001908080601f01602080910402602001604051908101604052809392919081815260200183838082843782019150505050505091905050610ac7565b6040518082815260200191505060405180910390f35b34156102c257600080fd5b6102dc600480803560001916906020019091905050610ad2565b604051808215151515815260200191505060405180910390f35b341561030157600080fd5b610309610db5565b005b341561031657600080fd5b61031e610e2d565b604051808215151515815260200191505060405180910390f35b341561034357600080fd5b61034b610e40565b604051808273ffffffffffffffffffffffffffffffffffffffff1673ffffffffffffffffffffffffffffffffffffffff16815260200191505060405180910390f35b341561039857600080fd5b6103a0610e65565b6040518082815260200191505060405180910390f35b34156103c157600080fd5b6103c9610e6b565b6040518082815260200191505060405180910390f35b34156103ea57600080fd5b6104006004808035906020019091905050610e71565b005b341561040d57600080fd5b6104b9600480803590602001908201803590602001908080601f0160208091040260200160405190810160405280939291908181526020018383808284378201915050505050509190803590602001908201803590602001908080601f016020809104026020016040519081016040528093929190818152602001838380828437820191505050505050919080356000191690602001909190803560ff16906020019091905050610ed6565b005b34156104c657600080fd5b6104ce611727565b6040518082815260200191505060405180910390f35b34156104ef57600080fd5b6104f761172d565b005b341561050457600080fd5b610530600480803573ffffffffffffffffffffffffffffffffffffffff169060200190919050506117a6565b005b600160149054906101000a900460ff1615151561054e57600080fd5b6105bf84848080601f01602080910402602001604051908101604052809392919081815260200183838082843782019150505050505083838080601f016020809104026020016040519081016040528093929190818152602001838380828437820191505050505050600080610ed6565b50505050565b6000809054906101000a900473ffffffffffffffffffffffffffffffffffffffff1673ffffffffffffffffffffffffffffffffffffffff163373ffffffffffffffffffffffffffffffffffffffff1614151561062057600080fd5b8060048190555050565b6000600260009054906101000a900473ffffffffffffffffffffffffffffffffffffffff1673ffffffffffffffffffffffffffffffffffffffff16632a9e90b9836000604051602001526040518263ffffffff167c0100000000000000000000000000000000000000000000000000000000028152600401808260001916600019168152602001915050602060405180830381600087803b15156106cd57600080fd5b6102c65a03f115156106de57600080fd5b505050604051805190509050919050565b6000806106fb856118fb565b151561070a5760019150610ab6565b61071685600454611bb9565b15156107255760029150610ab6565b600554600260009054906101000a900473ffffffffffffffffffffffffffffffffffffffff1673ffffffffffffffffffffffffffffffffffffffff16632a9e90b9866000604051602001526040518263ffffffff167c0100000000000000000000000000000000000000000000000000000000028152600401808260001916600019168152602001915050602060405180830381600087803b15156107c957600080fd5b6102c65a03f115156107da57600080fd5b50505060405180519050111515156107f55760039150610ab6565b600260009054906101000a900473ffffffffffffffffffffffffffffffffffffffff1673ffffffffffffffffffffffffffffffffffffffff1663995a3dee856000604051602001526040518263ffffffff167c0100000000000000000000000000000000000000000000000000000000028152600401808260001916600019168152602001915050602060405180830381600087803b151561089657600080fd5b6102c65a03f115156108a757600080fd5b5050506040518051905015156108c05760049150610ab6565b600260009054906101000a900473ffffffffffffffffffffffffffffffffffffffff1673ffffffffffffffffffffffffffffffffffffffff16634adaaf1f85336000604051602001526040518363ffffffff167c01000000000000000000000000000000000000000000000000000000000281526004018083600019166000191681526020018273ffffffffffffffffffffffffffffffffffffffff1673ffffffffffffffffffffffffffffffffffffffff16815260200192505050602060405180830381600087803b151561099557600080fd5b6102c65a03f115156109a657600080fd5b50505060405180519050905080156109c15760059150610ab6565b82600360009054906101000a900473ffffffffffffffffffffffffffffffffffffffff1673ffffffffffffffffffffffffffffffffffffffff166370a08231336000604051602001526040518263ffffffff167c0100000000000000000000000000000000000000000000000000000000028152600401808273ffffffffffffffffffffffffffffffffffffffff1673ffffffffffffffffffffffffffffffffffffffff168152602001915050602060405180830381600087803b1515610a8757600080fd5b6102c65a03f11515610a9857600080fd5b505050604051805190501015610ab15760069150610ab6565b600091505b509392505050565b6000601e905090565b6000601e9050919050565b600080600080600080600080600260009054906101000a900473ffffffffffffffffffffffffffffffffffffffff1673ffffffffffffffffffffffffffffffffffffffff1663385afd8c8a600060405161012001526040518263ffffffff167c010000000000000000000000000000000000000000000000000000000002815260040180826000191660001916815260200191505061012060405180830381600087803b1515610b8157600080fd5b6102c65a03f11515610b9257600080fd5b50505060405180519060200180519060200180519060200180519060200180519060200180519060200180519060200180519060200180519050505050965096509650965096509650610c2483610c1686610c0889610bfa8c8e611d8590919063ffffffff16565b611d8590919063ffffffff16565b611d8590919063ffffffff16565b611d8590919063ffffffff16565b9050600260009054906101000a900473ffffffffffffffffffffffffffffffffffffffff1673ffffffffffffffffffffffffffffffffffffffff166340c4af4c6000604051602001526040518163ffffffff167c0100000000000000000000000000000000000000000000000000000000028152600401602060405180830381600087803b1515610cb457600080fd5b6102c65a03f11515610cc557600080fd5b50505060405180519050610ce28343611da390919063ffffffff16565b118015610d965750600260009054906101000a900473ffffffffffffffffffffffffffffffffffffffff1673ffffffffffffffffffffffffffffffffffffffff166348a44eb86000604051602001526040518163ffffffff167c0100000000000000000000000000000000000000000000000000000000028152600401602060405180830381600087803b1515610d7857600080fd5b6102c65a03f11515610d8957600080fd5b5050506040518051905081115b15610da45760019750610da9565b600097505b50505050505050919050565b600160009054906101000a900473ffffffffffffffffffffffffffffffffffffffff1673ffffffffffffffffffffffffffffffffffffffff163373ffffffffffffffffffffffffffffffffffffffff16141515610e1157600080fd5b60018060146101000a81548160ff021916908315150217905550565b600160149054906101000a900460ff1681565b6000809054906101000a900473ffffffffffffffffffffffffffffffffffffffff1681565b60045481565b60055481565b6000809054906101000a900473ffffffffffffffffffffffffffffffffffffffff1673ffffffffffffffffffffffffffffffffffffffff163373ffffffffffffffffffffffffffffffffffffffff16141515610ecc57600080fd5b8060058190555050565b6000806000600160149054906101000a900460ff16151515610ef757600080fd5b610f018787611dbc565b6040518082805190602001908083835b602083101515610f365780518252602082019150602081019050602083039250610f11565b6001836020036101000a03801982511681845116808217855250505050505090500191505060405180910390209250610f6e87610ac7565b9150670de0b6b3a7640000820290506000610f8a8785846106ef565b141515610f9657600080fd5b600360009054906101000a900473ffffffffffffffffffffffffffffffffffffffff1673ffffffffffffffffffffffffffffffffffffffff166323b872dd3330846000604051602001526040518463ffffffff167c0100000000000000000000000000000000000000000000000000000000028152600401808473ffffffffffffffffffffffffffffffffffffffff1673ffffffffffffffffffffffffffffffffffffffff1681526020018373ffffffffffffffffffffffffffffffffffffffff1673ffffffffffffffffffffffffffffffffffffffff1681526020018281526020019350505050602060405180830381600087803b151561109757600080fd5b6102c65a03f115156110a857600080fd5b5050506040518051905015156110bd57600080fd5b600260009054906101000a900473ffffffffffffffffffffffffffffffffffffffff1673ffffffffffffffffffffffffffffffffffffffff1663f0b2801a848989338a8a896040518863ffffffff167c010000000000000000000000000000000000000000000000000000000002815260040180886000191660001916815260200180602001806020018773ffffffffffffffffffffffffffffffffffffffff1673ffffffffffffffffffffffffffffffffffffffff168152602001866000191660001916815260200185600481111561119357fe5b60ff168152602001848152602001838103835289818151815260200191508051906020019080838360005b838110156111d95780820151818401526020810190506111be565b50505050905090810190601f1680156112065780820380516001836020036101000a031916815260200191505b50838103825288818151815260200191508051906020019080838360005b8381101561123f578082015181840152602081019050611224565b50505050905090810190601f16801561126c5780820380516001836020036101000a031916815260200191505b509950505050505050505050600060405180830381600087803b151561129157600080fd5b6102c65a03f115156112a257600080fd5b5050506000801916856000191614151561146857600260009054906101000a900473ffffffffffffffffffffffffffffffffffffffff1673ffffffffffffffffffffffffffffffffffffffff166316ff98c886866040518363ffffffff167c010000000000000000000000000000000000000000000000000000000002815260040180836000191660001916815260200182600481111561133f57fe5b60ff16815260200192505050600060405180830381600087803b151561136457600080fd5b6102c65a03f1151561137557600080fd5b50505061138183610ad2565b1561146757600260009054906101000a900473ffffffffffffffffffffffffffffffffffffffff1673ffffffffffffffffffffffffffffffffffffffff1663b8dbf2b884336040518363ffffffff167c01000000000000000000000000000000000000000000000000000000000281526004018083600019166000191681526020018273ffffffffffffffffffffffffffffffffffffffff1673ffffffffffffffffffffffffffffffffffffffff16815260200192505050600060405180830381600087803b151561145257600080fd5b6102c65a03f1151561146357600080fd5b5050505b5b43600681905550600554600260009054906101000a900473ffffffffffffffffffffffffffffffffffffffff1673ffffffffffffffffffffffffffffffffffffffff16632a9e90b9856000604051602001526040518263ffffffff167c0100000000000000000000000000000000000000000000000000000000028152600401808260001916600019168152602001915050602060405180830381600087803b151561151357600080fd5b6102c65a03f1151561152457600080fd5b5050506040518051905014156115e157600260009054906101000a900473ffffffffffffffffffffffffffffffffffffffff1673ffffffffffffffffffffffffffffffffffffffff1663a1b73fff846040518263ffffffff167c0100000000000000000000000000000000000000000000000000000000028152600401808260001916600019168152602001915050600060405180830381600087803b15156115cc57600080fd5b6102c65a03f115156115dd57600080fd5b5050505b7fe9aa992feb3d97652f279bc0f27592cf2381843b8e6815dfa897b6ba1c66edd78787336040518080602001806020018473ffffffffffffffffffffffffffffffffffffffff1673ffffffffffffffffffffffffffffffffffffffff168152602001838103835286818151815260200191508051906020019080838360005b8381101561167b578082015181840152602081019050611660565b50505050905090810190601f1680156116a85780820380516001836020036101000a031916815260200191505b50838103825285818151815260200191508051906020019080838360005b838110156116e15780820151818401526020810190506116c6565b50505050905090810190601f16801561170e5780820380516001836020036101000a031916815260200191505b509550505050505060405180910390a150505050505050565b60065481565b600160009054906101000a900473ffffffffffffffffffffffffffffffffffffffff1673ffffffffffffffffffffffffffffffffffffffff163373ffffffffffffffffffffffffffffffffffffffff1614151561178957600080fd5b6000600160146101000a81548160ff021916908315150217905550565b6000809054906101000a900473ffffffffffffffffffffffffffffffffffffffff1673ffffffffffffffffffffffffffffffffffffffff163373ffffffffffffffffffffffffffffffffffffffff1614151561180157600080fd5b600073ffffffffffffffffffffffffffffffffffffffff168173ffffffffffffffffffffffffffffffffffffffff161415151561183d57600080fd5b8073ffffffffffffffffffffffffffffffffffffffff166000809054906101000a900473ffffffffffffffffffffffffffffffffffffffff1673ffffffffffffffffffffffffffffffffffffffff167f8be0079c531659141344cd1fd0a4f28419497f9722a3daafe3b4186f6b6457e060405160405180910390a3806000806101000a81548173ffffffffffffffffffffffffffffffffffffffff021916908373ffffffffffffffffffffffffffffffffffffffff16021790555050565b6000611905612af4565b61190d612af4565b611915612af4565b61191d612af4565b60008060008061192c8a611def565b975061198061196f6040805190810160405280600181526020017f2d00000000000000000000000000000000000000000000000000000000000000815250611def565b888a611e1d9092919063ffffffff16565b506119d36119c26040805190810160405280600181526020017f2d00000000000000000000000000000000000000000000000000000000000000815250611def565b878a611e1d9092919063ffffffff16565b50611a24611a156040805190810160405280600181526020017f3000000000000000000000000000000000000000000000000000000000000000815250611def565b87611ebb90919063ffffffff16565b50611a75611a666040805190810160405280600181526020017f3000000000000000000000000000000000000000000000000000000000000000815250611def565b89611ebb90919063ffffffff16565b9450611a88611a8388611f45565b611fa3565b93506107e2841015611a9d5760009850611bac565b611aae611aa987611f45565b611fa3565b9250600c831180611abf5750600083145b15611acd5760009850611bac565b611ad78484611fb7565b9150611aea611ae586611f45565b611fa3565b905081811180611afa5750600081145b15611b085760009850611bac565b6000611b2d611b1e611b1987612041565b611def565b8961219390919063ffffffff16565b141515611b3d5760009850611bac565b6000611b62611b53611b4e86612041565b611def565b8861219390919063ffffffff16565b141515611b725760009850611bac565b6000611b97611b88611b8384612041565b611def565b8761219390919063ffffffff16565b141515611ba75760009850611bac565b600198505b5050505050505050919050565b6000611bc3612af4565b611bcb612af4565b611bd3612af4565b6000611bde87611def565b9350611c32611c216040805190810160405280600181526020017f2d00000000000000000000000000000000000000000000000000000000000000815250611def565b8486611e1d9092919063ffffffff16565b50611c85611c746040805190810160405280600181526020017f2d00000000000000000000000000000000000000000000000000000000000000815250611def565b8386611e1d9092919063ffffffff16565b50611d4b611c9284611f45565b611c9b84611f45565b611ca487611f45565b6040805190810160405280600281526020017f30300000000000000000000000000000000000000000000000000000000000008152506040805190810160405280600281526020017f30300000000000000000000000000000000000000000000000000000000000008152506040805190810160405280600281526020017f303000000000000000000000000000000000000000000000000000000000000081525061224d565b90504281111515611d5f5760009450611d7b565b610e1086024282031015611d765760009450611d7b565b600194505b5050505092915050565b6000808284019050838110151515611d9957fe5b8091505092915050565b6000828211151515611db157fe5b818303905092915050565b611dc4612b0e565b611de7611dd083611def565b611dd985611def565b6122ba90919063ffffffff16565b905092915050565b611df7612af4565b600060208301905060408051908101604052808451815260200182815250915050919050565b611e25612af4565b6000611e438560000151866020015186600001518760200151612338565b90508460200151836020018181525050846020015181038360000181815250508460000151856020015101811415611e85576000856000018181525050611eb0565b8360000151836000015101856000018181510391508181525050836000015181018560200181815250505b829150509392505050565b611ec3612af4565b6000826000015184600001511015611edd57839150611f3e565b6001905082602001518460200151141515611f0b578251602085015160208501518281208383201493505050505b8015611f3a57826000015184600001818151039150818152505082600001518460200181815101915081815250505b8391505b5092915050565b611f4d612b0e565b611f55612b0e565b60008360000151604051805910611f695750595b9080825280601f01601f19166020018201604052509150602082019050611f99818560200151866000015161241e565b8192505050919050565b6000611fb0826000612469565b9050919050565b60006002821415611fe257611fcb83612763565b15611fd957601d905061203b565b601c905061203b565b6001821480611ff15750600382145b80611ffc5750600582145b806120075750600782145b806120125750600882145b8061201d5750600a82145b806120285750600c82145b1561203657601f905061203b565b601e90505b92915050565b612049612b0e565b600080612054612b22565b60008086141561209b576040805190810160405280600181526020017f3000000000000000000000000000000000000000000000000000000000000000815250945061218a565b8593505b6000841415156120c5578280600101935050600a848115156120bd57fe5b04935061209f565b826040518059106120d35750595b9080825280601f01601f191660200182016040525091506001830390505b60008614151561218657600a8681151561210757fe5b066030017f01000000000000000000000000000000000000000000000000000000000000000282828060019003935081518110151561214257fe5b9060200101907effffffffffffffffffffffffffffffffffffffffffffffffffffffffffffff1916908160001a905350600a8681151561217e57fe5b0495506120f1565b8194505b50505050919050565b60008060008060008060008060008a6000015197508a600001518a6000015110156121c057896000015197505b8a60200151965089602001519550600094505b87851015612231578651935085519250828414151561221a57600185896020030160080260020a031991508183168285160390506000811415156122195780985061223f565b5b6020870196506020860195506020850194506121d3565b89600001518b600001510398505b505050505050505092915050565b60008060008060008060006122618d611fa3565b955061226c8c611fa3565b94506122778b611fa3565b93506122828a611fa3565b925061228d89611fa3565b915061229888611fa3565b90506122a88686868686866127cc565b96505050505050509695505050505050565b6122c2612b0e565b6122ca612b0e565b600083600001518560000151016040518059106122e45750595b9080825280601f01601f19166020018201604052509150602082019050612314818660200151876000015161241e565b61232d856000015182018560200151866000015161241e565b819250505092915050565b60008060008060008060008060008b97508c8b1115156124085760208b1115156123c25760018b60200360080260020a03196001029550858a511694508a8d8d010393508588511692505b846000191683600019161415156123ba5783881015156123a7578c8c01985061240e565b8780600101985050858851169250612383565b87985061240e565b8a8a209150600096505b8a8d0387111515612407578a882090508060001916826000191614156123f45787985061240e565b60018801975086806001019750506123cc565b5b8c8c0198505b5050505050505050949350505050565b60005b6020821015156124465782518452602084019350602083019250602082039150612421565b6001826020036101000a0390508019835116818551168181178652505050505050565b6000612473612b22565b60008060008693506000925060009150600090505b83518110156127445760307f01000000000000000000000000000000000000000000000000000000000000000284828151811015156124c357fe5b9060200101517f010000000000000000000000000000000000000000000000000000000000000090047f0100000000000000000000000000000000000000000000000000000000000000027effffffffffffffffffffffffffffffffffffffffffffffffffffffffffffff1916101580156125db575060397f010000000000000000000000000000000000000000000000000000000000000002848281518110151561256b57fe5b9060200101517f010000000000000000000000000000000000000000000000000000000000000090047f0100000000000000000000000000000000000000000000000000000000000000027effffffffffffffffffffffffffffffffffffffffffffffffffffffffffffff191611155b1561268c5781156125fe5760008614156125f457612744565b8580600190039650505b600a830292506030848281518110151561261457fe5b9060200101517f010000000000000000000000000000000000000000000000000000000000000090047f0100000000000000000000000000000000000000000000000000000000000000027f010000000000000000000000000000000000000000000000000000000000000090040383019250612737565b602e7f01000000000000000000000000000000000000000000000000000000000000000284828151811015156126be57fe5b9060200101517f010000000000000000000000000000000000000000000000000000000000000090047f0100000000000000000000000000000000000000000000000000000000000000027effffffffffffffffffffffffffffffffffffffffffffffffffffffffffffff1916141561273657600191505b5b8080600101915050612488565b60008611156127565785600a0a830292505b8294505050505092915050565b60008060048381151561277257fe5b0614151561278357600090506127c7565b600060648381151561279157fe5b061415156127a257600190506127c7565b6000610190838115156127b157fe5b061415156127c257600090506127c7565b600190505b919050565b6000806127d7612b36565b6107b291505b8861ffff168261ffff161015612820576127f682612a73565b15612809576301e2850083019250612813565b6301e13380830192505b81806001019250506127dd565b601f816000600c8110151561283157fe5b602002019060ff16908160ff168152505061284b89612a73565b1561287757601d816001600c8110151561286157fe5b602002019060ff16908160ff168152505061289a565b601c816001600c8110151561288857fe5b602002019060ff16908160ff16815250505b601f816002600c811015156128ab57fe5b602002019060ff16908160ff1681525050601e816003600c811015156128cd57fe5b602002019060ff16908160ff1681525050601f816004600c811015156128ef57fe5b602002019060ff16908160ff1681525050601e816005600c8110151561291157fe5b602002019060ff16908160ff1681525050601f816006600c8110151561293357fe5b602002019060ff16908160ff1681525050601f816007600c8110151561295557fe5b602002019060ff16908160ff1681525050601e816008600c8110151561297757fe5b602002019060ff16908160ff1681525050601f816009600c8110151561299957fe5b602002019060ff16908160ff1681525050601e81600a600c811015156129bb57fe5b602002019060ff16908160ff1681525050601f81600b600c811015156129dd57fe5b602002019060ff16908160ff1681525050600191505b8760ff168261ffff161015612a3557806001830361ffff16600c81101515612a1757fe5b602002015160ff1662015180028301925081806001019250506129f3565b6001870360ff166201518002830192508560ff16610e1002830192508460ff16603c02830192508360ff168301925082925050509695505050505050565b60008060048361ffff16811515612a8657fe5b0661ffff16141515612a9b5760009050612aef565b600060648361ffff16811515612aad57fe5b0661ffff16141515612ac25760019050612aef565b60006101908361ffff16811515612ad557fe5b0661ffff16141515612aea5760009050612aef565b600190505b919050565b604080519081016040528060008152602001600081525090565b602060405190810160405280600081525090565b602060405190810160405280600081525090565b61018060405190810160405280600c905b600060ff16815260200190600190039081612b4757905050905600a165627a7a723058206cb9d189c664146d241acc6a78550330057bcdcada80c083538a9e0c0b9df6060029",
  "source": "pragma solidity ^0.4.18;\nimport '../node_modules/zeppelin-solidity/contracts/ownership/Ownable.sol';\nimport '../node_modules/zeppelin-solidity/contracts/math/SafeMath.sol';\nimport \"../installed_contracts/solidity-stringutils/strings.sol\";\nimport './common/Stoppable.sol';\nimport './common/HbStorage.sol';\nimport './common/KnotToken.sol';\nimport './common/Utility.sol';\n\n/** @title group smart contract. */\ncontract FlightDelay is Ownable, Stoppable {\n    using strings for *; \n    using SafeMath for uint256;\n    HbStorage hbs;\n    KnotToken token;\n    uint public interval = 24;//24\n    uint public maxCount = 150;//\n    \n    event UserJoin(string flightNO, string flightDate, address user);\n\n    uint public testOK;\n\n    function FlightDelay(address hbsAddress, address tokenAddress) public Stoppable(msg.sender){\n        hbs = HbStorage(hbsAddress);\n        token = KnotToken(tokenAddress);\n    }\n    function setInterval(uint _interval) external onlyOwner {\n        interval = _interval;\n    }\n    function setMaxCount(uint count) external onlyOwner {\n        maxCount = count;\n    }\n\n\n\n    /** @dev \n      * @param flightNO \n      */\n    function getPrice(string flightNO) public view returns (uint) {\n        //30\n        return 30;\n    }\n    /** @dev \n      * \n      */  \n    function getFlightSts() public view returns (uint) {\n        //30\n        return 30;\n    }       \n    /** @dev \n      * @param flightNO \n      * @param price \n      */\n    // function getQualification(string flightNO, uint price) public {\n    //     require(!flightNO.toSlice().empty());\n    //     require(price > 0);\n    //     require(token.balanceOf(msg.sender) >= price);\n\n    //     hbs.setCanBuy(msg.sender, flightNO);\n    //     if (!token.transferFrom(msg.sender, this, price)) {\n    //         hbs.setCanBuy(msg.sender, \"\");\n    //     }\n    // }\n    /** @dev \n      * @param _sfIndex +\n      */\n    function getSFCount(bytes32 _sfIndex) public view returns (uint) {\n        return hbs.getSFCount(_sfIndex);\n    }\n    /** @dev \n      * @param flightNO \n      */\n    // function hasQualification(string flightNO) public view returns (bool) {\n    //     require(!flightNO.toSlice().empty());\n    //     return hbs.canBuy(msg.sender, flightNO);\n    // }\n    // /** @dev \n    //   */\n    // function getCurrentVote() public view returns (bytes32) {\n    //     bytes32 currentVote = hbs.currentVote();\n    //     return currentVote;\n    // }\n\n\n    /** @dev  \n      * @param flightNO \n      * @param flightDate :yyyy-mm-dd\n      */\n    function joinFlight(string flightNO, string flightDate) external stopInEmergency {\n        joinFlightByVote(flightNO, flightDate, bytes32(\"\"), HbStorage.DelayStatus.no);\n    }\n    function joinCheck(string flightDate, bytes32 sfIndex, uint tokenCount) public view returns(uint) {\n        if (!Utility.checkDateFomat(flightDate)) {\n            return 1;\n        }\n        if(!Utility.checkDate(flightDate, interval)) {\n            return 2;\n        }\n        if(!(hbs.getSFCount(sfIndex) <= maxCount)){\n            return 3;\n        }\n        if(!hbs.isOpening(sfIndex)) {\n            return 4;\n        }\n        bool isMemberInSF = hbs.isMemberInSF(sfIndex, msg.sender);\n        if(isMemberInSF){\n            return 5;\n        }\n        if(token.balanceOf(msg.sender) < tokenCount){\n            return 6;\n        }\n        return 0;\n    }\n    /** @dev  \n      * @param flightNO \n      * @param flightDate :yyyy-mm-dd\n      */  \n    function joinFlightByVote(string flightNO, string flightDate, bytes32 votedSfIndex, HbStorage.DelayStatus vote) public stopInEmergency {\n        // require(Utility.checkDateFomat(flightDate));\n        // require(Utility.checkDate(flightDate, interval));\n        bytes32 sfIndex = keccak256(Utility.strConcat(flightNO, flightDate));\n        // require(hbs.getSFCount(sfIndex) <= maxCount);\n        \n        // require(hbs.isOpening(sfIndex));\n        // bool isMemberNotInSF = !hbs.isMemberInSF(sfIndex, msg.sender);\n        // require(isMemberNotInSF);\n        uint price = getPrice(flightNO);\n        uint tokenCount = price * 1 ether;\n        require(joinCheck(flightDate, sfIndex, tokenCount) == 0);\n        // require(token.balanceOf(msg.sender) >= tokenCount);\n\n        require(token.transferFrom(msg.sender, this, tokenCount));\n\n        hbs.addMemberToSF(sfIndex, flightNO, flightDate, msg.sender, votedSfIndex, vote, price);\n        if (votedSfIndex != bytes32(\"\")) {\n            hbs.updateVote(votedSfIndex, vote);\n            if (checkCanEndByVote(sfIndex)) {\n                hbs.endVote(sfIndex, msg.sender);\n            }\n        }\n        testOK = block.number;\n\n        if (hbs.getSFCount(sfIndex) == maxCount) {\n            hbs.setClose(sfIndex);\n        }\n        UserJoin(flightNO, flightDate, msg.sender);\n        \n    }  \n    /** @dev  \n      * @param _sfIndex \n      */ \n    function checkCanEndByVote(bytes32 _sfIndex) public view  returns(bool canEnd){\n        var (delay1Counts, delay2Counts, delay3Counts, cancelCounts,noCounts,startNum,,) = hbs.voteInfos(_sfIndex);\n        uint totalCounts = delay1Counts.add(delay2Counts).add(delay3Counts).add(cancelCounts).add(noCounts);\n        if (block.number.sub(startNum) > hbs.voteEndInterval() && totalCounts > hbs.voteEndThreshold()) {\n            return true;\n        } else {\n            return false;\n        }\n    } \n    // function checkData(string flightNO, string flightDate) public returns (bool, bool, bool, bool, bool, bool) {\n    //     bytes32 sfIndex = keccak256(Utility.strConcat(flightNO, flightDate));\n    //     bool isMemberInSF = !hbs.isMemberInSF(sfIndex, msg.sender);\n    //     uint tokenCount = getPrice(flightNO) * 1 ether;\n    //     return (Utility.checkDateFomat(flightDate), Utility.checkDate(flightDate, interval), hbs.getSFCount(sfIndex) <= maxCount, \n    //     hbs.isOpening(sfIndex), isMemberInSF, token.balanceOf(msg.sender) >= tokenCount);\n\n    // }\n\n}",
  "sourcePath": "/Users/hanting/workspace/ethereum/truffle/huibaoSC/contracts/FlightDelay.sol",
  "compiler": {
    "name": "solc",
    "version": "0.4.18+commit.9cf6e910.Emscripten.clang"
  },
  "schemaVersion": "1.0.1",
  "updatedAt": "2018-05-08T05:36:47.112Z"
}