{
  "contractName": "FlightDelayService",
  "abi": [
    {
      "constant": true,
      "inputs": [],
      "name": "rate",
      "outputs": [
        {
          "name": "",
          "type": "uint256"
        }
      ],
      "payable": false,
      "stateMutability": "view",
      "type": "function"
    },
    {
      "constant": false,
      "inputs": [
        {
          "name": "_rate",
          "type": "uint256"
        }
      ],
      "name": "setRate",
      "outputs": [],
      "payable": false,
      "stateMutability": "nonpayable",
      "type": "function"
    },
    {
      "constant": false,
      "inputs": [
        {
          "name": "index",
          "type": "bytes32"
        },
        {
          "name": "vote",
          "type": "uint8"
        }
      ],
      "name": "claimVote",
      "outputs": [],
      "payable": false,
      "stateMutability": "nonpayable",
      "type": "function"
    },
    {
      "constant": false,
      "inputs": [],
      "name": "withdraw",
      "outputs": [],
      "payable": false,
      "stateMutability": "nonpayable",
      "type": "function"
    },
    {
      "constant": true,
      "inputs": [
        {
          "name": "",
          "type": "uint256"
        }
      ],
      "name": "delayPayInfos",
      "outputs": [
        {
          "name": "times",
          "type": "uint256"
        },
        {
          "name": "payCount",
          "type": "uint256"
        },
        {
          "name": "isValued",
          "type": "bool"
        }
      ],
      "payable": false,
      "stateMutability": "view",
      "type": "function"
    },
    {
      "constant": false,
      "inputs": [],
      "name": "emergencyStop",
      "outputs": [],
      "payable": false,
      "stateMutability": "nonpayable",
      "type": "function"
    },
    {
      "constant": true,
      "inputs": [],
      "name": "exchanged",
      "outputs": [
        {
          "name": "",
          "type": "uint256"
        }
      ],
      "payable": false,
      "stateMutability": "view",
      "type": "function"
    },
    {
      "constant": true,
      "inputs": [],
      "name": "stopped",
      "outputs": [
        {
          "name": "",
          "type": "bool"
        }
      ],
      "payable": false,
      "stateMutability": "view",
      "type": "function"
    },
    {
      "constant": true,
      "inputs": [],
      "name": "owner",
      "outputs": [
        {
          "name": "",
          "type": "address"
        }
      ],
      "payable": false,
      "stateMutability": "view",
      "type": "function"
    },
    {
      "constant": false,
      "inputs": [
        {
          "name": "index",
          "type": "bytes32"
        }
      ],
      "name": "claimCheck",
      "outputs": [
        {
          "name": "",
          "type": "uint256"
        }
      ],
      "payable": false,
      "stateMutability": "nonpayable",
      "type": "function"
    },
    {
      "constant": true,
      "inputs": [],
      "name": "testOK",
      "outputs": [
        {
          "name": "",
          "type": "uint256"
        }
      ],
      "payable": false,
      "stateMutability": "view",
      "type": "function"
    },
    {
      "constant": false,
      "inputs": [
        {
          "name": "index",
          "type": "bytes32"
        }
      ],
      "name": "claim",
      "outputs": [],
      "payable": false,
      "stateMutability": "nonpayable",
      "type": "function"
    },
    {
      "constant": false,
      "inputs": [],
      "name": "start",
      "outputs": [],
      "payable": false,
      "stateMutability": "nonpayable",
      "type": "function"
    },
    {
      "constant": false,
      "inputs": [],
      "name": "exchange",
      "outputs": [],
      "payable": true,
      "stateMutability": "payable",
      "type": "function"
    },
    {
      "constant": true,
      "inputs": [
        {
          "name": "tokenValue",
          "type": "uint256"
        }
      ],
      "name": "redeemCheck",
      "outputs": [
        {
          "name": "",
          "type": "uint256"
        }
      ],
      "payable": false,
      "stateMutability": "view",
      "type": "function"
    },
    {
      "constant": true,
      "inputs": [
        {
          "name": "index",
          "type": "bytes32"
        }
      ],
      "name": "claimVoteCheck",
      "outputs": [
        {
          "name": "",
          "type": "uint256"
        }
      ],
      "payable": false,
      "stateMutability": "view",
      "type": "function"
    },
    {
      "constant": false,
      "inputs": [
        {
          "name": "tokenValue",
          "type": "uint256"
        }
      ],
      "name": "redeem",
      "outputs": [],
      "payable": false,
      "stateMutability": "nonpayable",
      "type": "function"
    },
    {
      "constant": false,
      "inputs": [
        {
          "name": "newOwner",
          "type": "address"
        }
      ],
      "name": "transferOwnership",
      "outputs": [],
      "payable": false,
      "stateMutability": "nonpayable",
      "type": "function"
    },
    {
      "inputs": [
        {
          "name": "hbsAddress",
          "type": "address"
        },
        {
          "name": "tokenAddress",
          "type": "address"
        }
      ],
      "payable": false,
      "stateMutability": "nonpayable",
      "type": "constructor"
    },
    {
      "anonymous": false,
      "inputs": [
        {
          "indexed": true,
          "name": "previousOwner",
          "type": "address"
        },
        {
          "indexed": true,
          "name": "newOwner",
          "type": "address"
        }
      ],
      "name": "OwnershipTransferred",
      "type": "event"
    }
  ],
  "bytecode": "0x6060604052610fa060075534156200001657600080fd5b604051604080620020948339810160405280805190602001909190805190602001909190505033806000806101000a81548173ffffffffffffffffffffffffffffffffffffffff021916908373ffffffffffffffffffffffffffffffffffffffff16021790555060008060146101000a81548160ff0219169083151502179055505033600160006101000a81548173ffffffffffffffffffffffffffffffffffffffff021916908373ffffffffffffffffffffffffffffffffffffffff16021790555081600260006101000a81548173ffffffffffffffffffffffffffffffffffffffff021916908373ffffffffffffffffffffffffffffffffffffffff16021790555080600360006101000a81548173ffffffffffffffffffffffffffffffffffffffff021916908373ffffffffffffffffffffffffffffffffffffffff160217905550606060405190810160405280600081526020016200018e6000620004506401000000000262001a54176401000000009004565b81526020016001151581525060096000806004811115620001ab57fe5b8152602001908152602001600020600082015181600001556020820151816001015560408201518160020160006101000a81548160ff021916908315150217905550905050606060405190810160405280601e8152602001620002236001620004506401000000000262001a54176401000000009004565b81526020016001151581525060096000600160048111156200024157fe5b8152602001908152602001600020600082015181600001556020820151816001015560408201518160020160006101000a81548160ff021916908315150217905550905050606060405190810160405280603c8152602001620002b96002620004506401000000000262001a54176401000000009004565b8152602001600115158152506009600060026004811115620002d757fe5b8152602001908152602001600020600082015181600001556020820151816001015560408201518160020160006101000a81548160ff021916908315150217905550905050606060405190810160405280607881526020016200034f6003620004506401000000000262001a54176401000000009004565b81526020016001151581525060096000600360048111156200036d57fe5b8152602001908152602001600020600082015181600001556020820151816001015560408201518160020160006101000a81548160ff0219169083151502179055509050506060604051908101604052806103e78152602001620003e66004620004506401000000000262001a54176401000000009004565b815260200160011515815250600960006004808111156200040357fe5b8152602001908152602001600020600082015181600001556020820151816001015560408201518160020160006101000a81548160ff021916908315150217905550905050505062000534565b60008060048111156200045f57fe5b8260048111156200046c57fe5b14156200047d57600090506200052f565b600160048111156200048b57fe5b8260048111156200049857fe5b1415620004a957603c90506200052f565b60026004811115620004b757fe5b826004811115620004c457fe5b1415620004d557609690506200052f565b60036004811115620004e357fe5b826004811115620004f057fe5b1415620005025761012c90506200052f565b6004808111156200050f57fe5b8260048111156200051c57fe5b14156200052e576101c290506200052f565b5b919050565b611b5080620005446000396000f3006060604052600436106100fc576000357c0100000000000000000000000000000000000000000000000000000000900463ffffffff1680632c4e722e1461010157806334fcf4371461012a578063392bc6881461014d5780633ccfd60b146101805780633e0d86eb1461019557806363a599a4146101de5780637182774d146101f357806375f12b211461021c5780638da5cb5b14610249578063ab2523901461029e578063b325deae146102d9578063bd66528a14610302578063be9a655514610329578063d2f7265a1461033e578063d818f22014610348578063da9fb4e61461037f578063db006a75146103ba578063f2fde38b146103dd575b600080fd5b341561010c57600080fd5b610114610416565b6040518082815260200191505060405180910390f35b341561013557600080fd5b61014b600480803590602001909190505061041c565b005b341561015857600080fd5b61017e60048080356000191690602001909190803560ff16906020019091905050610482565b005b341561018b57600080fd5b6101936108a1565b005b34156101a057600080fd5b6101b66004808035906020019091905050610a45565b6040518084815260200183815260200182151515158152602001935050505060405180910390f35b34156101e957600080fd5b6101f1610a7c565b005b34156101fe57600080fd5b610206610af4565b6040518082815260200191505060405180910390f35b341561022757600080fd5b61022f610afa565b604051808215151515815260200191505060405180910390f35b341561025457600080fd5b61025c610b0d565b604051808273ffffffffffffffffffffffffffffffffffffffff1673ffffffffffffffffffffffffffffffffffffffff16815260200191505060405180910390f35b34156102a957600080fd5b6102c3600480803560001916906020019091905050610b33565b6040518082815260200191505060405180910390f35b34156102e457600080fd5b6102ec610dc4565b6040518082815260200191505060405180910390f35b341561030d57600080fd5b610327600480803560001916906020019091905050610dca565b005b341561033457600080fd5b61033c611071565b005b6103466110e8565b005b341561035357600080fd5b6103696004808035906020019091905050611211565b6040518082815260200191505060405180910390f35b341561038a57600080fd5b6103a460048080356000191690602001909190505061135a565b6040518082815260200191505060405180910390f35b34156103c557600080fd5b6103db60048080359060200190919050506116a5565b005b34156103e857600080fd5b610414600480803573ffffffffffffffffffffffffffffffffffffffff169060200190919050506118aa565b005b60075481565b600160009054906101000a900473ffffffffffffffffffffffffffffffffffffffff1673ffffffffffffffffffffffffffffffffffffffff163373ffffffffffffffffffffffffffffffffffffffff1614151561047857600080fd5b8060078190555050565b600080600060149054906101000a900460ff161515156104a157600080fd5b60006104ac8561135a565b1415156104b857600080fd5b600260009054906101000a900473ffffffffffffffffffffffffffffffffffffffff1673ffffffffffffffffffffffffffffffffffffffff1663f429b7058560026040518363ffffffff167c010000000000000000000000000000000000000000000000000000000002815260040180836000191660001916815260200182600381111561054257fe5b60ff16815260200192505050600060405180830381600087803b151561056757600080fd5b6102c65a03f1151561057857600080fd5b505050600260009054906101000a900473ffffffffffffffffffffffffffffffffffffffff1673ffffffffffffffffffffffffffffffffffffffff166316ff98c885856040518363ffffffff167c010000000000000000000000000000000000000000000000000000000002815260040180836000191660001916815260200182600481111561060457fe5b60ff16815260200192505050600060405180830381600087803b151561062957600080fd5b6102c65a03f1151561063a57600080fd5b505050600260009054906101000a900473ffffffffffffffffffffffffffffffffffffffff1673ffffffffffffffffffffffffffffffffffffffff1663f9b137d76000604051602001526040518163ffffffff167c0100000000000000000000000000000000000000000000000000000000028152600401602060405180830381600087803b15156106cb57600080fd5b6102c65a03f115156106dc57600080fd5b505050604051805190509150600260009054906101000a900473ffffffffffffffffffffffffffffffffffffffff1673ffffffffffffffffffffffffffffffffffffffff1663385afd8c83600060405161012001526040518263ffffffff167c010000000000000000000000000000000000000000000000000000000002815260040180826000191660001916815260200191505061012060405180830381600087803b151561078b57600080fd5b6102c65a03f1151561079c57600080fd5b505050604051805190602001805190602001805190602001805190602001805190602001805190602001805190602001805190602001805190509850505050505050505080151561089457600260009054906101000a900473ffffffffffffffffffffffffffffffffffffffff1673ffffffffffffffffffffffffffffffffffffffff1663ede11c81856040518263ffffffff167c0100000000000000000000000000000000000000000000000000000000028152600401808260001916600019168152602001915050600060405180830381600087803b151561087f57600080fd5b6102c65a03f1151561089057600080fd5b5050505b4360088190555050505050565b60008060149054906101000a900460ff161515156108be57600080fd5b600660003373ffffffffffffffffffffffffffffffffffffffff1673ffffffffffffffffffffffffffffffffffffffff16815260200190815260200160002054905060008111151561090f57600080fd5b600360009054906101000a900473ffffffffffffffffffffffffffffffffffffffff1673ffffffffffffffffffffffffffffffffffffffff1663a9059cbb33836000604051602001526040518363ffffffff167c0100000000000000000000000000000000000000000000000000000000028152600401808373ffffffffffffffffffffffffffffffffffffffff1673ffffffffffffffffffffffffffffffffffffffff16815260200182815260200192505050602060405180830381600087803b15156109dc57600080fd5b6102c65a03f115156109ed57600080fd5b5050506040518051905015610a42576000600660003373ffffffffffffffffffffffffffffffffffffffff1673ffffffffffffffffffffffffffffffffffffffff168152602001908152602001600020819055505b50565b60096020528060005260406000206000915090508060000154908060010154908060020160009054906101000a900460ff16905083565b6000809054906101000a900473ffffffffffffffffffffffffffffffffffffffff1673ffffffffffffffffffffffffffffffffffffffff163373ffffffffffffffffffffffffffffffffffffffff16141515610ad757600080fd5b6001600060146101000a81548160ff021916908315150217905550565b60055481565b600060149054906101000a900460ff1681565b600160009054906101000a900473ffffffffffffffffffffffffffffffffffffffff1681565b600080600260009054906101000a900473ffffffffffffffffffffffffffffffffffffffff1673ffffffffffffffffffffffffffffffffffffffff16634adaaf1f84336000604051602001526040518363ffffffff167c01000000000000000000000000000000000000000000000000000000000281526004018083600019166000191681526020018273ffffffffffffffffffffffffffffffffffffffff1673ffffffffffffffffffffffffffffffffffffffff16815260200192505050602060405180830381600087803b1515610c0b57600080fd5b6102c65a03f11515610c1c57600080fd5b505050604051805190501515610c355760019150610dbe565b600260009054906101000a900473ffffffffffffffffffffffffffffffffffffffff1673ffffffffffffffffffffffffffffffffffffffff166303c856d384600060405160e001526040518263ffffffff167c010000000000000000000000000000000000000000000000000000000002815260040180826000191660001916815260200191505060e060405180830381600087803b1515610cd657600080fd5b6102c65a03f11515610ce757600080fd5b505050604051805190602001805190602001805190602001805190602001805190602001805190602001805190505050505092505050600380811115610d2957fe5b816003811115610d3557fe5b141515610d455760029150610dbe565b60046000846000191660001916815260200190815260200160002060003373ffffffffffffffffffffffffffffffffffffffff1673ffffffffffffffffffffffffffffffffffffffff16815260200190815260200160002060009054906101000a900460ff1615610db95760039150610dbe565b600091505b50919050565b60085481565b60008060008060008060008060149054906101000a900460ff16151515610df057600080fd5b6000610dfb89610b33565b141515610e0757600080fd5b600260009054906101000a900473ffffffffffffffffffffffffffffffffffffffff1673ffffffffffffffffffffffffffffffffffffffff1663385afd8c89600060405161012001526040518263ffffffff167c010000000000000000000000000000000000000000000000000000000002815260040180826000191660001916815260200191505061012060405180830381600087803b1515610eaa57600080fd5b6102c65a03f11515610ebb57600080fd5b5050506040518051906020018051906020018051906020018051906020018051906020018051906020018051906020018051906020018051905050505050965096509650965096506000915086831015610f1457600191505b85871015610f2157600291505b84861015610f2e57600391505b83851015610f3b57600491505b60096000836004811115610f4b57fe5b8152602001908152602001600020600101549050600081111561106757610fba81600660003373ffffffffffffffffffffffffffffffffffffffff1673ffffffffffffffffffffffffffffffffffffffff16815260200190815260200160002054611a0290919063ffffffff16565b600660003373ffffffffffffffffffffffffffffffffffffffff1673ffffffffffffffffffffffffffffffffffffffff1681526020019081526020016000208190555060011515600460008a6000191660001916815260200190815260200160002060003373ffffffffffffffffffffffffffffffffffffffff1673ffffffffffffffffffffffffffffffffffffffff16815260200190815260200160002060009054906101000a905050505b5050505050505050565b6000809054906101000a900473ffffffffffffffffffffffffffffffffffffffff1673ffffffffffffffffffffffffffffffffffffffff163373ffffffffffffffffffffffffffffffffffffffff161415156110cc57600080fd5b60008060146101000a81548160ff021916908315150217905550565b60008034915060075482029050670de0b6b3a7640000811015151561110c57600080fd5b683635c9adc5dea00000811115151561112457600080fd5b600360009054906101000a900473ffffffffffffffffffffffffffffffffffffffff1673ffffffffffffffffffffffffffffffffffffffff1663a9059cbb33836000604051602001526040518363ffffffff167c0100000000000000000000000000000000000000000000000000000000028152600401808373ffffffffffffffffffffffffffffffffffffffff1673ffffffffffffffffffffffffffffffffffffffff16815260200182815260200192505050602060405180830381600087803b15156111f157600080fd5b6102c65a03f1151561120257600080fd5b50505060405180519050505050565b6000670de0b6b3a764000082101561122c5760029050611355565b81600360009054906101000a900473ffffffffffffffffffffffffffffffffffffffff1673ffffffffffffffffffffffffffffffffffffffff1663dd62ed3e33306000604051602001526040518363ffffffff167c0100000000000000000000000000000000000000000000000000000000028152600401808373ffffffffffffffffffffffffffffffffffffffff1673ffffffffffffffffffffffffffffffffffffffff1681526020018273ffffffffffffffffffffffffffffffffffffffff1673ffffffffffffffffffffffffffffffffffffffff16815260200192505050602060405180830381600087803b151561132657600080fd5b6102c65a03f1151561133757600080fd5b5050506040518051905010156113505760019050611355565b600090505b919050565b6000806000600260009054906101000a900473ffffffffffffffffffffffffffffffffffffffff1673ffffffffffffffffffffffffffffffffffffffff16634adaaf1f85336000604051602001526040518363ffffffff167c01000000000000000000000000000000000000000000000000000000000281526004018083600019166000191681526020018273ffffffffffffffffffffffffffffffffffffffff1673ffffffffffffffffffffffffffffffffffffffff16815260200192505050602060405180830381600087803b151561143457600080fd5b6102c65a03f1151561144557600080fd5b50505060405180519050151561145e576001925061169e565b600260009054906101000a900473ffffffffffffffffffffffffffffffffffffffff1673ffffffffffffffffffffffffffffffffffffffff166303c856d385600060405160e001526040518263ffffffff167c010000000000000000000000000000000000000000000000000000000002815260040180826000191660001916815260200191505060e060405180830381600087803b15156114ff57600080fd5b6102c65a03f1151561151057600080fd5b5050506040518051906020018051906020018051906020018051906020018051906020018051906020018051905050505050935050506000600381111561155357fe5b82600381111561155f57fe5b1415801561158457506001600381111561157557fe5b82600381111561158157fe5b14155b15611592576002925061169e565b600260009054906101000a900473ffffffffffffffffffffffffffffffffffffffff1673ffffffffffffffffffffffffffffffffffffffff1663385afd8c85600060405161012001526040518263ffffffff167c010000000000000000000000000000000000000000000000000000000002815260040180826000191660001916815260200191505061012060405180830381600087803b151561163557600080fd5b6102c65a03f1151561164657600080fd5b50505060405180519060200180519060200180519060200180519060200180519060200180519060200180519060200180519060200180519050505096505050505050508015611699576003925061169e565b600092505b5050919050565b6000806116b183611211565b1415156116bd57600080fd5b6116d260075483611a2090919063ffffffff16565b9050600360009054906101000a900473ffffffffffffffffffffffffffffffffffffffff1673ffffffffffffffffffffffffffffffffffffffff166323b872dd3330856000604051602001526040518463ffffffff167c0100000000000000000000000000000000000000000000000000000000028152600401808473ffffffffffffffffffffffffffffffffffffffff1673ffffffffffffffffffffffffffffffffffffffff1681526020018373ffffffffffffffffffffffffffffffffffffffff1673ffffffffffffffffffffffffffffffffffffffff1681526020018281526020019350505050602060405180830381600087803b15156117d557600080fd5b6102c65a03f115156117e657600080fd5b50505060405180519050156118a65761180a82600554611a3b90919063ffffffff16565b60058190555061186281600660003373ffffffffffffffffffffffffffffffffffffffff1673ffffffffffffffffffffffffffffffffffffffff16815260200190815260200160002054611a0290919063ffffffff16565b600660003373ffffffffffffffffffffffffffffffffffffffff1673ffffffffffffffffffffffffffffffffffffffff168152602001908152602001600020819055505b5050565b600160009054906101000a900473ffffffffffffffffffffffffffffffffffffffff1673ffffffffffffffffffffffffffffffffffffffff163373ffffffffffffffffffffffffffffffffffffffff1614151561190657600080fd5b600073ffffffffffffffffffffffffffffffffffffffff168173ffffffffffffffffffffffffffffffffffffffff161415151561194257600080fd5b8073ffffffffffffffffffffffffffffffffffffffff16600160009054906101000a900473ffffffffffffffffffffffffffffffffffffffff1673ffffffffffffffffffffffffffffffffffffffff167f8be0079c531659141344cd1fd0a4f28419497f9722a3daafe3b4186f6b6457e060405160405180910390a380600160006101000a81548173ffffffffffffffffffffffffffffffffffffffff021916908373ffffffffffffffffffffffffffffffffffffffff16021790555050565b6000808284019050838110151515611a1657fe5b8091505092915050565b6000808284811515611a2e57fe5b0490508091505092915050565b6000828211151515611a4957fe5b818303905092915050565b6000806004811115611a6257fe5b826004811115611a6e57fe5b1415611a7d5760009050611b1f565b60016004811115611a8a57fe5b826004811115611a9657fe5b1415611aa557603c9050611b1f565b60026004811115611ab257fe5b826004811115611abe57fe5b1415611acd5760969050611b1f565b60036004811115611ada57fe5b826004811115611ae657fe5b1415611af65761012c9050611b1f565b600480811115611b0257fe5b826004811115611b0e57fe5b1415611b1e576101c29050611b1f565b5b9190505600a165627a7a723058205ca4496bd8b0d8a60d13d545f2309684d0a45ed8cb737b01fba7e7bcb84c90400029",
  "source": "pragma solidity ^0.4.18;\nimport '../node_modules/zeppelin-solidity/contracts/ownership/Ownable.sol';\nimport '../node_modules/zeppelin-solidity/contracts/math/SafeMath.sol';\nimport './common/Stoppable.sol';\nimport './common/HbStorage.sol';\nimport './common/KnotToken.sol';\nimport './FlightDelay.sol';\n\n/** @title group smart contract. */\ncontract FlightDelayService is Stoppable, Ownable {\n    using SafeMath for uint256;\n    HbStorage hbs;\n    KnotToken token;\n    mapping(bytes32 => mapping(address => bool)) paidInfos;\n    uint public exchanged;\n    mapping(address => uint) withdraws;\n    uint public rate = 4000;\n\n    uint public testOK;\n    function setRate(uint _rate) external onlyOwner {\n        rate = _rate;\n    }\n    struct DelayPayInfo {\n        uint times;\n        uint payCount;\n        bool isValued;\n    }\n    // uint public tokenCount = 0;\n    mapping(uint => DelayPayInfo) public delayPayInfos;\n    function FlightDelayService(address hbsAddress, address tokenAddress) public Stoppable(msg.sender) {\n        hbs = HbStorage(hbsAddress);\n        token = KnotToken(tokenAddress);\n        delayPayInfos[uint(HbStorage.DelayStatus.no)] = DelayPayInfo({times: 0, payCount: getDelayClaimRate(HbStorage.DelayStatus.no), isValued: true});\n        delayPayInfos[uint(HbStorage.DelayStatus.delay1)] = DelayPayInfo({times: 30, payCount: getDelayClaimRate(HbStorage.DelayStatus.delay1), isValued: true});\n        delayPayInfos[uint(HbStorage.DelayStatus.delay2)] = DelayPayInfo({times: 60, payCount: getDelayClaimRate(HbStorage.DelayStatus.delay2), isValued: true});\n        delayPayInfos[uint(HbStorage.DelayStatus.delay3)] = DelayPayInfo({times: 120, payCount: getDelayClaimRate(HbStorage.DelayStatus.delay3), isValued: true});\n        delayPayInfos[uint(HbStorage.DelayStatus.cancel)] = DelayPayInfo({times: 999, payCount: getDelayClaimRate(HbStorage.DelayStatus.cancel), isValued: true});\n    }\n    /** @dev 获取各个时间段的赔付率\n      * @param status 赔付时间段\n      */    \n    function getDelayClaimRate(HbStorage.DelayStatus status) internal returns (uint){\n        if (status == HbStorage.DelayStatus.no) {\n            return 0;\n        }\n        if (status == HbStorage.DelayStatus.delay1 ) {\n            return 30 * 2;\n        }\n        if ( status == HbStorage.DelayStatus.delay2) {\n            return 30 * 5;\n        }\n        if ( status == HbStorage.DelayStatus.delay3) {\n            return 30 * 10;\n        }\n        if ( status == HbStorage.DelayStatus.cancel) {\n            return 30 * 15;\n        }\n    }\n    /** @dev start Claim check\n      * \n      */  \n    function claimVoteCheck(bytes32 index) public view returns (uint) {\n        if(!hbs.isMemberInSF(index, msg.sender)){\n            return 1; // 没有加入改航班\n        }\n        var (,,status,,,,) = hbs.returnSFInfo(index);\n        if(status != HbStorage.SFStatus.opening && status != HbStorage.SFStatus.closed) {\n            return 2; // 航班状态不对\n        }\n        var (,,,,,,ended,,) = hbs.voteInfos(index);\n        if (ended) {\n            return 3; // 投票已结束\n        }\n        // 将来可能还需要增加日期间隔校验\n        return 0;\n    }\n\n    /** @dev user start claim vote\n      * @param index 航班号+航班日期的index\n      * @param vote 延误类型\n      */  \n    function claimVote(bytes32 index, HbStorage.DelayStatus vote) external stopInEmergency{\n        require(claimVoteCheck(index) == 0);\n        // require(hbs.isMemberInSF(index, msg.sender));\n        // var (,,status,,,) = hbs.returnSFInfo(index);\n        // require(status == HbStorage.SFStatus.opening);\n        // 改变航班状态\n        hbs.changeSFStatus(index, HbStorage.SFStatus.claiming);\n        // 增加一条投票记录\n        hbs.updateVote(index, vote);\n        bytes32 currentVote = hbs.currentVote();\n        var (,,,,,,isCurrentVoteValued) = hbs.voteInfos(currentVote);\n        if (!isCurrentVoteValued) {\n            //当前还没有进行中的投票就设置一个\n            hbs.setCurrentVote(index);\n        }\n        testOK = block.number;\n    }\n\n    function claimCheck(bytes32 index) public returns(uint) {\n        if(!hbs.isMemberInSF(index, msg.sender)){\n            return 1; // 没有加入改航班\n        }\n        var (,,status,,,,) = hbs.returnSFInfo(index);\n        if(status != HbStorage.SFStatus.ended) {\n            return 2; // 航班状态不对\n        }\n        if (paidInfos[index][msg.sender]) {\n            return 3; // 已经赔付过了\n        }\n        // 将来可能还需要增加日期间隔校验\n        return 0;        \n    }\n    function claim(bytes32 index) external stopInEmergency {\n        require(claimCheck(index) == 0);\n        var (delay1Counts, delay2Counts, delay3Counts, cancelCounts, noCounts,,,,) = hbs.voteInfos(index);\n        HbStorage.DelayStatus status = HbStorage.DelayStatus.no;\n        if (noCounts < delay1Counts) {\n            status = HbStorage.DelayStatus.delay1;\n        }\n        if (delay1Counts < delay2Counts) {\n            status = HbStorage.DelayStatus.delay2;\n        }\n        if (delay2Counts < delay3Counts) {\n            status = HbStorage.DelayStatus.delay3;\n        }\n        if (delay3Counts < cancelCounts) {\n            status = HbStorage.DelayStatus.cancel;\n        } \n        uint payCount = delayPayInfos[uint(status)].payCount;\n        if (payCount > 0) {\n            withdraws[msg.sender] = withdraws[msg.sender].add(payCount);\n            paidInfos[index][msg.sender] == true;\n        }\n    }\n    function withdraw() external stopInEmergency {\n        uint value = withdraws[msg.sender];\n        require(value > 0);\n        if(token.transfer(msg.sender, value)) {\n            withdraws[msg.sender] = 0;\n        }\n    }\n    /** @dev 用户兑换token \n      */  \n    function exchange() public payable {\n        uint eth = msg.value; \n        uint tokenCount = eth * rate;\n        require( tokenCount >= 1 ether);\n        require( tokenCount <= 1000 ether );\n        token.transfer(msg.sender, tokenCount);\n    }\n    function redeemCheck(uint tokenValue) public view returns(uint) {\n        if (tokenValue < 1 ether) {\n            return 2; // too small redeem\n        }\n        if (token.allowance(msg.sender, this) < tokenValue) {\n            return 1; // no token allowance\n        }\n        return 0;\n    }\n    function redeem(uint tokenValue) external { \n        require(redeemCheck(tokenValue) == 0);\n        uint eth = tokenValue.div(rate);\n        if(token.transferFrom(msg.sender, this, tokenValue)) {\n            exchanged = exchanged.sub(tokenValue);\n            withdraws[msg.sender] = withdraws[msg.sender].add(eth);\n        }\n    }\n} ",
  "sourcePath": "/Users/hanting/workspace/ethereum/truffle/huibaoSC/contracts/FlightDelayService.sol",
  "compiler": {
    "name": "solc",
    "version": "0.4.18+commit.9cf6e910.Emscripten.clang"
  },
  "schemaVersion": "1.0.1",
  "updatedAt": "2018-04-21T02:24:13.797Z"
}