{
  "contractName": "FlightDelayService",
  "abi": [
    {
      "constant": true,
      "inputs": [],
      "name": "rate",
      "outputs": [
        {
          "name": "",
          "type": "uint256"
        }
      ],
      "payable": false,
      "stateMutability": "view",
      "type": "function"
    },
    {
      "constant": false,
      "inputs": [
        {
          "name": "_rate",
          "type": "uint256"
        }
      ],
      "name": "setRate",
      "outputs": [],
      "payable": false,
      "stateMutability": "nonpayable",
      "type": "function"
    },
    {
      "constant": false,
      "inputs": [],
      "name": "withdraw",
      "outputs": [],
      "payable": false,
      "stateMutability": "nonpayable",
      "type": "function"
    },
    {
      "constant": true,
      "inputs": [
        {
          "name": "",
          "type": "uint256"
        }
      ],
      "name": "delayPayInfos",
      "outputs": [
        {
          "name": "times",
          "type": "uint256"
        },
        {
          "name": "payCount",
          "type": "uint256"
        },
        {
          "name": "isValued",
          "type": "bool"
        }
      ],
      "payable": false,
      "stateMutability": "view",
      "type": "function"
    },
    {
      "constant": true,
      "inputs": [
        {
          "name": "",
          "type": "address"
        }
      ],
      "name": "withdraws",
      "outputs": [
        {
          "name": "",
          "type": "uint256"
        }
      ],
      "payable": false,
      "stateMutability": "view",
      "type": "function"
    },
    {
      "constant": false,
      "inputs": [],
      "name": "emergencyStop",
      "outputs": [],
      "payable": false,
      "stateMutability": "nonpayable",
      "type": "function"
    },
    {
      "constant": true,
      "inputs": [],
      "name": "exchanged",
      "outputs": [
        {
          "name": "",
          "type": "uint256"
        }
      ],
      "payable": false,
      "stateMutability": "view",
      "type": "function"
    },
    {
      "constant": true,
      "inputs": [],
      "name": "stopped",
      "outputs": [
        {
          "name": "",
          "type": "bool"
        }
      ],
      "payable": false,
      "stateMutability": "view",
      "type": "function"
    },
    {
      "constant": true,
      "inputs": [],
      "name": "owner",
      "outputs": [
        {
          "name": "",
          "type": "address"
        }
      ],
      "payable": false,
      "stateMutability": "view",
      "type": "function"
    },
    {
      "constant": false,
      "inputs": [
        {
          "name": "index",
          "type": "bytes32"
        }
      ],
      "name": "claimVote",
      "outputs": [],
      "payable": false,
      "stateMutability": "nonpayable",
      "type": "function"
    },
    {
      "constant": false,
      "inputs": [
        {
          "name": "index",
          "type": "bytes32"
        }
      ],
      "name": "claimCheck",
      "outputs": [
        {
          "name": "",
          "type": "uint256"
        }
      ],
      "payable": false,
      "stateMutability": "nonpayable",
      "type": "function"
    },
    {
      "constant": true,
      "inputs": [],
      "name": "testOK",
      "outputs": [
        {
          "name": "",
          "type": "uint256"
        }
      ],
      "payable": false,
      "stateMutability": "view",
      "type": "function"
    },
    {
      "constant": false,
      "inputs": [
        {
          "name": "index",
          "type": "bytes32"
        }
      ],
      "name": "claim",
      "outputs": [],
      "payable": false,
      "stateMutability": "nonpayable",
      "type": "function"
    },
    {
      "constant": false,
      "inputs": [],
      "name": "start",
      "outputs": [],
      "payable": false,
      "stateMutability": "nonpayable",
      "type": "function"
    },
    {
      "constant": false,
      "inputs": [],
      "name": "exchange",
      "outputs": [],
      "payable": true,
      "stateMutability": "payable",
      "type": "function"
    },
    {
      "constant": true,
      "inputs": [
        {
          "name": "tokenValue",
          "type": "uint256"
        }
      ],
      "name": "redeemCheck",
      "outputs": [
        {
          "name": "",
          "type": "uint256"
        }
      ],
      "payable": false,
      "stateMutability": "view",
      "type": "function"
    },
    {
      "constant": true,
      "inputs": [
        {
          "name": "index",
          "type": "bytes32"
        }
      ],
      "name": "claimVoteCheck",
      "outputs": [
        {
          "name": "",
          "type": "uint256"
        }
      ],
      "payable": false,
      "stateMutability": "view",
      "type": "function"
    },
    {
      "constant": false,
      "inputs": [
        {
          "name": "tokenValue",
          "type": "uint256"
        }
      ],
      "name": "redeem",
      "outputs": [],
      "payable": false,
      "stateMutability": "nonpayable",
      "type": "function"
    },
    {
      "constant": false,
      "inputs": [
        {
          "name": "newOwner",
          "type": "address"
        }
      ],
      "name": "transferOwnership",
      "outputs": [],
      "payable": false,
      "stateMutability": "nonpayable",
      "type": "function"
    },
    {
      "inputs": [
        {
          "name": "hbsAddress",
          "type": "address"
        },
        {
          "name": "tokenAddress",
          "type": "address"
        }
      ],
      "payable": false,
      "stateMutability": "nonpayable",
      "type": "constructor"
    },
    {
      "anonymous": false,
      "inputs": [
        {
          "indexed": true,
          "name": "previousOwner",
          "type": "address"
        },
        {
          "indexed": true,
          "name": "newOwner",
          "type": "address"
        }
      ],
      "name": "OwnershipTransferred",
      "type": "event"
    }
  ],
  "bytecode": "0x6060604052610fa060075534156200001657600080fd5b60405160408062001e0e8339810160405280805190602001909190805190602001909190505033806000806101000a81548173ffffffffffffffffffffffffffffffffffffffff021916908373ffffffffffffffffffffffffffffffffffffffff16021790555060008060146101000a81548160ff0219169083151502179055505033600160006101000a81548173ffffffffffffffffffffffffffffffffffffffff021916908373ffffffffffffffffffffffffffffffffffffffff16021790555081600260006101000a81548173ffffffffffffffffffffffffffffffffffffffff021916908373ffffffffffffffffffffffffffffffffffffffff16021790555080600360006101000a81548173ffffffffffffffffffffffffffffffffffffffff021916908373ffffffffffffffffffffffffffffffffffffffff160217905550606060405190810160405280600081526020016200018e60006200045064010000000002620017ce176401000000009004565b81526020016001151581525060096000806004811115620001ab57fe5b8152602001908152602001600020600082015181600001556020820151816001015560408201518160020160006101000a81548160ff021916908315150217905550905050606060405190810160405280601e81526020016200022360016200045064010000000002620017ce176401000000009004565b81526020016001151581525060096000600160048111156200024157fe5b8152602001908152602001600020600082015181600001556020820151816001015560408201518160020160006101000a81548160ff021916908315150217905550905050606060405190810160405280603c8152602001620002b960026200045064010000000002620017ce176401000000009004565b8152602001600115158152506009600060026004811115620002d757fe5b8152602001908152602001600020600082015181600001556020820151816001015560408201518160020160006101000a81548160ff021916908315150217905550905050606060405190810160405280607881526020016200034f60036200045064010000000002620017ce176401000000009004565b81526020016001151581525060096000600360048111156200036d57fe5b8152602001908152602001600020600082015181600001556020820151816001015560408201518160020160006101000a81548160ff0219169083151502179055509050506060604051908101604052806103e78152602001620003e660046200045064010000000002620017ce176401000000009004565b815260200160011515815250600960006004808111156200040357fe5b8152602001908152602001600020600082015181600001556020820151816001015560408201518160020160006101000a81548160ff021916908315150217905550905050505062000534565b60008060048111156200045f57fe5b8260048111156200046c57fe5b14156200047d57600090506200052f565b600160048111156200048b57fe5b8260048111156200049857fe5b1415620004a957603c90506200052f565b60026004811115620004b757fe5b826004811115620004c457fe5b1415620004d557609690506200052f565b60036004811115620004e357fe5b826004811115620004f057fe5b1415620005025761012c90506200052f565b6004808111156200050f57fe5b8260048111156200051c57fe5b14156200052e576101c290506200052f565b5b919050565b6118ca80620005446000396000f300606060405260043610610107576000357c0100000000000000000000000000000000000000000000000000000000900463ffffffff1680632c4e722e1461010c57806334fcf437146101355780633ccfd60b146101585780633e0d86eb1461016d57806348179ee5146101b657806363a599a4146102035780637182774d1461021857806375f12b21146102415780638da5cb5b1461026e5780639f6a955f146102c3578063ab252390146102ea578063b325deae14610325578063bd66528a1461034e578063be9a655514610375578063d2f7265a1461038a578063d818f22014610394578063da9fb4e6146103cb578063db006a7514610406578063f2fde38b14610429575b600080fd5b341561011757600080fd5b61011f610462565b6040518082815260200191505060405180910390f35b341561014057600080fd5b6101566004808035906020019091905050610468565b005b341561016357600080fd5b61016b6104ce565b005b341561017857600080fd5b61018e6004808035906020019091905050610672565b6040518084815260200183815260200182151515158152602001935050505060405180910390f35b34156101c157600080fd5b6101ed600480803573ffffffffffffffffffffffffffffffffffffffff169060200190919050506106a9565b6040518082815260200191505060405180910390f35b341561020e57600080fd5b6102166106c1565b005b341561022357600080fd5b61022b610739565b6040518082815260200191505060405180910390f35b341561024c57600080fd5b61025461073f565b604051808215151515815260200191505060405180910390f35b341561027957600080fd5b610281610752565b604051808273ffffffffffffffffffffffffffffffffffffffff1673ffffffffffffffffffffffffffffffffffffffff16815260200191505060405180910390f35b34156102ce57600080fd5b6102e8600480803560001916906020019091905050610778565b005b34156102f557600080fd5b61030f600480803560001916906020019091905050610924565b6040518082815260200191505060405180910390f35b341561033057600080fd5b610338610bb5565b6040518082815260200191505060405180910390f35b341561035957600080fd5b610373600480803560001916906020019091905050610bbb565b005b341561038057600080fd5b610388610e74565b005b610392610eeb565b005b341561039f57600080fd5b6103b56004808035906020019091905050611014565b6040518082815260200191505060405180910390f35b34156103d657600080fd5b6103f060048080356000191690602001909190505061115d565b6040518082815260200191505060405180910390f35b341561041157600080fd5b61042760048080359060200190919050506114a8565b005b341561043457600080fd5b610460600480803573ffffffffffffffffffffffffffffffffffffffff1690602001909190505061163d565b005b60075481565b600160009054906101000a900473ffffffffffffffffffffffffffffffffffffffff1673ffffffffffffffffffffffffffffffffffffffff163373ffffffffffffffffffffffffffffffffffffffff161415156104c457600080fd5b8060078190555050565b60008060149054906101000a900460ff161515156104eb57600080fd5b600660003373ffffffffffffffffffffffffffffffffffffffff1673ffffffffffffffffffffffffffffffffffffffff16815260200190815260200160002054905060008111151561053c57600080fd5b600360009054906101000a900473ffffffffffffffffffffffffffffffffffffffff1673ffffffffffffffffffffffffffffffffffffffff1663a9059cbb33836000604051602001526040518363ffffffff167c0100000000000000000000000000000000000000000000000000000000028152600401808373ffffffffffffffffffffffffffffffffffffffff1673ffffffffffffffffffffffffffffffffffffffff16815260200182815260200192505050602060405180830381600087803b151561060957600080fd5b6102c65a03f1151561061a57600080fd5b505050604051805190501561066f576000600660003373ffffffffffffffffffffffffffffffffffffffff1673ffffffffffffffffffffffffffffffffffffffff168152602001908152602001600020819055505b50565b60096020528060005260406000206000915090508060000154908060010154908060020160009054906101000a900460ff16905083565b60066020528060005260406000206000915090505481565b6000809054906101000a900473ffffffffffffffffffffffffffffffffffffffff1673ffffffffffffffffffffffffffffffffffffffff163373ffffffffffffffffffffffffffffffffffffffff1614151561071c57600080fd5b6001600060146101000a81548160ff021916908315150217905550565b60055481565b600060149054906101000a900460ff1681565b600160009054906101000a900473ffffffffffffffffffffffffffffffffffffffff1681565b600060149054906101000a900460ff1615151561079457600080fd5b600061079f8261115d565b1415156107ab57600080fd5b600260009054906101000a900473ffffffffffffffffffffffffffffffffffffffff1673ffffffffffffffffffffffffffffffffffffffff1663f429b7058260026040518363ffffffff167c010000000000000000000000000000000000000000000000000000000002815260040180836000191660001916815260200182600381111561083557fe5b60ff16815260200192505050600060405180830381600087803b151561085a57600080fd5b6102c65a03f1151561086b57600080fd5b505050600260009054906101000a900473ffffffffffffffffffffffffffffffffffffffff1673ffffffffffffffffffffffffffffffffffffffff16632d454c6d826040518263ffffffff167c0100000000000000000000000000000000000000000000000000000000028152600401808260001916600019168152602001915050600060405180830381600087803b151561090657600080fd5b6102c65a03f1151561091757600080fd5b5050504360088190555050565b600080600260009054906101000a900473ffffffffffffffffffffffffffffffffffffffff1673ffffffffffffffffffffffffffffffffffffffff16634adaaf1f84336000604051602001526040518363ffffffff167c01000000000000000000000000000000000000000000000000000000000281526004018083600019166000191681526020018273ffffffffffffffffffffffffffffffffffffffff1673ffffffffffffffffffffffffffffffffffffffff16815260200192505050602060405180830381600087803b15156109fc57600080fd5b6102c65a03f11515610a0d57600080fd5b505050604051805190501515610a265760019150610baf565b600260009054906101000a900473ffffffffffffffffffffffffffffffffffffffff1673ffffffffffffffffffffffffffffffffffffffff166303c856d384600060405160e001526040518263ffffffff167c010000000000000000000000000000000000000000000000000000000002815260040180826000191660001916815260200191505060e060405180830381600087803b1515610ac757600080fd5b6102c65a03f11515610ad857600080fd5b505050604051805190602001805190602001805190602001805190602001805190602001805190602001805190505050505092505050600380811115610b1a57fe5b816003811115610b2657fe5b141515610b365760029150610baf565b60046000846000191660001916815260200190815260200160002060003373ffffffffffffffffffffffffffffffffffffffff1673ffffffffffffffffffffffffffffffffffffffff16815260200190815260200160002060009054906101000a900460ff1615610baa5760039150610baf565b600091505b50919050565b60085481565b60008060008060008060008060149054906101000a900460ff16151515610be157600080fd5b6000610bec89610924565b141515610bf857600080fd5b600260009054906101000a900473ffffffffffffffffffffffffffffffffffffffff1673ffffffffffffffffffffffffffffffffffffffff1663385afd8c89600060405161012001526040518263ffffffff167c010000000000000000000000000000000000000000000000000000000002815260040180826000191660001916815260200191505061012060405180830381600087803b1515610c9b57600080fd5b6102c65a03f11515610cac57600080fd5b5050506040518051906020018051906020018051906020018051906020018051906020018051906020018051906020018051906020018051905050505050965096509650965096506000915086831015610d0557600191505b85871015610d1257600291505b84861015610d1f57600391505b83851015610d2c57600491505b60096000836004811115610d3c57fe5b81526020019081526020016000206001015490506000811115610e6a57610db5670de0b6b3a76400008202600660003373ffffffffffffffffffffffffffffffffffffffff1673ffffffffffffffffffffffffffffffffffffffff1681526020019081526020016000205461179590919063ffffffff16565b600660003373ffffffffffffffffffffffffffffffffffffffff1673ffffffffffffffffffffffffffffffffffffffff168152602001908152602001600020819055506001600460008a6000191660001916815260200190815260200160002060003373ffffffffffffffffffffffffffffffffffffffff1673ffffffffffffffffffffffffffffffffffffffff16815260200190815260200160002060006101000a81548160ff0219169083151502179055505b5050505050505050565b6000809054906101000a900473ffffffffffffffffffffffffffffffffffffffff1673ffffffffffffffffffffffffffffffffffffffff163373ffffffffffffffffffffffffffffffffffffffff16141515610ecf57600080fd5b60008060146101000a81548160ff021916908315150217905550565b60008034915060075482029050670de0b6b3a76400008110151515610f0f57600080fd5b683635c9adc5dea000008111151515610f2757600080fd5b600360009054906101000a900473ffffffffffffffffffffffffffffffffffffffff1673ffffffffffffffffffffffffffffffffffffffff1663a9059cbb33836000604051602001526040518363ffffffff167c0100000000000000000000000000000000000000000000000000000000028152600401808373ffffffffffffffffffffffffffffffffffffffff1673ffffffffffffffffffffffffffffffffffffffff16815260200182815260200192505050602060405180830381600087803b1515610ff457600080fd5b6102c65a03f1151561100557600080fd5b50505060405180519050505050565b6000670de0b6b3a764000082101561102f5760029050611158565b81600360009054906101000a900473ffffffffffffffffffffffffffffffffffffffff1673ffffffffffffffffffffffffffffffffffffffff1663dd62ed3e33306000604051602001526040518363ffffffff167c0100000000000000000000000000000000000000000000000000000000028152600401808373ffffffffffffffffffffffffffffffffffffffff1673ffffffffffffffffffffffffffffffffffffffff1681526020018273ffffffffffffffffffffffffffffffffffffffff1673ffffffffffffffffffffffffffffffffffffffff16815260200192505050602060405180830381600087803b151561112957600080fd5b6102c65a03f1151561113a57600080fd5b5050506040518051905010156111535760019050611158565b600090505b919050565b6000806000600260009054906101000a900473ffffffffffffffffffffffffffffffffffffffff1673ffffffffffffffffffffffffffffffffffffffff16634adaaf1f85336000604051602001526040518363ffffffff167c01000000000000000000000000000000000000000000000000000000000281526004018083600019166000191681526020018273ffffffffffffffffffffffffffffffffffffffff1673ffffffffffffffffffffffffffffffffffffffff16815260200192505050602060405180830381600087803b151561123757600080fd5b6102c65a03f1151561124857600080fd5b50505060405180519050151561126157600192506114a1565b600260009054906101000a900473ffffffffffffffffffffffffffffffffffffffff1673ffffffffffffffffffffffffffffffffffffffff166303c856d385600060405160e001526040518263ffffffff167c010000000000000000000000000000000000000000000000000000000002815260040180826000191660001916815260200191505060e060405180830381600087803b151561130257600080fd5b6102c65a03f1151561131357600080fd5b5050506040518051906020018051906020018051906020018051906020018051906020018051906020018051905050505050935050506000600381111561135657fe5b82600381111561136257fe5b1415801561138757506001600381111561137857fe5b82600381111561138457fe5b14155b1561139557600292506114a1565b600260009054906101000a900473ffffffffffffffffffffffffffffffffffffffff1673ffffffffffffffffffffffffffffffffffffffff1663385afd8c85600060405161012001526040518263ffffffff167c010000000000000000000000000000000000000000000000000000000002815260040180826000191660001916815260200191505061012060405180830381600087803b151561143857600080fd5b6102c65a03f1151561144957600080fd5b5050506040518051906020018051906020018051906020018051906020018051906020018051906020018051906020018051906020018051905050509650505050505050801561149c57600392506114a1565b600092505b5050919050565b6000806114b483611014565b1415156114c057600080fd5b6114d5600754836117b390919063ffffffff16565b9050600360009054906101000a900473ffffffffffffffffffffffffffffffffffffffff1673ffffffffffffffffffffffffffffffffffffffff166323b872dd3330856000604051602001526040518463ffffffff167c0100000000000000000000000000000000000000000000000000000000028152600401808473ffffffffffffffffffffffffffffffffffffffff1673ffffffffffffffffffffffffffffffffffffffff1681526020018373ffffffffffffffffffffffffffffffffffffffff1673ffffffffffffffffffffffffffffffffffffffff1681526020018281526020019350505050602060405180830381600087803b15156115d857600080fd5b6102c65a03f115156115e957600080fd5b5050506040518051905015611639573373ffffffffffffffffffffffffffffffffffffffff166108fc829081150290604051600060405180830381858888f19350505050151561163857600080fd5b5b5050565b600160009054906101000a900473ffffffffffffffffffffffffffffffffffffffff1673ffffffffffffffffffffffffffffffffffffffff163373ffffffffffffffffffffffffffffffffffffffff1614151561169957600080fd5b600073ffffffffffffffffffffffffffffffffffffffff168173ffffffffffffffffffffffffffffffffffffffff16141515156116d557600080fd5b8073ffffffffffffffffffffffffffffffffffffffff16600160009054906101000a900473ffffffffffffffffffffffffffffffffffffffff1673ffffffffffffffffffffffffffffffffffffffff167f8be0079c531659141344cd1fd0a4f28419497f9722a3daafe3b4186f6b6457e060405160405180910390a380600160006101000a81548173ffffffffffffffffffffffffffffffffffffffff021916908373ffffffffffffffffffffffffffffffffffffffff16021790555050565b60008082840190508381101515156117a957fe5b8091505092915050565b60008082848115156117c157fe5b0490508091505092915050565b60008060048111156117dc57fe5b8260048111156117e857fe5b14156117f75760009050611899565b6001600481111561180457fe5b82600481111561181057fe5b141561181f57603c9050611899565b6002600481111561182c57fe5b82600481111561183857fe5b14156118475760969050611899565b6003600481111561185457fe5b82600481111561186057fe5b14156118705761012c9050611899565b60048081111561187c57fe5b82600481111561188857fe5b1415611898576101c29050611899565b5b9190505600a165627a7a72305820d443f79f87a2b98d91ec6c7a2c70b9a0236923d82970f64a557f4e82b3a3584d0029",
  "source": "pragma solidity ^0.4.18;\nimport '../node_modules/zeppelin-solidity/contracts/ownership/Ownable.sol';\nimport '../node_modules/zeppelin-solidity/contracts/math/SafeMath.sol';\nimport './common/Stoppable.sol';\nimport './common/HbStorage.sol';\nimport './common/KnotToken.sol';\nimport './FlightDelay.sol';\n\n/** @title group smart contract. */\ncontract FlightDelayService is Stoppable, Ownable {\n    using SafeMath for uint256;\n    HbStorage hbs;\n    KnotToken token;\n    mapping(bytes32 => mapping(address => bool)) paidInfos;\n    uint public exchanged;\n    mapping(address => uint) public withdraws;\n    uint public rate = 4000;\n\n    uint public testOK;\n    function setRate(uint _rate) external onlyOwner {\n        rate = _rate;\n    }\n    struct DelayPayInfo {\n        uint times;\n        uint payCount;\n        bool isValued;\n    }\n    // uint public tokenCount = 0;\n    mapping(uint => DelayPayInfo) public delayPayInfos;\n    function FlightDelayService(address hbsAddress, address tokenAddress) public Stoppable(msg.sender) {\n        hbs = HbStorage(hbsAddress);\n        token = KnotToken(tokenAddress);\n        delayPayInfos[uint(HbStorage.DelayStatus.no)] = DelayPayInfo({times: 0, payCount: getDelayClaimRate(HbStorage.DelayStatus.no), isValued: true});\n        delayPayInfos[uint(HbStorage.DelayStatus.delay1)] = DelayPayInfo({times: 30, payCount: getDelayClaimRate(HbStorage.DelayStatus.delay1), isValued: true});\n        delayPayInfos[uint(HbStorage.DelayStatus.delay2)] = DelayPayInfo({times: 60, payCount: getDelayClaimRate(HbStorage.DelayStatus.delay2), isValued: true});\n        delayPayInfos[uint(HbStorage.DelayStatus.delay3)] = DelayPayInfo({times: 120, payCount: getDelayClaimRate(HbStorage.DelayStatus.delay3), isValued: true});\n        delayPayInfos[uint(HbStorage.DelayStatus.cancel)] = DelayPayInfo({times: 999, payCount: getDelayClaimRate(HbStorage.DelayStatus.cancel), isValued: true});\n    }\n    /** @dev 获取各个时间段的赔付率\n      * @param status 赔付时间段\n      */    \n    function getDelayClaimRate(HbStorage.DelayStatus status) internal returns (uint){\n        if (status == HbStorage.DelayStatus.no) {\n            return 0;\n        }\n        if (status == HbStorage.DelayStatus.delay1 ) {\n            return 30 * 2;\n        }\n        if ( status == HbStorage.DelayStatus.delay2) {\n            return 30 * 5;\n        }\n        if ( status == HbStorage.DelayStatus.delay3) {\n            return 30 * 10;\n        }\n        if ( status == HbStorage.DelayStatus.cancel) {\n            return 30 * 15;\n        }\n    }\n    /** @dev start Claim check\n      * \n      */  \n    function claimVoteCheck(bytes32 index) public view returns (uint) {\n        if(!hbs.isMemberInSF(index, msg.sender)){\n            return 1; // 没有加入改航班\n        }\n        var (,,status,,,,) = hbs.returnSFInfo(index);\n        if(status != HbStorage.SFStatus.opening && status != HbStorage.SFStatus.closed) {\n            return 2; // 航班状态不对\n        }\n        var (,,,,,,ended,,) = hbs.voteInfos(index);\n        if (ended) {\n            return 3; // 投票已结束\n        }\n        // 将来可能还需要增加日期间隔校验\n        return 0;\n    }\n\n    /** @dev user start claim vote\n      * @param index 航班号+航班日期的index\n      */  \n    function claimVote(bytes32 index) external stopInEmergency{\n        require(claimVoteCheck(index) == 0);\n        // require(hbs.isMemberInSF(index, msg.sender));\n        // var (,,status,,,) = hbs.returnSFInfo(index);\n        // require(status == HbStorage.SFStatus.opening);\n        // 改变航班状态\n        hbs.changeSFStatus(index, HbStorage.SFStatus.claiming);\n        // 增加一条投票记录\n        // hbs.updateVote(index, vote);\n\n        hbs.addVote(index);\n\n\n        testOK = block.number;\n    }\n\n    function claimCheck(bytes32 index) public returns(uint) {\n        if(!hbs.isMemberInSF(index, msg.sender)){\n            return 1; // 没有加入改航班\n        }\n        var (,,status,,,,) = hbs.returnSFInfo(index);\n        if(status != HbStorage.SFStatus.ended) {\n            return 2; // 航班状态不对\n        }\n        if (paidInfos[index][msg.sender]) {\n            return 3; // 已经赔付过了\n        }\n        // 将来可能还需要增加日期间隔校验\n        return 0;        \n    }\n    function claim(bytes32 index) external stopInEmergency {\n        require(claimCheck(index) == 0);\n        var (delay1Counts, delay2Counts, delay3Counts, cancelCounts, noCounts,,,,) = hbs.voteInfos(index);\n        HbStorage.DelayStatus status = HbStorage.DelayStatus.no;\n        if (noCounts < delay1Counts) {\n            status = HbStorage.DelayStatus.delay1;\n        }\n        if (delay1Counts < delay2Counts) {\n            status = HbStorage.DelayStatus.delay2;\n        }\n        if (delay2Counts < delay3Counts) {\n            status = HbStorage.DelayStatus.delay3;\n        }\n        if (delay3Counts < cancelCounts) {\n            status = HbStorage.DelayStatus.cancel;\n        } \n        uint payCount = delayPayInfos[uint(status)].payCount;\n        if (payCount > 0) {\n            withdraws[msg.sender] = withdraws[msg.sender].add(payCount * 1 ether);\n            paidInfos[index][msg.sender] = true;\n        }\n    }\n    function withdraw() external stopInEmergency {\n        uint value = withdraws[msg.sender];\n        require(value > 0);\n        if(token.transfer(msg.sender, value)) {\n            withdraws[msg.sender] = 0;\n        }\n    }\n    /** @dev 用户兑换token \n      */  \n    function exchange() public payable {\n        uint eth = msg.value; \n        uint tokenCount = eth * rate;\n        require( tokenCount >= 1 ether);\n        require( tokenCount <= 1000 ether );\n        token.transfer(msg.sender, tokenCount);\n    }\n    function redeemCheck(uint tokenValue) public view returns(uint) {\n        if (tokenValue < 1 ether) {\n            return 2; // too small redeem\n        }\n        if (token.allowance(msg.sender, this) < tokenValue) {\n            return 1; // no token allowance\n        }\n        return 0;\n    }\n    function redeem(uint tokenValue) external { \n        require(redeemCheck(tokenValue) == 0);\n        uint eth = tokenValue.div(rate);\n        if(token.transferFrom(msg.sender, this, tokenValue)) {\n            msg.sender.transfer(eth);\n        }\n    }\n\n\n    //remove a element from array\n    function arrayRemove(bytes32[] storage array, uint index) internal {\n        if (index >= array.length) return;\n        for (uint i = index; i<array.length-1; i++){\n            array[i] = array[i+1];\n        }\n        array.length--;\n    }\n} ",
  "sourcePath": "/Users/hanting/workspace/ethereum/truffle/huibaoSC/contracts/FlightDelayService.sol",
  "compiler": {
    "name": "solc",
    "version": "0.4.18+commit.9cf6e910.Emscripten.clang"
  },
  "schemaVersion": "1.0.1",
  "updatedAt": "2018-05-29T03:06:32.367Z"
}