{
  "contractName": "Group",
  "abi": [
    {
      "constant": true,
      "inputs": [],
      "name": "isAwarded",
      "outputs": [
        {
          "name": "",
          "type": "bool"
        }
      ],
      "payable": false,
      "stateMutability": "view",
      "type": "function"
    },
    {
      "constant": true,
      "inputs": [],
      "name": "getToken",
      "outputs": [
        {
          "name": "",
          "type": "address"
        }
      ],
      "payable": false,
      "stateMutability": "view",
      "type": "function"
    },
    {
      "constant": true,
      "inputs": [
        {
          "name": "",
          "type": "address"
        }
      ],
      "name": "membersInGroup",
      "outputs": [
        {
          "name": "",
          "type": "bool"
        }
      ],
      "payable": false,
      "stateMutability": "view",
      "type": "function"
    },
    {
      "constant": false,
      "inputs": [],
      "name": "receiveBonus",
      "outputs": [],
      "payable": false,
      "stateMutability": "nonpayable",
      "type": "function"
    },
    {
      "constant": false,
      "inputs": [],
      "name": "close",
      "outputs": [],
      "payable": false,
      "stateMutability": "nonpayable",
      "type": "function"
    },
    {
      "constant": true,
      "inputs": [],
      "name": "isOpen",
      "outputs": [
        {
          "name": "",
          "type": "bool"
        }
      ],
      "payable": false,
      "stateMutability": "view",
      "type": "function"
    },
    {
      "constant": false,
      "inputs": [],
      "name": "emergencyStop",
      "outputs": [],
      "payable": false,
      "stateMutability": "nonpayable",
      "type": "function"
    },
    {
      "constant": true,
      "inputs": [
        {
          "name": "membersNumber",
          "type": "uint256"
        },
        {
          "name": "interval",
          "type": "uint256"
        }
      ],
      "name": "getRandom",
      "outputs": [
        {
          "name": "",
          "type": "uint256"
        }
      ],
      "payable": false,
      "stateMutability": "view",
      "type": "function"
    },
    {
      "constant": true,
      "inputs": [],
      "name": "stopped",
      "outputs": [
        {
          "name": "",
          "type": "bool"
        }
      ],
      "payable": false,
      "stateMutability": "view",
      "type": "function"
    },
    {
      "constant": true,
      "inputs": [],
      "name": "owner",
      "outputs": [
        {
          "name": "",
          "type": "address"
        }
      ],
      "payable": false,
      "stateMutability": "view",
      "type": "function"
    },
    {
      "constant": true,
      "inputs": [],
      "name": "getMembers",
      "outputs": [
        {
          "name": "",
          "type": "address[]"
        }
      ],
      "payable": false,
      "stateMutability": "view",
      "type": "function"
    },
    {
      "constant": false,
      "inputs": [
        {
          "name": "interval",
          "type": "uint256"
        }
      ],
      "name": "lottery",
      "outputs": [],
      "payable": false,
      "stateMutability": "nonpayable",
      "type": "function"
    },
    {
      "constant": false,
      "inputs": [],
      "name": "join",
      "outputs": [],
      "payable": false,
      "stateMutability": "nonpayable",
      "type": "function"
    },
    {
      "constant": false,
      "inputs": [],
      "name": "start",
      "outputs": [],
      "payable": false,
      "stateMutability": "nonpayable",
      "type": "function"
    },
    {
      "constant": true,
      "inputs": [],
      "name": "getItem",
      "outputs": [
        {
          "name": "",
          "type": "string"
        }
      ],
      "payable": false,
      "stateMutability": "view",
      "type": "function"
    },
    {
      "constant": true,
      "inputs": [],
      "name": "winner",
      "outputs": [
        {
          "name": "",
          "type": "address"
        }
      ],
      "payable": false,
      "stateMutability": "view",
      "type": "function"
    },
    {
      "constant": false,
      "inputs": [
        {
          "name": "newOwner",
          "type": "address"
        }
      ],
      "name": "transferOwnership",
      "outputs": [],
      "payable": false,
      "stateMutability": "nonpayable",
      "type": "function"
    },
    {
      "constant": false,
      "inputs": [],
      "name": "open",
      "outputs": [],
      "payable": false,
      "stateMutability": "nonpayable",
      "type": "function"
    },
    {
      "inputs": [
        {
          "name": "_item",
          "type": "string"
        },
        {
          "name": "tokenAddress",
          "type": "address"
        }
      ],
      "payable": false,
      "stateMutability": "nonpayable",
      "type": "constructor"
    },
    {
      "anonymous": false,
      "inputs": [
        {
          "indexed": true,
          "name": "_sender",
          "type": "address"
        },
        {
          "indexed": true,
          "name": "_item",
          "type": "bytes32"
        }
      ],
      "name": "Join",
      "type": "event"
    },
    {
      "anonymous": false,
      "inputs": [
        {
          "indexed": true,
          "name": "_sender",
          "type": "address"
        },
        {
          "indexed": true,
          "name": "_item",
          "type": "bytes32"
        },
        {
          "indexed": false,
          "name": "time",
          "type": "uint256"
        }
      ],
      "name": "Lottery",
      "type": "event"
    },
    {
      "anonymous": false,
      "inputs": [
        {
          "indexed": true,
          "name": "_sender",
          "type": "address"
        },
        {
          "indexed": false,
          "name": "_item",
          "type": "string"
        },
        {
          "indexed": false,
          "name": "time",
          "type": "uint256"
        }
      ],
      "name": "Open",
      "type": "event"
    },
    {
      "anonymous": false,
      "inputs": [
        {
          "indexed": true,
          "name": "_sender",
          "type": "address"
        },
        {
          "indexed": false,
          "name": "_item",
          "type": "string"
        },
        {
          "indexed": false,
          "name": "time",
          "type": "uint256"
        }
      ],
      "name": "Close",
      "type": "event"
    },
    {
      "anonymous": false,
      "inputs": [
        {
          "indexed": true,
          "name": "previousOwner",
          "type": "address"
        },
        {
          "indexed": true,
          "name": "newOwner",
          "type": "address"
        }
      ],
      "name": "OwnershipTransferred",
      "type": "event"
    }
  ],
  "bytecode": "0x606060405234156200001057600080fd5b60405162001b8738038062001b878339810160405280805182019190602001805190602001909190505033336000806101000a81548173ffffffffffffffffffffffffffffffffffffffff021916908373ffffffffffffffffffffffffffffffffffffffff16021790555080600160006101000a81548173ffffffffffffffffffffffffffffffffffffffff021916908373ffffffffffffffffffffffffffffffffffffffff1602179055506000600160146101000a81548160ff021916908315150217905550508160049080519060200190620000f09291906200013a565b5080600660006101000a81548173ffffffffffffffffffffffffffffffffffffffff021916908373ffffffffffffffffffffffffffffffffffffffff1602179055505050620001e9565b828054600181600116156101000203166002900490600052602060002090601f016020900481019282601f106200017d57805160ff1916838001178555620001ae565b82800160010185558215620001ae579182015b82811115620001ad57825182559160200191906001019062000190565b5b509050620001bd9190620001c1565b5090565b620001e691905b80821115620001e2576000816000905550600101620001c8565b5090565b90565b61198e80620001f96000396000f3006060604052600436106100fc576000357c0100000000000000000000000000000000000000000000000000000000900463ffffffff1680630ac0e5501461010157806321df0da71461012e57806325b7c6081461018357806330507451146101d457806343d726d6146101e957806347535d7b146101fe57806363a599a41461022b578063655b08eb1461024057806375f12b21146102805780638da5cb5b146102ad5780639eab525314610302578063a57d15601461036c578063b688a3631461038f578063be9a6555146103a4578063c412eaba146103b9578063dfbf53ae14610447578063f2fde38b1461049c578063fcfff16f146104d5575b600080fd5b341561010c57600080fd5b6101146104ea565b604051808215151515815260200191505060405180910390f35b341561013957600080fd5b6101416104fd565b604051808273ffffffffffffffffffffffffffffffffffffffff1673ffffffffffffffffffffffffffffffffffffffff16815260200191505060405180910390f35b341561018e57600080fd5b6101ba600480803573ffffffffffffffffffffffffffffffffffffffff16906020019091905050610527565b604051808215151515815260200191505060405180910390f35b34156101df57600080fd5b6101e7610547565b005b34156101f457600080fd5b6101fc6109b6565b005b341561020957600080fd5b610211610b2a565b604051808215151515815260200191505060405180910390f35b341561023657600080fd5b61023e610b3d565b005b341561024b57600080fd5b61026a6004808035906020019091908035906020019091905050610bb5565b6040518082815260200191505060405180910390f35b341561028b57600080fd5b610293610c52565b604051808215151515815260200191505060405180910390f35b34156102b857600080fd5b6102c0610c65565b604051808273ffffffffffffffffffffffffffffffffffffffff1673ffffffffffffffffffffffffffffffffffffffff16815260200191505060405180910390f35b341561030d57600080fd5b610315610c8a565b6040518080602001828103825283818151815260200191508051906020019060200280838360005b8381101561035857808201518184015260208101905061033d565b505050509050019250505060405180910390f35b341561037757600080fd5b61038d6004808035906020019091905050610d1e565b005b341561039a57600080fd5b6103a2610f82565b005b34156103af57600080fd5b6103b76114e0565b005b34156103c457600080fd5b6103cc611559565b6040518080602001828103825283818151815260200191508051906020019080838360005b8381101561040c5780820151818401526020810190506103f1565b50505050905090810190601f1680156104395780820380516001836020036101000a031916815260200191505b509250505060405180910390f35b341561045257600080fd5b61045a611601565b604051808273ffffffffffffffffffffffffffffffffffffffff1673ffffffffffffffffffffffffffffffffffffffff16815260200191505060405180910390f35b34156104a757600080fd5b6104d3600480803573ffffffffffffffffffffffffffffffffffffffff16906020019091905050611627565b005b34156104e057600080fd5b6104e861177c565b005b600560159054906101000a900460ff1681565b6000600660009054906101000a900473ffffffffffffffffffffffffffffffffffffffff16905090565b60026020528060005260406000206000915054906101000a900460ff1681565b600560009054906101000a900473ffffffffffffffffffffffffffffffffffffffff1673ffffffffffffffffffffffffffffffffffffffff163373ffffffffffffffffffffffffffffffffffffffff161415156105a357600080fd5b600560159054906101000a900460ff161515156105bf57600080fd5b600660009054906101000a900473ffffffffffffffffffffffffffffffffffffffff1673ffffffffffffffffffffffffffffffffffffffff1663a9059cbb336009600a600660009054906101000a900473ffffffffffffffffffffffffffffffffffffffff1673ffffffffffffffffffffffffffffffffffffffff166370a08231306000604051602001526040518263ffffffff167c0100000000000000000000000000000000000000000000000000000000028152600401808273ffffffffffffffffffffffffffffffffffffffff1673ffffffffffffffffffffffffffffffffffffffff168152602001915050602060405180830381600087803b15156106c757600080fd5b6102c65a03f115156106d857600080fd5b505050604051805190508115156106eb57fe5b04026000604051602001526040518363ffffffff167c0100000000000000000000000000000000000000000000000000000000028152600401808373ffffffffffffffffffffffffffffffffffffffff1673ffffffffffffffffffffffffffffffffffffffff16815260200182815260200192505050602060405180830381600087803b151561077a57600080fd5b6102c65a03f1151561078b57600080fd5b50505060405180519050151561079d57fe5b600660009054906101000a900473ffffffffffffffffffffffffffffffffffffffff1673ffffffffffffffffffffffffffffffffffffffff1663a9059cbb6000809054906101000a900473ffffffffffffffffffffffffffffffffffffffff16600a600660009054906101000a900473ffffffffffffffffffffffffffffffffffffffff1673ffffffffffffffffffffffffffffffffffffffff166370a08231306000604051602001526040518263ffffffff167c0100000000000000000000000000000000000000000000000000000000028152600401808273ffffffffffffffffffffffffffffffffffffffff1673ffffffffffffffffffffffffffffffffffffffff168152602001915050602060405180830381600087803b15156108c457600080fd5b6102c65a03f115156108d557600080fd5b505050604051805190508115156108e857fe5b046000604051602001526040518363ffffffff167c0100000000000000000000000000000000000000000000000000000000028152600401808373ffffffffffffffffffffffffffffffffffffffff1673ffffffffffffffffffffffffffffffffffffffff16815260200182815260200192505050602060405180830381600087803b151561097657600080fd5b6102c65a03f1151561098757600080fd5b50505060405180519050151561099957fe5b6001600560156101000a81548160ff021916908315150217905550565b6000809054906101000a900473ffffffffffffffffffffffffffffffffffffffff1673ffffffffffffffffffffffffffffffffffffffff163373ffffffffffffffffffffffffffffffffffffffff16141515610a1157600080fd5b600560159054906101000a900460ff16151515610a2d57600080fd5b6000600560146101000a81548160ff021916908315150217905550436007819055503373ffffffffffffffffffffffffffffffffffffffff167f24f24e56c669a9cbf0cfd015de600026bf25ce2f832aaf64fccf8037e46c37ad6004426040518080602001838152602001828103825284818154600181600116156101000203166002900481526020019150805460018160011615610100020316600290048015610b195780601f10610aee57610100808354040283529160200191610b19565b820191906000526020600020905b815481529060010190602001808311610afc57829003601f168201915b5050935050505060405180910390a2565b600560149054906101000a900460ff1681565b600160009054906101000a900473ffffffffffffffffffffffffffffffffffffffff1673ffffffffffffffffffffffffffffffffffffffff163373ffffffffffffffffffffffffffffffffffffffff16141515610b9957600080fd5b60018060146101000a81548160ff021916908315150217905550565b600080600083600211151515610bca57600080fd5b60088411151515610bda57600080fd5b8360020a43034060019004915084600754604051808281526020019150506040518091039020600190048301811515610c0f57fe5b049150600090505b848160020a1015610c2d57600181019050610c17565b60018160020a03821691508482101515610c475784820391505b819250505092915050565b600160149054906101000a900460ff1681565b6000809054906101000a900473ffffffffffffffffffffffffffffffffffffffff1681565b610c926118e9565b6003805480602002602001604051908101604052809291908181526020018280548015610d1457602002820191906000526020600020905b8160009054906101000a900473ffffffffffffffffffffffffffffffffffffffff1673ffffffffffffffffffffffffffffffffffffffff1681526020019060010190808311610cca575b5050505050905090565b60008060009054906101000a900473ffffffffffffffffffffffffffffffffffffffff1673ffffffffffffffffffffffffffffffffffffffff163373ffffffffffffffffffffffffffffffffffffffff16141515610d7b57600080fd5b600560149054906101000a900460ff16151515610d9757600080fd5b600560159054906101000a900460ff16151515610db357600080fd5b6001600380549050111515610dc757600080fd5b816007544303111515610dd957600080fd5b600073ffffffffffffffffffffffffffffffffffffffff16600560009054906101000a900473ffffffffffffffffffffffffffffffffffffffff1673ffffffffffffffffffffffffffffffffffffffff16141515610e3657600080fd5b610e4560038054905083610bb5565b9050600381815481101515610e5657fe5b906000526020600020900160009054906101000a900473ffffffffffffffffffffffffffffffffffffffff16600560006101000a81548173ffffffffffffffffffffffffffffffffffffffff021916908373ffffffffffffffffffffffffffffffffffffffff16021790555060046040518082805460018160011615610100020316600290048015610f1f5780601f10610efd576101008083540402835291820191610f1f565b820191906000526020600020905b815481529060010190602001808311610f0b575b50509150506040518091039020600019163373ffffffffffffffffffffffffffffffffffffffff167f7f836ce2cb8c97e60b3f504d1aa56b2f8343eb5b585cc34b4b36450b4656b028426040518082815260200191505060405180910390a35050565b600080600560149054906101000a900460ff161515610fa057600080fd5b600160149054906101000a900460ff16151515610fbc57600080fd5b600660009054906101000a900473ffffffffffffffffffffffffffffffffffffffff1673ffffffffffffffffffffffffffffffffffffffff1663313ce5676000604051602001526040518163ffffffff167c0100000000000000000000000000000000000000000000000000000000028152600401602060405180830381600087803b151561104a57600080fd5b6102c65a03f1151561105b57600080fd5b50505060405180519050600a0a600102915081600660009054906101000a900473ffffffffffffffffffffffffffffffffffffffff1673ffffffffffffffffffffffffffffffffffffffff166370a08231336000604051602001526040518263ffffffff167c0100000000000000000000000000000000000000000000000000000000028152600401808273ffffffffffffffffffffffffffffffffffffffff1673ffffffffffffffffffffffffffffffffffffffff168152602001915050602060405180830381600087803b151561113357600080fd5b6102c65a03f1151561114457600080fd5b505050604051805190501015151561115b57600080fd5b600260003373ffffffffffffffffffffffffffffffffffffffff1673ffffffffffffffffffffffffffffffffffffffff16815260200190815260200160002060009054906101000a900460ff161515156111b457600080fd5b6001600260003373ffffffffffffffffffffffffffffffffffffffff1673ffffffffffffffffffffffffffffffffffffffff16815260200190815260200160002060006101000a81548160ff0219169083151502179055506003805480600101828161122091906118fd565b9160005260206000209001600033909190916101000a81548173ffffffffffffffffffffffffffffffffffffffff021916908373ffffffffffffffffffffffffffffffffffffffff1602179055509050600660009054906101000a900473ffffffffffffffffffffffffffffffffffffffff1673ffffffffffffffffffffffffffffffffffffffff166323b872dd3330856000604051602001526040518463ffffffff167c0100000000000000000000000000000000000000000000000000000000028152600401808473ffffffffffffffffffffffffffffffffffffffff1673ffffffffffffffffffffffffffffffffffffffff1681526020018373ffffffffffffffffffffffffffffffffffffffff1673ffffffffffffffffffffffffffffffffffffffff1681526020018281526020019350505050602060405180830381600087803b151561137157600080fd5b6102c65a03f1151561138257600080fd5b50505060405180519050151561142b576000600260003373ffffffffffffffffffffffffffffffffffffffff1673ffffffffffffffffffffffffffffffffffffffff16815260200190815260200160002060006101000a81548160ff0219169083151502179055506003600182038154811015156113fc57fe5b906000526020600020900160006101000a81549073ffffffffffffffffffffffffffffffffffffffff02191690555b600460405180828054600181600116156101000203166002900480156114885780601f10611466576101008083540402835291820191611488565b820191906000526020600020905b815481529060010190602001808311611474575b50509150506040518091039020600019163373ffffffffffffffffffffffffffffffffffffffff167fa83fc802722f723a8c92a72b5122622913b3a62356588b1867bd9a3368a8a80960405160405180910390a35050565b600160009054906101000a900473ffffffffffffffffffffffffffffffffffffffff1673ffffffffffffffffffffffffffffffffffffffff163373ffffffffffffffffffffffffffffffffffffffff1614151561153c57600080fd5b6000600160146101000a81548160ff021916908315150217905550565b611561611929565b60048054600181600116156101000203166002900480601f0160208091040260200160405190810160405280929190818152602001828054600181600116156101000203166002900480156115f75780601f106115cc576101008083540402835291602001916115f7565b820191906000526020600020905b8154815290600101906020018083116115da57829003601f168201915b5050505050905090565b600560009054906101000a900473ffffffffffffffffffffffffffffffffffffffff1681565b6000809054906101000a900473ffffffffffffffffffffffffffffffffffffffff1673ffffffffffffffffffffffffffffffffffffffff163373ffffffffffffffffffffffffffffffffffffffff1614151561168257600080fd5b600073ffffffffffffffffffffffffffffffffffffffff168173ffffffffffffffffffffffffffffffffffffffff16141515156116be57600080fd5b8073ffffffffffffffffffffffffffffffffffffffff166000809054906101000a900473ffffffffffffffffffffffffffffffffffffffff1673ffffffffffffffffffffffffffffffffffffffff167f8be0079c531659141344cd1fd0a4f28419497f9722a3daafe3b4186f6b6457e060405160405180910390a3806000806101000a81548173ffffffffffffffffffffffffffffffffffffffff021916908373ffffffffffffffffffffffffffffffffffffffff16021790555050565b6000809054906101000a900473ffffffffffffffffffffffffffffffffffffffff1673ffffffffffffffffffffffffffffffffffffffff163373ffffffffffffffffffffffffffffffffffffffff161415156117d757600080fd5b600560159054906101000a900460ff161515156117f357600080fd5b6001600560146101000a81548160ff0219169083151502179055503373ffffffffffffffffffffffffffffffffffffffff167fc177c11b06bf95cea0dad9d31c766ba36f08e5a8a999b7e5bf7521630b3fb51e60044260405180806020018381526020018281038252848181546001816001161561010002031660029004815260200191508054600181600116156101000203166002900480156118d85780601f106118ad576101008083540402835291602001916118d8565b820191906000526020600020905b8154815290600101906020018083116118bb57829003601f168201915b5050935050505060405180910390a2565b602060405190810160405280600081525090565b81548183558181151161192457818360005260206000209182019101611923919061193d565b5b505050565b602060405190810160405280600081525090565b61195f91905b8082111561195b576000816000905550600101611943565b5090565b905600a165627a7a72305820cc26176140d72748a6f6fb04530904d457e5a687fe4e6bf26f58319aced6abd90029",
  "source": "pragma solidity ^0.4.18;\n\nimport '../node_modules/zeppelin-solidity/contracts/ownership/Ownable.sol';\nimport './common/Stoppable.sol';\nimport './common/KnotToken.sol';\n\n\n/** @title group smart contract. */\ncontract Group is Ownable, Stoppable{\n    // address[] members;\n    mapping(address=>bool) public membersInGroup;\n    address[] members;\n    string item;//item id\n\n    // struct Info {\n    //     address winner;\n    //     bool isOpen;\n    //     bool isAwarded;\n    // }\n    // Info info;\n    address public winner;\n    bool public isOpen;\n    bool public isAwarded;\n    // coin contract\n    KnotToken knotToken;\n\n    uint closeBlockNumber;\n\n    event Join(\n        address indexed _sender,\n        bytes32 indexed _item\n    );\n    event Lottery (\n        address indexed _sender,\n        bytes32 indexed _item,\n        uint time\n    );\n    event Open (\n        address indexed _sender,\n        string _item,\n        uint time\n    );\n    event Close (\n        address indexed _sender,\n        string _item,\n        uint time\n    );\n    function Group(string _item, address tokenAddress) public Stoppable(msg.sender) {\n        item = _item;\n        knotToken = KnotToken(tokenAddress);\n    }\n\n    /**\n    * @dev Throws if group is not open.\n    */\n    modifier onlyOpen() {\n        require(isOpen);\n        _;\n    }\n    /**\n    * @dev Throws if sender is not in group.\n    */\n    modifier onlyWinner() {\n        require(msg.sender == winner);\n        _;\n    }\n\n    //manage\n    /** @dev open group,member can join. */\n    function open()  public onlyOwner {\n        require(!isAwarded);\n        isOpen = true;\n        Open(msg.sender, item, block.timestamp);\n    }\n    /** @dev close group,member can not join. */\n    function close() public onlyOwner {\n        require(!isAwarded);\n        isOpen = false;\n        closeBlockNumber = block.number;\n        Close(msg.sender, item, block.timestamp);\n    }\n    /** @dev lottery a winner \n      * @param interval 在关闭活动后，必须经过多少个block才可以开奖.\n      */\n    function lottery(uint interval) external onlyOwner {\n        require(!isOpen);\n        require(!isAwarded);\n        require(members.length > 1);\n        require((block.number - closeBlockNumber) > interval);\n        require(winner == address(0));\n\n        uint winnerIndex = getRandom(members.length, interval);\n        winner = members[winnerIndex];\n        // assert(knotToken.transfer(knotToken, knotToken.balanceOf(this)));\n        Lottery(msg.sender, keccak256(item), block.timestamp);\n    }\n    /** @dev get all joined members */\n    function getMembers() view external returns(address[]) {\n        return members;\n    }\n    //member\n    /** @dev join this group. */\n    function join() external onlyOpen stopInEmergency {\n        uint256 value = 1 * 10 ** knotToken.decimals();\n\n        require(knotToken.balanceOf(msg.sender) >= value);\n        require(!membersInGroup[msg.sender]);\n        \n        membersInGroup[msg.sender] = true;\n        uint length = members.push(msg.sender);\n        //转出\n        if(!knotToken.transferFrom(msg.sender, this, value)) {\n            membersInGroup[msg.sender] = false;\n            delete members[length - 1];\n        }\n        Join(msg.sender, keccak256(item));\n    }\n\n    /** @dev winner receive bonus \n      * 赢家拿走90%，创建人拿走10%\n     */\n    function receiveBonus() external onlyWinner {\n        require(!isAwarded);\n        assert(knotToken.transfer(msg.sender, knotToken.balanceOf(this) / 10 * 9));\n        assert(knotToken.transfer(owner, knotToken.balanceOf(this) / 10));\n        isAwarded = true;\n    }\n    /** @dev get group item. \n      * @return item 返回活动奖品\n      */\n    function getItem() view public returns (string) {\n        return item;\n    }\n    function getToken() view public returns (address) {\n        return knotToken;\n    }\n    //utility\n    // function uint2str(uint i) internal pure returns (string){\n    //     if (i == 0) return \"0\";\n    //     uint j = i;\n    //     uint len;\n    //     while (j != 0){\n    //         len++;\n    //         j /= 10;\n    //     }\n    //     bytes memory bstr = new bytes(len);\n    //     uint k = len - 1;\n    //     while (i != 0){\n    //         bstr[k--] = byte(48 + i % 10);\n    //         i /= 10;\n    //     }\n    //     return string(bstr);\n    // }\n    // function parseInt(string _a, uint _b) internal pure returns (uint) {\n    //     bytes memory bresult = bytes(_a);\n    //     uint mint = 0;\n    //     bool decimals = false;\n    //     for (uint i=0; i<bresult.length; i++){\n    //         if ((bresult[i] >= 48)&&(bresult[i] <= 57)){\n    //             if (decimals){\n    //                if (_b == 0) break;\n    //                 else _b--;\n    //             }\n    //             mint *= 10;\n    //             mint += uint(bresult[i]) - 48;\n    //         } else if (bresult[i] == 46) decimals = true;\n    //     }\n    //     if (_b > 0) mint *= 10**_b;\n    //     return mint;\n    // }\n    // function substring(string str, uint startIndex, uint endIndex) internal pure returns (string) {\n    //     bytes memory strBytes = bytes(str);\n    //     bytes memory result = new bytes(endIndex-startIndex);\n    //     for(uint i = startIndex; i < endIndex; i++) {\n    //         result[i-startIndex] = strBytes[i];\n    //     }\n    //     return string(result);\n    // }\n    // function toBytes(uint256 x) internal pure returns (bytes b) {\n    //     b = new bytes(32);\n    //     assembly { mstore(add(b, 32), x) }\n    // }\n\n\n    /** @dev 测试获取随机数 （暂时根据blockhash生成）\n      * @param membersNumber 当前参加活动的人数.\n      * @param interval 在关闭活动后，必须经过多少个block才可以开奖.\n      * @return number 随机数\n      */    \n    function getRandom(uint membersNumber, uint interval) public view returns(uint) {\n        require(2 <= interval );\n        require(interval <= 8 );\n        uint number = uint(block.blockhash(block.number - 2 ** interval));\n        number = (number + uint(keccak256(closeBlockNumber))) / membersNumber;\n        uint index = 0;\n        while(2 ** index < membersNumber) {\n            index += 1;\n        }\n        number = number & (2 ** index - 1);\n        if (number >= membersNumber) {\n            number = number - membersNumber;\n        }\n        return number;\n    }\n\n}",
  "sourcePath": "/Users/hanting/workspace/ethereum/truffle/huibaoSC/contracts/Group.sol",
  "compiler": {
    "name": "solc",
    "version": "0.4.18+commit.9cf6e910.Emscripten.clang"
  },
  "schemaVersion": "1.0.1",
  "updatedAt": "2018-04-21T02:24:13.799Z"
}