{
  "contractName": "HbStorage",
  "abi": [
    {
      "constant": false,
      "inputs": [
        {
          "name": "index",
          "type": "bytes32"
        }
      ],
      "name": "endVoteByAdmin",
      "outputs": [],
      "payable": false,
      "stateMutability": "nonpayable",
      "type": "function"
    },
    {
      "constant": true,
      "inputs": [
        {
          "name": "_sfIndex",
          "type": "bytes32"
        }
      ],
      "name": "returnSFInfo",
      "outputs": [
        {
          "name": "flightNO",
          "type": "string"
        },
        {
          "name": "flightDate",
          "type": "string"
        },
        {
          "name": "status",
          "type": "uint8"
        },
        {
          "name": "count",
          "type": "uint256"
        },
        {
          "name": "delayStatus",
          "type": "uint8"
        },
        {
          "name": "isValued",
          "type": "bool"
        },
        {
          "name": "price",
          "type": "uint256"
        }
      ],
      "payable": false,
      "stateMutability": "view",
      "type": "function"
    },
    {
      "constant": false,
      "inputs": [
        {
          "name": "_threshold",
          "type": "uint256"
        }
      ],
      "name": "setVoteThreshold",
      "outputs": [],
      "payable": false,
      "stateMutability": "nonpayable",
      "type": "function"
    },
    {
      "constant": false,
      "inputs": [
        {
          "name": "_sfIndex",
          "type": "bytes32"
        },
        {
          "name": "vote",
          "type": "uint8"
        }
      ],
      "name": "updateVote",
      "outputs": [],
      "payable": false,
      "stateMutability": "nonpayable",
      "type": "function"
    },
    {
      "constant": false,
      "inputs": [
        {
          "name": "admin",
          "type": "address"
        }
      ],
      "name": "removeAdmin",
      "outputs": [],
      "payable": false,
      "stateMutability": "nonpayable",
      "type": "function"
    },
    {
      "constant": true,
      "inputs": [
        {
          "name": "_sfIndex",
          "type": "bytes32"
        }
      ],
      "name": "returnMembers",
      "outputs": [
        {
          "name": "",
          "type": "address[]"
        }
      ],
      "payable": false,
      "stateMutability": "view",
      "type": "function"
    },
    {
      "constant": true,
      "inputs": [
        {
          "name": "_sfIndex",
          "type": "bytes32"
        }
      ],
      "name": "getSFCount",
      "outputs": [
        {
          "name": "",
          "type": "uint256"
        }
      ],
      "payable": false,
      "stateMutability": "view",
      "type": "function"
    },
    {
      "constant": false,
      "inputs": [
        {
          "name": "_sfIndex",
          "type": "bytes32"
        }
      ],
      "name": "addVote",
      "outputs": [],
      "payable": false,
      "stateMutability": "nonpayable",
      "type": "function"
    },
    {
      "constant": true,
      "inputs": [
        {
          "name": "",
          "type": "bytes32"
        }
      ],
      "name": "voteInfos",
      "outputs": [
        {
          "name": "delay1Counts",
          "type": "uint256"
        },
        {
          "name": "delay2Counts",
          "type": "uint256"
        },
        {
          "name": "delay3Counts",
          "type": "uint256"
        },
        {
          "name": "cancelCounts",
          "type": "uint256"
        },
        {
          "name": "noCounts",
          "type": "uint256"
        },
        {
          "name": "startNum",
          "type": "uint256"
        },
        {
          "name": "ended",
          "type": "bool"
        },
        {
          "name": "ender",
          "type": "address"
        },
        {
          "name": "isValued",
          "type": "bool"
        }
      ],
      "payable": false,
      "stateMutability": "view",
      "type": "function"
    },
    {
      "constant": true,
      "inputs": [],
      "name": "voteEndInterval",
      "outputs": [
        {
          "name": "",
          "type": "uint256"
        }
      ],
      "payable": false,
      "stateMutability": "view",
      "type": "function"
    },
    {
      "constant": true,
      "inputs": [
        {
          "name": "",
          "type": "address"
        }
      ],
      "name": "admins",
      "outputs": [
        {
          "name": "",
          "type": "bool"
        }
      ],
      "payable": false,
      "stateMutability": "view",
      "type": "function"
    },
    {
      "constant": true,
      "inputs": [],
      "name": "voteEndThreshold",
      "outputs": [
        {
          "name": "",
          "type": "uint256"
        }
      ],
      "payable": false,
      "stateMutability": "view",
      "type": "function"
    },
    {
      "constant": true,
      "inputs": [
        {
          "name": "_sfIndex",
          "type": "bytes32"
        },
        {
          "name": "member",
          "type": "address"
        }
      ],
      "name": "isMemberInSF",
      "outputs": [
        {
          "name": "",
          "type": "bool"
        }
      ],
      "payable": false,
      "stateMutability": "view",
      "type": "function"
    },
    {
      "constant": true,
      "inputs": [
        {
          "name": "_sfIndex",
          "type": "bytes32"
        }
      ],
      "name": "isInSF",
      "outputs": [
        {
          "name": "",
          "type": "bool"
        }
      ],
      "payable": false,
      "stateMutability": "view",
      "type": "function"
    },
    {
      "constant": true,
      "inputs": [
        {
          "name": "_sfIndex",
          "type": "bytes32"
        }
      ],
      "name": "returnMemberSFInfo",
      "outputs": [
        {
          "name": "time",
          "type": "uint256"
        },
        {
          "name": "votedSF",
          "type": "bytes32"
        },
        {
          "name": "vote",
          "type": "uint8"
        },
        {
          "name": "isValued",
          "type": "bool"
        }
      ],
      "payable": false,
      "stateMutability": "view",
      "type": "function"
    },
    {
      "constant": true,
      "inputs": [],
      "name": "returnMemberSFs",
      "outputs": [
        {
          "name": "",
          "type": "bytes32[]"
        }
      ],
      "payable": false,
      "stateMutability": "view",
      "type": "function"
    },
    {
      "constant": false,
      "inputs": [
        {
          "name": "admin",
          "type": "address"
        }
      ],
      "name": "setAdmin",
      "outputs": [],
      "payable": false,
      "stateMutability": "nonpayable",
      "type": "function"
    },
    {
      "constant": false,
      "inputs": [],
      "name": "getCurrentVotes",
      "outputs": [
        {
          "name": "",
          "type": "bytes32[]"
        }
      ],
      "payable": false,
      "stateMutability": "nonpayable",
      "type": "function"
    },
    {
      "constant": true,
      "inputs": [
        {
          "name": "",
          "type": "bytes32"
        }
      ],
      "name": "sfHistroy",
      "outputs": [
        {
          "name": "totalCounts",
          "type": "uint256"
        },
        {
          "name": "delayedCounts",
          "type": "uint256"
        }
      ],
      "payable": false,
      "stateMutability": "view",
      "type": "function"
    },
    {
      "constant": true,
      "inputs": [],
      "name": "owner",
      "outputs": [
        {
          "name": "",
          "type": "address"
        }
      ],
      "payable": false,
      "stateMutability": "view",
      "type": "function"
    },
    {
      "constant": false,
      "inputs": [
        {
          "name": "_interval",
          "type": "uint256"
        }
      ],
      "name": "setVoteEndInterval",
      "outputs": [],
      "payable": false,
      "stateMutability": "nonpayable",
      "type": "function"
    },
    {
      "constant": true,
      "inputs": [
        {
          "name": "",
          "type": "uint256"
        }
      ],
      "name": "currentVotes",
      "outputs": [
        {
          "name": "",
          "type": "bytes32"
        }
      ],
      "payable": false,
      "stateMutability": "view",
      "type": "function"
    },
    {
      "constant": true,
      "inputs": [
        {
          "name": "_sfIndex",
          "type": "bytes32"
        }
      ],
      "name": "isOpening",
      "outputs": [
        {
          "name": "",
          "type": "bool"
        }
      ],
      "payable": false,
      "stateMutability": "view",
      "type": "function"
    },
    {
      "constant": false,
      "inputs": [
        {
          "name": "_sfIndex",
          "type": "bytes32"
        }
      ],
      "name": "setClose",
      "outputs": [],
      "payable": false,
      "stateMutability": "nonpayable",
      "type": "function"
    },
    {
      "constant": true,
      "inputs": [
        {
          "name": "",
          "type": "address"
        },
        {
          "name": "",
          "type": "uint256"
        }
      ],
      "name": "memberSFs",
      "outputs": [
        {
          "name": "",
          "type": "bytes32"
        }
      ],
      "payable": false,
      "stateMutability": "view",
      "type": "function"
    },
    {
      "constant": false,
      "inputs": [
        {
          "name": "index",
          "type": "bytes32"
        },
        {
          "name": "user",
          "type": "address"
        }
      ],
      "name": "endVote",
      "outputs": [],
      "payable": false,
      "stateMutability": "nonpayable",
      "type": "function"
    },
    {
      "constant": true,
      "inputs": [],
      "name": "getScheduledFlights",
      "outputs": [
        {
          "name": "",
          "type": "bytes32[]"
        }
      ],
      "payable": false,
      "stateMutability": "view",
      "type": "function"
    },
    {
      "constant": true,
      "inputs": [
        {
          "name": "",
          "type": "address"
        }
      ],
      "name": "memberInfos",
      "outputs": [
        {
          "name": "winCounts",
          "type": "uint256"
        },
        {
          "name": "isValued",
          "type": "bool"
        }
      ],
      "payable": false,
      "stateMutability": "view",
      "type": "function"
    },
    {
      "constant": true,
      "inputs": [
        {
          "name": "",
          "type": "bytes32"
        }
      ],
      "name": "scheduledFlights",
      "outputs": [
        {
          "name": "flightNO",
          "type": "string"
        },
        {
          "name": "flightDate",
          "type": "string"
        },
        {
          "name": "status",
          "type": "uint8"
        },
        {
          "name": "count",
          "type": "uint256"
        },
        {
          "name": "price",
          "type": "uint256"
        },
        {
          "name": "delayStatus",
          "type": "uint8"
        },
        {
          "name": "isValued",
          "type": "bool"
        }
      ],
      "payable": false,
      "stateMutability": "view",
      "type": "function"
    },
    {
      "constant": false,
      "inputs": [
        {
          "name": "_sfIndex",
          "type": "bytes32"
        },
        {
          "name": "_flightNO",
          "type": "string"
        },
        {
          "name": "_flightDate",
          "type": "string"
        },
        {
          "name": "_member",
          "type": "address"
        },
        {
          "name": "_votedSFIndex",
          "type": "bytes32"
        },
        {
          "name": "_vote",
          "type": "uint8"
        },
        {
          "name": "_price",
          "type": "uint256"
        }
      ],
      "name": "addMemberToSF",
      "outputs": [],
      "payable": false,
      "stateMutability": "nonpayable",
      "type": "function"
    },
    {
      "constant": false,
      "inputs": [
        {
          "name": "newOwner",
          "type": "address"
        }
      ],
      "name": "transferOwnership",
      "outputs": [],
      "payable": false,
      "stateMutability": "nonpayable",
      "type": "function"
    },
    {
      "constant": false,
      "inputs": [
        {
          "name": "index",
          "type": "bytes32"
        },
        {
          "name": "status",
          "type": "uint8"
        }
      ],
      "name": "changeSFStatus",
      "outputs": [],
      "payable": false,
      "stateMutability": "nonpayable",
      "type": "function"
    },
    {
      "anonymous": false,
      "inputs": [
        {
          "indexed": false,
          "name": "_sfIndex",
          "type": "bytes32"
        },
        {
          "indexed": false,
          "name": "member",
          "type": "address"
        }
      ],
      "name": "MemberAdded",
      "type": "event"
    },
    {
      "anonymous": false,
      "inputs": [
        {
          "indexed": true,
          "name": "previousOwner",
          "type": "address"
        },
        {
          "indexed": true,
          "name": "newOwner",
          "type": "address"
        }
      ],
      "name": "OwnershipTransferred",
      "type": "event"
    }
  ],
  "bytecode": "0x60606040526064600155600a600255336000806101000a81548173ffffffffffffffffffffffffffffffffffffffff021916908373ffffffffffffffffffffffffffffffffffffffff1602179055506128ac8061005d6000396000f300606060405260043610610196576000357c0100000000000000000000000000000000000000000000000000000000900463ffffffff168063029ddc831461019b57806303c856d3146101c2578063129094851461031157806316ff98c8146103345780631785f53c146103675780631cce1444146103a05780632a9e90b91461041c5780632d454c6d14610457578063385afd8c1461047e57806340c4af4c14610525578063429b62e51461054e57806348a44eb81461059f5780634adaaf1f146105c8578063568ebb5c1461062657806363ecba0e146106655780636eff3044146106cf578063704b6c021461073957806372b4ca471461077257806385c768e8146107dc5780638da5cb5b1461081e5780639394edfe146108735780639627293c14610896578063995a3dee146108d5578063a1b73fff14610914578063a3b34c081461093b578063b8dbf2b814610999578063c085c346146109df578063c853663914610a49578063d948413314610aa1578063f0b2801a14610c2a578063f2fde38b14610d18578063f429b70514610d51575b600080fd5b34156101a657600080fd5b6101c0600480803560001916906020019091905050610d84565b005b34156101cd57600080fd5b6101e7600480803560001916906020019091905050610ed2565b6040518080602001806020018860038111156101ff57fe5b60ff16815260200187815260200186600481111561021957fe5b60ff1681526020018515151515815260200184815260200183810383528a818151815260200191508051906020019080838360005b8381101561026957808201518184015260208101905061024e565b50505050905090810190601f1680156102965780820380516001836020036101000a031916815260200191505b50838103825289818151815260200191508051906020019080838360005b838110156102cf5780820151818401526020810190506102b4565b50505050905090810190601f1680156102fc5780820380516001836020036101000a031916815260200191505b50995050505050505050505060405180910390f35b341561031c57600080fd5b6103326004808035906020019091905050611139565b005b341561033f57600080fd5b61036560048080356000191690602001909190803560ff1690602001909190505061119e565b005b341561037257600080fd5b61039e600480803573ffffffffffffffffffffffffffffffffffffffff16906020019091905050611357565b005b34156103ab57600080fd5b6103c560048080356000191690602001909190505061140d565b6040518080602001828103825283818151815260200191508051906020019060200280838360005b838110156104085780820151818401526020810190506103ed565b505050509050019250505060405180910390f35b341561042757600080fd5b6104416004808035600019169060200190919050506114bf565b6040518082815260200191505060405180910390f35b341561046257600080fd5b61047c6004808035600019169060200190919050506114e7565b005b341561048957600080fd5b6104a36004808035600019169060200190919050506115c3565b604051808a8152602001898152602001888152602001878152602001868152602001858152602001841515151581526020018373ffffffffffffffffffffffffffffffffffffffff1673ffffffffffffffffffffffffffffffffffffffff16815260200182151515158152602001995050505050505050505060405180910390f35b341561053057600080fd5b61053861164b565b6040518082815260200191505060405180910390f35b341561055957600080fd5b610585600480803573ffffffffffffffffffffffffffffffffffffffff16906020019091905050611651565b604051808215151515815260200191505060405180910390f35b34156105aa57600080fd5b6105b2611671565b6040518082815260200191505060405180910390f35b34156105d357600080fd5b61060c60048080356000191690602001909190803573ffffffffffffffffffffffffffffffffffffffff16906020019091905050611677565b604051808215151515815260200191505060405180910390f35b341561063157600080fd5b61064b600480803560001916906020019091905050611761565b604051808215151515815260200191505060405180910390f35b341561067057600080fd5b61068a600480803560001916906020019091905050611774565b6040518085815260200184600019166000191681526020018360048111156106ae57fe5b60ff1681526020018215151515815260200194505050505060405180910390f35b34156106da57600080fd5b6106e2611873565b6040518080602001828103825283818151815260200191508051906020019060200280838360005b8381101561072557808201518184015260208101905061070a565b505050509050019250505060405180910390f35b341561074457600080fd5b610770600480803573ffffffffffffffffffffffffffffffffffffffff16906020019091905050611912565b005b341561077d57600080fd5b610785611a1c565b6040518080602001828103825283818151815260200191508051906020019060200280838360005b838110156107c85780820151818401526020810190506107ad565b505050509050019250505060405180910390f35b34156107e757600080fd5b610801600480803560001916906020019091905050611a7e565b604051808381526020018281526020019250505060405180910390f35b341561082957600080fd5b610831611aa2565b604051808273ffffffffffffffffffffffffffffffffffffffff1673ffffffffffffffffffffffffffffffffffffffff16815260200191505060405180910390f35b341561087e57600080fd5b6108946004808035906020019091905050611ac7565b005b34156108a157600080fd5b6108b76004808035906020019091905050611b2c565b60405180826000191660001916815260200191505060405180910390f35b34156108e057600080fd5b6108fa600480803560001916906020019091905050611b50565b604051808215151515815260200191505060405180910390f35b341561091f57600080fd5b610939600480803560001916906020019091905050611bae565b005b341561094657600080fd5b61097b600480803573ffffffffffffffffffffffffffffffffffffffff16906020019091908035906020019091905050611c49565b60405180826000191660001916815260200191505060405180910390f35b34156109a457600080fd5b6109dd60048080356000191690602001909190803573ffffffffffffffffffffffffffffffffffffffff16906020019091905050611c7a565b005b34156109ea57600080fd5b6109f2611db2565b6040518080602001828103825283818151815260200191508051906020019060200280838360005b83811015610a35578082015181840152602081019050610a1a565b505050509050019250505060405180910390f35b3415610a5457600080fd5b610a80600480803573ffffffffffffffffffffffffffffffffffffffff16906020019091905050611e51565b60405180838152602001821515151581526020019250505060405180910390f35b3415610aac57600080fd5b610ac6600480803560001916906020019091905050611e82565b604051808060200180602001886003811115610ade57fe5b60ff168152602001878152602001868152602001856004811115610afe57fe5b60ff1681526020018415151515815260200183810383528a818154600181600116156101000203166002900481526020019150805460018160011615610100020316600290048015610b915780601f10610b6657610100808354040283529160200191610b91565b820191906000526020600020905b815481529060010190602001808311610b7457829003601f168201915b5050838103825289818154600181600116156101000203166002900481526020019150805460018160011615610100020316600290048015610c145780601f10610be957610100808354040283529160200191610c14565b820191906000526020600020905b815481529060010190602001808311610bf757829003601f168201915b5050995050505050505050505060405180910390f35b3415610c3557600080fd5b610d1660048080356000191690602001909190803590602001908201803590602001908080601f0160208091040260200160405190810160405280939291908181526020018383808284378201915050505050509190803590602001908201803590602001908080601f0160208091040260200160405190810160405280939291908181526020018383808284378201915050505050509190803573ffffffffffffffffffffffffffffffffffffffff169060200190919080356000191690602001909190803560ff16906020019091908035906020019091905050611ee9565b005b3415610d2357600080fd5b610d4f600480803573ffffffffffffffffffffffffffffffffffffffff16906020019091905050612318565b005b3415610d5c57600080fd5b610d8260048080356000191690602001909190803560ff1690602001909190505061246d565b005b6000809054906101000a900473ffffffffffffffffffffffffffffffffffffffff1673ffffffffffffffffffffffffffffffffffffffff163373ffffffffffffffffffffffffffffffffffffffff16141515610ddf57600080fd5b610de881612553565b1515610df357600080fd5b600360046000836000191660001916815260200190815260200160002060030160006101000a81548160ff02191690836003811115610e2e57fe5b0217905550600160056000836000191660001916815260200190815260200160002060060160006101000a81548160ff0219169083151502179055503360056000836000191660001916815260200190815260200160002060060160016101000a81548173ffffffffffffffffffffffffffffffffffffffff021916908373ffffffffffffffffffffffffffffffffffffffff160217905550610ecf612617565b50565b610eda6126e9565b610ee26126e9565b6000806000806000600460008960001916600019168152602001908152602001600020600101600460008a60001916600019168152602001908152602001600020600201600460008b6000191660001916815260200190815260200160002060030160009054906101000a900460ff16600460008c6000191660001916815260200190815260200160002060040154600460008d6000191660001916815260200190815260200160002060060160009054906101000a900460ff16600460008e6000191660001916815260200190815260200160002060060160019054906101000a900460ff16600460008f6000191660001916815260200190815260200160002060050154868054600181600116156101000203166002900480601f01602080910402602001604051908101604052809291908181526020018280546001816001161561010002031660029004801561107d5780601f106110525761010080835404028352916020019161107d565b820191906000526020600020905b81548152906001019060200180831161106057829003601f168201915b50505050509650858054600181600116156101000203166002900480601f0160208091040260200160405190810160405280929190818152602001828054600181600116156101000203166002900480156111195780601f106110ee57610100808354040283529160200191611119565b820191906000526020600020905b8154815290600101906020018083116110fc57829003601f168201915b505050505095509650965096509650965096509650919395979092949650565b6000809054906101000a900473ffffffffffffffffffffffffffffffffffffffff1673ffffffffffffffffffffffffffffffffffffffff163373ffffffffffffffffffffffffffffffffffffffff1614151561119457600080fd5b8060028190555050565b6000600360003373ffffffffffffffffffffffffffffffffffffffff1673ffffffffffffffffffffffffffffffffffffffff16815260200190815260200160002060009054906101000a900460ff1615156111f857600080fd5b60056000846000191660001916815260200190815260200160002090508060060160159054906101000a900460ff1615156112545760018160060160156101000a81548160ff0219169083151502179055504381600501819055505b6000600481111561126157fe5b82600481111561126d57fe5b141561128757600181600401600082825401925050819055505b6001600481111561129457fe5b8260048111156112a057fe5b14156112ba57600181600001600082825401925050819055505b600260048111156112c757fe5b8260048111156112d357fe5b14156112ed57600181600101600082825401925050819055505b600360048111156112fa57fe5b82600481111561130657fe5b141561132057600181600201600082825401925050819055505b60048081111561132c57fe5b82600481111561133857fe5b141561135257600181600301600082825401925050819055505b505050565b6000809054906101000a900473ffffffffffffffffffffffffffffffffffffffff1673ffffffffffffffffffffffffffffffffffffffff163373ffffffffffffffffffffffffffffffffffffffff161415156113b257600080fd5b6000600360008373ffffffffffffffffffffffffffffffffffffffff1673ffffffffffffffffffffffffffffffffffffffff16815260200190815260200160002060006101000a81548160ff02191690831515021790555050565b6114156126fd565b6004600083600019166000191681526020019081526020016000206000018054806020026020016040519081016040528092919081815260200182805480156114b357602002820191906000526020600020905b8160009054906101000a900473ffffffffffffffffffffffffffffffffffffffff1673ffffffffffffffffffffffffffffffffffffffff1681526020019060010190808311611469575b50505050509050919050565b6000600460008360001916600019168152602001908152602001600020600401549050919050565b6000600360003373ffffffffffffffffffffffffffffffffffffffff1673ffffffffffffffffffffffffffffffffffffffff16815260200190815260200160002060009054906101000a900460ff16151561154157600080fd5b600090505b60068054905081101561158f57816000191660068281548110151561156757fe5b906000526020600020900154600019161415611582576115bf565b8080600101915050611546565b600680548060010182816115a39190612711565b9160005260206000209001600084909190915090600019169055505b5050565b60056020528060005260406000206000915090508060000154908060010154908060020154908060030154908060040154908060050154908060060160009054906101000a900460ff16908060060160019054906101000a900473ffffffffffffffffffffffffffffffffffffffff16908060060160159054906101000a900460ff16905089565b60015481565b60036020528060005260406000206000915054906101000a900460ff1681565b60025481565b600080600860008473ffffffffffffffffffffffffffffffffffffffff1673ffffffffffffffffffffffffffffffffffffffff16815260200190815260200160002060030160009054906101000a900460ff161561175557600860008473ffffffffffffffffffffffffffffffffffffffff1673ffffffffffffffffffffffffffffffffffffffff1681526020019081526020016000206000019050806000856000191660001916815260200190815260200160002060020160019054906101000a900460ff161561174c576001915061175a565b6000915061175a565b600091505b5092915050565b600061176d8233611677565b9050919050565b60008060008061178261273d565b600860003373ffffffffffffffffffffffffffffffffffffffff1673ffffffffffffffffffffffffffffffffffffffff1681526020019081526020016000206000016000876000191660001916815260200190815260200160002060806040519081016040529081600082015481526020016001820154600019166000191681526020016002820160009054906101000a900460ff16600481111561182357fe5b600481111561182e57fe5b81526020016002820160019054906101000a900460ff161515151581525050905080600001518160200151826040015183606001519450945094509450509193509193565b61187b612776565b600960003373ffffffffffffffffffffffffffffffffffffffff1673ffffffffffffffffffffffffffffffffffffffff16815260200190815260200160002080548060200260200160405190810160405280929190818152602001828054801561190857602002820191906000526020600020905b815460001916815260200190600101908083116118f0575b5050505050905090565b6000809054906101000a900473ffffffffffffffffffffffffffffffffffffffff1673ffffffffffffffffffffffffffffffffffffffff163373ffffffffffffffffffffffffffffffffffffffff1614151561196d57600080fd5b600360008273ffffffffffffffffffffffffffffffffffffffff1673ffffffffffffffffffffffffffffffffffffffff16815260200190815260200160002060009054906101000a900460ff161515611a19576001600360008373ffffffffffffffffffffffffffffffffffffffff1673ffffffffffffffffffffffffffffffffffffffff16815260200190815260200160002060006101000a81548160ff0219169083151502179055505b50565b611a24612776565b6006805480602002602001604051908101604052809291908181526020018280548015611a7457602002820191906000526020600020905b81546000191681526020019060010190808311611a5c575b5050505050905090565b60076020528060005260406000206000915090508060000154908060010154905082565b6000809054906101000a900473ffffffffffffffffffffffffffffffffffffffff1681565b6000809054906101000a900473ffffffffffffffffffffffffffffffffffffffff1673ffffffffffffffffffffffffffffffffffffffff163373ffffffffffffffffffffffffffffffffffffffff16141515611b2257600080fd5b8060018190555050565b600681815481101515611b3b57fe5b90600052602060002090016000915090505481565b6000806003811115611b5e57fe5b60046000846000191660001916815260200190815260200160002060030160009054906101000a900460ff166003811115611b9557fe5b1415611ba45760019050611ba9565b600090505b919050565b600360003373ffffffffffffffffffffffffffffffffffffffff1673ffffffffffffffffffffffffffffffffffffffff16815260200190815260200160002060009054906101000a900460ff161515611c0657600080fd5b600160046000836000191660001916815260200190815260200160002060030160006101000a81548160ff02191690836003811115611c4157fe5b021790555050565b600960205281600052604060002081815481101515611c6457fe5b9060005260206000209001600091509150505481565b600360003373ffffffffffffffffffffffffffffffffffffffff1673ffffffffffffffffffffffffffffffffffffffff16815260200190815260200160002060009054906101000a900460ff161515611cd257600080fd5b600360046000846000191660001916815260200190815260200160002060030160006101000a81548160ff02191690836003811115611d0d57fe5b0217905550600160056000846000191660001916815260200190815260200160002060060160006101000a81548160ff0219169083151502179055508060056000846000191660001916815260200190815260200160002060060160016101000a81548173ffffffffffffffffffffffffffffffffffffffff021916908373ffffffffffffffffffffffffffffffffffffffff160217905550611dae612617565b5050565b611dba612776565b600960003373ffffffffffffffffffffffffffffffffffffffff1673ffffffffffffffffffffffffffffffffffffffff168152602001908152602001600020805480602002602001604051908101604052809291908181526020018280548015611e4757602002820191906000526020600020905b81546000191681526020019060010190808311611e2f575b5050505050905090565b60086020528060005260406000206000915090508060010154908060030160009054906101000a900460ff16905082565b6004602052806000526040600020600091509050806001019080600201908060030160009054906101000a900460ff16908060040154908060050154908060060160009054906101000a900460ff16908060060160019054906101000a900460ff16905087565b600360003373ffffffffffffffffffffffffffffffffffffffff1673ffffffffffffffffffffffffffffffffffffffff16815260200190815260200160002060009054906101000a900460ff161515611f4157600080fd5b60046000886000191660001916815260200190815260200160002060060160019054906101000a900460ff161515611fab57600160046000896000191660001916815260200190815260200160002060060160016101000a81548160ff0219169083151502179055505b6004600088600019166000191681526020019081526020016000206000018054806001018281611fdb919061278a565b9160005260206000209001600086909190916101000a81548173ffffffffffffffffffffffffffffffffffffffff021916908373ffffffffffffffffffffffffffffffffffffffff160217905550506001600460008960001916600019168152602001908152602001600020600401600082825401925050819055508560046000896000191660001916815260200190815260200160002060010190805190602001906120899291906127b6565b508460046000896000191660001916815260200190815260200160002060020190805190602001906120bc9291906127b6565b5080600460008960001916600019168152602001908152602001600020600501819055506080604051908101604052804281526020018460001916815260200183600481111561210857fe5b815260200160011515815250600860008673ffffffffffffffffffffffffffffffffffffffff1673ffffffffffffffffffffffffffffffffffffffff16815260200190815260200160002060000160008960001916600019168152602001908152602001600020600082015181600001556020820151816001019060001916905560408201518160020160006101000a81548160ff021916908360048111156121ad57fe5b021790555060608201518160020160016101000a81548160ff021916908315150217905550905050600960008573ffffffffffffffffffffffffffffffffffffffff1673ffffffffffffffffffffffffffffffffffffffff16815260200190815260200160002080548060010182816122269190612711565b9160005260206000209001600089909190915090600019169055506001600860008673ffffffffffffffffffffffffffffffffffffffff1673ffffffffffffffffffffffffffffffffffffffff16815260200190815260200160002060030160006101000a81548160ff0219169083151502179055507fc35a658cae4be07e567f54239b7d58105ebfe0f270f017b04df5957adcb26aad87856040518083600019166000191681526020018273ffffffffffffffffffffffffffffffffffffffff1673ffffffffffffffffffffffffffffffffffffffff1681526020019250505060405180910390a150505050505050565b6000809054906101000a900473ffffffffffffffffffffffffffffffffffffffff1673ffffffffffffffffffffffffffffffffffffffff163373ffffffffffffffffffffffffffffffffffffffff1614151561237357600080fd5b600073ffffffffffffffffffffffffffffffffffffffff168173ffffffffffffffffffffffffffffffffffffffff16141515156123af57600080fd5b8073ffffffffffffffffffffffffffffffffffffffff166000809054906101000a900473ffffffffffffffffffffffffffffffffffffffff1673ffffffffffffffffffffffffffffffffffffffff167f8be0079c531659141344cd1fd0a4f28419497f9722a3daafe3b4186f6b6457e060405160405180910390a3806000806101000a81548173ffffffffffffffffffffffffffffffffffffffff021916908373ffffffffffffffffffffffffffffffffffffffff16021790555050565b600360003373ffffffffffffffffffffffffffffffffffffffff1673ffffffffffffffffffffffffffffffffffffffff16815260200190815260200160002060009054906101000a900460ff1615156124c557600080fd5b8060038111156124d157fe5b60046000846000191660001916815260200190815260200160002060030160009054906101000a900460ff16600381111561250857fe5b14151561254f578060046000846000191660001916815260200190815260200160002060030160006101000a81548160ff0219169083600381111561254957fe5b02179055505b5050565b600080600060056000856000191660001916815260200190815260200160002091506125d282600401546125c484600301546125b686600201546125a88860010154896000015461262590919063ffffffff16565b61262590919063ffffffff16565b61262590919063ffffffff16565b61262590919063ffffffff16565b90506001546125ee83600501544361264390919063ffffffff16565b1180156125fd57506002548111155b1561260b5760019250612610565b600092505b5050919050565b6126236006600061265c565b565b600080828401905083811015151561263957fe5b8091505092915050565b600082821115151561265157fe5b818303905092915050565b6000828054905082101515612670576126e4565b8190505b60018380549050038110156126ce57826001820181548110151561269457fe5b90600052602060002090015483828154811015156126ae57fe5b906000526020600020900181600019169055508080600101915050612674565b828054809190600190036126e29190612711565b505b505050565b602060405190810160405280600081525090565b602060405190810160405280600081525090565b815481835581811511612738578183600052602060002091820191016127379190612836565b5b505050565b60806040519081016040528060008152602001600080191681526020016000600481111561276757fe5b81526020016000151581525090565b602060405190810160405280600081525090565b8154818355818115116127b1578183600052602060002091820191016127b0919061285b565b5b505050565b828054600181600116156101000203166002900490600052602060002090601f016020900481019282601f106127f757805160ff1916838001178555612825565b82800160010185558215612825579182015b82811115612824578251825591602001919060010190612809565b5b509050612832919061285b565b5090565b61285891905b8082111561285457600081600090555060010161283c565b5090565b90565b61287d91905b80821115612879576000816000905550600101612861565b5090565b905600a165627a7a723058200926c5a8d6e9ef5a371dc6cae3e8f4119711881116a88fb98e0f9f2f3a53f1460029",
  "source": "pragma solidity ^0.4.18;\n\nimport '../../node_modules/zeppelin-solidity/contracts/ownership/Ownable.sol';\nimport '../../node_modules/zeppelin-solidity/contracts/math/SafeMath.sol';\nimport \"../../installed_contracts/solidity-stringutils/strings.sol\";\nimport \"./Utility.sol\";\n\ncontract HbStorage is Ownable {\n    using strings for *; \n    using SafeMath for uint256;\n    uint public voteEndInterval = 100; // \n    uint public voteEndThreshold = 10; // \n    function setVoteEndInterval(uint _interval) external onlyOwner {\n        voteEndInterval = _interval;\n    }\n    function setVoteThreshold(uint _threshold) external onlyOwner {\n        voteEndThreshold = _threshold;\n    }\n    enum SFStatus { opening, closed, claiming, ended }\n    enum DelayStatus { no, delay1, delay2, delay3, cancel }\n\n    event MemberAdded(bytes32 _sfIndex, address member);\n\n    struct SFInfo {\n        address[] members;\n        string flightNO;\n        string flightDate;\n        SFStatus status;\n        uint count;\n        uint price;\n        DelayStatus delayStatus;\n        bool isValued;\n    }\n    struct SFHistroy {\n        uint totalCounts;\n        uint delayedCounts;\n    }\n    struct VotedMember {\n        address member;\n        bool vote;\n        bool isValued;\n    }\n    struct VoteInfo {\n        // VotedMember[] votedMembers;\n        uint delay1Counts;\n        uint delay2Counts;\n        uint delay3Counts;\n        uint cancelCounts;\n        uint noCounts;\n        uint startNum;\n        bool ended;\n        address ender;\n        bool isValued;\n    }\n    struct MemberSF {\n        // bytes32 flightIndex;\n        // string flightNO;\n        // string flightDate;\n        uint time;\n        bytes32 votedSF;\n        DelayStatus vote;\n        bool isValued;\n    }\n    struct MemberInfo {\n        mapping(bytes32 => MemberSF) memberSFs;\n        uint winCounts;\n        mapping(bytes32 => bool) canClaim;\n        bool isValued;\n    }\n    // struct MemberInfo {\n    //     bytes32[] scheduledFlights;\n    //     mapping(bytes32 => MemberSF) memberSFs;\n    //     // uint winCounts;\n    //     // mapping(bytes32 => bool) canClaim;\n    //     bool isValued;\n    // }\n    mapping(address => bool) public admins;\n    // {keccak256(+): [SFInfo]}\n    mapping(bytes32 => SFInfo) public scheduledFlights;\n    // {keccak256(+): [VoteInfo]}\n    mapping(bytes32 => VoteInfo)  public voteInfos;\n    //\n    bytes32[] public  currentVotes;\n    // {keccak256(+): SFHistroy}\n    mapping(bytes32 => SFHistroy) public sfHistroy;\n    //\n    mapping(address => MemberInfo) public memberInfos;\n    mapping(address => bytes32[]) public memberSFs;\n\n    modifier onlyAdmin() {\n        require(admins[msg.sender]);\n        _;\n    }\n\n    /** @dev add address to admins list \n      * @param admin address\n      */\n    function setAdmin(address admin) public onlyOwner {\n        if (!admins[admin]) {\n            admins[admin] = true;\n        }\n    }\n\n    /** @dev remove address from admins list \n      * @param admin address\n      */\n    function removeAdmin(address admin) public onlyOwner {\n        admins[admin] = false;\n    }\n\n    // function HbStorage() public {\n    //     // constructor\n    // }\n    function isMemberInSF(bytes32 _sfIndex, address member) public view returns (bool) {\n        if (memberInfos[member].isValued) {\n            var sfs = memberInfos[member].memberSFs;\n            if (sfs[_sfIndex].isValued) {\n                return true;\n            } else {\n                return false;\n            }\n        } else {\n            return false;\n        }\n    }\n    function getSFCount(bytes32 _sfIndex) public view returns (uint) {\n        return scheduledFlights[_sfIndex].count;\n    }\n    function getScheduledFlights() external view returns (bytes32[]) {\n        return memberSFs[msg.sender];\n    }\n    function addMemberToSF(bytes32 _sfIndex, string _flightNO, string _flightDate, address _member, bytes32 _votedSFIndex, DelayStatus _vote,uint _price) public onlyAdmin {\n        if (!scheduledFlights[_sfIndex].isValued) {\n            scheduledFlights[_sfIndex].isValued = true;\n        }\n        //\n        scheduledFlights[_sfIndex].members.push(_member);\n        //1\n        scheduledFlights[_sfIndex].count += 1;\n        scheduledFlights[_sfIndex].flightNO = _flightNO;\n        scheduledFlights[_sfIndex].flightDate = _flightDate;\n        scheduledFlights[_sfIndex].price = _price;\n        // \n        memberInfos[_member].memberSFs[_sfIndex] = MemberSF({\n            // flightIndex: _sfIndex,\n            time: block.timestamp,\n            votedSF: _votedSFIndex,\n            vote: _vote,\n            isValued: true});\n        memberSFs[_member].push(_sfIndex);\n        memberInfos[_member].isValued = true;  \n\n        MemberAdded(_sfIndex, _member);  \n    }\n    function setClose(bytes32 _sfIndex) public onlyAdmin{\n        scheduledFlights[_sfIndex].status = SFStatus.closed;\n    }\n    function isOpening(bytes32 _sfIndex) public view returns (bool) {\n        if (scheduledFlights[_sfIndex].status == SFStatus.opening) {\n            return true;\n        } else {\n            return false;\n        }\n    }\n    /** @dev  \n      * @param _sfIndex +\n      */\n    function isInSF(bytes32 _sfIndex) public view returns (bool) {\n        return isMemberInSF(_sfIndex, msg.sender);\n    }\n    // function canClaim(address member, bytes32 _sfIndex) public returns (bool) {\n    //     // if (flightNO.toSlice().compare(memberInfos[member].canClaim.toSlice()) == 0) {\n    //     //     return true;\n    //     // } else {\n    //     //     return false;\n    //     // }\n    //     // return memberInfos[member].canClaim[_sfIndex];\n    //     return false;\n    // }\n    // function setCanBuy(address member, bytes32 _sfIndex) public onlyAdmin{\n    //     memberInfos[member].canClaim[_sfIndex] = true;\n    // }\n    /** @dev  \n      * @param _sfIndex +\n      */\n    function returnMemberSFInfo(bytes32 _sfIndex) public view returns (\n        uint time,\n        bytes32 votedSF, \n        DelayStatus vote, \n        bool isValued) {\n        MemberSF memory sfsInfo = memberInfos[msg.sender].memberSFs[_sfIndex];\n        return (sfsInfo.time, sfsInfo.votedSF, sfsInfo.vote, sfsInfo.isValued) ;\n    }\n    /** @dev  \n      * @param _sfIndex +\n      */\n    function returnMembers(bytes32 _sfIndex) public view returns (address[]) {\n        return scheduledFlights[_sfIndex].members;\n    }\n    /** @dev  \n      */   \n    function returnMemberSFs() public view returns(bytes32[]) {\n        return memberSFs[msg.sender];\n    }\n    /** @dev  \n      * @param _sfIndex +\n      */\n    function returnSFInfo(bytes32 _sfIndex) public view returns (string flightNO,\n        string flightDate, SFStatus status, uint count,\n        DelayStatus delayStatus,\n        bool isValued,uint price) {\n        return (scheduledFlights[_sfIndex].flightNO,  scheduledFlights[_sfIndex].flightDate, scheduledFlights[_sfIndex].status, scheduledFlights[_sfIndex].count, scheduledFlights[_sfIndex].delayStatus, scheduledFlights[_sfIndex].isValued, scheduledFlights[_sfIndex].price);\n    }\n    function changeSFStatus(bytes32 index, SFStatus status) external onlyAdmin{\n        if (scheduledFlights[index].status != status) {\n            scheduledFlights[index].status = status;\n        }\n    }\n    function endVote(bytes32 index, address user) external onlyAdmin {\n        scheduledFlights[index].status = SFStatus.ended;\n        voteInfos[index].ended = true;\n        voteInfos[index].ender = user;\n        toNextVote();\n    }\n    function endVoteByAdmin(bytes32 index) external onlyOwner {\n        require(checkCanEndByAdmin(index));\n        scheduledFlights[index].status = SFStatus.ended;\n        voteInfos[index].ended = true;\n        voteInfos[index].ender = msg.sender;\n        toNextVote();\n    }\n     /** @dev  \n      * @param _sfIndex \n      */ \n    function checkCanEndByAdmin(bytes32 _sfIndex) internal view returns(bool canEnd){\n        VoteInfo storage voteInfo = voteInfos[_sfIndex];\n        uint totalCounts = voteInfo.delay1Counts.add(voteInfo.delay2Counts).add(voteInfo.delay3Counts).add(voteInfo.cancelCounts).add(voteInfo.noCounts);\n        if (block.number.sub(voteInfo.startNum) > voteEndInterval && totalCounts <= voteEndThreshold) {\n            return true;\n        } else {\n            return false;\n        }\n    }\n\n    //vote a vote\n    function updateVote(bytes32 _sfIndex, DelayStatus vote) external onlyAdmin{\n        VoteInfo storage voteInfo = voteInfos[_sfIndex];\n        if (!voteInfo.isValued) {\n            voteInfo.isValued = true;\n            voteInfo.startNum = block.number;\n        }\n        if (vote == DelayStatus.no) {\n            voteInfo.noCounts += 1;\n        }\n        if (vote == DelayStatus.delay1) {\n            voteInfo.delay1Counts += 1;\n        }\n        if (vote == DelayStatus.delay2) {\n            voteInfo.delay2Counts += 1;\n        }\n        if (vote == DelayStatus.delay3) {\n            voteInfo.delay3Counts += 1;\n        }\n        if (vote == DelayStatus.cancel) {\n            voteInfo.cancelCounts += 1;\n        }\n    }\n\n    //add a new vote process\n    //when duplicate, do nothing    \n    function addVote(bytes32 _sfIndex) external onlyAdmin {\n        for (uint i = 0; i<currentVotes.length; i++){\n            if(currentVotes[i] == _sfIndex){\n                return;\n            }\n        }\n        currentVotes.push(_sfIndex);\n        return;\n    }\n\n    //step to next vote process\n    function toNextVote() internal {\n        arrayRemove(currentVotes, 0);\n    }\n\n     function getCurrentVotes() external returns(bytes32[]){\n        return currentVotes;\n    }\n\n\n\n    /** utilities */\n\n    function arrayRemove(bytes32[] storage array, uint index) internal {\n        if (index >= array.length) return;\n        for (uint i = index; i<array.length-1; i++){\n            array[i] = array[i+1];\n        }\n        array.length--;\n    }\n\n}\n",
  "sourcePath": "/Users/hanting/workspace/ethereum/truffle/huibaoSC/contracts/common/HbStorage.sol",
  "compiler": {
    "name": "solc",
    "version": "0.4.18+commit.9cf6e910.Emscripten.clang"
  },
  "schemaVersion": "1.0.1",
  "updatedAt": "2018-05-29T03:06:32.382Z"
}