{
  "contractName": "HbStorage",
  "abi": [
    {
      "constant": false,
      "inputs": [
        {
          "name": "index",
          "type": "bytes32"
        }
      ],
      "name": "endVoteByAdmin",
      "outputs": [],
      "payable": false,
      "stateMutability": "nonpayable",
      "type": "function"
    },
    {
      "constant": true,
      "inputs": [
        {
          "name": "_sfIndex",
          "type": "bytes32"
        }
      ],
      "name": "returnSFInfo",
      "outputs": [
        {
          "name": "flightNO",
          "type": "string"
        },
        {
          "name": "flightDate",
          "type": "string"
        },
        {
          "name": "status",
          "type": "uint8"
        },
        {
          "name": "count",
          "type": "uint256"
        },
        {
          "name": "delayStatus",
          "type": "uint8"
        },
        {
          "name": "isValued",
          "type": "bool"
        },
        {
          "name": "price",
          "type": "uint256"
        }
      ],
      "payable": false,
      "stateMutability": "view",
      "type": "function"
    },
    {
      "constant": false,
      "inputs": [
        {
          "name": "_threshold",
          "type": "uint256"
        }
      ],
      "name": "setVoteThreshold",
      "outputs": [],
      "payable": false,
      "stateMutability": "nonpayable",
      "type": "function"
    },
    {
      "constant": false,
      "inputs": [
        {
          "name": "_sfIndex",
          "type": "bytes32"
        },
        {
          "name": "vote",
          "type": "uint8"
        }
      ],
      "name": "updateVote",
      "outputs": [],
      "payable": false,
      "stateMutability": "nonpayable",
      "type": "function"
    },
    {
      "constant": false,
      "inputs": [
        {
          "name": "admin",
          "type": "address"
        }
      ],
      "name": "removeAdmin",
      "outputs": [],
      "payable": false,
      "stateMutability": "nonpayable",
      "type": "function"
    },
    {
      "constant": true,
      "inputs": [
        {
          "name": "_sfIndex",
          "type": "bytes32"
        }
      ],
      "name": "returnMembers",
      "outputs": [
        {
          "name": "",
          "type": "address[]"
        }
      ],
      "payable": false,
      "stateMutability": "view",
      "type": "function"
    },
    {
      "constant": true,
      "inputs": [
        {
          "name": "_sfIndex",
          "type": "bytes32"
        }
      ],
      "name": "getSFCount",
      "outputs": [
        {
          "name": "",
          "type": "uint256"
        }
      ],
      "payable": false,
      "stateMutability": "view",
      "type": "function"
    },
    {
      "constant": true,
      "inputs": [
        {
          "name": "",
          "type": "bytes32"
        }
      ],
      "name": "voteInfos",
      "outputs": [
        {
          "name": "delay1Counts",
          "type": "uint256"
        },
        {
          "name": "delay2Counts",
          "type": "uint256"
        },
        {
          "name": "delay3Counts",
          "type": "uint256"
        },
        {
          "name": "cancelCounts",
          "type": "uint256"
        },
        {
          "name": "noCounts",
          "type": "uint256"
        },
        {
          "name": "startNum",
          "type": "uint256"
        },
        {
          "name": "ended",
          "type": "bool"
        },
        {
          "name": "ender",
          "type": "address"
        },
        {
          "name": "isValued",
          "type": "bool"
        }
      ],
      "payable": false,
      "stateMutability": "view",
      "type": "function"
    },
    {
      "constant": true,
      "inputs": [],
      "name": "voteEndInterval",
      "outputs": [
        {
          "name": "",
          "type": "uint256"
        }
      ],
      "payable": false,
      "stateMutability": "view",
      "type": "function"
    },
    {
      "constant": true,
      "inputs": [
        {
          "name": "",
          "type": "address"
        }
      ],
      "name": "admins",
      "outputs": [
        {
          "name": "",
          "type": "bool"
        }
      ],
      "payable": false,
      "stateMutability": "view",
      "type": "function"
    },
    {
      "constant": true,
      "inputs": [],
      "name": "voteEndThreshold",
      "outputs": [
        {
          "name": "",
          "type": "uint256"
        }
      ],
      "payable": false,
      "stateMutability": "view",
      "type": "function"
    },
    {
      "constant": true,
      "inputs": [
        {
          "name": "_sfIndex",
          "type": "bytes32"
        },
        {
          "name": "member",
          "type": "address"
        }
      ],
      "name": "isMemberInSF",
      "outputs": [
        {
          "name": "",
          "type": "bool"
        }
      ],
      "payable": false,
      "stateMutability": "view",
      "type": "function"
    },
    {
      "constant": true,
      "inputs": [
        {
          "name": "_sfIndex",
          "type": "bytes32"
        }
      ],
      "name": "isInSF",
      "outputs": [
        {
          "name": "",
          "type": "bool"
        }
      ],
      "payable": false,
      "stateMutability": "view",
      "type": "function"
    },
    {
      "constant": true,
      "inputs": [
        {
          "name": "_sfIndex",
          "type": "bytes32"
        }
      ],
      "name": "returnMemberSFInfo",
      "outputs": [
        {
          "name": "time",
          "type": "uint256"
        },
        {
          "name": "votedSF",
          "type": "bytes32"
        },
        {
          "name": "vote",
          "type": "uint8"
        },
        {
          "name": "isValued",
          "type": "bool"
        }
      ],
      "payable": false,
      "stateMutability": "view",
      "type": "function"
    },
    {
      "constant": true,
      "inputs": [],
      "name": "returnMemberSFs",
      "outputs": [
        {
          "name": "",
          "type": "bytes32[]"
        }
      ],
      "payable": false,
      "stateMutability": "view",
      "type": "function"
    },
    {
      "constant": false,
      "inputs": [
        {
          "name": "admin",
          "type": "address"
        }
      ],
      "name": "setAdmin",
      "outputs": [],
      "payable": false,
      "stateMutability": "nonpayable",
      "type": "function"
    },
    {
      "constant": true,
      "inputs": [
        {
          "name": "",
          "type": "bytes32"
        }
      ],
      "name": "sfHistroy",
      "outputs": [
        {
          "name": "totalCounts",
          "type": "uint256"
        },
        {
          "name": "delayedCounts",
          "type": "uint256"
        }
      ],
      "payable": false,
      "stateMutability": "view",
      "type": "function"
    },
    {
      "constant": true,
      "inputs": [],
      "name": "owner",
      "outputs": [
        {
          "name": "",
          "type": "address"
        }
      ],
      "payable": false,
      "stateMutability": "view",
      "type": "function"
    },
    {
      "constant": false,
      "inputs": [
        {
          "name": "_interval",
          "type": "uint256"
        }
      ],
      "name": "setVoteEndInterval",
      "outputs": [],
      "payable": false,
      "stateMutability": "nonpayable",
      "type": "function"
    },
    {
      "constant": true,
      "inputs": [
        {
          "name": "_sfIndex",
          "type": "bytes32"
        }
      ],
      "name": "isOpening",
      "outputs": [
        {
          "name": "",
          "type": "bool"
        }
      ],
      "payable": false,
      "stateMutability": "view",
      "type": "function"
    },
    {
      "constant": false,
      "inputs": [
        {
          "name": "_sfIndex",
          "type": "bytes32"
        }
      ],
      "name": "setClose",
      "outputs": [],
      "payable": false,
      "stateMutability": "nonpayable",
      "type": "function"
    },
    {
      "constant": true,
      "inputs": [
        {
          "name": "",
          "type": "address"
        },
        {
          "name": "",
          "type": "uint256"
        }
      ],
      "name": "memberSFs",
      "outputs": [
        {
          "name": "",
          "type": "bytes32"
        }
      ],
      "payable": false,
      "stateMutability": "view",
      "type": "function"
    },
    {
      "constant": false,
      "inputs": [
        {
          "name": "index",
          "type": "bytes32"
        },
        {
          "name": "user",
          "type": "address"
        }
      ],
      "name": "endVote",
      "outputs": [],
      "payable": false,
      "stateMutability": "nonpayable",
      "type": "function"
    },
    {
      "constant": true,
      "inputs": [],
      "name": "getScheduledFlights",
      "outputs": [
        {
          "name": "",
          "type": "bytes32[]"
        }
      ],
      "payable": false,
      "stateMutability": "view",
      "type": "function"
    },
    {
      "constant": true,
      "inputs": [
        {
          "name": "",
          "type": "address"
        }
      ],
      "name": "memberInfos",
      "outputs": [
        {
          "name": "winCounts",
          "type": "uint256"
        },
        {
          "name": "isValued",
          "type": "bool"
        }
      ],
      "payable": false,
      "stateMutability": "view",
      "type": "function"
    },
    {
      "constant": true,
      "inputs": [
        {
          "name": "",
          "type": "bytes32"
        }
      ],
      "name": "scheduledFlights",
      "outputs": [
        {
          "name": "flightNO",
          "type": "string"
        },
        {
          "name": "flightDate",
          "type": "string"
        },
        {
          "name": "status",
          "type": "uint8"
        },
        {
          "name": "count",
          "type": "uint256"
        },
        {
          "name": "price",
          "type": "uint256"
        },
        {
          "name": "delayStatus",
          "type": "uint8"
        },
        {
          "name": "isValued",
          "type": "bool"
        }
      ],
      "payable": false,
      "stateMutability": "view",
      "type": "function"
    },
    {
      "constant": false,
      "inputs": [
        {
          "name": "_sfIndex",
          "type": "bytes32"
        }
      ],
      "name": "setCurrentVote",
      "outputs": [],
      "payable": false,
      "stateMutability": "nonpayable",
      "type": "function"
    },
    {
      "constant": false,
      "inputs": [
        {
          "name": "_sfIndex",
          "type": "bytes32"
        },
        {
          "name": "_flightNO",
          "type": "string"
        },
        {
          "name": "_flightDate",
          "type": "string"
        },
        {
          "name": "_member",
          "type": "address"
        },
        {
          "name": "_votedSFIndex",
          "type": "bytes32"
        },
        {
          "name": "_vote",
          "type": "uint8"
        },
        {
          "name": "_price",
          "type": "uint256"
        }
      ],
      "name": "addMemberToSF",
      "outputs": [],
      "payable": false,
      "stateMutability": "nonpayable",
      "type": "function"
    },
    {
      "constant": false,
      "inputs": [
        {
          "name": "newOwner",
          "type": "address"
        }
      ],
      "name": "transferOwnership",
      "outputs": [],
      "payable": false,
      "stateMutability": "nonpayable",
      "type": "function"
    },
    {
      "constant": false,
      "inputs": [
        {
          "name": "index",
          "type": "bytes32"
        },
        {
          "name": "status",
          "type": "uint8"
        }
      ],
      "name": "changeSFStatus",
      "outputs": [],
      "payable": false,
      "stateMutability": "nonpayable",
      "type": "function"
    },
    {
      "constant": true,
      "inputs": [],
      "name": "currentVote",
      "outputs": [
        {
          "name": "",
          "type": "bytes32"
        }
      ],
      "payable": false,
      "stateMutability": "view",
      "type": "function"
    },
    {
      "anonymous": false,
      "inputs": [
        {
          "indexed": false,
          "name": "_sfIndex",
          "type": "bytes32"
        },
        {
          "indexed": false,
          "name": "member",
          "type": "address"
        }
      ],
      "name": "MemberAdded",
      "type": "event"
    },
    {
      "anonymous": false,
      "inputs": [
        {
          "indexed": true,
          "name": "previousOwner",
          "type": "address"
        },
        {
          "indexed": true,
          "name": "newOwner",
          "type": "address"
        }
      ],
      "name": "OwnershipTransferred",
      "type": "event"
    }
  ],
  "bytecode": "0x60606040526064600155600a600255336000806101000a81548173ffffffffffffffffffffffffffffffffffffffff021916908373ffffffffffffffffffffffffffffffffffffffff1602179055506126948061005d6000396000f30060606040526004361061018b576000357c0100000000000000000000000000000000000000000000000000000000900463ffffffff168063029ddc831461019057806303c856d3146101b7578063129094851461030657806316ff98c8146103295780631785f53c1461035c5780631cce1444146103955780632a9e90b914610411578063385afd8c1461044c57806340c4af4c146104f3578063429b62e51461051c57806348a44eb81461056d5780634adaaf1f14610596578063568ebb5c146105f457806363ecba0e146106335780636eff30441461069d578063704b6c021461070757806385c768e8146107405780638da5cb5b146107825780639394edfe146107d7578063995a3dee146107fa578063a1b73fff14610839578063a3b34c0814610860578063b8dbf2b8146108be578063c085c34614610904578063c85366391461096e578063d9484133146109c6578063ede11c8114610b4f578063f0b2801a14610b76578063f2fde38b14610c64578063f429b70514610c9d578063f9b137d714610cd0575b600080fd5b341561019b57600080fd5b6101b5600480803560001916906020019091905050610d01565b005b34156101c257600080fd5b6101dc600480803560001916906020019091905050610e4d565b6040518080602001806020018860038111156101f457fe5b60ff16815260200187815260200186600481111561020e57fe5b60ff1681526020018515151515815260200184815260200183810383528a818151815260200191508051906020019080838360005b8381101561025e578082015181840152602081019050610243565b50505050905090810190601f16801561028b5780820380516001836020036101000a031916815260200191505b50838103825289818151815260200191508051906020019080838360005b838110156102c45780820151818401526020810190506102a9565b50505050905090810190601f1680156102f15780820380516001836020036101000a031916815260200191505b50995050505050505050505060405180910390f35b341561031157600080fd5b61032760048080359060200190919050506110b4565b005b341561033457600080fd5b61035a60048080356000191690602001909190803560ff16906020019091905050611119565b005b341561036757600080fd5b610393600480803573ffffffffffffffffffffffffffffffffffffffff169060200190919050506112d2565b005b34156103a057600080fd5b6103ba600480803560001916906020019091905050611388565b6040518080602001828103825283818151815260200191508051906020019060200280838360005b838110156103fd5780820151818401526020810190506103e2565b505050509050019250505060405180910390f35b341561041c57600080fd5b61043660048080356000191690602001909190505061143a565b6040518082815260200191505060405180910390f35b341561045757600080fd5b610471600480803560001916906020019091905050611462565b604051808a8152602001898152602001888152602001878152602001868152602001858152602001841515151581526020018373ffffffffffffffffffffffffffffffffffffffff1673ffffffffffffffffffffffffffffffffffffffff16815260200182151515158152602001995050505050505050505060405180910390f35b34156104fe57600080fd5b6105066114ea565b6040518082815260200191505060405180910390f35b341561052757600080fd5b610553600480803573ffffffffffffffffffffffffffffffffffffffff169060200190919050506114f0565b604051808215151515815260200191505060405180910390f35b341561057857600080fd5b610580611510565b6040518082815260200191505060405180910390f35b34156105a157600080fd5b6105da60048080356000191690602001909190803573ffffffffffffffffffffffffffffffffffffffff16906020019091905050611516565b604051808215151515815260200191505060405180910390f35b34156105ff57600080fd5b610619600480803560001916906020019091905050611600565b604051808215151515815260200191505060405180910390f35b341561063e57600080fd5b610658600480803560001916906020019091905050611613565b60405180858152602001846000191660001916815260200183600481111561067c57fe5b60ff1681526020018215151515815260200194505050505060405180910390f35b34156106a857600080fd5b6106b0611712565b6040518080602001828103825283818151815260200191508051906020019060200280838360005b838110156106f35780820151818401526020810190506106d8565b505050509050019250505060405180910390f35b341561071257600080fd5b61073e600480803573ffffffffffffffffffffffffffffffffffffffff169060200190919050506117b1565b005b341561074b57600080fd5b6107656004808035600019169060200190919050506118bb565b604051808381526020018281526020019250505060405180910390f35b341561078d57600080fd5b6107956118df565b604051808273ffffffffffffffffffffffffffffffffffffffff1673ffffffffffffffffffffffffffffffffffffffff16815260200191505060405180910390f35b34156107e257600080fd5b6107f86004808035906020019091905050611904565b005b341561080557600080fd5b61081f600480803560001916906020019091905050611969565b604051808215151515815260200191505060405180910390f35b341561084457600080fd5b61085e6004808035600019169060200190919050506119c7565b005b341561086b57600080fd5b6108a0600480803573ffffffffffffffffffffffffffffffffffffffff16906020019091908035906020019091905050611a62565b60405180826000191660001916815260200191505060405180910390f35b34156108c957600080fd5b61090260048080356000191690602001909190803573ffffffffffffffffffffffffffffffffffffffff16906020019091905050611a93565b005b341561090f57600080fd5b610917611bc9565b6040518080602001828103825283818151815260200191508051906020019060200280838360005b8381101561095a57808201518184015260208101905061093f565b505050509050019250505060405180910390f35b341561097957600080fd5b6109a5600480803573ffffffffffffffffffffffffffffffffffffffff16906020019091905050611c68565b60405180838152602001821515151581526020019250505060405180910390f35b34156109d157600080fd5b6109eb600480803560001916906020019091905050611c99565b604051808060200180602001886003811115610a0357fe5b60ff168152602001878152602001868152602001856004811115610a2357fe5b60ff1681526020018415151515815260200183810383528a818154600181600116156101000203166002900481526020019150805460018160011615610100020316600290048015610ab65780601f10610a8b57610100808354040283529160200191610ab6565b820191906000526020600020905b815481529060010190602001808311610a9957829003601f168201915b5050838103825289818154600181600116156101000203166002900481526020019150805460018160011615610100020316600290048015610b395780601f10610b0e57610100808354040283529160200191610b39565b820191906000526020600020905b815481529060010190602001808311610b1c57829003601f168201915b5050995050505050505050505060405180910390f35b3415610b5a57600080fd5b610b74600480803560001916906020019091905050611d00565b005b3415610b8157600080fd5b610c6260048080356000191690602001909190803590602001908201803590602001908080601f0160208091040260200160405190810160405280939291908181526020018383808284378201915050505050509190803590602001908201803590602001908080601f0160208091040260200160405190810160405280939291908181526020018383808284378201915050505050509190803573ffffffffffffffffffffffffffffffffffffffff169060200190919080356000191690602001909190803560ff16906020019091908035906020019091905050611d66565b005b3415610c6f57600080fd5b610c9b600480803573ffffffffffffffffffffffffffffffffffffffff16906020019091905050612195565b005b3415610ca857600080fd5b610cce60048080356000191690602001909190803560ff169060200190919050506122ea565b005b3415610cdb57600080fd5b610ce36123d0565b60405180826000191660001916815260200191505060405180910390f35b6000809054906101000a900473ffffffffffffffffffffffffffffffffffffffff1673ffffffffffffffffffffffffffffffffffffffff163373ffffffffffffffffffffffffffffffffffffffff16141515610d5c57600080fd5b610d65816123d6565b1515610d7057600080fd5b600360046000836000191660001916815260200190815260200160002060030160006101000a81548160ff02191690836003811115610dab57fe5b0217905550600160056000836000191660001916815260200190815260200160002060060160006101000a81548160ff0219169083151502179055503360056000836000191660001916815260200190815260200160002060060160016101000a81548173ffffffffffffffffffffffffffffffffffffffff021916908373ffffffffffffffffffffffffffffffffffffffff16021790555060066000905550565b610e556124d1565b610e5d6124d1565b6000806000806000600460008960001916600019168152602001908152602001600020600101600460008a60001916600019168152602001908152602001600020600201600460008b6000191660001916815260200190815260200160002060030160009054906101000a900460ff16600460008c6000191660001916815260200190815260200160002060040154600460008d6000191660001916815260200190815260200160002060060160009054906101000a900460ff16600460008e6000191660001916815260200190815260200160002060060160019054906101000a900460ff16600460008f6000191660001916815260200190815260200160002060050154868054600181600116156101000203166002900480601f016020809104026020016040519081016040528092919081815260200182805460018160011615610100020316600290048015610ff85780601f10610fcd57610100808354040283529160200191610ff8565b820191906000526020600020905b815481529060010190602001808311610fdb57829003601f168201915b50505050509650858054600181600116156101000203166002900480601f0160208091040260200160405190810160405280929190818152602001828054600181600116156101000203166002900480156110945780601f1061106957610100808354040283529160200191611094565b820191906000526020600020905b81548152906001019060200180831161107757829003601f168201915b505050505095509650965096509650965096509650919395979092949650565b6000809054906101000a900473ffffffffffffffffffffffffffffffffffffffff1673ffffffffffffffffffffffffffffffffffffffff163373ffffffffffffffffffffffffffffffffffffffff1614151561110f57600080fd5b8060028190555050565b6000600360003373ffffffffffffffffffffffffffffffffffffffff1673ffffffffffffffffffffffffffffffffffffffff16815260200190815260200160002060009054906101000a900460ff16151561117357600080fd5b60056000846000191660001916815260200190815260200160002090508060060160159054906101000a900460ff1615156111cf5760018160060160156101000a81548160ff0219169083151502179055504381600501819055505b600060048111156111dc57fe5b8260048111156111e857fe5b141561120257600181600401600082825401925050819055505b6001600481111561120f57fe5b82600481111561121b57fe5b141561123557600181600001600082825401925050819055505b6002600481111561124257fe5b82600481111561124e57fe5b141561126857600181600101600082825401925050819055505b6003600481111561127557fe5b82600481111561128157fe5b141561129b57600181600201600082825401925050819055505b6004808111156112a757fe5b8260048111156112b357fe5b14156112cd57600181600301600082825401925050819055505b505050565b6000809054906101000a900473ffffffffffffffffffffffffffffffffffffffff1673ffffffffffffffffffffffffffffffffffffffff163373ffffffffffffffffffffffffffffffffffffffff1614151561132d57600080fd5b6000600360008373ffffffffffffffffffffffffffffffffffffffff1673ffffffffffffffffffffffffffffffffffffffff16815260200190815260200160002060006101000a81548160ff02191690831515021790555050565b6113906124e5565b60046000836000191660001916815260200190815260200160002060000180548060200260200160405190810160405280929190818152602001828054801561142e57602002820191906000526020600020905b8160009054906101000a900473ffffffffffffffffffffffffffffffffffffffff1673ffffffffffffffffffffffffffffffffffffffff16815260200190600101908083116113e4575b50505050509050919050565b6000600460008360001916600019168152602001908152602001600020600401549050919050565b60056020528060005260406000206000915090508060000154908060010154908060020154908060030154908060040154908060050154908060060160009054906101000a900460ff16908060060160019054906101000a900473ffffffffffffffffffffffffffffffffffffffff16908060060160159054906101000a900460ff16905089565b60015481565b60036020528060005260406000206000915054906101000a900460ff1681565b60025481565b600080600860008473ffffffffffffffffffffffffffffffffffffffff1673ffffffffffffffffffffffffffffffffffffffff16815260200190815260200160002060030160009054906101000a900460ff16156115f457600860008473ffffffffffffffffffffffffffffffffffffffff1673ffffffffffffffffffffffffffffffffffffffff1681526020019081526020016000206000019050806000856000191660001916815260200190815260200160002060020160019054906101000a900460ff16156115eb57600191506115f9565b600091506115f9565b600091505b5092915050565b600061160c8233611516565b9050919050565b6000806000806116216124f9565b600860003373ffffffffffffffffffffffffffffffffffffffff1673ffffffffffffffffffffffffffffffffffffffff1681526020019081526020016000206000016000876000191660001916815260200190815260200160002060806040519081016040529081600082015481526020016001820154600019166000191681526020016002820160009054906101000a900460ff1660048111156116c257fe5b60048111156116cd57fe5b81526020016002820160019054906101000a900460ff161515151581525050905080600001518160200151826040015183606001519450945094509450509193509193565b61171a612532565b600960003373ffffffffffffffffffffffffffffffffffffffff1673ffffffffffffffffffffffffffffffffffffffff1681526020019081526020016000208054806020026020016040519081016040528092919081815260200182805480156117a757602002820191906000526020600020905b8154600019168152602001906001019080831161178f575b5050505050905090565b6000809054906101000a900473ffffffffffffffffffffffffffffffffffffffff1673ffffffffffffffffffffffffffffffffffffffff163373ffffffffffffffffffffffffffffffffffffffff1614151561180c57600080fd5b600360008273ffffffffffffffffffffffffffffffffffffffff1673ffffffffffffffffffffffffffffffffffffffff16815260200190815260200160002060009054906101000a900460ff1615156118b8576001600360008373ffffffffffffffffffffffffffffffffffffffff1673ffffffffffffffffffffffffffffffffffffffff16815260200190815260200160002060006101000a81548160ff0219169083151502179055505b50565b60076020528060005260406000206000915090508060000154908060010154905082565b6000809054906101000a900473ffffffffffffffffffffffffffffffffffffffff1681565b6000809054906101000a900473ffffffffffffffffffffffffffffffffffffffff1673ffffffffffffffffffffffffffffffffffffffff163373ffffffffffffffffffffffffffffffffffffffff1614151561195f57600080fd5b8060018190555050565b600080600381111561197757fe5b60046000846000191660001916815260200190815260200160002060030160009054906101000a900460ff1660038111156119ae57fe5b14156119bd57600190506119c2565b600090505b919050565b600360003373ffffffffffffffffffffffffffffffffffffffff1673ffffffffffffffffffffffffffffffffffffffff16815260200190815260200160002060009054906101000a900460ff161515611a1f57600080fd5b600160046000836000191660001916815260200190815260200160002060030160006101000a81548160ff02191690836003811115611a5a57fe5b021790555050565b600960205281600052604060002081815481101515611a7d57fe5b9060005260206000209001600091509150505481565b600360003373ffffffffffffffffffffffffffffffffffffffff1673ffffffffffffffffffffffffffffffffffffffff16815260200190815260200160002060009054906101000a900460ff161515611aeb57600080fd5b600360046000846000191660001916815260200190815260200160002060030160006101000a81548160ff02191690836003811115611b2657fe5b0217905550600160056000846000191660001916815260200190815260200160002060060160006101000a81548160ff0219169083151502179055508060056000846000191660001916815260200190815260200160002060060160016101000a81548173ffffffffffffffffffffffffffffffffffffffff021916908373ffffffffffffffffffffffffffffffffffffffff1602179055506006600090555050565b611bd1612532565b600960003373ffffffffffffffffffffffffffffffffffffffff1673ffffffffffffffffffffffffffffffffffffffff168152602001908152602001600020805480602002602001604051908101604052809291908181526020018280548015611c5e57602002820191906000526020600020905b81546000191681526020019060010190808311611c46575b5050505050905090565b60086020528060005260406000206000915090508060010154908060030160009054906101000a900460ff16905082565b6004602052806000526040600020600091509050806001019080600201908060030160009054906101000a900460ff16908060040154908060050154908060060160009054906101000a900460ff16908060060160019054906101000a900460ff16905087565b600360003373ffffffffffffffffffffffffffffffffffffffff1673ffffffffffffffffffffffffffffffffffffffff16815260200190815260200160002060009054906101000a900460ff161515611d5857600080fd5b806006816000191690555050565b600360003373ffffffffffffffffffffffffffffffffffffffff1673ffffffffffffffffffffffffffffffffffffffff16815260200190815260200160002060009054906101000a900460ff161515611dbe57600080fd5b60046000886000191660001916815260200190815260200160002060060160019054906101000a900460ff161515611e2857600160046000896000191660001916815260200190815260200160002060060160016101000a81548160ff0219169083151502179055505b6004600088600019166000191681526020019081526020016000206000018054806001018281611e589190612546565b9160005260206000209001600086909190916101000a81548173ffffffffffffffffffffffffffffffffffffffff021916908373ffffffffffffffffffffffffffffffffffffffff16021790555050600160046000896000191660001916815260200190815260200160002060040160008282540192505081905550856004600089600019166000191681526020019081526020016000206001019080519060200190611f06929190612572565b50846004600089600019166000191681526020019081526020016000206002019080519060200190611f39929190612572565b50806004600089600019166000191681526020019081526020016000206005018190555060806040519081016040528042815260200184600019168152602001836004811115611f8557fe5b815260200160011515815250600860008673ffffffffffffffffffffffffffffffffffffffff1673ffffffffffffffffffffffffffffffffffffffff16815260200190815260200160002060000160008960001916600019168152602001908152602001600020600082015181600001556020820151816001019060001916905560408201518160020160006101000a81548160ff0219169083600481111561202a57fe5b021790555060608201518160020160016101000a81548160ff021916908315150217905550905050600960008573ffffffffffffffffffffffffffffffffffffffff1673ffffffffffffffffffffffffffffffffffffffff16815260200190815260200160002080548060010182816120a391906125f2565b9160005260206000209001600089909190915090600019169055506001600860008673ffffffffffffffffffffffffffffffffffffffff1673ffffffffffffffffffffffffffffffffffffffff16815260200190815260200160002060030160006101000a81548160ff0219169083151502179055507fc35a658cae4be07e567f54239b7d58105ebfe0f270f017b04df5957adcb26aad87856040518083600019166000191681526020018273ffffffffffffffffffffffffffffffffffffffff1673ffffffffffffffffffffffffffffffffffffffff1681526020019250505060405180910390a150505050505050565b6000809054906101000a900473ffffffffffffffffffffffffffffffffffffffff1673ffffffffffffffffffffffffffffffffffffffff163373ffffffffffffffffffffffffffffffffffffffff161415156121f057600080fd5b600073ffffffffffffffffffffffffffffffffffffffff168173ffffffffffffffffffffffffffffffffffffffff161415151561222c57600080fd5b8073ffffffffffffffffffffffffffffffffffffffff166000809054906101000a900473ffffffffffffffffffffffffffffffffffffffff1673ffffffffffffffffffffffffffffffffffffffff167f8be0079c531659141344cd1fd0a4f28419497f9722a3daafe3b4186f6b6457e060405160405180910390a3806000806101000a81548173ffffffffffffffffffffffffffffffffffffffff021916908373ffffffffffffffffffffffffffffffffffffffff16021790555050565b600360003373ffffffffffffffffffffffffffffffffffffffff1673ffffffffffffffffffffffffffffffffffffffff16815260200190815260200160002060009054906101000a900460ff16151561234257600080fd5b80600381111561234e57fe5b60046000846000191660001916815260200190815260200160002060030160009054906101000a900460ff16600381111561238557fe5b1415156123cc578060046000846000191660001916815260200190815260200160002060030160006101000a81548160ff021916908360038111156123c657fe5b02179055505b5050565b60065481565b6000806000600560008560001916600019168152602001908152602001600020915061245582600401546124478460030154612439866002015461242b8860010154896000015461249a90919063ffffffff16565b61249a90919063ffffffff16565b61249a90919063ffffffff16565b61249a90919063ffffffff16565b90506001546124718360050154436124b890919063ffffffff16565b11801561248057506002548111155b1561248e5760019250612493565b600092505b5050919050565b60008082840190508381101515156124ae57fe5b8091505092915050565b60008282111515156124c657fe5b818303905092915050565b602060405190810160405280600081525090565b602060405190810160405280600081525090565b60806040519081016040528060008152602001600080191681526020016000600481111561252357fe5b81526020016000151581525090565b602060405190810160405280600081525090565b81548183558181151161256d5781836000526020600020918201910161256c919061261e565b5b505050565b828054600181600116156101000203166002900490600052602060002090601f016020900481019282601f106125b357805160ff19168380011785556125e1565b828001600101855582156125e1579182015b828111156125e05782518255916020019190600101906125c5565b5b5090506125ee919061261e565b5090565b815481835581811511612619578183600052602060002091820191016126189190612643565b5b505050565b61264091905b8082111561263c576000816000905550600101612624565b5090565b90565b61266591905b80821115612661576000816000905550600101612649565b5090565b905600a165627a7a72305820fbc217ac247df5b298ed1d8d9979360306359328869d0cc9cdcac511f3c612fa0029",
  "source": "pragma solidity ^0.4.18;\n\nimport '../../node_modules/zeppelin-solidity/contracts/ownership/Ownable.sol';\nimport '../../node_modules/zeppelin-solidity/contracts/math/SafeMath.sol';\nimport \"../../installed_contracts/solidity-stringutils/strings.sol\";\nimport \"./Utility.sol\";\n\ncontract HbStorage is Ownable {\n    using strings for *; \n    using SafeMath for uint256;\n    uint public voteEndInterval = 100; // \n    uint public voteEndThreshold = 10; // \n    function setVoteEndInterval(uint _interval) external onlyOwner {\n        voteEndInterval = _interval;\n    }\n    function setVoteThreshold(uint _threshold) external onlyOwner {\n        voteEndThreshold = _threshold;\n    }\n    enum SFStatus { opening, closed, claiming, ended }\n    enum DelayStatus { no, delay1, delay2, delay3, cancel }\n\n    event MemberAdded(bytes32 _sfIndex, address member);\n\n    struct SFInfo {\n        address[] members;\n        string flightNO;\n        string flightDate;\n        SFStatus status;\n        uint count;\n        uint price;\n        DelayStatus delayStatus;\n        bool isValued;\n    }\n    struct SFHistroy {\n        uint totalCounts;\n        uint delayedCounts;\n    }\n    struct VotedMember {\n        address member;\n        bool vote;\n        bool isValued;\n    }\n    struct VoteInfo {\n        // VotedMember[] votedMembers;\n        uint delay1Counts;\n        uint delay2Counts;\n        uint delay3Counts;\n        uint cancelCounts;\n        uint noCounts;\n        uint startNum;\n        bool ended;\n        address ender;\n        bool isValued;\n    }\n    struct MemberSF {\n        // bytes32 flightIndex;\n        // string flightNO;\n        // string flightDate;\n        uint time;\n        bytes32 votedSF;\n        DelayStatus vote;\n        bool isValued;\n    }\n    struct MemberInfo {\n        mapping(bytes32 => MemberSF) memberSFs;\n        uint winCounts;\n        mapping(bytes32 => bool) canClaim;\n        bool isValued;\n    }\n    // struct MemberInfo {\n    //     bytes32[] scheduledFlights;\n    //     mapping(bytes32 => MemberSF) memberSFs;\n    //     // uint winCounts;\n    //     // mapping(bytes32 => bool) canClaim;\n    //     bool isValued;\n    // }\n    mapping(address => bool) public admins;\n    // {keccak256(+): [SFInfo]}\n    mapping(bytes32 => SFInfo) public scheduledFlights;\n    // {keccak256(+): [VoteInfo]}\n    mapping(bytes32 => VoteInfo)  public voteInfos;\n    //\n    bytes32 public  currentVote;\n    // {keccak256(+): SFHistroy}\n    mapping(bytes32 => SFHistroy) public sfHistroy;\n    //\n    mapping(address => MemberInfo) public memberInfos;\n    mapping(address => bytes32[]) public memberSFs;\n\n    modifier onlyAdmin() {\n        require(admins[msg.sender]);\n        _;\n    }\n\n    /** @dev add address to admins list \n      * @param admin address\n      */\n    function setAdmin(address admin) public onlyOwner {\n        if (!admins[admin]) {\n            admins[admin] = true;\n        }\n    }\n\n    /** @dev remove address from admins list \n      * @param admin address\n      */\n    function removeAdmin(address admin) public onlyOwner {\n        admins[admin] = false;\n    }\n\n    // function HbStorage() public {\n    //     // constructor\n    // }\n    function isMemberInSF(bytes32 _sfIndex, address member) public view returns (bool) {\n        if (memberInfos[member].isValued) {\n            var sfs = memberInfos[member].memberSFs;\n            if (sfs[_sfIndex].isValued) {\n                return true;\n            } else {\n                return false;\n            }\n        } else {\n            return false;\n        }\n    }\n    function getSFCount(bytes32 _sfIndex) public view returns (uint) {\n        return scheduledFlights[_sfIndex].count;\n    }\n    function getScheduledFlights() external view returns (bytes32[]) {\n       return memberSFs[msg.sender];\n    }\n    function addMemberToSF(bytes32 _sfIndex, string _flightNO, string _flightDate, address _member, bytes32 _votedSFIndex, DelayStatus _vote,uint _price) public onlyAdmin {\n        if (!scheduledFlights[_sfIndex].isValued) {\n            scheduledFlights[_sfIndex].isValued = true;\n        }\n        //\n        scheduledFlights[_sfIndex].members.push(_member);\n        //1\n        scheduledFlights[_sfIndex].count += 1;\n        scheduledFlights[_sfIndex].flightNO = _flightNO;\n        scheduledFlights[_sfIndex].flightDate = _flightDate;\n        scheduledFlights[_sfIndex].price = _price;\n        // \n        memberInfos[_member].memberSFs[_sfIndex] = MemberSF({\n            // flightIndex: _sfIndex,\n            time: block.timestamp,\n            votedSF: _votedSFIndex,\n            vote: _vote,\n            isValued: true});\n        memberSFs[_member].push(_sfIndex);\n        memberInfos[_member].isValued = true;  \n\n        MemberAdded(_sfIndex, _member);  \n    }\n    function setClose(bytes32 _sfIndex) public onlyAdmin{\n        scheduledFlights[_sfIndex].status = SFStatus.closed;\n    }\n    function isOpening(bytes32 _sfIndex) public view returns (bool) {\n        if (scheduledFlights[_sfIndex].status == SFStatus.opening) {\n            return true;\n        } else {\n            return false;\n        }\n    }\n    /** @dev  \n      * @param _sfIndex +\n      */\n    function isInSF(bytes32 _sfIndex) public view returns (bool) {\n        return isMemberInSF(_sfIndex, msg.sender);\n    }\n    // function canClaim(address member, bytes32 _sfIndex) public returns (bool) {\n    //     // if (flightNO.toSlice().compare(memberInfos[member].canClaim.toSlice()) == 0) {\n    //     //     return true;\n    //     // } else {\n    //     //     return false;\n    //     // }\n    //     // return memberInfos[member].canClaim[_sfIndex];\n    //     return false;\n    // }\n    // function setCanBuy(address member, bytes32 _sfIndex) public onlyAdmin{\n    //     memberInfos[member].canClaim[_sfIndex] = true;\n    // }\n    /** @dev  \n      * @param _sfIndex +\n      */\n    function returnMemberSFInfo(bytes32 _sfIndex) public view returns (\n        uint time,\n        bytes32 votedSF, \n        DelayStatus vote, \n        bool isValued) {\n        MemberSF memory sfsInfo = memberInfos[msg.sender].memberSFs[_sfIndex];\n        return (sfsInfo.time, sfsInfo.votedSF, sfsInfo.vote, sfsInfo.isValued) ;\n    }\n    /** @dev  \n      * @param _sfIndex +\n      */\n    function returnMembers(bytes32 _sfIndex) public view returns (address[]) {\n        return scheduledFlights[_sfIndex].members;\n    }\n    /** @dev  \n      */   \n    function returnMemberSFs() public view returns(bytes32[]) {\n        return memberSFs[msg.sender];\n    }\n    /** @dev  \n      * @param _sfIndex +\n      */\n    function returnSFInfo(bytes32 _sfIndex) public view returns (string flightNO,\n        string flightDate, SFStatus status, uint count,\n        DelayStatus delayStatus,\n        bool isValued,uint price) {\n        return (scheduledFlights[_sfIndex].flightNO,  scheduledFlights[_sfIndex].flightDate, scheduledFlights[_sfIndex].status, scheduledFlights[_sfIndex].count, scheduledFlights[_sfIndex].delayStatus, scheduledFlights[_sfIndex].isValued, scheduledFlights[_sfIndex].price);\n    }\n    function changeSFStatus(bytes32 index, SFStatus status) external onlyAdmin{\n        if (scheduledFlights[index].status != status) {\n            scheduledFlights[index].status = status;\n        }\n    }\n    function endVote(bytes32 index, address user) external onlyAdmin {\n        scheduledFlights[index].status = SFStatus.ended;\n        voteInfos[index].ended = true;\n        voteInfos[index].ender = user;\n        delete currentVote;\n    }\n    function endVoteByAdmin(bytes32 index) external onlyOwner {\n        require(checkCanEndByAdmin(index));\n        scheduledFlights[index].status = SFStatus.ended;\n        voteInfos[index].ended = true;\n        voteInfos[index].ender = msg.sender;\n        delete currentVote;\n    }\n     /** @dev  \n      * @param _sfIndex \n      */ \n    function checkCanEndByAdmin(bytes32 _sfIndex) internal view returns(bool canEnd){\n        VoteInfo storage voteInfo = voteInfos[_sfIndex];\n        uint totalCounts = voteInfo.delay1Counts.add(voteInfo.delay2Counts).add(voteInfo.delay3Counts).add(voteInfo.cancelCounts).add(voteInfo.noCounts);\n        if (block.number.sub(voteInfo.startNum) > voteEndInterval && totalCounts <= voteEndThreshold) {\n            return true;\n        } else {\n            return false;\n        }\n    }  \n    function updateVote(bytes32 _sfIndex, DelayStatus vote) external onlyAdmin{\n        VoteInfo storage voteInfo = voteInfos[_sfIndex];\n        if (!voteInfo.isValued) {\n            voteInfo.isValued = true;\n            voteInfo.startNum = block.number;\n        }\n        if (vote == DelayStatus.no) {\n            voteInfo.noCounts += 1;\n        }\n        if (vote == DelayStatus.delay1) {\n            voteInfo.delay1Counts += 1;\n        }\n        if (vote == DelayStatus.delay2) {\n            voteInfo.delay2Counts += 1;\n        }\n        if (vote == DelayStatus.delay3) {\n            voteInfo.delay3Counts += 1;\n        }\n        if (vote == DelayStatus.cancel) {\n            voteInfo.cancelCounts += 1;\n        }\n    }\n    function setCurrentVote(bytes32 _sfIndex) external onlyAdmin {\n        currentVote = _sfIndex;\n    }\n}\n",
  "sourcePath": "/Users/hanting/workspace/ethereum/truffle/huibaoSC/contracts/common/HbStorage.sol",
  "compiler": {
    "name": "solc",
    "version": "0.4.18+commit.9cf6e910.Emscripten.clang"
  },
  "schemaVersion": "1.0.1",
  "updatedAt": "2018-04-21T02:24:13.811Z"
}