{
  "contractName": "HbStorage",
  "abi": [
    {
      "constant": false,
      "inputs": [
        {
          "name": "index",
          "type": "bytes32"
        }
      ],
      "name": "endVoteByAdmin",
      "outputs": [],
      "payable": false,
      "stateMutability": "nonpayable",
      "type": "function"
    },
    {
      "constant": true,
      "inputs": [
        {
          "name": "_sfIndex",
          "type": "bytes32"
        }
      ],
      "name": "returnSFInfo",
      "outputs": [
        {
          "name": "flightNO",
          "type": "string"
        },
        {
          "name": "flightDate",
          "type": "string"
        },
        {
          "name": "status",
          "type": "uint8"
        },
        {
          "name": "count",
          "type": "uint256"
        },
        {
          "name": "delayStatus",
          "type": "uint8"
        },
        {
          "name": "isValued",
          "type": "bool"
        },
        {
          "name": "price",
          "type": "uint256"
        }
      ],
      "payable": false,
      "stateMutability": "view",
      "type": "function"
    },
    {
      "constant": false,
      "inputs": [
        {
          "name": "_threshold",
          "type": "uint256"
        }
      ],
      "name": "setVoteThreshold",
      "outputs": [],
      "payable": false,
      "stateMutability": "nonpayable",
      "type": "function"
    },
    {
      "constant": false,
      "inputs": [
        {
          "name": "_sfIndex",
          "type": "bytes32"
        },
        {
          "name": "vote",
          "type": "uint8"
        }
      ],
      "name": "updateVote",
      "outputs": [],
      "payable": false,
      "stateMutability": "nonpayable",
      "type": "function"
    },
    {
      "constant": false,
      "inputs": [
        {
          "name": "admin",
          "type": "address"
        }
      ],
      "name": "removeAdmin",
      "outputs": [],
      "payable": false,
      "stateMutability": "nonpayable",
      "type": "function"
    },
    {
      "constant": true,
      "inputs": [
        {
          "name": "_sfIndex",
          "type": "bytes32"
        }
      ],
      "name": "returnMembers",
      "outputs": [
        {
          "name": "",
          "type": "address[]"
        }
      ],
      "payable": false,
      "stateMutability": "view",
      "type": "function"
    },
    {
      "constant": true,
      "inputs": [
        {
          "name": "_sfIndex",
          "type": "bytes32"
        }
      ],
      "name": "getSFCount",
      "outputs": [
        {
          "name": "",
          "type": "uint256"
        }
      ],
      "payable": false,
      "stateMutability": "view",
      "type": "function"
    },
    {
      "constant": false,
      "inputs": [
        {
          "name": "_sfIndex",
          "type": "bytes32"
        }
      ],
      "name": "addVote",
      "outputs": [],
      "payable": false,
      "stateMutability": "nonpayable",
      "type": "function"
    },
    {
      "constant": true,
      "inputs": [
        {
          "name": "",
          "type": "bytes32"
        }
      ],
      "name": "voteInfos",
      "outputs": [
        {
          "name": "delay1Counts",
          "type": "uint256"
        },
        {
          "name": "delay2Counts",
          "type": "uint256"
        },
        {
          "name": "delay3Counts",
          "type": "uint256"
        },
        {
          "name": "cancelCounts",
          "type": "uint256"
        },
        {
          "name": "noCounts",
          "type": "uint256"
        },
        {
          "name": "startNum",
          "type": "uint256"
        },
        {
          "name": "ended",
          "type": "bool"
        },
        {
          "name": "ender",
          "type": "address"
        },
        {
          "name": "isValued",
          "type": "bool"
        }
      ],
      "payable": false,
      "stateMutability": "view",
      "type": "function"
    },
    {
      "constant": true,
      "inputs": [],
      "name": "voteEndInterval",
      "outputs": [
        {
          "name": "",
          "type": "uint256"
        }
      ],
      "payable": false,
      "stateMutability": "view",
      "type": "function"
    },
    {
      "constant": true,
      "inputs": [
        {
          "name": "",
          "type": "address"
        }
      ],
      "name": "admins",
      "outputs": [
        {
          "name": "",
          "type": "bool"
        }
      ],
      "payable": false,
      "stateMutability": "view",
      "type": "function"
    },
    {
      "constant": true,
      "inputs": [],
      "name": "voteEndThreshold",
      "outputs": [
        {
          "name": "",
          "type": "uint256"
        }
      ],
      "payable": false,
      "stateMutability": "view",
      "type": "function"
    },
    {
      "constant": true,
      "inputs": [
        {
          "name": "_sfIndex",
          "type": "bytes32"
        },
        {
          "name": "member",
          "type": "address"
        }
      ],
      "name": "isMemberInSF",
      "outputs": [
        {
          "name": "",
          "type": "bool"
        }
      ],
      "payable": false,
      "stateMutability": "view",
      "type": "function"
    },
    {
      "constant": true,
      "inputs": [
        {
          "name": "_sfIndex",
          "type": "bytes32"
        }
      ],
      "name": "isInSF",
      "outputs": [
        {
          "name": "",
          "type": "bool"
        }
      ],
      "payable": false,
      "stateMutability": "view",
      "type": "function"
    },
    {
      "constant": true,
      "inputs": [
        {
          "name": "_sfIndex",
          "type": "bytes32"
        }
      ],
      "name": "returnMemberSFInfo",
      "outputs": [
        {
          "name": "time",
          "type": "uint256"
        },
        {
          "name": "votedSF",
          "type": "bytes32"
        },
        {
          "name": "vote",
          "type": "uint8"
        },
        {
          "name": "isValued",
          "type": "bool"
        }
      ],
      "payable": false,
      "stateMutability": "view",
      "type": "function"
    },
    {
      "constant": true,
      "inputs": [],
      "name": "returnMemberSFs",
      "outputs": [
        {
          "name": "",
          "type": "bytes32[]"
        }
      ],
      "payable": false,
      "stateMutability": "view",
      "type": "function"
    },
    {
      "constant": false,
      "inputs": [
        {
          "name": "admin",
          "type": "address"
        }
      ],
      "name": "setAdmin",
      "outputs": [],
      "payable": false,
      "stateMutability": "nonpayable",
      "type": "function"
    },
    {
      "constant": true,
      "inputs": [
        {
          "name": "",
          "type": "bytes32"
        }
      ],
      "name": "sfHistroy",
      "outputs": [
        {
          "name": "totalCounts",
          "type": "uint256"
        },
        {
          "name": "delayedCounts",
          "type": "uint256"
        }
      ],
      "payable": false,
      "stateMutability": "view",
      "type": "function"
    },
    {
      "constant": true,
      "inputs": [],
      "name": "owner",
      "outputs": [
        {
          "name": "",
          "type": "address"
        }
      ],
      "payable": false,
      "stateMutability": "view",
      "type": "function"
    },
    {
      "constant": false,
      "inputs": [
        {
          "name": "_interval",
          "type": "uint256"
        }
      ],
      "name": "setVoteEndInterval",
      "outputs": [],
      "payable": false,
      "stateMutability": "nonpayable",
      "type": "function"
    },
    {
      "constant": true,
      "inputs": [
        {
          "name": "",
          "type": "uint256"
        }
      ],
      "name": "currentVotes",
      "outputs": [
        {
          "name": "",
          "type": "bytes32"
        }
      ],
      "payable": false,
      "stateMutability": "view",
      "type": "function"
    },
    {
      "constant": true,
      "inputs": [
        {
          "name": "_sfIndex",
          "type": "bytes32"
        }
      ],
      "name": "isOpening",
      "outputs": [
        {
          "name": "",
          "type": "bool"
        }
      ],
      "payable": false,
      "stateMutability": "view",
      "type": "function"
    },
    {
      "constant": false,
      "inputs": [
        {
          "name": "_sfIndex",
          "type": "bytes32"
        }
      ],
      "name": "setClose",
      "outputs": [],
      "payable": false,
      "stateMutability": "nonpayable",
      "type": "function"
    },
    {
      "constant": true,
      "inputs": [
        {
          "name": "",
          "type": "address"
        },
        {
          "name": "",
          "type": "uint256"
        }
      ],
      "name": "memberSFs",
      "outputs": [
        {
          "name": "",
          "type": "bytes32"
        }
      ],
      "payable": false,
      "stateMutability": "view",
      "type": "function"
    },
    {
      "constant": false,
      "inputs": [
        {
          "name": "index",
          "type": "bytes32"
        },
        {
          "name": "user",
          "type": "address"
        }
      ],
      "name": "endVote",
      "outputs": [],
      "payable": false,
      "stateMutability": "nonpayable",
      "type": "function"
    },
    {
      "constant": true,
      "inputs": [],
      "name": "getScheduledFlights",
      "outputs": [
        {
          "name": "",
          "type": "bytes32[]"
        }
      ],
      "payable": false,
      "stateMutability": "view",
      "type": "function"
    },
    {
      "constant": true,
      "inputs": [
        {
          "name": "",
          "type": "address"
        }
      ],
      "name": "memberInfos",
      "outputs": [
        {
          "name": "winCounts",
          "type": "uint256"
        },
        {
          "name": "isValued",
          "type": "bool"
        }
      ],
      "payable": false,
      "stateMutability": "view",
      "type": "function"
    },
    {
      "constant": true,
      "inputs": [
        {
          "name": "",
          "type": "bytes32"
        }
      ],
      "name": "scheduledFlights",
      "outputs": [
        {
          "name": "flightNO",
          "type": "string"
        },
        {
          "name": "flightDate",
          "type": "string"
        },
        {
          "name": "status",
          "type": "uint8"
        },
        {
          "name": "count",
          "type": "uint256"
        },
        {
          "name": "price",
          "type": "uint256"
        },
        {
          "name": "delayStatus",
          "type": "uint8"
        },
        {
          "name": "isValued",
          "type": "bool"
        }
      ],
      "payable": false,
      "stateMutability": "view",
      "type": "function"
    },
    {
      "constant": false,
      "inputs": [
        {
          "name": "_sfIndex",
          "type": "bytes32"
        },
        {
          "name": "_flightNO",
          "type": "string"
        },
        {
          "name": "_flightDate",
          "type": "string"
        },
        {
          "name": "_member",
          "type": "address"
        },
        {
          "name": "_votedSFIndex",
          "type": "bytes32"
        },
        {
          "name": "_vote",
          "type": "uint8"
        },
        {
          "name": "_price",
          "type": "uint256"
        }
      ],
      "name": "addMemberToSF",
      "outputs": [],
      "payable": false,
      "stateMutability": "nonpayable",
      "type": "function"
    },
    {
      "constant": false,
      "inputs": [
        {
          "name": "newOwner",
          "type": "address"
        }
      ],
      "name": "transferOwnership",
      "outputs": [],
      "payable": false,
      "stateMutability": "nonpayable",
      "type": "function"
    },
    {
      "constant": false,
      "inputs": [
        {
          "name": "index",
          "type": "bytes32"
        },
        {
          "name": "status",
          "type": "uint8"
        }
      ],
      "name": "changeSFStatus",
      "outputs": [],
      "payable": false,
      "stateMutability": "nonpayable",
      "type": "function"
    },
    {
      "anonymous": false,
      "inputs": [
        {
          "indexed": false,
          "name": "_sfIndex",
          "type": "bytes32"
        },
        {
          "indexed": false,
          "name": "member",
          "type": "address"
        }
      ],
      "name": "MemberAdded",
      "type": "event"
    },
    {
      "anonymous": false,
      "inputs": [
        {
          "indexed": true,
          "name": "previousOwner",
          "type": "address"
        },
        {
          "indexed": true,
          "name": "newOwner",
          "type": "address"
        }
      ],
      "name": "OwnershipTransferred",
      "type": "event"
    }
  ],
  "bytecode": "0x60606040526064600155600a600255336000806101000a81548173ffffffffffffffffffffffffffffffffffffffff021916908373ffffffffffffffffffffffffffffffffffffffff1602179055506127d58061005d6000396000f30060606040526004361061018b576000357c0100000000000000000000000000000000000000000000000000000000900463ffffffff168063029ddc831461019057806303c856d3146101b7578063129094851461030657806316ff98c8146103295780631785f53c1461035c5780631cce1444146103955780632a9e90b9146104115780632d454c6d1461044c578063385afd8c1461047357806340c4af4c1461051a578063429b62e51461054357806348a44eb8146105945780634adaaf1f146105bd578063568ebb5c1461061b57806363ecba0e1461065a5780636eff3044146106c4578063704b6c021461072e57806385c768e8146107675780638da5cb5b146107a95780639394edfe146107fe5780639627293c14610821578063995a3dee14610860578063a1b73fff1461089f578063a3b34c08146108c6578063b8dbf2b814610924578063c085c3461461096a578063c8536639146109d4578063d948413314610a2c578063f0b2801a14610bb5578063f2fde38b14610ca3578063f429b70514610cdc575b600080fd5b341561019b57600080fd5b6101b5600480803560001916906020019091905050610d0f565b005b34156101c257600080fd5b6101dc600480803560001916906020019091905050610e5d565b6040518080602001806020018860038111156101f457fe5b60ff16815260200187815260200186600481111561020e57fe5b60ff1681526020018515151515815260200184815260200183810383528a818151815260200191508051906020019080838360005b8381101561025e578082015181840152602081019050610243565b50505050905090810190601f16801561028b5780820380516001836020036101000a031916815260200191505b50838103825289818151815260200191508051906020019080838360005b838110156102c45780820151818401526020810190506102a9565b50505050905090810190601f1680156102f15780820380516001836020036101000a031916815260200191505b50995050505050505050505060405180910390f35b341561031157600080fd5b61032760048080359060200190919050506110c4565b005b341561033457600080fd5b61035a60048080356000191690602001909190803560ff16906020019091905050611129565b005b341561036757600080fd5b610393600480803573ffffffffffffffffffffffffffffffffffffffff169060200190919050506112e2565b005b34156103a057600080fd5b6103ba600480803560001916906020019091905050611398565b6040518080602001828103825283818151815260200191508051906020019060200280838360005b838110156103fd5780820151818401526020810190506103e2565b505050509050019250505060405180910390f35b341561041c57600080fd5b61043660048080356000191690602001909190505061144a565b6040518082815260200191505060405180910390f35b341561045757600080fd5b610471600480803560001916906020019091905050611472565b005b341561047e57600080fd5b61049860048080356000191690602001909190505061154e565b604051808a8152602001898152602001888152602001878152602001868152602001858152602001841515151581526020018373ffffffffffffffffffffffffffffffffffffffff1673ffffffffffffffffffffffffffffffffffffffff16815260200182151515158152602001995050505050505050505060405180910390f35b341561052557600080fd5b61052d6115d6565b6040518082815260200191505060405180910390f35b341561054e57600080fd5b61057a600480803573ffffffffffffffffffffffffffffffffffffffff169060200190919050506115dc565b604051808215151515815260200191505060405180910390f35b341561059f57600080fd5b6105a76115fc565b6040518082815260200191505060405180910390f35b34156105c857600080fd5b61060160048080356000191690602001909190803573ffffffffffffffffffffffffffffffffffffffff16906020019091905050611602565b604051808215151515815260200191505060405180910390f35b341561062657600080fd5b6106406004808035600019169060200190919050506116ec565b604051808215151515815260200191505060405180910390f35b341561066557600080fd5b61067f6004808035600019169060200190919050506116ff565b6040518085815260200184600019166000191681526020018360048111156106a357fe5b60ff1681526020018215151515815260200194505050505060405180910390f35b34156106cf57600080fd5b6106d76117fe565b6040518080602001828103825283818151815260200191508051906020019060200280838360005b8381101561071a5780820151818401526020810190506106ff565b505050509050019250505060405180910390f35b341561073957600080fd5b610765600480803573ffffffffffffffffffffffffffffffffffffffff1690602001909190505061189d565b005b341561077257600080fd5b61078c6004808035600019169060200190919050506119a7565b604051808381526020018281526020019250505060405180910390f35b34156107b457600080fd5b6107bc6119cb565b604051808273ffffffffffffffffffffffffffffffffffffffff1673ffffffffffffffffffffffffffffffffffffffff16815260200191505060405180910390f35b341561080957600080fd5b61081f60048080359060200190919050506119f0565b005b341561082c57600080fd5b6108426004808035906020019091905050611a55565b60405180826000191660001916815260200191505060405180910390f35b341561086b57600080fd5b610885600480803560001916906020019091905050611a79565b604051808215151515815260200191505060405180910390f35b34156108aa57600080fd5b6108c4600480803560001916906020019091905050611ad7565b005b34156108d157600080fd5b610906600480803573ffffffffffffffffffffffffffffffffffffffff16906020019091908035906020019091905050611b72565b60405180826000191660001916815260200191505060405180910390f35b341561092f57600080fd5b61096860048080356000191690602001909190803573ffffffffffffffffffffffffffffffffffffffff16906020019091905050611ba3565b005b341561097557600080fd5b61097d611cdb565b6040518080602001828103825283818151815260200191508051906020019060200280838360005b838110156109c05780820151818401526020810190506109a5565b505050509050019250505060405180910390f35b34156109df57600080fd5b610a0b600480803573ffffffffffffffffffffffffffffffffffffffff16906020019091905050611d7a565b60405180838152602001821515151581526020019250505060405180910390f35b3415610a3757600080fd5b610a51600480803560001916906020019091905050611dab565b604051808060200180602001886003811115610a6957fe5b60ff168152602001878152602001868152602001856004811115610a8957fe5b60ff1681526020018415151515815260200183810383528a818154600181600116156101000203166002900481526020019150805460018160011615610100020316600290048015610b1c5780601f10610af157610100808354040283529160200191610b1c565b820191906000526020600020905b815481529060010190602001808311610aff57829003601f168201915b5050838103825289818154600181600116156101000203166002900481526020019150805460018160011615610100020316600290048015610b9f5780601f10610b7457610100808354040283529160200191610b9f565b820191906000526020600020905b815481529060010190602001808311610b8257829003601f168201915b5050995050505050505050505060405180910390f35b3415610bc057600080fd5b610ca160048080356000191690602001909190803590602001908201803590602001908080601f0160208091040260200160405190810160405280939291908181526020018383808284378201915050505050509190803590602001908201803590602001908080601f0160208091040260200160405190810160405280939291908181526020018383808284378201915050505050509190803573ffffffffffffffffffffffffffffffffffffffff169060200190919080356000191690602001909190803560ff16906020019091908035906020019091905050611e12565b005b3415610cae57600080fd5b610cda600480803573ffffffffffffffffffffffffffffffffffffffff16906020019091905050612241565b005b3415610ce757600080fd5b610d0d60048080356000191690602001909190803560ff16906020019091905050612396565b005b6000809054906101000a900473ffffffffffffffffffffffffffffffffffffffff1673ffffffffffffffffffffffffffffffffffffffff163373ffffffffffffffffffffffffffffffffffffffff16141515610d6a57600080fd5b610d738161247c565b1515610d7e57600080fd5b600360046000836000191660001916815260200190815260200160002060030160006101000a81548160ff02191690836003811115610db957fe5b0217905550600160056000836000191660001916815260200190815260200160002060060160006101000a81548160ff0219169083151502179055503360056000836000191660001916815260200190815260200160002060060160016101000a81548173ffffffffffffffffffffffffffffffffffffffff021916908373ffffffffffffffffffffffffffffffffffffffff160217905550610e5a612540565b50565b610e65612612565b610e6d612612565b6000806000806000600460008960001916600019168152602001908152602001600020600101600460008a60001916600019168152602001908152602001600020600201600460008b6000191660001916815260200190815260200160002060030160009054906101000a900460ff16600460008c6000191660001916815260200190815260200160002060040154600460008d6000191660001916815260200190815260200160002060060160009054906101000a900460ff16600460008e6000191660001916815260200190815260200160002060060160019054906101000a900460ff16600460008f6000191660001916815260200190815260200160002060050154868054600181600116156101000203166002900480601f0160208091040260200160405190810160405280929190818152602001828054600181600116156101000203166002900480156110085780601f10610fdd57610100808354040283529160200191611008565b820191906000526020600020905b815481529060010190602001808311610feb57829003601f168201915b50505050509650858054600181600116156101000203166002900480601f0160208091040260200160405190810160405280929190818152602001828054600181600116156101000203166002900480156110a45780601f10611079576101008083540402835291602001916110a4565b820191906000526020600020905b81548152906001019060200180831161108757829003601f168201915b505050505095509650965096509650965096509650919395979092949650565b6000809054906101000a900473ffffffffffffffffffffffffffffffffffffffff1673ffffffffffffffffffffffffffffffffffffffff163373ffffffffffffffffffffffffffffffffffffffff1614151561111f57600080fd5b8060028190555050565b6000600360003373ffffffffffffffffffffffffffffffffffffffff1673ffffffffffffffffffffffffffffffffffffffff16815260200190815260200160002060009054906101000a900460ff16151561118357600080fd5b60056000846000191660001916815260200190815260200160002090508060060160159054906101000a900460ff1615156111df5760018160060160156101000a81548160ff0219169083151502179055504381600501819055505b600060048111156111ec57fe5b8260048111156111f857fe5b141561121257600181600401600082825401925050819055505b6001600481111561121f57fe5b82600481111561122b57fe5b141561124557600181600001600082825401925050819055505b6002600481111561125257fe5b82600481111561125e57fe5b141561127857600181600101600082825401925050819055505b6003600481111561128557fe5b82600481111561129157fe5b14156112ab57600181600201600082825401925050819055505b6004808111156112b757fe5b8260048111156112c357fe5b14156112dd57600181600301600082825401925050819055505b505050565b6000809054906101000a900473ffffffffffffffffffffffffffffffffffffffff1673ffffffffffffffffffffffffffffffffffffffff163373ffffffffffffffffffffffffffffffffffffffff1614151561133d57600080fd5b6000600360008373ffffffffffffffffffffffffffffffffffffffff1673ffffffffffffffffffffffffffffffffffffffff16815260200190815260200160002060006101000a81548160ff02191690831515021790555050565b6113a0612626565b60046000836000191660001916815260200190815260200160002060000180548060200260200160405190810160405280929190818152602001828054801561143e57602002820191906000526020600020905b8160009054906101000a900473ffffffffffffffffffffffffffffffffffffffff1673ffffffffffffffffffffffffffffffffffffffff16815260200190600101908083116113f4575b50505050509050919050565b6000600460008360001916600019168152602001908152602001600020600401549050919050565b6000600360003373ffffffffffffffffffffffffffffffffffffffff1673ffffffffffffffffffffffffffffffffffffffff16815260200190815260200160002060009054906101000a900460ff1615156114cc57600080fd5b600090505b60068054905081101561151a5781600019166006828154811015156114f257fe5b90600052602060002090015460001916141561150d5761154a565b80806001019150506114d1565b6006805480600101828161152e919061263a565b9160005260206000209001600084909190915090600019169055505b5050565b60056020528060005260406000206000915090508060000154908060010154908060020154908060030154908060040154908060050154908060060160009054906101000a900460ff16908060060160019054906101000a900473ffffffffffffffffffffffffffffffffffffffff16908060060160159054906101000a900460ff16905089565b60015481565b60036020528060005260406000206000915054906101000a900460ff1681565b60025481565b600080600860008473ffffffffffffffffffffffffffffffffffffffff1673ffffffffffffffffffffffffffffffffffffffff16815260200190815260200160002060030160009054906101000a900460ff16156116e057600860008473ffffffffffffffffffffffffffffffffffffffff1673ffffffffffffffffffffffffffffffffffffffff1681526020019081526020016000206000019050806000856000191660001916815260200190815260200160002060020160019054906101000a900460ff16156116d757600191506116e5565b600091506116e5565b600091505b5092915050565b60006116f88233611602565b9050919050565b60008060008061170d612666565b600860003373ffffffffffffffffffffffffffffffffffffffff1673ffffffffffffffffffffffffffffffffffffffff1681526020019081526020016000206000016000876000191660001916815260200190815260200160002060806040519081016040529081600082015481526020016001820154600019166000191681526020016002820160009054906101000a900460ff1660048111156117ae57fe5b60048111156117b957fe5b81526020016002820160019054906101000a900460ff161515151581525050905080600001518160200151826040015183606001519450945094509450509193509193565b61180661269f565b600960003373ffffffffffffffffffffffffffffffffffffffff1673ffffffffffffffffffffffffffffffffffffffff16815260200190815260200160002080548060200260200160405190810160405280929190818152602001828054801561189357602002820191906000526020600020905b8154600019168152602001906001019080831161187b575b5050505050905090565b6000809054906101000a900473ffffffffffffffffffffffffffffffffffffffff1673ffffffffffffffffffffffffffffffffffffffff163373ffffffffffffffffffffffffffffffffffffffff161415156118f857600080fd5b600360008273ffffffffffffffffffffffffffffffffffffffff1673ffffffffffffffffffffffffffffffffffffffff16815260200190815260200160002060009054906101000a900460ff1615156119a4576001600360008373ffffffffffffffffffffffffffffffffffffffff1673ffffffffffffffffffffffffffffffffffffffff16815260200190815260200160002060006101000a81548160ff0219169083151502179055505b50565b60076020528060005260406000206000915090508060000154908060010154905082565b6000809054906101000a900473ffffffffffffffffffffffffffffffffffffffff1681565b6000809054906101000a900473ffffffffffffffffffffffffffffffffffffffff1673ffffffffffffffffffffffffffffffffffffffff163373ffffffffffffffffffffffffffffffffffffffff16141515611a4b57600080fd5b8060018190555050565b600681815481101515611a6457fe5b90600052602060002090016000915090505481565b6000806003811115611a8757fe5b60046000846000191660001916815260200190815260200160002060030160009054906101000a900460ff166003811115611abe57fe5b1415611acd5760019050611ad2565b600090505b919050565b600360003373ffffffffffffffffffffffffffffffffffffffff1673ffffffffffffffffffffffffffffffffffffffff16815260200190815260200160002060009054906101000a900460ff161515611b2f57600080fd5b600160046000836000191660001916815260200190815260200160002060030160006101000a81548160ff02191690836003811115611b6a57fe5b021790555050565b600960205281600052604060002081815481101515611b8d57fe5b9060005260206000209001600091509150505481565b600360003373ffffffffffffffffffffffffffffffffffffffff1673ffffffffffffffffffffffffffffffffffffffff16815260200190815260200160002060009054906101000a900460ff161515611bfb57600080fd5b600360046000846000191660001916815260200190815260200160002060030160006101000a81548160ff02191690836003811115611c3657fe5b0217905550600160056000846000191660001916815260200190815260200160002060060160006101000a81548160ff0219169083151502179055508060056000846000191660001916815260200190815260200160002060060160016101000a81548173ffffffffffffffffffffffffffffffffffffffff021916908373ffffffffffffffffffffffffffffffffffffffff160217905550611cd7612540565b5050565b611ce361269f565b600960003373ffffffffffffffffffffffffffffffffffffffff1673ffffffffffffffffffffffffffffffffffffffff168152602001908152602001600020805480602002602001604051908101604052809291908181526020018280548015611d7057602002820191906000526020600020905b81546000191681526020019060010190808311611d58575b5050505050905090565b60086020528060005260406000206000915090508060010154908060030160009054906101000a900460ff16905082565b6004602052806000526040600020600091509050806001019080600201908060030160009054906101000a900460ff16908060040154908060050154908060060160009054906101000a900460ff16908060060160019054906101000a900460ff16905087565b600360003373ffffffffffffffffffffffffffffffffffffffff1673ffffffffffffffffffffffffffffffffffffffff16815260200190815260200160002060009054906101000a900460ff161515611e6a57600080fd5b60046000886000191660001916815260200190815260200160002060060160019054906101000a900460ff161515611ed457600160046000896000191660001916815260200190815260200160002060060160016101000a81548160ff0219169083151502179055505b6004600088600019166000191681526020019081526020016000206000018054806001018281611f0491906126b3565b9160005260206000209001600086909190916101000a81548173ffffffffffffffffffffffffffffffffffffffff021916908373ffffffffffffffffffffffffffffffffffffffff16021790555050600160046000896000191660001916815260200190815260200160002060040160008282540192505081905550856004600089600019166000191681526020019081526020016000206001019080519060200190611fb29291906126df565b50846004600089600019166000191681526020019081526020016000206002019080519060200190611fe59291906126df565b5080600460008960001916600019168152602001908152602001600020600501819055506080604051908101604052804281526020018460001916815260200183600481111561203157fe5b815260200160011515815250600860008673ffffffffffffffffffffffffffffffffffffffff1673ffffffffffffffffffffffffffffffffffffffff16815260200190815260200160002060000160008960001916600019168152602001908152602001600020600082015181600001556020820151816001019060001916905560408201518160020160006101000a81548160ff021916908360048111156120d657fe5b021790555060608201518160020160016101000a81548160ff021916908315150217905550905050600960008573ffffffffffffffffffffffffffffffffffffffff1673ffffffffffffffffffffffffffffffffffffffff168152602001908152602001600020805480600101828161214f919061263a565b9160005260206000209001600089909190915090600019169055506001600860008673ffffffffffffffffffffffffffffffffffffffff1673ffffffffffffffffffffffffffffffffffffffff16815260200190815260200160002060030160006101000a81548160ff0219169083151502179055507fc35a658cae4be07e567f54239b7d58105ebfe0f270f017b04df5957adcb26aad87856040518083600019166000191681526020018273ffffffffffffffffffffffffffffffffffffffff1673ffffffffffffffffffffffffffffffffffffffff1681526020019250505060405180910390a150505050505050565b6000809054906101000a900473ffffffffffffffffffffffffffffffffffffffff1673ffffffffffffffffffffffffffffffffffffffff163373ffffffffffffffffffffffffffffffffffffffff1614151561229c57600080fd5b600073ffffffffffffffffffffffffffffffffffffffff168173ffffffffffffffffffffffffffffffffffffffff16141515156122d857600080fd5b8073ffffffffffffffffffffffffffffffffffffffff166000809054906101000a900473ffffffffffffffffffffffffffffffffffffffff1673ffffffffffffffffffffffffffffffffffffffff167f8be0079c531659141344cd1fd0a4f28419497f9722a3daafe3b4186f6b6457e060405160405180910390a3806000806101000a81548173ffffffffffffffffffffffffffffffffffffffff021916908373ffffffffffffffffffffffffffffffffffffffff16021790555050565b600360003373ffffffffffffffffffffffffffffffffffffffff1673ffffffffffffffffffffffffffffffffffffffff16815260200190815260200160002060009054906101000a900460ff1615156123ee57600080fd5b8060038111156123fa57fe5b60046000846000191660001916815260200190815260200160002060030160009054906101000a900460ff16600381111561243157fe5b141515612478578060046000846000191660001916815260200190815260200160002060030160006101000a81548160ff0219169083600381111561247257fe5b02179055505b5050565b600080600060056000856000191660001916815260200190815260200160002091506124fb82600401546124ed84600301546124df86600201546124d18860010154896000015461254e90919063ffffffff16565b61254e90919063ffffffff16565b61254e90919063ffffffff16565b61254e90919063ffffffff16565b905060015461251783600501544361256c90919063ffffffff16565b11801561252657506002548111155b156125345760019250612539565b600092505b5050919050565b61254c60066000612585565b565b600080828401905083811015151561256257fe5b8091505092915050565b600082821115151561257a57fe5b818303905092915050565b60008280549050821015156125995761260d565b8190505b60018380549050038110156125f75782600182018154811015156125bd57fe5b90600052602060002090015483828154811015156125d757fe5b90600052602060002090018160001916905550808060010191505061259d565b8280548091906001900361260b919061263a565b505b505050565b602060405190810160405280600081525090565b602060405190810160405280600081525090565b81548183558181151161266157818360005260206000209182019101612660919061275f565b5b505050565b60806040519081016040528060008152602001600080191681526020016000600481111561269057fe5b81526020016000151581525090565b602060405190810160405280600081525090565b8154818355818115116126da578183600052602060002091820191016126d99190612784565b5b505050565b828054600181600116156101000203166002900490600052602060002090601f016020900481019282601f1061272057805160ff191683800117855561274e565b8280016001018555821561274e579182015b8281111561274d578251825591602001919060010190612732565b5b50905061275b9190612784565b5090565b61278191905b8082111561277d576000816000905550600101612765565b5090565b90565b6127a691905b808211156127a257600081600090555060010161278a565b5090565b905600a165627a7a7230582076defa08351a8b792d0d2e1a142aea6b11c9a8364d7f88b8d5a46200e82040720029",
  "source": "pragma solidity ^0.4.18;\n\nimport '../../node_modules/zeppelin-solidity/contracts/ownership/Ownable.sol';\nimport '../../node_modules/zeppelin-solidity/contracts/math/SafeMath.sol';\nimport \"../../installed_contracts/solidity-stringutils/strings.sol\";\nimport \"./Utility.sol\";\n\ncontract HbStorage is Ownable {\n    using strings for *; \n    using SafeMath for uint256;\n    uint public voteEndInterval = 100; // \n    uint public voteEndThreshold = 10; // \n    function setVoteEndInterval(uint _interval) external onlyOwner {\n        voteEndInterval = _interval;\n    }\n    function setVoteThreshold(uint _threshold) external onlyOwner {\n        voteEndThreshold = _threshold;\n    }\n    enum SFStatus { opening, closed, claiming, ended }\n    enum DelayStatus { no, delay1, delay2, delay3, cancel }\n\n    event MemberAdded(bytes32 _sfIndex, address member);\n\n    struct SFInfo {\n        address[] members;\n        string flightNO;\n        string flightDate;\n        SFStatus status;\n        uint count;\n        uint price;\n        DelayStatus delayStatus;\n        bool isValued;\n    }\n    struct SFHistroy {\n        uint totalCounts;\n        uint delayedCounts;\n    }\n    struct VotedMember {\n        address member;\n        bool vote;\n        bool isValued;\n    }\n    struct VoteInfo {\n        // VotedMember[] votedMembers;\n        uint delay1Counts;\n        uint delay2Counts;\n        uint delay3Counts;\n        uint cancelCounts;\n        uint noCounts;\n        uint startNum;\n        bool ended;\n        address ender;\n        bool isValued;\n    }\n    struct MemberSF {\n        // bytes32 flightIndex;\n        // string flightNO;\n        // string flightDate;\n        uint time;\n        bytes32 votedSF;\n        DelayStatus vote;\n        bool isValued;\n    }\n    struct MemberInfo {\n        mapping(bytes32 => MemberSF) memberSFs;\n        uint winCounts;\n        mapping(bytes32 => bool) canClaim;\n        bool isValued;\n    }\n    // struct MemberInfo {\n    //     bytes32[] scheduledFlights;\n    //     mapping(bytes32 => MemberSF) memberSFs;\n    //     // uint winCounts;\n    //     // mapping(bytes32 => bool) canClaim;\n    //     bool isValued;\n    // }\n    mapping(address => bool) public admins;\n    // {keccak256(+): [SFInfo]}\n    mapping(bytes32 => SFInfo) public scheduledFlights;\n    // {keccak256(+): [VoteInfo]}\n    mapping(bytes32 => VoteInfo)  public voteInfos;\n    //\n    bytes32[] public  currentVotes;\n    // {keccak256(+): SFHistroy}\n    mapping(bytes32 => SFHistroy) public sfHistroy;\n    //\n    mapping(address => MemberInfo) public memberInfos;\n    mapping(address => bytes32[]) public memberSFs;\n\n    modifier onlyAdmin() {\n        require(admins[msg.sender]);\n        _;\n    }\n\n    /** @dev add address to admins list \n      * @param admin address\n      */\n    function setAdmin(address admin) public onlyOwner {\n        if (!admins[admin]) {\n            admins[admin] = true;\n        }\n    }\n\n    /** @dev remove address from admins list \n      * @param admin address\n      */\n    function removeAdmin(address admin) public onlyOwner {\n        admins[admin] = false;\n    }\n\n    // function HbStorage() public {\n    //     // constructor\n    // }\n    function isMemberInSF(bytes32 _sfIndex, address member) public view returns (bool) {\n        if (memberInfos[member].isValued) {\n            var sfs = memberInfos[member].memberSFs;\n            if (sfs[_sfIndex].isValued) {\n                return true;\n            } else {\n                return false;\n            }\n        } else {\n            return false;\n        }\n    }\n    function getSFCount(bytes32 _sfIndex) public view returns (uint) {\n        return scheduledFlights[_sfIndex].count;\n    }\n    function getScheduledFlights() external view returns (bytes32[]) {\n        return memberSFs[msg.sender];\n    }\n    function addMemberToSF(bytes32 _sfIndex, string _flightNO, string _flightDate, address _member, bytes32 _votedSFIndex, DelayStatus _vote,uint _price) public onlyAdmin {\n        if (!scheduledFlights[_sfIndex].isValued) {\n            scheduledFlights[_sfIndex].isValued = true;\n        }\n        //\n        scheduledFlights[_sfIndex].members.push(_member);\n        //1\n        scheduledFlights[_sfIndex].count += 1;\n        scheduledFlights[_sfIndex].flightNO = _flightNO;\n        scheduledFlights[_sfIndex].flightDate = _flightDate;\n        scheduledFlights[_sfIndex].price = _price;\n        // \n        memberInfos[_member].memberSFs[_sfIndex] = MemberSF({\n            // flightIndex: _sfIndex,\n            time: block.timestamp,\n            votedSF: _votedSFIndex,\n            vote: _vote,\n            isValued: true});\n        memberSFs[_member].push(_sfIndex);\n        memberInfos[_member].isValued = true;  \n\n        MemberAdded(_sfIndex, _member);  \n    }\n    function setClose(bytes32 _sfIndex) public onlyAdmin{\n        scheduledFlights[_sfIndex].status = SFStatus.closed;\n    }\n    function isOpening(bytes32 _sfIndex) public view returns (bool) {\n        if (scheduledFlights[_sfIndex].status == SFStatus.opening) {\n            return true;\n        } else {\n            return false;\n        }\n    }\n    /** @dev  \n      * @param _sfIndex +\n      */\n    function isInSF(bytes32 _sfIndex) public view returns (bool) {\n        return isMemberInSF(_sfIndex, msg.sender);\n    }\n    // function canClaim(address member, bytes32 _sfIndex) public returns (bool) {\n    //     // if (flightNO.toSlice().compare(memberInfos[member].canClaim.toSlice()) == 0) {\n    //     //     return true;\n    //     // } else {\n    //     //     return false;\n    //     // }\n    //     // return memberInfos[member].canClaim[_sfIndex];\n    //     return false;\n    // }\n    // function setCanBuy(address member, bytes32 _sfIndex) public onlyAdmin{\n    //     memberInfos[member].canClaim[_sfIndex] = true;\n    // }\n    /** @dev  \n      * @param _sfIndex +\n      */\n    function returnMemberSFInfo(bytes32 _sfIndex) public view returns (\n        uint time,\n        bytes32 votedSF, \n        DelayStatus vote, \n        bool isValued) {\n        MemberSF memory sfsInfo = memberInfos[msg.sender].memberSFs[_sfIndex];\n        return (sfsInfo.time, sfsInfo.votedSF, sfsInfo.vote, sfsInfo.isValued) ;\n    }\n    /** @dev  \n      * @param _sfIndex +\n      */\n    function returnMembers(bytes32 _sfIndex) public view returns (address[]) {\n        return scheduledFlights[_sfIndex].members;\n    }\n    /** @dev  \n      */   \n    function returnMemberSFs() public view returns(bytes32[]) {\n        return memberSFs[msg.sender];\n    }\n    /** @dev  \n      * @param _sfIndex +\n      */\n    function returnSFInfo(bytes32 _sfIndex) public view returns (string flightNO,\n        string flightDate, SFStatus status, uint count,\n        DelayStatus delayStatus,\n        bool isValued,uint price) {\n        return (scheduledFlights[_sfIndex].flightNO,  scheduledFlights[_sfIndex].flightDate, scheduledFlights[_sfIndex].status, scheduledFlights[_sfIndex].count, scheduledFlights[_sfIndex].delayStatus, scheduledFlights[_sfIndex].isValued, scheduledFlights[_sfIndex].price);\n    }\n    function changeSFStatus(bytes32 index, SFStatus status) external onlyAdmin{\n        if (scheduledFlights[index].status != status) {\n            scheduledFlights[index].status = status;\n        }\n    }\n    function endVote(bytes32 index, address user) external onlyAdmin {\n        scheduledFlights[index].status = SFStatus.ended;\n        voteInfos[index].ended = true;\n        voteInfos[index].ender = user;\n        toNextVote();\n    }\n    function endVoteByAdmin(bytes32 index) external onlyOwner {\n        require(checkCanEndByAdmin(index));\n        scheduledFlights[index].status = SFStatus.ended;\n        voteInfos[index].ended = true;\n        voteInfos[index].ender = msg.sender;\n        toNextVote();\n    }\n     /** @dev  \n      * @param _sfIndex \n      */ \n    function checkCanEndByAdmin(bytes32 _sfIndex) internal view returns(bool canEnd){\n        VoteInfo storage voteInfo = voteInfos[_sfIndex];\n        uint totalCounts = voteInfo.delay1Counts.add(voteInfo.delay2Counts).add(voteInfo.delay3Counts).add(voteInfo.cancelCounts).add(voteInfo.noCounts);\n        if (block.number.sub(voteInfo.startNum) > voteEndInterval && totalCounts <= voteEndThreshold) {\n            return true;\n        } else {\n            return false;\n        }\n    }\n\n    //vote a vote\n    function updateVote(bytes32 _sfIndex, DelayStatus vote) external onlyAdmin{\n        VoteInfo storage voteInfo = voteInfos[_sfIndex];\n        if (!voteInfo.isValued) {\n            voteInfo.isValued = true;\n            voteInfo.startNum = block.number;\n        }\n        if (vote == DelayStatus.no) {\n            voteInfo.noCounts += 1;\n        }\n        if (vote == DelayStatus.delay1) {\n            voteInfo.delay1Counts += 1;\n        }\n        if (vote == DelayStatus.delay2) {\n            voteInfo.delay2Counts += 1;\n        }\n        if (vote == DelayStatus.delay3) {\n            voteInfo.delay3Counts += 1;\n        }\n        if (vote == DelayStatus.cancel) {\n            voteInfo.cancelCounts += 1;\n        }\n    }\n\n    //add a new vote process\n    //when duplicate, do nothing    \n    function addVote(bytes32 _sfIndex) external onlyAdmin {\n        for (uint i = 0; i<currentVotes.length; i++){\n            if(currentVotes[i] == _sfIndex){\n                return;\n            }\n        }\n        currentVotes.push(_sfIndex);\n        return;\n    }\n\n    //step to next vote process\n    function toNextVote() internal {\n        arrayRemove(currentVotes, 0);\n    }\n\n    function arrayRemove(bytes32[] storage array, uint index) internal {\n        if (index >= array.length) return;\n        for (uint i = index; i<array.length-1; i++){\n            array[i] = array[i+1];\n        }\n        array.length--;\n    }\n\n}\n",
  "sourcePath": "/Users/hanting/workspace/ethereum/truffle/huibaoSC/contracts/common/HbStorage.sol",
  "compiler": {
    "name": "solc",
    "version": "0.4.18+commit.9cf6e910.Emscripten.clang"
  },
  "schemaVersion": "1.0.1",
  "updatedAt": "2018-05-23T01:13:56.335Z"
}