{
  "contractName": "WccExchanger",
  "abi": [
    {
      "constant": false,
      "inputs": [],
      "name": "withdrawByOwner",
      "outputs": [],
      "payable": false,
      "stateMutability": "nonpayable",
      "type": "function"
    },
    {
      "constant": true,
      "inputs": [
        {
          "name": "",
          "type": "address"
        }
      ],
      "name": "canUserRedeem",
      "outputs": [
        {
          "name": "",
          "type": "bool"
        }
      ],
      "payable": false,
      "stateMutability": "view",
      "type": "function"
    },
    {
      "constant": true,
      "inputs": [
        {
          "name": "gameIndex",
          "type": "bytes32"
        },
        {
          "name": "scoreIndex",
          "type": "bytes32"
        }
      ],
      "name": "drawTokenCheck",
      "outputs": [
        {
          "name": "",
          "type": "uint256"
        }
      ],
      "payable": false,
      "stateMutability": "view",
      "type": "function"
    },
    {
      "constant": false,
      "inputs": [
        {
          "name": "gameIndex",
          "type": "bytes32"
        },
        {
          "name": "scoreIndex",
          "type": "bytes32"
        }
      ],
      "name": "drawToken",
      "outputs": [],
      "payable": false,
      "stateMutability": "nonpayable",
      "type": "function"
    },
    {
      "constant": true,
      "inputs": [],
      "name": "rate",
      "outputs": [
        {
          "name": "",
          "type": "uint256"
        }
      ],
      "payable": false,
      "stateMutability": "view",
      "type": "function"
    },
    {
      "constant": false,
      "inputs": [
        {
          "name": "_rate",
          "type": "uint256"
        }
      ],
      "name": "setRate",
      "outputs": [],
      "payable": false,
      "stateMutability": "nonpayable",
      "type": "function"
    },
    {
      "constant": false,
      "inputs": [],
      "name": "withdraw",
      "outputs": [],
      "payable": false,
      "stateMutability": "nonpayable",
      "type": "function"
    },
    {
      "constant": false,
      "inputs": [
        {
          "name": "newer",
          "type": "address"
        }
      ],
      "name": "handover",
      "outputs": [],
      "payable": false,
      "stateMutability": "nonpayable",
      "type": "function"
    },
    {
      "constant": false,
      "inputs": [
        {
          "name": "user",
          "type": "address"
        },
        {
          "name": "flag",
          "type": "bool"
        }
      ],
      "name": "setUserCanRedeem",
      "outputs": [],
      "payable": false,
      "stateMutability": "nonpayable",
      "type": "function"
    },
    {
      "constant": true,
      "inputs": [
        {
          "name": "",
          "type": "address"
        }
      ],
      "name": "withdraws",
      "outputs": [
        {
          "name": "",
          "type": "uint256"
        }
      ],
      "payable": false,
      "stateMutability": "view",
      "type": "function"
    },
    {
      "constant": false,
      "inputs": [],
      "name": "emergencyStop",
      "outputs": [],
      "payable": false,
      "stateMutability": "nonpayable",
      "type": "function"
    },
    {
      "constant": true,
      "inputs": [],
      "name": "exchanged",
      "outputs": [
        {
          "name": "",
          "type": "uint256"
        }
      ],
      "payable": false,
      "stateMutability": "view",
      "type": "function"
    },
    {
      "constant": true,
      "inputs": [],
      "name": "stopped",
      "outputs": [
        {
          "name": "",
          "type": "bool"
        }
      ],
      "payable": false,
      "stateMutability": "view",
      "type": "function"
    },
    {
      "constant": true,
      "inputs": [
        {
          "name": "",
          "type": "address"
        },
        {
          "name": "",
          "type": "bytes32"
        },
        {
          "name": "",
          "type": "bytes32"
        }
      ],
      "name": "drawList",
      "outputs": [
        {
          "name": "",
          "type": "bool"
        }
      ],
      "payable": false,
      "stateMutability": "view",
      "type": "function"
    },
    {
      "constant": true,
      "inputs": [],
      "name": "owner",
      "outputs": [
        {
          "name": "",
          "type": "address"
        }
      ],
      "payable": false,
      "stateMutability": "view",
      "type": "function"
    },
    {
      "constant": false,
      "inputs": [
        {
          "name": "flag",
          "type": "bool"
        }
      ],
      "name": "setCanRedeem",
      "outputs": [],
      "payable": false,
      "stateMutability": "nonpayable",
      "type": "function"
    },
    {
      "constant": true,
      "inputs": [
        {
          "name": "value",
          "type": "uint256"
        }
      ],
      "name": "exchangeCheck",
      "outputs": [
        {
          "name": "",
          "type": "uint256"
        }
      ],
      "payable": false,
      "stateMutability": "view",
      "type": "function"
    },
    {
      "constant": false,
      "inputs": [],
      "name": "start",
      "outputs": [],
      "payable": false,
      "stateMutability": "nonpayable",
      "type": "function"
    },
    {
      "constant": false,
      "inputs": [],
      "name": "exchange",
      "outputs": [],
      "payable": true,
      "stateMutability": "payable",
      "type": "function"
    },
    {
      "constant": true,
      "inputs": [
        {
          "name": "tokenValue",
          "type": "uint256"
        }
      ],
      "name": "redeemCheck",
      "outputs": [
        {
          "name": "",
          "type": "uint256"
        }
      ],
      "payable": false,
      "stateMutability": "view",
      "type": "function"
    },
    {
      "constant": false,
      "inputs": [
        {
          "name": "tokenValue",
          "type": "uint256"
        }
      ],
      "name": "redeem",
      "outputs": [],
      "payable": false,
      "stateMutability": "nonpayable",
      "type": "function"
    },
    {
      "constant": false,
      "inputs": [
        {
          "name": "newOwner",
          "type": "address"
        }
      ],
      "name": "transferOwnership",
      "outputs": [],
      "payable": false,
      "stateMutability": "nonpayable",
      "type": "function"
    },
    {
      "constant": true,
      "inputs": [],
      "name": "canRedeem",
      "outputs": [
        {
          "name": "",
          "type": "bool"
        }
      ],
      "payable": false,
      "stateMutability": "view",
      "type": "function"
    },
    {
      "inputs": [
        {
          "name": "tokenAddress",
          "type": "address"
        },
        {
          "name": "wccsAddress",
          "type": "address"
        }
      ],
      "payable": false,
      "stateMutability": "nonpayable",
      "type": "constructor"
    },
    {
      "payable": true,
      "stateMutability": "payable",
      "type": "fallback"
    },
    {
      "anonymous": false,
      "inputs": [
        {
          "indexed": false,
          "name": "user",
          "type": "address"
        },
        {
          "indexed": false,
          "name": "ethValue",
          "type": "uint256"
        },
        {
          "indexed": false,
          "name": "tokenValue",
          "type": "uint256"
        }
      ],
      "name": "UserExchange",
      "type": "event"
    },
    {
      "anonymous": false,
      "inputs": [
        {
          "indexed": false,
          "name": "user",
          "type": "address"
        },
        {
          "indexed": false,
          "name": "ethValue",
          "type": "uint256"
        },
        {
          "indexed": false,
          "name": "tokenValue",
          "type": "uint256"
        }
      ],
      "name": "UserRedeem",
      "type": "event"
    },
    {
      "anonymous": false,
      "inputs": [
        {
          "indexed": false,
          "name": "user",
          "type": "address"
        },
        {
          "indexed": false,
          "name": "value",
          "type": "uint256"
        }
      ],
      "name": "UserWithdraw",
      "type": "event"
    },
    {
      "anonymous": false,
      "inputs": [
        {
          "indexed": true,
          "name": "previousOwner",
          "type": "address"
        },
        {
          "indexed": true,
          "name": "newOwner",
          "type": "address"
        }
      ],
      "name": "OwnershipTransferred",
      "type": "event"
    }
  ],
  "bytecode": "0x606060405260646004556000600960006101000a81548160ff021916908315150217905550341561002f57600080fd5b6040516040806120d68339810160405280805190602001909190805190602001909190505033336000806101000a81548173ffffffffffffffffffffffffffffffffffffffff021916908373ffffffffffffffffffffffffffffffffffffffff16021790555080600160006101000a81548173ffffffffffffffffffffffffffffffffffffffff021916908373ffffffffffffffffffffffffffffffffffffffff1602179055506000600160146101000a81548160ff0219169083151502179055505081600260006101000a81548173ffffffffffffffffffffffffffffffffffffffff021916908373ffffffffffffffffffffffffffffffffffffffff16021790555080600360006101000a81548173ffffffffffffffffffffffffffffffffffffffff021916908373ffffffffffffffffffffffffffffffffffffffff1602179055505050611f51806101856000396000f300606060405260043610610133576000357c0100000000000000000000000000000000000000000000000000000000900463ffffffff16806305f2327e1461013d5780632382842d1461015257806325386478146101a35780632541c8f1146101eb5780632c4e722e1461021f57806334fcf437146102485780633ccfd60b1461026b5780633ff4d0831461028057806343a239dd146102b957806348179ee5146102fd57806363a599a41461034a5780637182774d1461035f57806375f12b21146103885780637c45bbab146103b55780638da5cb5b14610420578063acf0c28b14610475578063b28fc8511461049a578063be9a6555146104d1578063d2f7265a146104e6578063d818f220146104f0578063db006a7514610527578063f2fde38b1461054a578063f97ed50914610583575b61013b6105b0565b005b341561014857600080fd5b61015061083b565b005b341561015d57600080fd5b610189600480803573ffffffffffffffffffffffffffffffffffffffff16906020019091905050610a1e565b604051808215151515815260200191505060405180910390f35b34156101ae57600080fd5b6101d560048080356000191690602001909190803560001916906020019091905050610a3e565b6040518082815260200191505060405180910390f35b34156101f657600080fd5b61021d60048080356000191690602001909190803560001916906020019091905050610cf4565b005b341561022a57600080fd5b610232610ea7565b6040518082815260200191505060405180910390f35b341561025357600080fd5b6102696004808035906020019091905050610ead565b005b341561027657600080fd5b61027e610f21565b005b341561028b57600080fd5b6102b7600480803573ffffffffffffffffffffffffffffffffffffffff16906020019091905050611249565b005b34156102c457600080fd5b6102fb600480803573ffffffffffffffffffffffffffffffffffffffff1690602001909190803515159060200190919050506114a6565b005b341561030857600080fd5b610334600480803573ffffffffffffffffffffffffffffffffffffffff169060200190919050506115ce565b6040518082815260200191505060405180910390f35b341561035557600080fd5b61035d6115e6565b005b341561036a57600080fd5b61037261165e565b6040518082815260200191505060405180910390f35b341561039357600080fd5b61039b611664565b604051808215151515815260200191505060405180910390f35b34156103c057600080fd5b610406600480803573ffffffffffffffffffffffffffffffffffffffff169060200190919080356000191690602001909190803560001916906020019091905050611677565b604051808215151515815260200191505060405180910390f35b341561042b57600080fd5b6104336116b3565b604051808273ffffffffffffffffffffffffffffffffffffffff1673ffffffffffffffffffffffffffffffffffffffff16815260200191505060405180910390f35b341561048057600080fd5b610498600480803515159060200190919050506116d8565b005b34156104a557600080fd5b6104bb600480803590602001909190505061176d565b6040518082815260200191505060405180910390f35b34156104dc57600080fd5b6104e461189b565b005b6104ee6105b0565b005b34156104fb57600080fd5b6105116004808035906020019091905050611914565b6040518082815260200191505060405180910390f35b341561053257600080fd5b6105486004808035906020019091905050611ab8565b005b341561055557600080fd5b610581600480803573ffffffffffffffffffffffffffffffffffffffff16906020019091905050611d30565b005b341561058e57600080fd5b610596611e85565b604051808215151515815260200191505060405180910390f35b6000803491506105cb60045483611e9890919063ffffffff16565b905060006105d88361176d565b1415156105e457600080fd5b600260009054906101000a900473ffffffffffffffffffffffffffffffffffffffff1673ffffffffffffffffffffffffffffffffffffffff1663a9059cbb33836000604051602001526040518363ffffffff167c0100000000000000000000000000000000000000000000000000000000028152600401808373ffffffffffffffffffffffffffffffffffffffff1673ffffffffffffffffffffffffffffffffffffffff16815260200182815260200192505050602060405180830381600087803b15156106b157600080fd5b6102c65a03f115156106c257600080fd5b50505060405180519050156107c4576106e681600554611ed390919063ffffffff16565b60058190555061075f82600660008060009054906101000a900473ffffffffffffffffffffffffffffffffffffffff1673ffffffffffffffffffffffffffffffffffffffff1673ffffffffffffffffffffffffffffffffffffffff16815260200190815260200160002054611ed390919063ffffffff16565b600660008060009054906101000a900473ffffffffffffffffffffffffffffffffffffffff1673ffffffffffffffffffffffffffffffffffffffff1673ffffffffffffffffffffffffffffffffffffffff168152602001908152602001600020819055505b7fd8f124377030419427e87c44245c6077077cddcddf65edf867b0e61a8287548e338383604051808473ffffffffffffffffffffffffffffffffffffffff1673ffffffffffffffffffffffffffffffffffffffff168152602001838152602001828152602001935050505060405180910390a15050565b6000600160149054906101000a900460ff1615151561085957600080fd5b6000809054906101000a900473ffffffffffffffffffffffffffffffffffffffff1673ffffffffffffffffffffffffffffffffffffffff163373ffffffffffffffffffffffffffffffffffffffff161415156108b457600080fd5b600660003373ffffffffffffffffffffffffffffffffffffffff1673ffffffffffffffffffffffffffffffffffffffff16815260200190815260200160002054905060008111151561090557600080fd5b803073ffffffffffffffffffffffffffffffffffffffff16311015151561092b57600080fd5b6000600660003373ffffffffffffffffffffffffffffffffffffffff1673ffffffffffffffffffffffffffffffffffffffff168152602001908152602001600020819055503373ffffffffffffffffffffffffffffffffffffffff166108fc829081150290604051600060405180830381858888f1935050505015156109b057600080fd5b7f98824d89d47225910d3e61aa38b640d29d58b43e2dc47b4d986a588c88e0a2a83382604051808373ffffffffffffffffffffffffffffffffffffffff1673ffffffffffffffffffffffffffffffffffffffff1681526020018281526020019250505060405180910390a150565b60086020528060005260406000206000915054906101000a900460ff1681565b600080600360009054906101000a900473ffffffffffffffffffffffffffffffffffffffff1673ffffffffffffffffffffffffffffffffffffffff16635368c8e58533866000604051606001526040518463ffffffff167c01000000000000000000000000000000000000000000000000000000000281526004018084600019166000191681526020018373ffffffffffffffffffffffffffffffffffffffff1673ffffffffffffffffffffffffffffffffffffffff16815260200182600019166000191681526020019350505050606060405180830381600087803b1515610b2657600080fd5b6102c65a03f11515610b3757600080fd5b50505060405180519060200180519060200180519050509150506000811415610b635760019150610ced565b600760003373ffffffffffffffffffffffffffffffffffffffff1673ffffffffffffffffffffffffffffffffffffffff168152602001908152602001600020600085600019166000191681526020019081526020016000206000846000191660001916815260200190815260200160002060009054906101000a900460ff1615610bf05760029150610ced565b670de0b6b3a7640000600260009054906101000a900473ffffffffffffffffffffffffffffffffffffffff1673ffffffffffffffffffffffffffffffffffffffff166370a08231306000604051602001526040518263ffffffff167c0100000000000000000000000000000000000000000000000000000000028152600401808273ffffffffffffffffffffffffffffffffffffffff1673ffffffffffffffffffffffffffffffffffffffff168152602001915050602060405180830381600087803b1515610cbe57600080fd5b6102c65a03f11515610ccf57600080fd5b505050604051805190501015610ce85760039150610ced565b600091505b5092915050565b600160149054906101000a900460ff16151515610d1057600080fd5b6000610d1c8383610a3e565b141515610d2857600080fd5b600260009054906101000a900473ffffffffffffffffffffffffffffffffffffffff1673ffffffffffffffffffffffffffffffffffffffff1663a9059cbb33670de0b6b3a76400006000604051602001526040518363ffffffff167c0100000000000000000000000000000000000000000000000000000000028152600401808373ffffffffffffffffffffffffffffffffffffffff1673ffffffffffffffffffffffffffffffffffffffff16815260200182815260200192505050602060405180830381600087803b1515610dfd57600080fd5b6102c65a03f11515610e0e57600080fd5b50505060405180519050506001600760003373ffffffffffffffffffffffffffffffffffffffff1673ffffffffffffffffffffffffffffffffffffffff168152602001908152602001600020600084600019166000191681526020019081526020016000206000836000191660001916815260200190815260200160002060006101000a81548160ff0219169083151502179055505050565b60045481565b6000809054906101000a900473ffffffffffffffffffffffffffffffffffffffff1673ffffffffffffffffffffffffffffffffffffffff163373ffffffffffffffffffffffffffffffffffffffff16141515610f0857600080fd5b600081111515610f1757600080fd5b8060048190555050565b6000600160149054906101000a900460ff16151515610f3f57600080fd5b600660003373ffffffffffffffffffffffffffffffffffffffff1673ffffffffffffffffffffffffffffffffffffffff168152602001908152602001600020549050600081111515610f9057600080fd5b803073ffffffffffffffffffffffffffffffffffffffff163110151515610fb657600080fd5b6000809054906101000a900473ffffffffffffffffffffffffffffffffffffffff1673ffffffffffffffffffffffffffffffffffffffff163373ffffffffffffffffffffffffffffffffffffffff161415151561101257600080fd5b80600660008060009054906101000a900473ffffffffffffffffffffffffffffffffffffffff1673ffffffffffffffffffffffffffffffffffffffff1673ffffffffffffffffffffffffffffffffffffffff168152602001908152602001600020541015151561108157600080fd5b600660003373ffffffffffffffffffffffffffffffffffffffff1673ffffffffffffffffffffffffffffffffffffffff1681526020019081526020016000206000905561113781600660008060009054906101000a900473ffffffffffffffffffffffffffffffffffffffff1673ffffffffffffffffffffffffffffffffffffffff1673ffffffffffffffffffffffffffffffffffffffff16815260200190815260200160002054611ef190919063ffffffff16565b600660008060009054906101000a900473ffffffffffffffffffffffffffffffffffffffff1673ffffffffffffffffffffffffffffffffffffffff1673ffffffffffffffffffffffffffffffffffffffff168152602001908152602001600020819055503373ffffffffffffffffffffffffffffffffffffffff166108fc829081150290604051600060405180830381858888f1935050505015156111db57600080fd5b7f98824d89d47225910d3e61aa38b640d29d58b43e2dc47b4d986a588c88e0a2a83382604051808373ffffffffffffffffffffffffffffffffffffffff1673ffffffffffffffffffffffffffffffffffffffff1681526020018281526020019250505060405180910390a150565b6000809054906101000a900473ffffffffffffffffffffffffffffffffffffffff1673ffffffffffffffffffffffffffffffffffffffff163373ffffffffffffffffffffffffffffffffffffffff161415156112a457600080fd5b600260009054906101000a900473ffffffffffffffffffffffffffffffffffffffff1673ffffffffffffffffffffffffffffffffffffffff1663a9059cbb82600260009054906101000a900473ffffffffffffffffffffffffffffffffffffffff1673ffffffffffffffffffffffffffffffffffffffff166370a08231306000604051602001526040518263ffffffff167c0100000000000000000000000000000000000000000000000000000000028152600401808273ffffffffffffffffffffffffffffffffffffffff1673ffffffffffffffffffffffffffffffffffffffff168152602001915050602060405180830381600087803b15156113a857600080fd5b6102c65a03f115156113b957600080fd5b505050604051805190506000604051602001526040518363ffffffff167c0100000000000000000000000000000000000000000000000000000000028152600401808373ffffffffffffffffffffffffffffffffffffffff1673ffffffffffffffffffffffffffffffffffffffff16815260200182815260200192505050602060405180830381600087803b151561145057600080fd5b6102c65a03f1151561146157600080fd5b50505060405180519050506000809054906101000a900473ffffffffffffffffffffffffffffffffffffffff1673ffffffffffffffffffffffffffffffffffffffff16ff5b6000809054906101000a900473ffffffffffffffffffffffffffffffffffffffff1673ffffffffffffffffffffffffffffffffffffffff163373ffffffffffffffffffffffffffffffffffffffff1614151561150157600080fd5b600960009054906101000a900460ff16801561156d5750801515600860008473ffffffffffffffffffffffffffffffffffffffff1673ffffffffffffffffffffffffffffffffffffffff16815260200190815260200160002060009054906101000a900460ff16151514155b156115ca5780600860008473ffffffffffffffffffffffffffffffffffffffff1673ffffffffffffffffffffffffffffffffffffffff16815260200190815260200160002060006101000a81548160ff0219169083151502179055505b5050565b60066020528060005260406000206000915090505481565b600160009054906101000a900473ffffffffffffffffffffffffffffffffffffffff1673ffffffffffffffffffffffffffffffffffffffff163373ffffffffffffffffffffffffffffffffffffffff1614151561164257600080fd5b60018060146101000a81548160ff021916908315150217905550565b60055481565b600160149054906101000a900460ff1681565b6007602052826000526040600020602052816000526040600020602052806000526040600020600092509250509054906101000a900460ff1681565b6000809054906101000a900473ffffffffffffffffffffffffffffffffffffffff1681565b6000809054906101000a900473ffffffffffffffffffffffffffffffffffffffff1673ffffffffffffffffffffffffffffffffffffffff163373ffffffffffffffffffffffffffffffffffffffff1614151561173357600080fd5b801515600960009054906101000a900460ff16151514151561176a5780600960006101000a81548160ff0219169083151502179055505b50565b60008061178560045484611e9890919063ffffffff16565b9050670de0b6b3a76400008110156117a05760019150611895565b80600260009054906101000a900473ffffffffffffffffffffffffffffffffffffffff1673ffffffffffffffffffffffffffffffffffffffff166370a08231306000604051602001526040518263ffffffff167c0100000000000000000000000000000000000000000000000000000000028152600401808273ffffffffffffffffffffffffffffffffffffffff1673ffffffffffffffffffffffffffffffffffffffff168152602001915050602060405180830381600087803b151561186657600080fd5b6102c65a03f1151561187757600080fd5b5050506040518051905010156118905760029150611895565b600091505b50919050565b600160009054906101000a900473ffffffffffffffffffffffffffffffffffffffff1673ffffffffffffffffffffffffffffffffffffffff163373ffffffffffffffffffffffffffffffffffffffff161415156118f757600080fd5b6000600160146101000a81548160ff021916908315150217905550565b6000670de0b6b3a764000082101561192f5760029050611ab3565b81600260009054906101000a900473ffffffffffffffffffffffffffffffffffffffff1673ffffffffffffffffffffffffffffffffffffffff1663dd62ed3e33306000604051602001526040518363ffffffff167c0100000000000000000000000000000000000000000000000000000000028152600401808373ffffffffffffffffffffffffffffffffffffffff1673ffffffffffffffffffffffffffffffffffffffff1681526020018273ffffffffffffffffffffffffffffffffffffffff1673ffffffffffffffffffffffffffffffffffffffff16815260200192505050602060405180830381600087803b1515611a2957600080fd5b6102c65a03f11515611a3a57600080fd5b505050604051805190501015611a535760019050611ab3565b600860003373ffffffffffffffffffffffffffffffffffffffff1673ffffffffffffffffffffffffffffffffffffffff16815260200190815260200160002060009054906101000a900460ff1615611aae5760039050611ab3565b600090505b919050565b600080611ac483611914565b141515611ad057600080fd5b611ae560045483611f0a90919063ffffffff16565b9050600260009054906101000a900473ffffffffffffffffffffffffffffffffffffffff1673ffffffffffffffffffffffffffffffffffffffff166323b872dd3330856000604051602001526040518463ffffffff167c0100000000000000000000000000000000000000000000000000000000028152600401808473ffffffffffffffffffffffffffffffffffffffff1673ffffffffffffffffffffffffffffffffffffffff1681526020018373ffffffffffffffffffffffffffffffffffffffff1673ffffffffffffffffffffffffffffffffffffffff1681526020018281526020019350505050602060405180830381600087803b1515611be857600080fd5b6102c65a03f11515611bf957600080fd5b5050506040518051905015611cb957611c1d82600554611ef190919063ffffffff16565b600581905550611c7581600660003373ffffffffffffffffffffffffffffffffffffffff1673ffffffffffffffffffffffffffffffffffffffff16815260200190815260200160002054611ed390919063ffffffff16565b600660003373ffffffffffffffffffffffffffffffffffffffff1673ffffffffffffffffffffffffffffffffffffffff168152602001908152602001600020819055505b7f3c52a3d244a7839f557bea89d5d82ca5f45f7f8bdaeabf910a88131eabb8fb69338284604051808473ffffffffffffffffffffffffffffffffffffffff1673ffffffffffffffffffffffffffffffffffffffff168152602001838152602001828152602001935050505060405180910390a15050565b6000809054906101000a900473ffffffffffffffffffffffffffffffffffffffff1673ffffffffffffffffffffffffffffffffffffffff163373ffffffffffffffffffffffffffffffffffffffff16141515611d8b57600080fd5b600073ffffffffffffffffffffffffffffffffffffffff168173ffffffffffffffffffffffffffffffffffffffff1614151515611dc757600080fd5b8073ffffffffffffffffffffffffffffffffffffffff166000809054906101000a900473ffffffffffffffffffffffffffffffffffffffff1673ffffffffffffffffffffffffffffffffffffffff167f8be0079c531659141344cd1fd0a4f28419497f9722a3daafe3b4186f6b6457e060405160405180910390a3806000806101000a81548173ffffffffffffffffffffffffffffffffffffffff021916908373ffffffffffffffffffffffffffffffffffffffff16021790555050565b600960009054906101000a900460ff1681565b6000806000841415611ead5760009150611ecc565b8284029050828482811515611ebe57fe5b04141515611ec857fe5b8091505b5092915050565b6000808284019050838110151515611ee757fe5b8091505092915050565b6000828211151515611eff57fe5b818303905092915050565b6000808284811515611f1857fe5b04905080915050929150505600a165627a7a72305820bb73b870f9e0c902cc48d50c4771a20ac0197612968e23800a3d5313de8b45420029",
  "source": "pragma solidity ^0.4.18;\nimport '../node_modules/zeppelin-solidity/contracts/ownership/Ownable.sol';\nimport '../node_modules/zeppelin-solidity/contracts/math/SafeMath.sol';\nimport './WccStorage.sol';\nimport './common/KnotToken.sol';\nimport './common/Stoppable.sol';\ncontract WccExchanger is Ownable, Stoppable{\n    using SafeMath for uint256;\n    KnotToken token;\n    WccStorage wccs;\n    uint public rate = 100;\n    uint public exchanged;\n    mapping(address => uint) public withdraws;\n    mapping(address => mapping(bytes32 => mapping(bytes32 => bool))) public drawList;\n    mapping(address => bool) public canUserRedeem;\n    bool public canRedeem = false;\n    function WccExchanger(address tokenAddress, address wccsAddress) public Stoppable(msg.sender){\n        token = KnotToken(tokenAddress);\n        wccs = WccStorage(wccsAddress);\n    }\n    function setCanRedeem(bool flag) external onlyOwner{\n        if (canRedeem != flag) {\n            canRedeem = flag;\n        }\n    }\n    function setUserCanRedeem(address user, bool flag) external onlyOwner {\n        if (canRedeem && canUserRedeem[user] != flag) {\n            canUserRedeem[user] = flag;\n        }\n    }\n    function setRate(uint _rate) external onlyOwner {\n        require(_rate > 0);\n        rate = _rate;\n    }\n    function() public payable { \n        exchange();\n    }\n    /// @author Bob Clampett\n    /// @notice user exchange check\n    function exchangeCheck(uint value) public view returns(uint) {\n        uint tokenCount = value.mul(rate);\n        if(tokenCount < 1 ether) {\n            return 1; //too small exchange\n        }\n        if (token.balanceOf(this) < tokenCount) {\n            return 2; //no balance\n        }\n        return 0;\n    }\n    event UserExchange(address user, uint ethValue, uint tokenValue);\n    /// @author Bob Clampett\n    /// @notice user exchange vote token by eth\n    function exchange() public payable {\n        uint eth = msg.value; \n        uint tokenCount = eth.mul(rate);\n        require(exchangeCheck(eth) == 0);\n        if(token.transfer(msg.sender, tokenCount)) {\n            exchanged = exchanged.add(tokenCount);\n            withdraws[owner] = withdraws[owner].add(eth);\n        }\n        UserExchange(msg.sender, eth, tokenCount);\n    }\n    /// @author Bob Clampett\n    /// @notice user redeem check\n    function redeemCheck(uint tokenValue) public view returns(uint) {\n        if (tokenValue < 1 ether) {\n            return 2; // too small redeem\n        }\n        if (token.allowance(msg.sender, this) < tokenValue) {\n            return 1; // no token allowance\n        }\n        if (canUserRedeem[msg.sender]) {\n            return 3; // user can not redeem\n        }\n        return 0;\n    }\n    event UserRedeem(address user, uint ethValue, uint tokenValue);\n    /// @author Bob Clampett\n    /// @notice user redeem vote token for eth\n    function redeem(uint tokenValue) external { \n        require(redeemCheck(tokenValue) == 0);\n        uint eth = tokenValue.div(rate);\n        if(token.transferFrom(msg.sender, this, tokenValue)) {\n            exchanged = exchanged.sub(tokenValue);\n            withdraws[msg.sender] = withdraws[msg.sender].add(eth);\n        }\n        UserRedeem(msg.sender, eth, tokenValue);\n    }\n    event UserWithdraw(address user, uint value);\n    /// @author Bob Clampett\n    /// @notice user withdraw eth    \n    function withdraw() external stopInEmergency {\n        uint value = withdraws[msg.sender];\n        require(value > 0);\n        require(address(this).balance >= value);\n        require(msg.sender != owner);\n        require(withdraws[owner] >= value);\n        delete withdraws[msg.sender];\n        withdraws[owner] = withdraws[owner].sub(value);\n        msg.sender.transfer(value);\n        UserWithdraw(msg.sender, value);\n    }\n    /// @author Bob Clampett\n    /// @notice owner withdraw eth \n    function withdrawByOwner() external stopInEmergency onlyOwner{\n        uint value = withdraws[msg.sender];\n        require(value > 0);\n        require(address(this).balance >= value);\n        withdraws[msg.sender] = 0;\n        msg.sender.transfer(value);\n        UserWithdraw(msg.sender, value);\n    }\n    // event UserDrawToken(address user, bytes32 scoreIndex, bytes32 scoreIndex);\n    function drawTokenCheck(bytes32 gameIndex, bytes32 scoreIndex) public view returns(uint) {\n        var (,value,) = wccs.joinedGamesScoreInfo(gameIndex, msg.sender, scoreIndex);\n        if (value == 0) {\n            return 1; //user not joind game\n        }\n        if (drawList[msg.sender][gameIndex][scoreIndex]) {\n            return 2; //already draw\n        }\n        if (token.balanceOf(this) < 1 ether) {\n            return 3; // balance not enough\n        }\n        return 0;\n\n    }\n    /// @author Bob Clampett\n    /// @notice user draw token \n    function drawToken(bytes32 gameIndex, bytes32 scoreIndex) external stopInEmergency {\n        require(drawTokenCheck(gameIndex, scoreIndex) == 0);\n        token.transfer(msg.sender, 1 ether);\n        drawList[msg.sender][gameIndex][scoreIndex] = true;\n        // UserDrawToken(msg.sender, 1 ether, index);\n    }\n\n    function handover(address newer) external onlyOwner {\n        token.transfer(newer, token.balanceOf(this));\n        selfdestruct(owner);\n    }\n}",
  "sourcePath": "/Users/hanting/workspace/ethereum/truffle/huibaoSC/contracts/WccExchanger.sol",
  "compiler": {
    "name": "solc",
    "version": "0.4.18+commit.9cf6e910.Emscripten.clang"
  },
  "schemaVersion": "1.0.1",
  "updatedAt": "2018-05-23T01:13:56.320Z"
}