{
  "contractName": "WccExchanger",
  "abi": [
    {
      "constant": false,
      "inputs": [],
      "name": "withdrawByOwner",
      "outputs": [],
      "payable": false,
      "stateMutability": "nonpayable",
      "type": "function"
    },
    {
      "constant": true,
      "inputs": [],
      "name": "rate",
      "outputs": [
        {
          "name": "",
          "type": "uint256"
        }
      ],
      "payable": false,
      "stateMutability": "view",
      "type": "function"
    },
    {
      "constant": false,
      "inputs": [
        {
          "name": "_rate",
          "type": "uint256"
        }
      ],
      "name": "setRate",
      "outputs": [],
      "payable": false,
      "stateMutability": "nonpayable",
      "type": "function"
    },
    {
      "constant": false,
      "inputs": [],
      "name": "withdraw",
      "outputs": [],
      "payable": false,
      "stateMutability": "nonpayable",
      "type": "function"
    },
    {
      "constant": true,
      "inputs": [
        {
          "name": "",
          "type": "address"
        }
      ],
      "name": "withdraws",
      "outputs": [
        {
          "name": "",
          "type": "uint256"
        }
      ],
      "payable": false,
      "stateMutability": "view",
      "type": "function"
    },
    {
      "constant": false,
      "inputs": [],
      "name": "emergencyStop",
      "outputs": [],
      "payable": false,
      "stateMutability": "nonpayable",
      "type": "function"
    },
    {
      "constant": true,
      "inputs": [],
      "name": "exchanged",
      "outputs": [
        {
          "name": "",
          "type": "uint256"
        }
      ],
      "payable": false,
      "stateMutability": "view",
      "type": "function"
    },
    {
      "constant": true,
      "inputs": [],
      "name": "stopped",
      "outputs": [
        {
          "name": "",
          "type": "bool"
        }
      ],
      "payable": false,
      "stateMutability": "view",
      "type": "function"
    },
    {
      "constant": true,
      "inputs": [],
      "name": "owner",
      "outputs": [
        {
          "name": "",
          "type": "address"
        }
      ],
      "payable": false,
      "stateMutability": "view",
      "type": "function"
    },
    {
      "constant": true,
      "inputs": [
        {
          "name": "value",
          "type": "uint256"
        }
      ],
      "name": "exchangeCheck",
      "outputs": [
        {
          "name": "",
          "type": "uint256"
        }
      ],
      "payable": false,
      "stateMutability": "view",
      "type": "function"
    },
    {
      "constant": false,
      "inputs": [],
      "name": "start",
      "outputs": [],
      "payable": false,
      "stateMutability": "nonpayable",
      "type": "function"
    },
    {
      "constant": false,
      "inputs": [],
      "name": "exchange",
      "outputs": [],
      "payable": true,
      "stateMutability": "payable",
      "type": "function"
    },
    {
      "constant": true,
      "inputs": [
        {
          "name": "tokenValue",
          "type": "uint256"
        }
      ],
      "name": "redeemCheck",
      "outputs": [
        {
          "name": "",
          "type": "uint256"
        }
      ],
      "payable": false,
      "stateMutability": "view",
      "type": "function"
    },
    {
      "constant": false,
      "inputs": [
        {
          "name": "tokenValue",
          "type": "uint256"
        }
      ],
      "name": "redeem",
      "outputs": [],
      "payable": false,
      "stateMutability": "nonpayable",
      "type": "function"
    },
    {
      "constant": false,
      "inputs": [
        {
          "name": "newOwner",
          "type": "address"
        }
      ],
      "name": "transferOwnership",
      "outputs": [],
      "payable": false,
      "stateMutability": "nonpayable",
      "type": "function"
    },
    {
      "inputs": [
        {
          "name": "tokenAddress",
          "type": "address"
        }
      ],
      "payable": false,
      "stateMutability": "nonpayable",
      "type": "constructor"
    },
    {
      "payable": true,
      "stateMutability": "payable",
      "type": "fallback"
    },
    {
      "anonymous": false,
      "inputs": [
        {
          "indexed": false,
          "name": "user",
          "type": "address"
        },
        {
          "indexed": false,
          "name": "ethValue",
          "type": "uint256"
        },
        {
          "indexed": false,
          "name": "tokenValue",
          "type": "uint256"
        }
      ],
      "name": "UserExchange",
      "type": "event"
    },
    {
      "anonymous": false,
      "inputs": [
        {
          "indexed": false,
          "name": "user",
          "type": "address"
        },
        {
          "indexed": false,
          "name": "ethValue",
          "type": "uint256"
        },
        {
          "indexed": false,
          "name": "tokenValue",
          "type": "uint256"
        }
      ],
      "name": "UserRedeem",
      "type": "event"
    },
    {
      "anonymous": false,
      "inputs": [
        {
          "indexed": false,
          "name": "user",
          "type": "address"
        },
        {
          "indexed": false,
          "name": "value",
          "type": "uint256"
        }
      ],
      "name": "UserWithdraw",
      "type": "event"
    },
    {
      "anonymous": false,
      "inputs": [
        {
          "indexed": true,
          "name": "previousOwner",
          "type": "address"
        },
        {
          "indexed": true,
          "name": "newOwner",
          "type": "address"
        }
      ],
      "name": "OwnershipTransferred",
      "type": "event"
    }
  ],
  "bytecode": "0x60606040526103e8600355341561001557600080fd5b6040516020806114c58339810160405280805190602001909190505033336000806101000a81548173ffffffffffffffffffffffffffffffffffffffff021916908373ffffffffffffffffffffffffffffffffffffffff16021790555080600160006101000a81548173ffffffffffffffffffffffffffffffffffffffff021916908373ffffffffffffffffffffffffffffffffffffffff1602179055506000600160146101000a81548160ff0219169083151502179055505080600260006101000a81548173ffffffffffffffffffffffffffffffffffffffff021916908373ffffffffffffffffffffffffffffffffffffffff160217905550506113a5806101206000396000f3006060604052600436106100db576000357c0100000000000000000000000000000000000000000000000000000000900463ffffffff16806305f2327e146100e55780632c4e722e146100fa57806334fcf437146101235780633ccfd60b1461014657806348179ee51461015b57806363a599a4146101a85780637182774d146101bd57806375f12b21146101e65780638da5cb5b14610213578063b28fc85114610268578063be9a65551461029f578063d2f7265a146102b4578063d818f220146102be578063db006a75146102f5578063f2fde38b14610318575b6100e3610351565b005b34156100f057600080fd5b6100f86105dc565b005b341561010557600080fd5b61010d6107bf565b6040518082815260200191505060405180910390f35b341561012e57600080fd5b61014460048080359060200190919050506107c5565b005b341561015157600080fd5b610159610839565b005b341561016657600080fd5b610192600480803573ffffffffffffffffffffffffffffffffffffffff16906020019091905050610b61565b6040518082815260200191505060405180910390f35b34156101b357600080fd5b6101bb610b79565b005b34156101c857600080fd5b6101d0610bf1565b6040518082815260200191505060405180910390f35b34156101f157600080fd5b6101f9610bf7565b604051808215151515815260200191505060405180910390f35b341561021e57600080fd5b610226610c0a565b604051808273ffffffffffffffffffffffffffffffffffffffff1673ffffffffffffffffffffffffffffffffffffffff16815260200191505060405180910390f35b341561027357600080fd5b6102896004808035906020019091905050610c2f565b6040518082815260200191505060405180910390f35b34156102aa57600080fd5b6102b2610d5d565b005b6102bc610351565b005b34156102c957600080fd5b6102df6004808035906020019091905050610dd6565b6040518082815260200191505060405180910390f35b341561030057600080fd5b6103166004808035906020019091905050610f1f565b005b341561032357600080fd5b61034f600480803573ffffffffffffffffffffffffffffffffffffffff16906020019091905050611197565b005b60008034915061036c600354836112ec90919063ffffffff16565b9050600061037983610c2f565b14151561038557600080fd5b600260009054906101000a900473ffffffffffffffffffffffffffffffffffffffff1673ffffffffffffffffffffffffffffffffffffffff1663a9059cbb33836000604051602001526040518363ffffffff167c0100000000000000000000000000000000000000000000000000000000028152600401808373ffffffffffffffffffffffffffffffffffffffff1673ffffffffffffffffffffffffffffffffffffffff16815260200182815260200192505050602060405180830381600087803b151561045257600080fd5b6102c65a03f1151561046357600080fd5b5050506040518051905015610565576104878160045461132790919063ffffffff16565b60048190555061050082600560008060009054906101000a900473ffffffffffffffffffffffffffffffffffffffff1673ffffffffffffffffffffffffffffffffffffffff1673ffffffffffffffffffffffffffffffffffffffff1681526020019081526020016000205461132790919063ffffffff16565b600560008060009054906101000a900473ffffffffffffffffffffffffffffffffffffffff1673ffffffffffffffffffffffffffffffffffffffff1673ffffffffffffffffffffffffffffffffffffffff168152602001908152602001600020819055505b7fd8f124377030419427e87c44245c6077077cddcddf65edf867b0e61a8287548e338383604051808473ffffffffffffffffffffffffffffffffffffffff1673ffffffffffffffffffffffffffffffffffffffff168152602001838152602001828152602001935050505060405180910390a15050565b6000600160149054906101000a900460ff161515156105fa57600080fd5b6000809054906101000a900473ffffffffffffffffffffffffffffffffffffffff1673ffffffffffffffffffffffffffffffffffffffff163373ffffffffffffffffffffffffffffffffffffffff1614151561065557600080fd5b600560003373ffffffffffffffffffffffffffffffffffffffff1673ffffffffffffffffffffffffffffffffffffffff1681526020019081526020016000205490506000811115156106a657600080fd5b803073ffffffffffffffffffffffffffffffffffffffff1631101515156106cc57600080fd5b6000600560003373ffffffffffffffffffffffffffffffffffffffff1673ffffffffffffffffffffffffffffffffffffffff168152602001908152602001600020819055503373ffffffffffffffffffffffffffffffffffffffff166108fc829081150290604051600060405180830381858888f19350505050151561075157600080fd5b7f98824d89d47225910d3e61aa38b640d29d58b43e2dc47b4d986a588c88e0a2a83382604051808373ffffffffffffffffffffffffffffffffffffffff1673ffffffffffffffffffffffffffffffffffffffff1681526020018281526020019250505060405180910390a150565b60035481565b6000809054906101000a900473ffffffffffffffffffffffffffffffffffffffff1673ffffffffffffffffffffffffffffffffffffffff163373ffffffffffffffffffffffffffffffffffffffff1614151561082057600080fd5b60008111151561082f57600080fd5b8060038190555050565b6000600160149054906101000a900460ff1615151561085757600080fd5b600560003373ffffffffffffffffffffffffffffffffffffffff1673ffffffffffffffffffffffffffffffffffffffff1681526020019081526020016000205490506000811115156108a857600080fd5b803073ffffffffffffffffffffffffffffffffffffffff1631101515156108ce57600080fd5b6000809054906101000a900473ffffffffffffffffffffffffffffffffffffffff1673ffffffffffffffffffffffffffffffffffffffff163373ffffffffffffffffffffffffffffffffffffffff161415151561092a57600080fd5b80600560008060009054906101000a900473ffffffffffffffffffffffffffffffffffffffff1673ffffffffffffffffffffffffffffffffffffffff1673ffffffffffffffffffffffffffffffffffffffff168152602001908152602001600020541015151561099957600080fd5b600560003373ffffffffffffffffffffffffffffffffffffffff1673ffffffffffffffffffffffffffffffffffffffff16815260200190815260200160002060009055610a4f81600560008060009054906101000a900473ffffffffffffffffffffffffffffffffffffffff1673ffffffffffffffffffffffffffffffffffffffff1673ffffffffffffffffffffffffffffffffffffffff1681526020019081526020016000205461134590919063ffffffff16565b600560008060009054906101000a900473ffffffffffffffffffffffffffffffffffffffff1673ffffffffffffffffffffffffffffffffffffffff1673ffffffffffffffffffffffffffffffffffffffff168152602001908152602001600020819055503373ffffffffffffffffffffffffffffffffffffffff166108fc829081150290604051600060405180830381858888f193505050501515610af357600080fd5b7f98824d89d47225910d3e61aa38b640d29d58b43e2dc47b4d986a588c88e0a2a83382604051808373ffffffffffffffffffffffffffffffffffffffff1673ffffffffffffffffffffffffffffffffffffffff1681526020018281526020019250505060405180910390a150565b60056020528060005260406000206000915090505481565b600160009054906101000a900473ffffffffffffffffffffffffffffffffffffffff1673ffffffffffffffffffffffffffffffffffffffff163373ffffffffffffffffffffffffffffffffffffffff16141515610bd557600080fd5b60018060146101000a81548160ff021916908315150217905550565b60045481565b600160149054906101000a900460ff1681565b6000809054906101000a900473ffffffffffffffffffffffffffffffffffffffff1681565b600080610c47600354846112ec90919063ffffffff16565b9050670de0b6b3a7640000811015610c625760019150610d57565b80600260009054906101000a900473ffffffffffffffffffffffffffffffffffffffff1673ffffffffffffffffffffffffffffffffffffffff166370a08231306000604051602001526040518263ffffffff167c0100000000000000000000000000000000000000000000000000000000028152600401808273ffffffffffffffffffffffffffffffffffffffff1673ffffffffffffffffffffffffffffffffffffffff168152602001915050602060405180830381600087803b1515610d2857600080fd5b6102c65a03f11515610d3957600080fd5b505050604051805190501015610d525760029150610d57565b600091505b50919050565b600160009054906101000a900473ffffffffffffffffffffffffffffffffffffffff1673ffffffffffffffffffffffffffffffffffffffff163373ffffffffffffffffffffffffffffffffffffffff16141515610db957600080fd5b6000600160146101000a81548160ff021916908315150217905550565b6000670de0b6b3a7640000821015610df15760029050610f1a565b81600260009054906101000a900473ffffffffffffffffffffffffffffffffffffffff1673ffffffffffffffffffffffffffffffffffffffff1663dd62ed3e33306000604051602001526040518363ffffffff167c0100000000000000000000000000000000000000000000000000000000028152600401808373ffffffffffffffffffffffffffffffffffffffff1673ffffffffffffffffffffffffffffffffffffffff1681526020018273ffffffffffffffffffffffffffffffffffffffff1673ffffffffffffffffffffffffffffffffffffffff16815260200192505050602060405180830381600087803b1515610eeb57600080fd5b6102c65a03f11515610efc57600080fd5b505050604051805190501015610f155760019050610f1a565b600090505b919050565b600080610f2b83610dd6565b141515610f3757600080fd5b610f4c6003548361135e90919063ffffffff16565b9050600260009054906101000a900473ffffffffffffffffffffffffffffffffffffffff1673ffffffffffffffffffffffffffffffffffffffff166323b872dd3330856000604051602001526040518463ffffffff167c0100000000000000000000000000000000000000000000000000000000028152600401808473ffffffffffffffffffffffffffffffffffffffff1673ffffffffffffffffffffffffffffffffffffffff1681526020018373ffffffffffffffffffffffffffffffffffffffff1673ffffffffffffffffffffffffffffffffffffffff1681526020018281526020019350505050602060405180830381600087803b151561104f57600080fd5b6102c65a03f1151561106057600080fd5b5050506040518051905015611120576110848260045461134590919063ffffffff16565b6004819055506110dc81600560003373ffffffffffffffffffffffffffffffffffffffff1673ffffffffffffffffffffffffffffffffffffffff1681526020019081526020016000205461132790919063ffffffff16565b600560003373ffffffffffffffffffffffffffffffffffffffff1673ffffffffffffffffffffffffffffffffffffffff168152602001908152602001600020819055505b7f3c52a3d244a7839f557bea89d5d82ca5f45f7f8bdaeabf910a88131eabb8fb69338284604051808473ffffffffffffffffffffffffffffffffffffffff1673ffffffffffffffffffffffffffffffffffffffff168152602001838152602001828152602001935050505060405180910390a15050565b6000809054906101000a900473ffffffffffffffffffffffffffffffffffffffff1673ffffffffffffffffffffffffffffffffffffffff163373ffffffffffffffffffffffffffffffffffffffff161415156111f257600080fd5b600073ffffffffffffffffffffffffffffffffffffffff168173ffffffffffffffffffffffffffffffffffffffff161415151561122e57600080fd5b8073ffffffffffffffffffffffffffffffffffffffff166000809054906101000a900473ffffffffffffffffffffffffffffffffffffffff1673ffffffffffffffffffffffffffffffffffffffff167f8be0079c531659141344cd1fd0a4f28419497f9722a3daafe3b4186f6b6457e060405160405180910390a3806000806101000a81548173ffffffffffffffffffffffffffffffffffffffff021916908373ffffffffffffffffffffffffffffffffffffffff16021790555050565b60008060008414156113015760009150611320565b828402905082848281151561131257fe5b0414151561131c57fe5b8091505b5092915050565b600080828401905083811015151561133b57fe5b8091505092915050565b600082821115151561135357fe5b818303905092915050565b600080828481151561136c57fe5b04905080915050929150505600a165627a7a723058201cc883d935f70af67fa28cd4ceabba38fe31fc543372730d73c842af54d47c4b0029",
  "source": "pragma solidity ^0.4.18;\nimport '../node_modules/zeppelin-solidity/contracts/ownership/Ownable.sol';\nimport '../node_modules/zeppelin-solidity/contracts/math/SafeMath.sol';\nimport './common/KnotToken.sol';\nimport './common/Stoppable.sol';\ncontract WccExchanger is Ownable, Stoppable{\n    using SafeMath for uint256;\n    KnotToken token;\n    uint public rate = 1000;\n    uint public exchanged;\n    mapping(address => uint) public withdraws;\n    function WccExchanger(address tokenAddress) public Stoppable(msg.sender){\n        token = KnotToken(tokenAddress);\n    }\n    function setRate(uint _rate) external onlyOwner {\n        require(_rate > 0);\n        rate = _rate;\n    }\n    function() public payable { \n        exchange();\n    }\n    /// @author Bob Clampett\n    /// @notice user exchange check\n    function exchangeCheck(uint value) public view returns(uint) {\n        uint tokenCount = value.mul(rate);\n        if(tokenCount < 1 ether) {\n            return 1; //too small exchange\n        }\n        if (token.balanceOf(this) < tokenCount) {\n            return 2; //no balance\n        }\n        return 0;\n    }\n    event UserExchange(address user, uint ethValue, uint tokenValue);\n    /// @author Bob Clampett\n    /// @notice user exchange vote token by eth\n    function exchange() public payable {\n        uint eth = msg.value; \n        uint tokenCount = eth.mul(rate);\n        require(exchangeCheck(eth) == 0);\n        if(token.transfer(msg.sender, tokenCount)) {\n            exchanged = exchanged.add(tokenCount);\n            withdraws[owner] = withdraws[owner].add(eth);\n        }\n        UserExchange(msg.sender, eth, tokenCount);\n    }\n    /// @author Bob Clampett\n    /// @notice user redeem check\n    function redeemCheck(uint tokenValue) public view returns(uint) {\n        if (tokenValue < 1 ether) {\n            return 2; // too small redeem\n        }\n        if (token.allowance(msg.sender, this) < tokenValue) {\n            return 1; // no token allowance\n        }\n        return 0;\n    }\n    event UserRedeem(address user, uint ethValue, uint tokenValue);\n    /// @author Bob Clampett\n    /// @notice user redeem vote token for eth\n    function redeem(uint tokenValue) external { \n        require(redeemCheck(tokenValue) == 0);\n        uint eth = tokenValue.div(rate);\n        if(token.transferFrom(msg.sender, this, tokenValue)) {\n            exchanged = exchanged.sub(tokenValue);\n            withdraws[msg.sender] = withdraws[msg.sender].add(eth);\n        }\n        UserRedeem(msg.sender, eth, tokenValue);\n    }\n    event UserWithdraw(address user, uint value);\n    /// @author Bob Clampett\n    /// @notice user withdraw eth    \n    function withdraw() external stopInEmergency {\n        uint value = withdraws[msg.sender];\n        require(value > 0);\n        require(address(this).balance >= value);\n        require(msg.sender != owner);\n        require(withdraws[owner] >= value);\n        delete withdraws[msg.sender];\n        withdraws[owner] = withdraws[owner].sub(value);\n        msg.sender.transfer(value);\n        UserWithdraw(msg.sender, value);\n    }\n    /// @author Bob Clampett\n    /// @notice owner withdraw eth \n    function withdrawByOwner() external stopInEmergency onlyOwner{\n        uint value = withdraws[msg.sender];\n        require(value > 0);\n        require(address(this).balance >= value);\n        withdraws[msg.sender] = 0;\n        msg.sender.transfer(value);\n        UserWithdraw(msg.sender, value);\n    }\n}",
  "sourcePath": "/Users/hanting/workspace/ethereum/truffle/huibaoSC/contracts/WccExchanger.sol",
  "compiler": {
    "name": "solc",
    "version": "0.4.18+commit.9cf6e910.Emscripten.clang"
  },
  "schemaVersion": "1.0.1",
  "updatedAt": "2018-04-21T02:24:13.800Z"
}