{
  "contractName": "WccPlayer",
  "abi": [
    {
      "constant": false,
      "inputs": [],
      "name": "withdrawByOwner",
      "outputs": [],
      "payable": false,
      "stateMutability": "nonpayable",
      "type": "function"
    },
    {
      "constant": true,
      "inputs": [
        {
          "name": "user",
          "type": "address"
        }
      ],
      "name": "withdrawCheck",
      "outputs": [
        {
          "name": "",
          "type": "uint256"
        }
      ],
      "payable": false,
      "stateMutability": "view",
      "type": "function"
    },
    {
      "constant": false,
      "inputs": [
        {
          "name": "_gameIndex",
          "type": "bytes32"
        }
      ],
      "name": "claimByVoter",
      "outputs": [],
      "payable": false,
      "stateMutability": "nonpayable",
      "type": "function"
    },
    {
      "constant": false,
      "inputs": [
        {
          "name": "_limit",
          "type": "uint256"
        }
      ],
      "name": "setLimit",
      "outputs": [],
      "payable": false,
      "stateMutability": "nonpayable",
      "type": "function"
    },
    {
      "constant": true,
      "inputs": [
        {
          "name": "_gameIndex",
          "type": "bytes32"
        },
        {
          "name": "_scoreIndex",
          "type": "bytes32"
        }
      ],
      "name": "isWin",
      "outputs": [
        {
          "name": "win",
          "type": "bool"
        },
        {
          "name": "value",
          "type": "uint256"
        }
      ],
      "payable": false,
      "stateMutability": "view",
      "type": "function"
    },
    {
      "constant": false,
      "inputs": [],
      "name": "withdraw",
      "outputs": [],
      "payable": false,
      "stateMutability": "nonpayable",
      "type": "function"
    },
    {
      "constant": true,
      "inputs": [
        {
          "name": "",
          "type": "address"
        }
      ],
      "name": "withdraws",
      "outputs": [
        {
          "name": "",
          "type": "uint256"
        }
      ],
      "payable": false,
      "stateMutability": "view",
      "type": "function"
    },
    {
      "constant": false,
      "inputs": [],
      "name": "emergencyStop",
      "outputs": [],
      "payable": false,
      "stateMutability": "nonpayable",
      "type": "function"
    },
    {
      "constant": true,
      "inputs": [
        {
          "name": "_gameIndex",
          "type": "bytes32"
        }
      ],
      "name": "claimByVoterCheck",
      "outputs": [
        {
          "name": "",
          "type": "uint256"
        }
      ],
      "payable": false,
      "stateMutability": "view",
      "type": "function"
    },
    {
      "constant": true,
      "inputs": [],
      "name": "stopped",
      "outputs": [
        {
          "name": "",
          "type": "bool"
        }
      ],
      "payable": false,
      "stateMutability": "view",
      "type": "function"
    },
    {
      "constant": false,
      "inputs": [
        {
          "name": "csAddress",
          "type": "address"
        }
      ],
      "name": "setWccs",
      "outputs": [],
      "payable": false,
      "stateMutability": "nonpayable",
      "type": "function"
    },
    {
      "constant": true,
      "inputs": [
        {
          "name": "index",
          "type": "bytes32"
        },
        {
          "name": "value",
          "type": "uint256"
        }
      ],
      "name": "joinCheck",
      "outputs": [
        {
          "name": "",
          "type": "uint256"
        }
      ],
      "payable": false,
      "stateMutability": "view",
      "type": "function"
    },
    {
      "constant": false,
      "inputs": [
        {
          "name": "_gameIndex",
          "type": "bytes32"
        },
        {
          "name": "_scoreIndex",
          "type": "bytes32"
        }
      ],
      "name": "claim",
      "outputs": [],
      "payable": false,
      "stateMutability": "nonpayable",
      "type": "function"
    },
    {
      "constant": false,
      "inputs": [
        {
          "name": "vsAddress",
          "type": "address"
        }
      ],
      "name": "setVs",
      "outputs": [],
      "payable": false,
      "stateMutability": "nonpayable",
      "type": "function"
    },
    {
      "constant": true,
      "inputs": [
        {
          "name": "_gameIndex",
          "type": "bytes32"
        }
      ],
      "name": "isVoterWin",
      "outputs": [
        {
          "name": "win",
          "type": "bool"
        },
        {
          "name": "value",
          "type": "uint256"
        }
      ],
      "payable": false,
      "stateMutability": "view",
      "type": "function"
    },
    {
      "constant": true,
      "inputs": [],
      "name": "owner",
      "outputs": [
        {
          "name": "",
          "type": "address"
        }
      ],
      "payable": false,
      "stateMutability": "view",
      "type": "function"
    },
    {
      "constant": false,
      "inputs": [
        {
          "name": "user",
          "type": "address"
        },
        {
          "name": "value",
          "type": "uint256"
        }
      ],
      "name": "setWithdraw",
      "outputs": [],
      "payable": false,
      "stateMutability": "nonpayable",
      "type": "function"
    },
    {
      "constant": true,
      "inputs": [],
      "name": "limit",
      "outputs": [
        {
          "name": "",
          "type": "uint256"
        }
      ],
      "payable": false,
      "stateMutability": "view",
      "type": "function"
    },
    {
      "constant": false,
      "inputs": [],
      "name": "start",
      "outputs": [],
      "payable": false,
      "stateMutability": "nonpayable",
      "type": "function"
    },
    {
      "constant": false,
      "inputs": [
        {
          "name": "gameIndex",
          "type": "bytes32"
        },
        {
          "name": "score",
          "type": "string"
        }
      ],
      "name": "join",
      "outputs": [],
      "payable": true,
      "stateMutability": "payable",
      "type": "function"
    },
    {
      "constant": true,
      "inputs": [
        {
          "name": "_gameIndex",
          "type": "bytes32"
        },
        {
          "name": "_scoreIndex",
          "type": "bytes32"
        }
      ],
      "name": "claimCheck",
      "outputs": [
        {
          "name": "",
          "type": "uint256"
        }
      ],
      "payable": false,
      "stateMutability": "view",
      "type": "function"
    },
    {
      "constant": false,
      "inputs": [
        {
          "name": "gameIndex",
          "type": "bytes32"
        },
        {
          "name": "score",
          "type": "string"
        },
        {
          "name": "scoreIndex",
          "type": "bytes32"
        }
      ],
      "name": "join",
      "outputs": [],
      "payable": true,
      "stateMutability": "payable",
      "type": "function"
    },
    {
      "constant": false,
      "inputs": [
        {
          "name": "newOwner",
          "type": "address"
        }
      ],
      "name": "transferOwnership",
      "outputs": [],
      "payable": false,
      "stateMutability": "nonpayable",
      "type": "function"
    },
    {
      "inputs": [
        {
          "name": "wccsAddress",
          "type": "address"
        },
        {
          "name": "vsAddress",
          "type": "address"
        }
      ],
      "payable": false,
      "stateMutability": "nonpayable",
      "type": "constructor"
    },
    {
      "payable": true,
      "stateMutability": "payable",
      "type": "fallback"
    },
    {
      "anonymous": false,
      "inputs": [
        {
          "indexed": false,
          "name": "gameIndex",
          "type": "bytes32"
        },
        {
          "indexed": false,
          "name": "score",
          "type": "string"
        },
        {
          "indexed": false,
          "name": "user",
          "type": "address"
        }
      ],
      "name": "UserJoin",
      "type": "event"
    },
    {
      "anonymous": false,
      "inputs": [
        {
          "indexed": false,
          "name": "_gameIndex",
          "type": "bytes32"
        },
        {
          "indexed": false,
          "name": "_scoreIndex",
          "type": "bytes32"
        },
        {
          "indexed": false,
          "name": "user",
          "type": "address"
        }
      ],
      "name": "UserClaim",
      "type": "event"
    },
    {
      "anonymous": false,
      "inputs": [
        {
          "indexed": false,
          "name": "_gameIndex",
          "type": "bytes32"
        },
        {
          "indexed": false,
          "name": "_scoreIndex",
          "type": "bytes32"
        },
        {
          "indexed": false,
          "name": "user",
          "type": "address"
        }
      ],
      "name": "VoterClaim",
      "type": "event"
    },
    {
      "anonymous": false,
      "inputs": [
        {
          "indexed": false,
          "name": "user",
          "type": "address"
        },
        {
          "indexed": false,
          "name": "value",
          "type": "uint256"
        }
      ],
      "name": "UserWithdraw",
      "type": "event"
    },
    {
      "anonymous": false,
      "inputs": [
        {
          "indexed": true,
          "name": "previousOwner",
          "type": "address"
        },
        {
          "indexed": true,
          "name": "newOwner",
          "type": "address"
        }
      ],
      "name": "OwnershipTransferred",
      "type": "event"
    }
  ],
  "bytecode": "0x6060604052662386f26fc10000600555341561001a57600080fd5b604051604080612b548339810160405280805190602001909190805190602001909190505033336000806101000a81548173ffffffffffffffffffffffffffffffffffffffff021916908373ffffffffffffffffffffffffffffffffffffffff16021790555080600160006101000a81548173ffffffffffffffffffffffffffffffffffffffff021916908373ffffffffffffffffffffffffffffffffffffffff1602179055506000600160146101000a81548160ff0219169083151502179055505081600260006101000a81548173ffffffffffffffffffffffffffffffffffffffff021916908373ffffffffffffffffffffffffffffffffffffffff16021790555080600360006101000a81548173ffffffffffffffffffffffffffffffffffffffff021916908373ffffffffffffffffffffffffffffffffffffffff16021790555050506129e4806101706000396000f300606060405260043610610133576000357c0100000000000000000000000000000000000000000000000000000000900463ffffffff16806305f2327e1461020c57806306477a87146102215780631b5bd6291461026e57806327ea6f2b1461029557806328bdb1f4146102b85780633ccfd60b1461030b57806348179ee51461032057806363a599a41461036d57806364ae6a011461038257806375f12b21146103bd5780637813dbd9146103ea5780637c3d14ac1461042357806384cc9dfb1461046757806388b157ac1461049b5780638c74102c146104d45780638da5cb5b1461051a578063a2df3cb41461056f578063a4d66daf146105b1578063be9a6555146105da578063c4d189d4146105ef578063d0ec13c41461061f578063db3668fc14610667578063f2fde38b146106a4575b6101a634600460008060009054906101000a900473ffffffffffffffffffffffffffffffffffffffff1673ffffffffffffffffffffffffffffffffffffffff1673ffffffffffffffffffffffffffffffffffffffff168152602001908152602001600020546106dd90919063ffffffff16565b600460008060009054906101000a900473ffffffffffffffffffffffffffffffffffffffff1673ffffffffffffffffffffffffffffffffffffffff1673ffffffffffffffffffffffffffffffffffffffff16815260200190815260200160002081905550005b341561021757600080fd5b61021f6106fb565b005b341561022c57600080fd5b610258600480803573ffffffffffffffffffffffffffffffffffffffff169060200190919050506108de565b6040518082815260200191505060405180910390f35b341561027957600080fd5b6102936004808035600019169060200190919050506109f2565b005b34156102a057600080fd5b6102b66004808035906020019091905050610e92565b005b34156102c357600080fd5b6102ea60048080356000191690602001909190803560001916906020019091905050610ef7565b60405180831515151581526020018281526020019250505060405180910390f35b341561031657600080fd5b61031e6112be565b005b341561032b57600080fd5b610357600480803573ffffffffffffffffffffffffffffffffffffffff16906020019091905050611451565b6040518082815260200191505060405180910390f35b341561037857600080fd5b610380611469565b005b341561038d57600080fd5b6103a76004808035600019169060200190919050506114e1565b6040518082815260200191505060405180910390f35b34156103c857600080fd5b6103d0611782565b604051808215151515815260200191505060405180910390f35b34156103f557600080fd5b610421600480803573ffffffffffffffffffffffffffffffffffffffff16906020019091905050611795565b005b341561042e57600080fd5b610451600480803560001916906020019091908035906020019091905050611834565b6040518082815260200191505060405180910390f35b341561047257600080fd5b610499600480803560001916906020019091908035600019169060200190919050506119d4565b005b34156104a657600080fd5b6104d2600480803573ffffffffffffffffffffffffffffffffffffffff16906020019091905050611c24565b005b34156104df57600080fd5b6104f9600480803560001916906020019091905050611cc3565b60405180831515151581526020018281526020019250505060405180910390f35b341561052557600080fd5b61052d612011565b604051808273ffffffffffffffffffffffffffffffffffffffff1673ffffffffffffffffffffffffffffffffffffffff16815260200191505060405180910390f35b341561057a57600080fd5b6105af600480803573ffffffffffffffffffffffffffffffffffffffff16906020019091908035906020019091905050612036565b005b34156105bc57600080fd5b6105c46120d9565b6040518082815260200191505060405180910390f35b34156105e557600080fd5b6105ed6120df565b005b61061d6004808035600019169060200190919080359060200190820180359060200191909192905050612158565b005b341561062a57600080fd5b61065160048080356000191690602001909190803560001916906020019091905050612362565b6040518082815260200191505060405180910390f35b6106a260048080356000191690602001909190803590602001908201803590602001919091929080356000191690602001909190505061260b565b005b34156106af57600080fd5b6106db600480803573ffffffffffffffffffffffffffffffffffffffff169060200190919050506127f4565b005b60008082840190508381101515156106f157fe5b8091505092915050565b6000600160149054906101000a900460ff1615151561071957600080fd5b6000809054906101000a900473ffffffffffffffffffffffffffffffffffffffff1673ffffffffffffffffffffffffffffffffffffffff163373ffffffffffffffffffffffffffffffffffffffff1614151561077457600080fd5b600460003373ffffffffffffffffffffffffffffffffffffffff1673ffffffffffffffffffffffffffffffffffffffff1681526020019081526020016000205490506000811115156107c557600080fd5b803073ffffffffffffffffffffffffffffffffffffffff1631101515156107eb57600080fd5b6000600460003373ffffffffffffffffffffffffffffffffffffffff1673ffffffffffffffffffffffffffffffffffffffff168152602001908152602001600020819055503373ffffffffffffffffffffffffffffffffffffffff166108fc829081150290604051600060405180830381858888f19350505050151561087057600080fd5b7f98824d89d47225910d3e61aa38b640d29d58b43e2dc47b4d986a588c88e0a2a83382604051808373ffffffffffffffffffffffffffffffffffffffff1673ffffffffffffffffffffffffffffffffffffffff1681526020018281526020019250505060405180910390a150565b6000806000600460008573ffffffffffffffffffffffffffffffffffffffff1673ffffffffffffffffffffffffffffffffffffffff16815260200190815260200160002054915061094c605561093e60648561294990919063ffffffff16565b61296490919063ffffffff16565b9050600082141561096057600192506109eb565b803073ffffffffffffffffffffffffffffffffffffffff1631101561098857600292506109eb565b6000809054906101000a900473ffffffffffffffffffffffffffffffffffffffff1673ffffffffffffffffffffffffffffffffffffffff163373ffffffffffffffffffffffffffffffffffffffff1614156109e657600392506109eb565b600092505b5050919050565b6000806000600160149054906101000a900460ff16151515610a1357600080fd5b6000610a1e856114e1565b141515610a2a57600080fd5b600360009054906101000a900473ffffffffffffffffffffffffffffffffffffffff1673ffffffffffffffffffffffffffffffffffffffff166382b2fa7e85336000604051608001526040518363ffffffff167c01000000000000000000000000000000000000000000000000000000000281526004018083600019166000191681526020018273ffffffffffffffffffffffffffffffffffffffff1673ffffffffffffffffffffffffffffffffffffffff16815260200192505050608060405180830381600087803b1515610aff57600080fd5b6102c65a03f11515610b1057600080fd5b505050604051805190602001805190602001805190602001805190505050935050600360009054906101000a900473ffffffffffffffffffffffffffffffffffffffff1673ffffffffffffffffffffffffffffffffffffffff1663385afd8c85600060405161010001526040518263ffffffff167c010000000000000000000000000000000000000000000000000000000002815260040180826000191660001916815260200191505061010060405180830381600087803b1515610bd457600080fd5b6102c65a03f11515610be557600080fd5b50505060405180519060200180519060200180519060200180519060200180519060200180519060200180519060200180519050505050505050925050600360009054906101000a900473ffffffffffffffffffffffffffffffffffffffff1673ffffffffffffffffffffffffffffffffffffffff16632190a8d985336040518363ffffffff167c01000000000000000000000000000000000000000000000000000000000281526004018083600019166000191681526020018273ffffffffffffffffffffffffffffffffffffffff1673ffffffffffffffffffffffffffffffffffffffff16815260200192505050600060405180830381600087803b1515610cee57600080fd5b6102c65a03f11515610cff57600080fd5b505050600260009054906101000a900473ffffffffffffffffffffffffffffffffffffffff1673ffffffffffffffffffffffffffffffffffffffff166321cc6b39856000604051602001526040518263ffffffff167c0100000000000000000000000000000000000000000000000000000000028152600401808260001916600019168152602001915050602060405180830381600087803b1515610da357600080fd5b6102c65a03f11515610db457600080fd5b505050604051805190509050610e49610dfb83610ded86610ddf60148761294990919063ffffffff16565b61296490919063ffffffff16565b61294990919063ffffffff16565b600460003373ffffffffffffffffffffffffffffffffffffffff1673ffffffffffffffffffffffffffffffffffffffff168152602001908152602001600020546106dd90919063ffffffff16565b600460003373ffffffffffffffffffffffffffffffffffffffff1673ffffffffffffffffffffffffffffffffffffffff1681526020019081526020016000208190555050505050565b6000809054906101000a900473ffffffffffffffffffffffffffffffffffffffff1673ffffffffffffffffffffffffffffffffffffffff163373ffffffffffffffffffffffffffffffffffffffff16141515610eed57600080fd5b8060058190555050565b600080600080600080600360009054906101000a900473ffffffffffffffffffffffffffffffffffffffff1673ffffffffffffffffffffffffffffffffffffffff16632d4f20e3896000604051602001526040518263ffffffff167c0100000000000000000000000000000000000000000000000000000000028152600401808260001916600019168152602001915050602060405180830381600087803b1515610fa157600080fd5b6102c65a03f11515610fb257600080fd5b505050604051805190509350600260009054906101000a900473ffffffffffffffffffffffffffffffffffffffff1673ffffffffffffffffffffffffffffffffffffffff16635368c8e589338a6000604051606001526040518463ffffffff167c01000000000000000000000000000000000000000000000000000000000281526004018084600019166000191681526020018373ffffffffffffffffffffffffffffffffffffffff1673ffffffffffffffffffffffffffffffffffffffff16815260200182600019166000191681526020019350505050606060405180830381600087803b15156110a357600080fd5b6102c65a03f115156110b457600080fd5b50505060405180519060200180519060200180519050509350508660001916846000191614156112a857600260009054906101000a900473ffffffffffffffffffffffffffffffffffffffff1673ffffffffffffffffffffffffffffffffffffffff1663f7cf67d189896000604051606001526040518363ffffffff167c0100000000000000000000000000000000000000000000000000000000028152600401808360001916600019168152602001826000191660001916815260200192505050606060405180830381600087803b151561118f57600080fd5b6102c65a03f115156111a057600080fd5b5050506040518051906020018051906020018051905050925050600260009054906101000a900473ffffffffffffffffffffffffffffffffffffffff1673ffffffffffffffffffffffffffffffffffffffff166321cc6b39896000604051602001526040518263ffffffff167c0100000000000000000000000000000000000000000000000000000000028152600401808260001916600019168152602001915050602060405180830381600087803b151561125b57600080fd5b6102c65a03f1151561126c57600080fd5b505050604051805190509050600161129f83611291868561296490919063ffffffff16565b61294990919063ffffffff16565b955095506112b3565b600080809050955095505b505050509250929050565b600080600160149054906101000a900460ff161515156112dd57600080fd5b600460003373ffffffffffffffffffffffffffffffffffffffff1673ffffffffffffffffffffffffffffffffffffffff168152602001908152602001600020549150600061132a336108de565b14151561133657600080fd5b61135d605561134f60648561294990919063ffffffff16565b61296490919063ffffffff16565b90503373ffffffffffffffffffffffffffffffffffffffff166108fc829081150290604051600060405180830381858888f19350505050151561139f57600080fd5b600460003373ffffffffffffffffffffffffffffffffffffffff1673ffffffffffffffffffffffffffffffffffffffff168152602001908152602001600020600090557f98824d89d47225910d3e61aa38b640d29d58b43e2dc47b4d986a588c88e0a2a83382604051808373ffffffffffffffffffffffffffffffffffffffff1673ffffffffffffffffffffffffffffffffffffffff1681526020018281526020019250505060405180910390a15050565b60046020528060005260406000206000915090505481565b600160009054906101000a900473ffffffffffffffffffffffffffffffffffffffff1673ffffffffffffffffffffffffffffffffffffffff163373ffffffffffffffffffffffffffffffffffffffff161415156114c557600080fd5b60018060146101000a81548160ff021916908315150217905550565b6000806000806000806000600360009054906101000a900473ffffffffffffffffffffffffffffffffffffffff1673ffffffffffffffffffffffffffffffffffffffff1663385afd8c89600060405161010001526040518263ffffffff167c010000000000000000000000000000000000000000000000000000000002815260040180826000191660001916815260200191505061010060405180830381600087803b151561158f57600080fd5b6102c65a03f115156115a057600080fd5b50505060405180519060200180519060200180519060200180519060200180519060200180519060200180519060200180519050995050985098509850505050600360009054906101000a900473ffffffffffffffffffffffffffffffffffffffff1673ffffffffffffffffffffffffffffffffffffffff166382b2fa7e89336000604051608001526040518363ffffffff167c01000000000000000000000000000000000000000000000000000000000281526004018083600019166000191681526020018273ffffffffffffffffffffffffffffffffffffffff1673ffffffffffffffffffffffffffffffffffffffff16815260200192505050608060405180830381600087803b15156116b557600080fd5b6102c65a03f115156116c657600080fd5b505050604051805190602001805190602001805190602001805190505092505091508415156116f85760019650611777565b8515156117085760029650611777565b83158015611714575081155b156117225760039650611777565b80156117315760049650611777565b6000831115611772578243101561174b5760059650611777565b6208ca00611762844361299f90919063ffffffff16565b11156117715760069650611777565b5b600096505b505050505050919050565b600160149054906101000a900460ff1681565b6000809054906101000a900473ffffffffffffffffffffffffffffffffffffffff1673ffffffffffffffffffffffffffffffffffffffff163373ffffffffffffffffffffffffffffffffffffffff161415156117f057600080fd5b80600260006101000a81548173ffffffffffffffffffffffffffffffffffffffff021916908373ffffffffffffffffffffffffffffffffffffffff16021790555050565b6000806000600260009054906101000a900473ffffffffffffffffffffffffffffffffffffffff1673ffffffffffffffffffffffffffffffffffffffff1663f579f88286600060405160c001526040518263ffffffff167c010000000000000000000000000000000000000000000000000000000002815260040180826000191660001916815260200191505060c060405180830381600087803b15156118da57600080fd5b6102c65a03f115156118eb57600080fd5b505050604051805190602001805190602001805190602001805190602001805190602001805190505094505093505050600082141561192d57600192506119cc565b6000600481111561193a57fe5b81600481111561194657fe5b14151561195657600292506119cc565b60055484101561196957600392506119cc565b6000809054906101000a900473ffffffffffffffffffffffffffffffffffffffff1673ffffffffffffffffffffffffffffffffffffffff163373ffffffffffffffffffffffffffffffffffffffff1614156119c757600492506119cc565b600092505b505092915050565b6000600160149054906101000a900460ff161515156119f257600080fd5b60006119fe8484612362565b141515611a0a57600080fd5b611a148383610ef7565b915050600260009054906101000a900473ffffffffffffffffffffffffffffffffffffffff1673ffffffffffffffffffffffffffffffffffffffff166304aa46478484336040518463ffffffff167c010000000000000000000000000000000000000000000000000000000002815260040180846000191660001916815260200183600019166000191681526020018273ffffffffffffffffffffffffffffffffffffffff1673ffffffffffffffffffffffffffffffffffffffff1681526020019350505050600060405180830381600087803b1515611af357600080fd5b6102c65a03f11515611b0457600080fd5b505050611b5981600460003373ffffffffffffffffffffffffffffffffffffffff1673ffffffffffffffffffffffffffffffffffffffff168152602001908152602001600020546106dd90919063ffffffff16565b600460003373ffffffffffffffffffffffffffffffffffffffff1673ffffffffffffffffffffffffffffffffffffffff168152602001908152602001600020819055507f34b028ab77d3fbbf2640c065727d704c709d2b3ec0f92e7f6f86bfc93066222083833360405180846000191660001916815260200183600019166000191681526020018273ffffffffffffffffffffffffffffffffffffffff1673ffffffffffffffffffffffffffffffffffffffff168152602001935050505060405180910390a1505050565b6000809054906101000a900473ffffffffffffffffffffffffffffffffffffffff1673ffffffffffffffffffffffffffffffffffffffff163373ffffffffffffffffffffffffffffffffffffffff16141515611c7f57600080fd5b80600360006101000a81548173ffffffffffffffffffffffffffffffffffffffff021916908373ffffffffffffffffffffffffffffffffffffffff16021790555050565b6000806000806000806000806000600360009054906101000a900473ffffffffffffffffffffffffffffffffffffffff1673ffffffffffffffffffffffffffffffffffffffff1663385afd8c8b600060405161010001526040518263ffffffff167c010000000000000000000000000000000000000000000000000000000002815260040180826000191660001916815260200191505061010060405180830381600087803b1515611d7457600080fd5b6102c65a03f11515611d8557600080fd5b50505060405180519060200180519060200180519060200180519060200180519060200180519060200180519060200180519050505098509850985050975050600360009054906101000a900473ffffffffffffffffffffffffffffffffffffffff1673ffffffffffffffffffffffffffffffffffffffff166382b2fa7e8b336000604051608001526040518363ffffffff167c01000000000000000000000000000000000000000000000000000000000281526004018083600019166000191681526020018273ffffffffffffffffffffffffffffffffffffffff1673ffffffffffffffffffffffffffffffffffffffff16815260200192505050608060405180830381600087803b1515611e9a57600080fd5b6102c65a03f11515611eab57600080fd5b50505060405180519060200180519060200180519060200180519050505092509250858015611ed75750845b15611ffa578280611ee55750835b15611feb57600260009054906101000a900473ffffffffffffffffffffffffffffffffffffffff1673ffffffffffffffffffffffffffffffffffffffff166321cc6b398b6000604051602001526040518263ffffffff167c0100000000000000000000000000000000000000000000000000000000028152600401808260001916600019168152602001915050602060405180830381600087803b1515611f8b57600080fd5b6102c65a03f11515611f9c57600080fd5b5050506040518051905090506001611fe288611fd485611fc660148761294990919063ffffffff16565b61296490919063ffffffff16565b61294990919063ffffffff16565b98509850612005565b60008080905098509850612005565b600080809050985098505b50505050505050915091565b6000809054906101000a900473ffffffffffffffffffffffffffffffffffffffff1681565b6000809054906101000a900473ffffffffffffffffffffffffffffffffffffffff1673ffffffffffffffffffffffffffffffffffffffff163373ffffffffffffffffffffffffffffffffffffffff1614151561209157600080fd5b80600460008473ffffffffffffffffffffffffffffffffffffffff1673ffffffffffffffffffffffffffffffffffffffff168152602001908152602001600020819055505050565b60055481565b600160009054906101000a900473ffffffffffffffffffffffffffffffffffffffff1673ffffffffffffffffffffffffffffffffffffffff163373ffffffffffffffffffffffffffffffffffffffff1614151561213b57600080fd5b6000600160146101000a81548160ff021916908315150217905550565b6000600160149054906101000a900460ff1615151561217657600080fd5b60006121828534611834565b14151561218e57600080fd5b82826040518083838082843782019150509250505060405180910390209050600260009054906101000a900473ffffffffffffffffffffffffffffffffffffffff1673ffffffffffffffffffffffffffffffffffffffff1663d22705e63334878787876040518763ffffffff167c0100000000000000000000000000000000000000000000000000000000028152600401808773ffffffffffffffffffffffffffffffffffffffff1673ffffffffffffffffffffffffffffffffffffffff168152602001868152602001856000191660001916815260200180602001836000191660001916815260200182810382528585828181526020019250808284378201915050975050505050505050600060405180830381600087803b15156122b357600080fd5b6102c65a03f115156122c457600080fd5b5050507f17f50ef1d668267f882add6b08c8a2959738583ef00e91bc9544a815ee6752fa84848433604051808560001916600019168152602001806020018373ffffffffffffffffffffffffffffffffffffffff1673ffffffffffffffffffffffffffffffffffffffff168152602001828103825285858281815260200192508082843782019150509550505050505060405180910390a150505050565b600080600080600080600360009054906101000a900473ffffffffffffffffffffffffffffffffffffffff1673ffffffffffffffffffffffffffffffffffffffff1663385afd8c89600060405161010001526040518263ffffffff167c010000000000000000000000000000000000000000000000000000000002815260040180826000191660001916815260200191505061010060405180830381600087803b151561240e57600080fd5b6102c65a03f1151561241f57600080fd5b5050506040518051906020018051906020018051906020018051906020018051906020018051906020018051906020018051905099505050975097505050506124688888610ef7565b50915083151561247b5760019550612600565b84151561248b5760029550612600565b81151561249b5760039550612600565b600260009054906101000a900473ffffffffffffffffffffffffffffffffffffffff1673ffffffffffffffffffffffffffffffffffffffff16635368c8e589338a6000604051606001526040518463ffffffff167c01000000000000000000000000000000000000000000000000000000000281526004018084600019166000191681526020018373ffffffffffffffffffffffffffffffffffffffff1673ffffffffffffffffffffffffffffffffffffffff16815260200182600019166000191681526020019350505050606060405180830381600087803b151561258057600080fd5b6102c65a03f1151561259157600080fd5b505050604051805190602001805190602001805190509250505080156125ba5760049550612600565b60008311156125fb57824310156125d45760059550612600565b6208ca006125eb844361299f90919063ffffffff16565b11156125fa5760069550612600565b5b600095505b505050505092915050565b600160149054906101000a900460ff1615151561262757600080fd5b60006126338534611834565b14151561263f57600080fd5b600260009054906101000a900473ffffffffffffffffffffffffffffffffffffffff1673ffffffffffffffffffffffffffffffffffffffff1663d22705e63334878787876040518763ffffffff167c0100000000000000000000000000000000000000000000000000000000028152600401808773ffffffffffffffffffffffffffffffffffffffff1673ffffffffffffffffffffffffffffffffffffffff168152602001868152602001856000191660001916815260200180602001836000191660001916815260200182810382528585828181526020019250808284378201915050975050505050505050600060405180830381600087803b151561274557600080fd5b6102c65a03f1151561275657600080fd5b5050507f17f50ef1d668267f882add6b08c8a2959738583ef00e91bc9544a815ee6752fa84848433604051808560001916600019168152602001806020018373ffffffffffffffffffffffffffffffffffffffff1673ffffffffffffffffffffffffffffffffffffffff168152602001828103825285858281815260200192508082843782019150509550505050505060405180910390a150505050565b6000809054906101000a900473ffffffffffffffffffffffffffffffffffffffff1673ffffffffffffffffffffffffffffffffffffffff163373ffffffffffffffffffffffffffffffffffffffff1614151561284f57600080fd5b600073ffffffffffffffffffffffffffffffffffffffff168173ffffffffffffffffffffffffffffffffffffffff161415151561288b57600080fd5b8073ffffffffffffffffffffffffffffffffffffffff166000809054906101000a900473ffffffffffffffffffffffffffffffffffffffff1673ffffffffffffffffffffffffffffffffffffffff167f8be0079c531659141344cd1fd0a4f28419497f9722a3daafe3b4186f6b6457e060405160405180910390a3806000806101000a81548173ffffffffffffffffffffffffffffffffffffffff021916908373ffffffffffffffffffffffffffffffffffffffff16021790555050565b600080828481151561295757fe5b0490508091505092915050565b60008060008414156129795760009150612998565b828402905082848281151561298a57fe5b0414151561299457fe5b8091505b5092915050565b60008282111515156129ad57fe5b8183039050929150505600a165627a7a723058209e7a4915f9862f2354077fd6ff01305ec0e9d3b7af1583b04fda462935857fdb0029",
  "source": "pragma solidity ^0.4.18;\nimport '../node_modules/zeppelin-solidity/contracts/ownership/Ownable.sol';\nimport '../node_modules/zeppelin-solidity/contracts/math/SafeMath.sol';\nimport './WccStorage.sol';\nimport './WccVoteStorage.sol';\nimport './common/Stoppable.sol';\ncontract WccPlayer is Ownable, Stoppable{\n    using SafeMath for uint256;\n    WccStorage wccs;\n    WccVoteStorage vs;\n    // bytes32 public testOK;\n    mapping(address => uint) public withdraws;\n    uint public limit = 10 finney;\n    function WccPlayer(address wccsAddress, address vsAddress) public Stoppable(msg.sender){\n        wccs = WccStorage(wccsAddress);\n        vs = WccVoteStorage(vsAddress);\n    }\n    function setLimit(uint _limit) external onlyOwner {\n        limit = _limit;\n    }\n    function setWccs(address csAddress) external onlyOwner {\n        wccs = WccStorage(csAddress);\n    }\n    function setVs(address vsAddress) external onlyOwner {\n        vs = WccVoteStorage(vsAddress);\n    }\n    /// @author Bob Clampett\n    /// @notice user join check\n    /// @dev keccak256(p1, p2, gameType) will be game index\n    /// @param index game index\n    /// @param value bet value\n    /// @return 0 if check passed\n    function joinCheck(bytes32 index, uint value) public view returns(uint) {\n        var (,,time,,status,) = wccs.games(index);\n        if (time == 0) {\n            return 1; //game not exist\n        }\n        if (status != WccStorage.GameStatus.Standby) {\n            return 2; //wrong status\n        }\n        if (value < limit) {\n            return 3; // too small chip\n        }\n        if (msg.sender == owner) {\n            return 4; // owner can not join\n        }\n        return 0;\n    }\n\n    event UserJoin(bytes32 gameIndex, string score, address user);\n    /// @author Bob Clampett\n    /// @notice user join game\n    /// @dev keccak256(p1, p2, gameType) will be game index\n    /// @param gameIndex game index\n    /// @param score bet game score \n    function join(bytes32 gameIndex, string score) external payable stopInEmergency {\n        require(joinCheck(gameIndex, msg.value) == 0);\n        bytes32 scoreIndex = keccak256(score);\n        wccs.userJoin(msg.sender, msg.value, gameIndex, score, scoreIndex);\n        // testOK = scoreIndex;\n        // withdraws[owner] = withdraws[owner].add(msg.value);\n        UserJoin(gameIndex, score, msg.sender);\n    }\n    function join(bytes32 gameIndex, string score, bytes32 scoreIndex) external payable stopInEmergency {\n        require(joinCheck(gameIndex, msg.value) == 0);\n        // bytes32 scoreIndex = keccak256(score);\n        wccs.userJoin(msg.sender, msg.value, gameIndex, score, scoreIndex);\n        // testOK = scoreIndex;\n        // withdraws[owner] = withdraws[owner].add(msg.value);\n        UserJoin(gameIndex, score, msg.sender);\n    }\n    /// @author Bob Clampett\n    /// @notice check if user win the game\n    /// @param _gameIndex game index\n    /// @param _scoreIndex score index\n    /// @return true if check passed and win value \n    function isWin(bytes32 _gameIndex, bytes32 _scoreIndex) public view returns(bool win, uint value) {\n        bytes32 target = vs.getVoteTarget(_gameIndex);\n        var (, myValue,) = wccs.joinedGamesScoreInfo(_gameIndex, msg.sender, _scoreIndex);\n        if (target == _scoreIndex) { // win\n            var (,totalWinValue,) = wccs.gameScoreTotalInfos(_gameIndex, _scoreIndex);\n            uint totalValue = wccs.getGameTotalValue(_gameIndex);\n            return (true, totalValue.mul(myValue).div(totalWinValue));\n        } else {\n            return (false, 0);\n        }\n    }\n    /// @author Bob Clampett\n    /// @notice check if user can claim\n    /// @param _gameIndex game index\n    /// @param _scoreIndex score index\n    /// @return 0 if check passed \n    function claimCheck(bytes32 _gameIndex, bytes32 _scoreIndex) public view returns(uint) {\n        var (,,, passed, ended,,,blockNum) = vs.voteInfos(_gameIndex);\n        var (win,) = isWin(_gameIndex, _scoreIndex);\n        if (!ended) {\n            return 1; // vote not finish\n        }\n        if (!passed) {\n            return 2; // vote not passed\n        }\n        if(!win) {\n            return 3; // not win\n        }\n        var (,,paid) = wccs.joinedGamesScoreInfo(_gameIndex, msg.sender, _scoreIndex);\n        if (paid) {\n            return 4; //paid\n        }\n        if (blockNum > 0) {\n            if (block.number < blockNum) {\n                return 5; // wrong block number\n            }\n            if (block.number.sub(blockNum) > 576000 ) {\n                return 6; // more than 100 days\n            }\n        }\n        return 0;\n    }\n    event UserClaim(bytes32 _gameIndex, bytes32 _scoreIndex, address user);\n    /// @author Bob Clampett\n    /// @notice user claim win value\n    /// @param _gameIndex game index\n    /// @param _scoreIndex score index\n    function claim(bytes32 _gameIndex, bytes32 _scoreIndex) external stopInEmergency{\n        require(claimCheck(_gameIndex, _scoreIndex) == 0);\n        var (, winValue) = isWin(_gameIndex, _scoreIndex);\n        wccs.setUserScorePaid(_gameIndex, _scoreIndex, msg.sender);\n        withdraws[msg.sender] = withdraws[msg.sender].add(winValue);\n        // testOK = keccak256(block.number);\n        UserClaim(_gameIndex, _scoreIndex, msg.sender);\n    }\n    function setWithdraw(address user, uint value) external onlyOwner {\n        withdraws[user] = value;\n    }\n    /// @author Bob Clampett\n    /// @notice check voter user can claim bonus\n    /// @param _gameIndex game index\n    /// @return 0 if check passed     \n    function claimByVoterCheck(bytes32 _gameIndex) public view returns(uint) {\n        var (,,, passed, ended, changed,, blockNum) = vs.voteInfos(_gameIndex);\n        var (vote,,paid,) = vs.userVotes(_gameIndex, msg.sender);\n        if (!ended) {\n            return 1; // vote not finish\n        }\n        if (!passed) {\n            return 2; // vote not passed\n        }\n        if(!changed && !vote) {\n            return 3; // not win\n        }\n        if (paid) {\n            return 4; //paid\n        }\n        if (blockNum > 0) {\n            if (block.number < blockNum) {\n                return 5; // wrong block number\n            }\n            if (block.number.sub(blockNum) > 576000 ) {\n                return 6; // more than 100 days\n            }\n        }\n        return 0;\n    }\n    event VoterClaim(bytes32 _gameIndex, bytes32 _scoreIndex, address user);\n\n    /// @author Bob Clampett\n    /// @notice voter user claim bonus\n    /// @param _gameIndex game index    \n    function claimByVoter(bytes32 _gameIndex) external stopInEmergency {\n        require(claimByVoterCheck(_gameIndex) == 0);\n        var (,value,,) = vs.userVotes(_gameIndex, msg.sender);\n        var (,yesCount,,,,,,) = vs.voteInfos(_gameIndex);\n        vs.setUserVotePaid(_gameIndex, msg.sender);\n        uint totalValue = wccs.getGameTotalValue(_gameIndex);\n        // uint totalCount = yesCount.add(noCount);\n        // (totalValue / 20) * value / (yesCount + noCount)\n        withdraws[msg.sender] = withdraws[msg.sender].add(totalValue.div(20).mul(value).div(yesCount));\n    }\n    function() public payable { \n        withdraws[owner] = withdraws[owner].add(msg.value);\n    }\n    event UserWithdraw(address user, uint value);\n    function withdrawCheck(address user) public view returns(uint) {\n        uint value = withdraws[user];\n        uint trueValue = value.div(100).mul(85);\n        if (value == 0) {\n            return 1; // no balance\n        }\n        if (address(this).balance < trueValue) {\n            return 2; // no enough balance\n        }\n        if (msg.sender == owner) {\n            return 3; // owner\n        }\n        // if (withdraws[owner] < trueValue) {\n        //     return 4; // withdraws[owner] not enough\n        // }\n        return 0;\n    }\n    /// @author Bob Clampett\n    /// @notice user withdraw eth    \n    function withdraw() external stopInEmergency {\n        uint value = withdraws[msg.sender];\n        require(withdrawCheck(msg.sender) == 0);\n        uint trueValue = value.div(100).mul(85);\n        msg.sender.transfer(trueValue);\n        delete withdraws[msg.sender];\n        // withdraws[owner] = withdraws[owner].sub(trueValue);\n        UserWithdraw(msg.sender, trueValue);\n    }\n    /// @author Bob Clampett\n    /// @notice owner withdraw eth \n    function withdrawByOwner() external stopInEmergency onlyOwner{\n        uint value = withdraws[msg.sender];\n        require(value > 0);\n        require(address(this).balance >= value);\n        withdraws[msg.sender] = 0;\n        msg.sender.transfer(value);\n        UserWithdraw(msg.sender, value);\n    }\n    /// @author Bob Clampett\n    /// @notice check if user win the vote\n    /// @param _gameIndex game index\n    /// @return true if check passed and win value \n    function isVoterWin(bytes32 _gameIndex) public view returns(bool win, uint value) {\n        var (,yesCount,, passed, ended, changed,,) = vs.voteInfos(_gameIndex);\n        var (vote,weight,,) = vs.userVotes(_gameIndex, msg.sender);\n        if(passed && ended) {\n            if (vote || changed) {\n                uint totalValue = wccs.getGameTotalValue(_gameIndex);\n                return (true, totalValue.div(20).mul(weight).div(yesCount));\n            } else {\n                return (false, 0);\n            }\n        } else {\n            return (false, 0);\n        }\n    }\n}",
  "sourcePath": "/Users/hanting/workspace/ethereum/truffle/huibaoSC/contracts/WccPlayer.sol",
  "compiler": {
    "name": "solc",
    "version": "0.4.18+commit.9cf6e910.Emscripten.clang"
  },
  "schemaVersion": "1.0.1",
  "updatedAt": "2018-05-23T01:13:56.323Z"
}