{
  "contractName": "WccPlayer",
  "abi": [
    {
      "constant": false,
      "inputs": [],
      "name": "withdrawByOwner",
      "outputs": [],
      "payable": false,
      "stateMutability": "nonpayable",
      "type": "function"
    },
    {
      "constant": true,
      "inputs": [
        {
          "name": "user",
          "type": "address"
        }
      ],
      "name": "withdrawCheck",
      "outputs": [
        {
          "name": "",
          "type": "uint256"
        }
      ],
      "payable": false,
      "stateMutability": "view",
      "type": "function"
    },
    {
      "constant": false,
      "inputs": [
        {
          "name": "_gameIndex",
          "type": "bytes32"
        }
      ],
      "name": "claimByVoter",
      "outputs": [],
      "payable": false,
      "stateMutability": "nonpayable",
      "type": "function"
    },
    {
      "constant": false,
      "inputs": [
        {
          "name": "_limit",
          "type": "uint256"
        }
      ],
      "name": "setLimit",
      "outputs": [],
      "payable": false,
      "stateMutability": "nonpayable",
      "type": "function"
    },
    {
      "constant": true,
      "inputs": [
        {
          "name": "_gameIndex",
          "type": "bytes32"
        },
        {
          "name": "_scoreIndex",
          "type": "bytes32"
        }
      ],
      "name": "isWin",
      "outputs": [
        {
          "name": "win",
          "type": "bool"
        },
        {
          "name": "value",
          "type": "uint256"
        }
      ],
      "payable": false,
      "stateMutability": "view",
      "type": "function"
    },
    {
      "constant": false,
      "inputs": [],
      "name": "withdraw",
      "outputs": [],
      "payable": false,
      "stateMutability": "nonpayable",
      "type": "function"
    },
    {
      "constant": true,
      "inputs": [
        {
          "name": "",
          "type": "address"
        }
      ],
      "name": "withdraws",
      "outputs": [
        {
          "name": "",
          "type": "uint256"
        }
      ],
      "payable": false,
      "stateMutability": "view",
      "type": "function"
    },
    {
      "constant": false,
      "inputs": [],
      "name": "emergencyStop",
      "outputs": [],
      "payable": false,
      "stateMutability": "nonpayable",
      "type": "function"
    },
    {
      "constant": true,
      "inputs": [
        {
          "name": "_gameIndex",
          "type": "bytes32"
        }
      ],
      "name": "claimByVoterCheck",
      "outputs": [
        {
          "name": "",
          "type": "uint256"
        }
      ],
      "payable": false,
      "stateMutability": "view",
      "type": "function"
    },
    {
      "constant": true,
      "inputs": [],
      "name": "stopped",
      "outputs": [
        {
          "name": "",
          "type": "bool"
        }
      ],
      "payable": false,
      "stateMutability": "view",
      "type": "function"
    },
    {
      "constant": false,
      "inputs": [
        {
          "name": "csAddress",
          "type": "address"
        }
      ],
      "name": "setWccs",
      "outputs": [],
      "payable": false,
      "stateMutability": "nonpayable",
      "type": "function"
    },
    {
      "constant": true,
      "inputs": [
        {
          "name": "index",
          "type": "bytes32"
        },
        {
          "name": "value",
          "type": "uint256"
        }
      ],
      "name": "joinCheck",
      "outputs": [
        {
          "name": "",
          "type": "uint256"
        }
      ],
      "payable": false,
      "stateMutability": "view",
      "type": "function"
    },
    {
      "constant": false,
      "inputs": [
        {
          "name": "_gameIndex",
          "type": "bytes32"
        },
        {
          "name": "_scoreIndex",
          "type": "bytes32"
        }
      ],
      "name": "claim",
      "outputs": [],
      "payable": false,
      "stateMutability": "nonpayable",
      "type": "function"
    },
    {
      "constant": false,
      "inputs": [
        {
          "name": "vsAddress",
          "type": "address"
        }
      ],
      "name": "setVs",
      "outputs": [],
      "payable": false,
      "stateMutability": "nonpayable",
      "type": "function"
    },
    {
      "constant": true,
      "inputs": [
        {
          "name": "_gameIndex",
          "type": "bytes32"
        }
      ],
      "name": "isVoterWin",
      "outputs": [
        {
          "name": "win",
          "type": "bool"
        },
        {
          "name": "value",
          "type": "uint256"
        }
      ],
      "payable": false,
      "stateMutability": "view",
      "type": "function"
    },
    {
      "constant": true,
      "inputs": [],
      "name": "owner",
      "outputs": [
        {
          "name": "",
          "type": "address"
        }
      ],
      "payable": false,
      "stateMutability": "view",
      "type": "function"
    },
    {
      "constant": false,
      "inputs": [
        {
          "name": "user",
          "type": "address"
        },
        {
          "name": "value",
          "type": "uint256"
        }
      ],
      "name": "setWithdraw",
      "outputs": [],
      "payable": false,
      "stateMutability": "nonpayable",
      "type": "function"
    },
    {
      "constant": true,
      "inputs": [],
      "name": "limit",
      "outputs": [
        {
          "name": "",
          "type": "uint256"
        }
      ],
      "payable": false,
      "stateMutability": "view",
      "type": "function"
    },
    {
      "constant": false,
      "inputs": [],
      "name": "start",
      "outputs": [],
      "payable": false,
      "stateMutability": "nonpayable",
      "type": "function"
    },
    {
      "constant": false,
      "inputs": [
        {
          "name": "gameIndex",
          "type": "bytes32"
        },
        {
          "name": "score",
          "type": "string"
        }
      ],
      "name": "join",
      "outputs": [],
      "payable": true,
      "stateMutability": "payable",
      "type": "function"
    },
    {
      "constant": true,
      "inputs": [
        {
          "name": "_gameIndex",
          "type": "bytes32"
        },
        {
          "name": "_scoreIndex",
          "type": "bytes32"
        }
      ],
      "name": "claimCheck",
      "outputs": [
        {
          "name": "",
          "type": "uint256"
        }
      ],
      "payable": false,
      "stateMutability": "view",
      "type": "function"
    },
    {
      "constant": false,
      "inputs": [
        {
          "name": "newOwner",
          "type": "address"
        }
      ],
      "name": "transferOwnership",
      "outputs": [],
      "payable": false,
      "stateMutability": "nonpayable",
      "type": "function"
    },
    {
      "inputs": [
        {
          "name": "wccsAddress",
          "type": "address"
        },
        {
          "name": "vsAddress",
          "type": "address"
        }
      ],
      "payable": false,
      "stateMutability": "nonpayable",
      "type": "constructor"
    },
    {
      "payable": true,
      "stateMutability": "payable",
      "type": "fallback"
    },
    {
      "anonymous": false,
      "inputs": [
        {
          "indexed": false,
          "name": "gameIndex",
          "type": "bytes32"
        },
        {
          "indexed": false,
          "name": "score",
          "type": "string"
        },
        {
          "indexed": false,
          "name": "user",
          "type": "address"
        }
      ],
      "name": "UserJoin",
      "type": "event"
    },
    {
      "anonymous": false,
      "inputs": [
        {
          "indexed": false,
          "name": "_gameIndex",
          "type": "bytes32"
        },
        {
          "indexed": false,
          "name": "_scoreIndex",
          "type": "bytes32"
        },
        {
          "indexed": false,
          "name": "user",
          "type": "address"
        }
      ],
      "name": "UserClaim",
      "type": "event"
    },
    {
      "anonymous": false,
      "inputs": [
        {
          "indexed": false,
          "name": "_gameIndex",
          "type": "bytes32"
        },
        {
          "indexed": false,
          "name": "_scoreIndex",
          "type": "bytes32"
        },
        {
          "indexed": false,
          "name": "user",
          "type": "address"
        }
      ],
      "name": "VoterClaim",
      "type": "event"
    },
    {
      "anonymous": false,
      "inputs": [
        {
          "indexed": false,
          "name": "user",
          "type": "address"
        },
        {
          "indexed": false,
          "name": "value",
          "type": "uint256"
        }
      ],
      "name": "UserWithdraw",
      "type": "event"
    },
    {
      "anonymous": false,
      "inputs": [
        {
          "indexed": true,
          "name": "previousOwner",
          "type": "address"
        },
        {
          "indexed": true,
          "name": "newOwner",
          "type": "address"
        }
      ],
      "name": "OwnershipTransferred",
      "type": "event"
    }
  ],
  "bytecode": "0x6060604052662386f26fc10000600555341561001a57600080fd5b604051604080612c818339810160405280805190602001909190805190602001909190505033336000806101000a81548173ffffffffffffffffffffffffffffffffffffffff021916908373ffffffffffffffffffffffffffffffffffffffff16021790555080600160006101000a81548173ffffffffffffffffffffffffffffffffffffffff021916908373ffffffffffffffffffffffffffffffffffffffff1602179055506000600160146101000a81548160ff0219169083151502179055505081600260006101000a81548173ffffffffffffffffffffffffffffffffffffffff021916908373ffffffffffffffffffffffffffffffffffffffff16021790555080600360006101000a81548173ffffffffffffffffffffffffffffffffffffffff021916908373ffffffffffffffffffffffffffffffffffffffff1602179055505050612b11806101706000396000f300606060405260043610610128576000357c0100000000000000000000000000000000000000000000000000000000900463ffffffff16806305f2327e1461020157806306477a87146102165780631b5bd6291461026357806327ea6f2b1461028a57806328bdb1f4146102ad5780633ccfd60b1461030057806348179ee51461031557806363a599a41461036257806364ae6a011461037757806375f12b21146103b25780637813dbd9146103df5780637c3d14ac1461041857806384cc9dfb1461045c57806388b157ac146104905780638c74102c146104c95780638da5cb5b1461050f578063a2df3cb414610564578063a4d66daf146105a6578063be9a6555146105cf578063c4d189d4146105e4578063d0ec13c414610614578063f2fde38b1461065c575b61019b34600460008060009054906101000a900473ffffffffffffffffffffffffffffffffffffffff1673ffffffffffffffffffffffffffffffffffffffff1673ffffffffffffffffffffffffffffffffffffffff1681526020019081526020016000205461069590919063ffffffff16565b600460008060009054906101000a900473ffffffffffffffffffffffffffffffffffffffff1673ffffffffffffffffffffffffffffffffffffffff1673ffffffffffffffffffffffffffffffffffffffff16815260200190815260200160002081905550005b341561020c57600080fd5b6102146106b3565b005b341561022157600080fd5b61024d600480803573ffffffffffffffffffffffffffffffffffffffff16906020019091905050610896565b6040518082815260200191505060405180910390f35b341561026e57600080fd5b610288600480803560001916906020019091905050610a3b565b005b341561029557600080fd5b6102ab6004808035906020019091905050610f15565b005b34156102b857600080fd5b6102df60048080356000191690602001909190803560001916906020019091905050610f7a565b60405180831515151581526020018281526020019250505060405180910390f35b341561030b57600080fd5b610313611389565b005b341561032057600080fd5b61034c600480803573ffffffffffffffffffffffffffffffffffffffff1690602001909190505061163a565b6040518082815260200191505060405180910390f35b341561036d57600080fd5b610375611652565b005b341561038257600080fd5b61039c6004808035600019169060200190919050506116ca565b6040518082815260200191505060405180910390f35b34156103bd57600080fd5b6103c561196b565b604051808215151515815260200191505060405180910390f35b34156103ea57600080fd5b610416600480803573ffffffffffffffffffffffffffffffffffffffff1690602001909190505061197e565b005b341561042357600080fd5b610446600480803560001916906020019091908035906020019091905050611a1d565b6040518082815260200191505060405180910390f35b341561046757600080fd5b61048e60048080356000191690602001909190803560001916906020019091905050611bd2565b005b341561049b57600080fd5b6104c7600480803573ffffffffffffffffffffffffffffffffffffffff16906020019091905050611e22565b005b34156104d457600080fd5b6104ee600480803560001916906020019091905050611ec1565b60405180831515151581526020018281526020019250505060405180910390f35b341561051a57600080fd5b610522612249565b604051808273ffffffffffffffffffffffffffffffffffffffff1673ffffffffffffffffffffffffffffffffffffffff16815260200191505060405180910390f35b341561056f57600080fd5b6105a4600480803573ffffffffffffffffffffffffffffffffffffffff1690602001909190803590602001909190505061226e565b005b34156105b157600080fd5b6105b9612311565b6040518082815260200191505060405180910390f35b34156105da57600080fd5b6105e2612317565b005b6106126004808035600019169060200190919080359060200190820180359060200191909192905050612390565b005b341561061f57600080fd5b61064660048080356000191690602001909190803560001916906020019091905050612671565b6040518082815260200191505060405180910390f35b341561066757600080fd5b610693600480803573ffffffffffffffffffffffffffffffffffffffff16906020019091905050612921565b005b60008082840190508381101515156106a957fe5b8091505092915050565b6000600160149054906101000a900460ff161515156106d157600080fd5b6000809054906101000a900473ffffffffffffffffffffffffffffffffffffffff1673ffffffffffffffffffffffffffffffffffffffff163373ffffffffffffffffffffffffffffffffffffffff1614151561072c57600080fd5b600460003373ffffffffffffffffffffffffffffffffffffffff1673ffffffffffffffffffffffffffffffffffffffff16815260200190815260200160002054905060008111151561077d57600080fd5b803073ffffffffffffffffffffffffffffffffffffffff1631101515156107a357600080fd5b6000600460003373ffffffffffffffffffffffffffffffffffffffff1673ffffffffffffffffffffffffffffffffffffffff168152602001908152602001600020819055503373ffffffffffffffffffffffffffffffffffffffff166108fc829081150290604051600060405180830381858888f19350505050151561082857600080fd5b7f98824d89d47225910d3e61aa38b640d29d58b43e2dc47b4d986a588c88e0a2a83382604051808373ffffffffffffffffffffffffffffffffffffffff1673ffffffffffffffffffffffffffffffffffffffff1681526020018281526020019250505060405180910390a150565b600080600460008473ffffffffffffffffffffffffffffffffffffffff1673ffffffffffffffffffffffffffffffffffffffff16815260200190815260200160002054905060008114156108ed5760019150610a35565b6109146009610906600a84612a7690919063ffffffff16565b612a9190919063ffffffff16565b3073ffffffffffffffffffffffffffffffffffffffff1631101561093b5760029150610a35565b6000809054906101000a900473ffffffffffffffffffffffffffffffffffffffff1673ffffffffffffffffffffffffffffffffffffffff163373ffffffffffffffffffffffffffffffffffffffff1614156109995760039150610a35565b6109c060096109b2600a84612a7690919063ffffffff16565b612a9190919063ffffffff16565b600460008060009054906101000a900473ffffffffffffffffffffffffffffffffffffffff1673ffffffffffffffffffffffffffffffffffffffff1673ffffffffffffffffffffffffffffffffffffffff168152602001908152602001600020541015610a305760049150610a35565b600091505b50919050565b6000806000600160149054906101000a900460ff16151515610a5c57600080fd5b6000610a67856116ca565b141515610a7357600080fd5b600360009054906101000a900473ffffffffffffffffffffffffffffffffffffffff1673ffffffffffffffffffffffffffffffffffffffff166382b2fa7e85336000604051608001526040518363ffffffff167c01000000000000000000000000000000000000000000000000000000000281526004018083600019166000191681526020018273ffffffffffffffffffffffffffffffffffffffff1673ffffffffffffffffffffffffffffffffffffffff16815260200192505050608060405180830381600087803b1515610b4857600080fd5b6102c65a03f11515610b5957600080fd5b505050604051805190602001805190602001805190602001805190505050935050600360009054906101000a900473ffffffffffffffffffffffffffffffffffffffff1673ffffffffffffffffffffffffffffffffffffffff1663385afd8c85600060405161010001526040518263ffffffff167c010000000000000000000000000000000000000000000000000000000002815260040180826000191660001916815260200191505061010060405180830381600087803b1515610c1d57600080fd5b6102c65a03f11515610c2e57600080fd5b50505060405180519060200180519060200180519060200180519060200180519060200180519060200180519060200180519050505050505050925050600360009054906101000a900473ffffffffffffffffffffffffffffffffffffffff1673ffffffffffffffffffffffffffffffffffffffff16632190a8d985336040518363ffffffff167c01000000000000000000000000000000000000000000000000000000000281526004018083600019166000191681526020018273ffffffffffffffffffffffffffffffffffffffff1673ffffffffffffffffffffffffffffffffffffffff16815260200192505050600060405180830381600087803b1515610d3757600080fd5b6102c65a03f11515610d4857600080fd5b505050600260009054906101000a900473ffffffffffffffffffffffffffffffffffffffff1673ffffffffffffffffffffffffffffffffffffffff1663f579f88285600060405161012001526040518263ffffffff167c010000000000000000000000000000000000000000000000000000000002815260040180826000191660001916815260200191505061012060405180830381600087803b1515610dee57600080fd5b6102c65a03f11515610dff57600080fd5b5050506040518051906020018051906020018051906020018051906020018051906020018051906020018051906020018051906020018051905050505095505050505050610ecc610e7e83610e7086610e62601487612a7690919063ffffffff16565b612a9190919063ffffffff16565b612a7690919063ffffffff16565b600460003373ffffffffffffffffffffffffffffffffffffffff1673ffffffffffffffffffffffffffffffffffffffff1681526020019081526020016000205461069590919063ffffffff16565b600460003373ffffffffffffffffffffffffffffffffffffffff1673ffffffffffffffffffffffffffffffffffffffff1681526020019081526020016000208190555050505050565b6000809054906101000a900473ffffffffffffffffffffffffffffffffffffffff1673ffffffffffffffffffffffffffffffffffffffff163373ffffffffffffffffffffffffffffffffffffffff16141515610f7057600080fd5b8060058190555050565b600080600080600080600360009054906101000a900473ffffffffffffffffffffffffffffffffffffffff1673ffffffffffffffffffffffffffffffffffffffff16632d4f20e3896000604051602001526040518263ffffffff167c0100000000000000000000000000000000000000000000000000000000028152600401808260001916600019168152602001915050602060405180830381600087803b151561102457600080fd5b6102c65a03f1151561103557600080fd5b505050604051805190509350600260009054906101000a900473ffffffffffffffffffffffffffffffffffffffff1673ffffffffffffffffffffffffffffffffffffffff16635368c8e589338a6000604051608001526040518463ffffffff167c01000000000000000000000000000000000000000000000000000000000281526004018084600019166000191681526020018373ffffffffffffffffffffffffffffffffffffffff1673ffffffffffffffffffffffffffffffffffffffff16815260200182600019166000191681526020019350505050608060405180830381600087803b151561112657600080fd5b6102c65a03f1151561113757600080fd5b50505060405180519060200180519060200180519060200180519050505093505086600019168460001916141561137357600260009054906101000a900473ffffffffffffffffffffffffffffffffffffffff1673ffffffffffffffffffffffffffffffffffffffff1663f7cf67d189896000604051608001526040518363ffffffff167c0100000000000000000000000000000000000000000000000000000000028152600401808360001916600019168152602001826000191660001916815260200192505050608060405180830381600087803b151561121957600080fd5b6102c65a03f1151561122a57600080fd5b505050604051805190602001805190602001805190602001805190505050925050600260009054906101000a900473ffffffffffffffffffffffffffffffffffffffff1673ffffffffffffffffffffffffffffffffffffffff1663f579f88289600060405161012001526040518263ffffffff167c010000000000000000000000000000000000000000000000000000000002815260040180826000191660001916815260200191505061012060405180830381600087803b15156112ee57600080fd5b6102c65a03f115156112ff57600080fd5b5050506040518051906020018051906020018051906020018051906020018051906020018051906020018051906020018051906020018051905050505095505050505050600161136a8361135c8685612a9190919063ffffffff16565b612a7690919063ffffffff16565b9550955061137e565b600080809050955095505b505050509250929050565b6000600160149054906101000a900460ff161515156113a757600080fd5b600460003373ffffffffffffffffffffffffffffffffffffffff1673ffffffffffffffffffffffffffffffffffffffff16815260200190815260200160002054905060006113f433610896565b14151561140057600080fd5b3373ffffffffffffffffffffffffffffffffffffffff166108fc6114416009611433600a86612a7690919063ffffffff16565b612a9190919063ffffffff16565b9081150290604051600060405180830381858888f19350505050151561146657600080fd5b600460003373ffffffffffffffffffffffffffffffffffffffff1673ffffffffffffffffffffffffffffffffffffffff168152602001908152602001600020600090556115426114d360556114c5606485612a7690919063ffffffff16565b612a9190919063ffffffff16565b600460008060009054906101000a900473ffffffffffffffffffffffffffffffffffffffff1673ffffffffffffffffffffffffffffffffffffffff1673ffffffffffffffffffffffffffffffffffffffff16815260200190815260200160002054612acc90919063ffffffff16565b600460008060009054906101000a900473ffffffffffffffffffffffffffffffffffffffff1673ffffffffffffffffffffffffffffffffffffffff1673ffffffffffffffffffffffffffffffffffffffff168152602001908152602001600020819055507f98824d89d47225910d3e61aa38b640d29d58b43e2dc47b4d986a588c88e0a2a8336115ef60556115e1606486612a7690919063ffffffff16565b612a9190919063ffffffff16565b604051808373ffffffffffffffffffffffffffffffffffffffff1673ffffffffffffffffffffffffffffffffffffffff1681526020018281526020019250505060405180910390a150565b60046020528060005260406000206000915090505481565b600160009054906101000a900473ffffffffffffffffffffffffffffffffffffffff1673ffffffffffffffffffffffffffffffffffffffff163373ffffffffffffffffffffffffffffffffffffffff161415156116ae57600080fd5b60018060146101000a81548160ff021916908315150217905550565b6000806000806000806000600360009054906101000a900473ffffffffffffffffffffffffffffffffffffffff1673ffffffffffffffffffffffffffffffffffffffff1663385afd8c89600060405161010001526040518263ffffffff167c010000000000000000000000000000000000000000000000000000000002815260040180826000191660001916815260200191505061010060405180830381600087803b151561177857600080fd5b6102c65a03f1151561178957600080fd5b50505060405180519060200180519060200180519060200180519060200180519060200180519060200180519060200180519050995050985098509850505050600360009054906101000a900473ffffffffffffffffffffffffffffffffffffffff1673ffffffffffffffffffffffffffffffffffffffff166382b2fa7e89336000604051608001526040518363ffffffff167c01000000000000000000000000000000000000000000000000000000000281526004018083600019166000191681526020018273ffffffffffffffffffffffffffffffffffffffff1673ffffffffffffffffffffffffffffffffffffffff16815260200192505050608060405180830381600087803b151561189e57600080fd5b6102c65a03f115156118af57600080fd5b505050604051805190602001805190602001805190602001805190505092505091508415156118e15760019650611960565b8515156118f15760029650611960565b831580156118fd575081155b1561190b5760039650611960565b801561191a5760049650611960565b600083111561195b57824310156119345760059650611960565b6208ca0061194b8443612acc90919063ffffffff16565b111561195a5760069650611960565b5b600096505b505050505050919050565b600160149054906101000a900460ff1681565b6000809054906101000a900473ffffffffffffffffffffffffffffffffffffffff1673ffffffffffffffffffffffffffffffffffffffff163373ffffffffffffffffffffffffffffffffffffffff161415156119d957600080fd5b80600260006101000a81548173ffffffffffffffffffffffffffffffffffffffff021916908373ffffffffffffffffffffffffffffffffffffffff16021790555050565b6000806000600260009054906101000a900473ffffffffffffffffffffffffffffffffffffffff1673ffffffffffffffffffffffffffffffffffffffff1663f579f88286600060405161012001526040518263ffffffff167c010000000000000000000000000000000000000000000000000000000002815260040180826000191660001916815260200191505061012060405180830381600087803b1515611ac557600080fd5b6102c65a03f11515611ad657600080fd5b505050604051805190602001805190602001805190602001805190602001805190602001805190602001805190602001805190602001805190505097505050955050505050801515611b2b5760019250611bca565b60006004811115611b3857fe5b826004811115611b4457fe5b141515611b545760029250611bca565b600554841015611b675760039250611bca565b6000809054906101000a900473ffffffffffffffffffffffffffffffffffffffff1673ffffffffffffffffffffffffffffffffffffffff163373ffffffffffffffffffffffffffffffffffffffff161415611bc55760049250611bca565b600092505b505092915050565b6000600160149054906101000a900460ff16151515611bf057600080fd5b6000611bfc8484612671565b141515611c0857600080fd5b611c128383610f7a565b915050600260009054906101000a900473ffffffffffffffffffffffffffffffffffffffff1673ffffffffffffffffffffffffffffffffffffffff166304aa46478484336040518463ffffffff167c010000000000000000000000000000000000000000000000000000000002815260040180846000191660001916815260200183600019166000191681526020018273ffffffffffffffffffffffffffffffffffffffff1673ffffffffffffffffffffffffffffffffffffffff1681526020019350505050600060405180830381600087803b1515611cf157600080fd5b6102c65a03f11515611d0257600080fd5b505050611d5781600460003373ffffffffffffffffffffffffffffffffffffffff1673ffffffffffffffffffffffffffffffffffffffff1681526020019081526020016000205461069590919063ffffffff16565b600460003373ffffffffffffffffffffffffffffffffffffffff1673ffffffffffffffffffffffffffffffffffffffff168152602001908152602001600020819055507f34b028ab77d3fbbf2640c065727d704c709d2b3ec0f92e7f6f86bfc93066222083833360405180846000191660001916815260200183600019166000191681526020018273ffffffffffffffffffffffffffffffffffffffff1673ffffffffffffffffffffffffffffffffffffffff168152602001935050505060405180910390a1505050565b6000809054906101000a900473ffffffffffffffffffffffffffffffffffffffff1673ffffffffffffffffffffffffffffffffffffffff163373ffffffffffffffffffffffffffffffffffffffff16141515611e7d57600080fd5b80600360006101000a81548173ffffffffffffffffffffffffffffffffffffffff021916908373ffffffffffffffffffffffffffffffffffffffff16021790555050565b6000806000806000806000806000600360009054906101000a900473ffffffffffffffffffffffffffffffffffffffff1673ffffffffffffffffffffffffffffffffffffffff1663385afd8c8b600060405161010001526040518263ffffffff167c010000000000000000000000000000000000000000000000000000000002815260040180826000191660001916815260200191505061010060405180830381600087803b1515611f7257600080fd5b6102c65a03f11515611f8357600080fd5b50505060405180519060200180519060200180519060200180519060200180519060200180519060200180519060200180519050505098509850985050975050600360009054906101000a900473ffffffffffffffffffffffffffffffffffffffff1673ffffffffffffffffffffffffffffffffffffffff166382b2fa7e8b336000604051608001526040518363ffffffff167c01000000000000000000000000000000000000000000000000000000000281526004018083600019166000191681526020018273ffffffffffffffffffffffffffffffffffffffff1673ffffffffffffffffffffffffffffffffffffffff16815260200192505050608060405180830381600087803b151561209857600080fd5b6102c65a03f115156120a957600080fd5b505050604051805190602001805190602001805190602001805190505050925092508580156120d55750845b156122325782806120e35750835b1561222357600260009054906101000a900473ffffffffffffffffffffffffffffffffffffffff1673ffffffffffffffffffffffffffffffffffffffff1663f579f8828b600060405161012001526040518263ffffffff167c010000000000000000000000000000000000000000000000000000000002815260040180826000191660001916815260200191505061012060405180830381600087803b151561218b57600080fd5b6102c65a03f1151561219c57600080fd5b5050506040518051906020018051906020018051906020018051906020018051906020018051906020018051906020018051906020018051905050505095505050505050600161221a8861220c856121fe601487612a7690919063ffffffff16565b612a9190919063ffffffff16565b612a7690919063ffffffff16565b9850985061223d565b6000808090509850985061223d565b600080809050985098505b50505050505050915091565b6000809054906101000a900473ffffffffffffffffffffffffffffffffffffffff1681565b6000809054906101000a900473ffffffffffffffffffffffffffffffffffffffff1673ffffffffffffffffffffffffffffffffffffffff163373ffffffffffffffffffffffffffffffffffffffff161415156122c957600080fd5b80600460008473ffffffffffffffffffffffffffffffffffffffff1673ffffffffffffffffffffffffffffffffffffffff168152602001908152602001600020819055505050565b60055481565b600160009054906101000a900473ffffffffffffffffffffffffffffffffffffffff1673ffffffffffffffffffffffffffffffffffffffff163373ffffffffffffffffffffffffffffffffffffffff1614151561237357600080fd5b6000600160146101000a81548160ff021916908315150217905550565b6000600160149054906101000a900460ff161515156123ae57600080fd5b60006123ba8534611a1d565b1415156123c657600080fd5b82826040518083838082843782019150509250505060405180910390209050600260009054906101000a900473ffffffffffffffffffffffffffffffffffffffff1673ffffffffffffffffffffffffffffffffffffffff1663d22705e63334878787876040518763ffffffff167c0100000000000000000000000000000000000000000000000000000000028152600401808773ffffffffffffffffffffffffffffffffffffffff1673ffffffffffffffffffffffffffffffffffffffff168152602001868152602001856000191660001916815260200180602001836000191660001916815260200182810382528585828181526020019250808284378201915050975050505050505050600060405180830381600087803b15156124eb57600080fd5b6102c65a03f115156124fc57600080fd5b50505061257234600460008060009054906101000a900473ffffffffffffffffffffffffffffffffffffffff1673ffffffffffffffffffffffffffffffffffffffff1673ffffffffffffffffffffffffffffffffffffffff1681526020019081526020016000205461069590919063ffffffff16565b600460008060009054906101000a900473ffffffffffffffffffffffffffffffffffffffff1673ffffffffffffffffffffffffffffffffffffffff1673ffffffffffffffffffffffffffffffffffffffff168152602001908152602001600020819055507f17f50ef1d668267f882add6b08c8a2959738583ef00e91bc9544a815ee6752fa84848433604051808560001916600019168152602001806020018373ffffffffffffffffffffffffffffffffffffffff1673ffffffffffffffffffffffffffffffffffffffff168152602001828103825285858281815260200192508082843782019150509550505050505060405180910390a150505050565b600080600080600080600360009054906101000a900473ffffffffffffffffffffffffffffffffffffffff1673ffffffffffffffffffffffffffffffffffffffff1663385afd8c89600060405161010001526040518263ffffffff167c010000000000000000000000000000000000000000000000000000000002815260040180826000191660001916815260200191505061010060405180830381600087803b151561271d57600080fd5b6102c65a03f1151561272e57600080fd5b5050506040518051906020018051906020018051906020018051906020018051906020018051906020018051906020018051905099505050975097505050506127778888610f7a565b50915083151561278a5760019550612916565b84151561279a5760029550612916565b8115156127aa5760039550612916565b600260009054906101000a900473ffffffffffffffffffffffffffffffffffffffff1673ffffffffffffffffffffffffffffffffffffffff16635368c8e589338a6000604051608001526040518463ffffffff167c01000000000000000000000000000000000000000000000000000000000281526004018084600019166000191681526020018373ffffffffffffffffffffffffffffffffffffffff1673ffffffffffffffffffffffffffffffffffffffff16815260200182600019166000191681526020019350505050608060405180830381600087803b151561288f57600080fd5b6102c65a03f115156128a057600080fd5b50505060405180519060200180519060200180519060200180519050509250505080156128d05760049550612916565b600083111561291157824310156128ea5760059550612916565b6208ca006129018443612acc90919063ffffffff16565b11156129105760069550612916565b5b600095505b505050505092915050565b6000809054906101000a900473ffffffffffffffffffffffffffffffffffffffff1673ffffffffffffffffffffffffffffffffffffffff163373ffffffffffffffffffffffffffffffffffffffff1614151561297c57600080fd5b600073ffffffffffffffffffffffffffffffffffffffff168173ffffffffffffffffffffffffffffffffffffffff16141515156129b857600080fd5b8073ffffffffffffffffffffffffffffffffffffffff166000809054906101000a900473ffffffffffffffffffffffffffffffffffffffff1673ffffffffffffffffffffffffffffffffffffffff167f8be0079c531659141344cd1fd0a4f28419497f9722a3daafe3b4186f6b6457e060405160405180910390a3806000806101000a81548173ffffffffffffffffffffffffffffffffffffffff021916908373ffffffffffffffffffffffffffffffffffffffff16021790555050565b6000808284811515612a8457fe5b0490508091505092915050565b6000806000841415612aa65760009150612ac5565b8284029050828482811515612ab757fe5b04141515612ac157fe5b8091505b5092915050565b6000828211151515612ada57fe5b8183039050929150505600a165627a7a72305820fac4cb6a58701d8ec023d4753d5704d54ea6b88327e6f292804b9cd5b4a5e74d0029",
  "source": "pragma solidity ^0.4.18;\nimport '../node_modules/zeppelin-solidity/contracts/ownership/Ownable.sol';\nimport '../node_modules/zeppelin-solidity/contracts/math/SafeMath.sol';\nimport './WccStorage.sol';\nimport './WccVoteStorage.sol';\nimport './common/Stoppable.sol';\ncontract WccPlayer is Ownable, Stoppable{\n    using SafeMath for uint256;\n    WccStorage wccs;\n    WccVoteStorage vs;\n    // bytes32 public testOK;\n    mapping(address => uint) public withdraws;\n    uint public limit = 10 finney;\n    function WccPlayer(address wccsAddress, address vsAddress) public Stoppable(msg.sender){\n        wccs = WccStorage(wccsAddress);\n        vs = WccVoteStorage(vsAddress);\n    }\n    function setLimit(uint _limit) external onlyOwner {\n        limit = _limit;\n    }\n    function setWccs(address csAddress) external onlyOwner {\n        wccs = WccStorage(csAddress);\n    }\n    function setVs(address vsAddress) external onlyOwner {\n        vs = WccVoteStorage(vsAddress);\n    }\n    /// @author Bob Clampett\n    /// @notice user join check\n    /// @dev keccak256(p1, p2, gameType) will be game index\n    /// @param index game index\n    /// @param value bet value\n    /// @return 0 if check passed\n    function joinCheck(bytes32 index, uint value) public view returns(uint) {\n        var (,,,,status,,,gameValued,) = wccs.games(index);\n        if (!gameValued) {\n            return 1; //game not exist\n        }\n        if (status != WccStorage.GameStatus.Standby) {\n            return 2; //wrong status\n        }\n        if (value < limit) {\n            return 3; // too small chip\n        }\n        if (msg.sender == owner) {\n            return 4; // owner can not join\n        }\n        return 0;\n    }\n    event UserJoin(bytes32 gameIndex, string score, address user);\n\n    /// @author Bob Clampett\n    /// @notice user join game\n    /// @dev keccak256(p1, p2, gameType) will be game index\n    /// @param gameIndex game index\n    /// @param score bet game score \n    function join(bytes32 gameIndex, string score) external payable stopInEmergency {\n        require(joinCheck(gameIndex, msg.value) == 0);\n        bytes32 scoreIndex = keccak256(score);\n        wccs.userJoin(msg.sender, msg.value, gameIndex, score, scoreIndex);\n        // testOK = scoreIndex;\n        withdraws[owner] = withdraws[owner].add(msg.value);\n        UserJoin(gameIndex, score, msg.sender);\n    }\n    /// @author Bob Clampett\n    /// @notice check if user win the game\n    /// @param _gameIndex game index\n    /// @param _scoreIndex score index\n    /// @return true if check passed and win value \n    function isWin(bytes32 _gameIndex, bytes32 _scoreIndex) public view returns(bool win, uint value) {\n        bytes32 target = vs.getVoteTarget(_gameIndex);\n        var (, myValue,,) = wccs.joinedGamesScoreInfo(_gameIndex, msg.sender, _scoreIndex);\n        if (target == _scoreIndex) { // win\n            var (,totalWinValue,,) = wccs.gameScoreTotalInfos(_gameIndex, _scoreIndex);\n            var (,,,,,totalValue,,,) = wccs.games(_gameIndex);\n            return (true, totalValue.mul(myValue).div(totalWinValue));\n        } else {\n            return (false, 0);\n        }\n    }\n    /// @author Bob Clampett\n    /// @notice check if user can claim\n    /// @param _gameIndex game index\n    /// @param _scoreIndex score index\n    /// @return 0 if check passed \n    function claimCheck(bytes32 _gameIndex, bytes32 _scoreIndex) public view returns(uint) {\n        var (,,, passed, ended,,,blockNum) = vs.voteInfos(_gameIndex);\n        var (win,) = isWin(_gameIndex, _scoreIndex);\n        if (!ended) {\n            return 1; // vote not finish\n        }\n        if (!passed) {\n            return 2; // vote not passed\n        }\n        if(!win) {\n            return 3; // not win\n        }\n        var (,,paid,) = wccs.joinedGamesScoreInfo(_gameIndex, msg.sender, _scoreIndex);\n        if (paid) {\n            return 4; //paid\n        }\n        if (blockNum > 0) {\n            if (block.number < blockNum) {\n                return 5; // wrong block number\n            }\n            if (block.number.sub(blockNum) > 576000 ) {\n                return 6; // more than 100 days\n            }\n        }\n        return 0;\n    }\n    event UserClaim(bytes32 _gameIndex, bytes32 _scoreIndex, address user);\n    /// @author Bob Clampett\n    /// @notice user claim win value\n    /// @param _gameIndex game index\n    /// @param _scoreIndex score index\n    function claim(bytes32 _gameIndex, bytes32 _scoreIndex) external stopInEmergency{\n        require(claimCheck(_gameIndex, _scoreIndex) == 0);\n        var (, winValue) = isWin(_gameIndex, _scoreIndex);\n        wccs.setUserScorePaid(_gameIndex, _scoreIndex, msg.sender);\n        withdraws[msg.sender] = withdraws[msg.sender].add(winValue);\n        // testOK = keccak256(block.number);\n        UserClaim(_gameIndex, _scoreIndex, msg.sender);\n    }\n    function setWithdraw(address user, uint value) external onlyOwner {\n        withdraws[user] = value;\n    }\n    /// @author Bob Clampett\n    /// @notice check voter user can claim bonus\n    /// @param _gameIndex game index\n    /// @return 0 if check passed     \n    function claimByVoterCheck(bytes32 _gameIndex) public view returns(uint) {\n        var (,,, passed, ended, changed,, blockNum) = vs.voteInfos(_gameIndex);\n        var (vote,,paid,) = vs.userVotes(_gameIndex, msg.sender);\n        if (!ended) {\n            return 1; // vote not finish\n        }\n        if (!passed) {\n            return 2; // vote not passed\n        }\n        if(!changed && !vote) {\n            return 3; // not win\n        }\n        if (paid) {\n            return 4; //paid\n        }\n        if (blockNum > 0) {\n            if (block.number < blockNum) {\n                return 5; // wrong block number\n            }\n            if (block.number.sub(blockNum) > 576000 ) {\n                return 6; // more than 100 days\n            }\n        }\n        return 0;\n    }\n    event VoterClaim(bytes32 _gameIndex, bytes32 _scoreIndex, address user);\n\n    /// @author Bob Clampett\n    /// @notice voter user claim bonus\n    /// @param _gameIndex game index    \n    function claimByVoter(bytes32 _gameIndex) external stopInEmergency {\n        require(claimByVoterCheck(_gameIndex) == 0);\n        var (,value,,) = vs.userVotes(_gameIndex, msg.sender);\n        var (,yesCount,,,,,,) = vs.voteInfos(_gameIndex);\n        vs.setUserVotePaid(_gameIndex, msg.sender);\n        var (,,,,,totalValue,,,) = wccs.games(_gameIndex);\n        // uint totalCount = yesCount.add(noCount);\n        // (totalValue / 20) * value / (yesCount + noCount)\n        withdraws[msg.sender] = withdraws[msg.sender].add(totalValue.div(20).mul(value).div(yesCount));\n    }\n    function() public payable { \n        withdraws[owner] = withdraws[owner].add(msg.value);\n    }\n    event UserWithdraw(address user, uint value);\n    function withdrawCheck(address user) public view returns(uint) {\n        uint value = withdraws[user];\n        if (value == 0) {\n            return 1; // no balance\n        }\n        if (address(this).balance < value.div(10).mul(9)) {\n            return 2; // no enough balance\n        }\n        if (msg.sender == owner) {\n            return 3; // owner\n        }\n        if (withdraws[owner] < value.div(10).mul(9)) {\n            return 4; // withdraws[owner] not enough\n        }\n        return 0;\n    }\n    /// @author Bob Clampett\n    /// @notice user withdraw eth    \n    function withdraw() external stopInEmergency {\n        uint value = withdraws[msg.sender];\n        require(withdrawCheck(msg.sender) == 0);\n        msg.sender.transfer(value.div(10).mul(9));\n        delete withdraws[msg.sender];\n        withdraws[owner] = withdraws[owner].sub(value.div(100).mul(85));\n        UserWithdraw(msg.sender, value.div(100).mul(85));\n    }\n    /// @author Bob Clampett\n    /// @notice owner withdraw eth \n    function withdrawByOwner() external stopInEmergency onlyOwner{\n        uint value = withdraws[msg.sender];\n        require(value > 0);\n        require(address(this).balance >= value);\n        withdraws[msg.sender] = 0;\n        msg.sender.transfer(value);\n        UserWithdraw(msg.sender, value);\n    }\n    /// @author Bob Clampett\n    /// @notice check if user win the vote\n    /// @param _gameIndex game index\n    /// @return true if check passed and win value \n    function isVoterWin(bytes32 _gameIndex) public view returns(bool win, uint value) {\n        var (,yesCount,, passed, ended, changed,,) = vs.voteInfos(_gameIndex);\n        var (vote,weight,,) = vs.userVotes(_gameIndex, msg.sender);\n        if(passed && ended) {\n            if (vote || changed) {\n                var (,,,,,totalValue,,,) = wccs.games(_gameIndex);\n                return (true, totalValue.div(20).mul(weight).div(yesCount));\n            } else {\n                return (false, 0);\n            }\n        } else {\n            return (false, 0);\n        }\n    }\n}",
  "sourcePath": "/Users/hanting/workspace/ethereum/truffle/huibaoSC/contracts/WccPlayer.sol",
  "compiler": {
    "name": "solc",
    "version": "0.4.18+commit.9cf6e910.Emscripten.clang"
  },
  "schemaVersion": "1.0.1",
  "updatedAt": "2018-05-08T05:36:47.120Z"
}