{
  "contractName": "WccStorage",
  "abi": [
    {
      "constant": false,
      "inputs": [
        {
          "name": "_gameIndex",
          "type": "bytes32"
        },
        {
          "name": "_scoreIndex",
          "type": "bytes32"
        },
        {
          "name": "user",
          "type": "address"
        }
      ],
      "name": "setUserScorePaid",
      "outputs": [],
      "payable": false,
      "stateMutability": "nonpayable",
      "type": "function"
    },
    {
      "constant": false,
      "inputs": [
        {
          "name": "_index",
          "type": "bytes32"
        },
        {
          "name": "_p1",
          "type": "string"
        },
        {
          "name": "_p2",
          "type": "string"
        }
      ],
      "name": "setPlayer",
      "outputs": [],
      "payable": false,
      "stateMutability": "nonpayable",
      "type": "function"
    },
    {
      "constant": true,
      "inputs": [],
      "name": "gamesUpdated",
      "outputs": [
        {
          "name": "",
          "type": "uint256"
        }
      ],
      "payable": false,
      "stateMutability": "view",
      "type": "function"
    },
    {
      "constant": true,
      "inputs": [
        {
          "name": "_gameIndex",
          "type": "bytes32"
        }
      ],
      "name": "getGameTotalValue",
      "outputs": [
        {
          "name": "totalValue",
          "type": "uint256"
        }
      ],
      "payable": false,
      "stateMutability": "view",
      "type": "function"
    },
    {
      "constant": true,
      "inputs": [
        {
          "name": "_gameIndex",
          "type": "bytes32"
        },
        {
          "name": "_scoreIndex",
          "type": "bytes32"
        }
      ],
      "name": "getGameScoreTotalInfo",
      "outputs": [
        {
          "name": "score",
          "type": "string"
        },
        {
          "name": "totalValue",
          "type": "uint256"
        },
        {
          "name": "totalBets",
          "type": "uint256"
        }
      ],
      "payable": false,
      "stateMutability": "view",
      "type": "function"
    },
    {
      "constant": true,
      "inputs": [
        {
          "name": "",
          "type": "address"
        }
      ],
      "name": "admins",
      "outputs": [
        {
          "name": "",
          "type": "bool"
        }
      ],
      "payable": false,
      "stateMutability": "view",
      "type": "function"
    },
    {
      "constant": false,
      "inputs": [
        {
          "name": "_p1",
          "type": "string"
        },
        {
          "name": "_p2",
          "type": "string"
        },
        {
          "name": "_gameType",
          "type": "uint8"
        },
        {
          "name": "_time",
          "type": "uint256"
        }
      ],
      "name": "setGame",
      "outputs": [],
      "payable": false,
      "stateMutability": "nonpayable",
      "type": "function"
    },
    {
      "constant": false,
      "inputs": [
        {
          "name": "_gameIndex",
          "type": "bytes32"
        },
        {
          "name": "_status",
          "type": "uint8"
        }
      ],
      "name": "setGameStatus",
      "outputs": [],
      "payable": false,
      "stateMutability": "nonpayable",
      "type": "function"
    },
    {
      "constant": true,
      "inputs": [
        {
          "name": "",
          "type": "bytes32"
        },
        {
          "name": "",
          "type": "address"
        },
        {
          "name": "",
          "type": "bytes32"
        }
      ],
      "name": "joinedGamesScoreInfo",
      "outputs": [
        {
          "name": "score",
          "type": "string"
        },
        {
          "name": "value",
          "type": "uint256"
        },
        {
          "name": "paid",
          "type": "bool"
        }
      ],
      "payable": false,
      "stateMutability": "view",
      "type": "function"
    },
    {
      "constant": true,
      "inputs": [
        {
          "name": "_gameIndex",
          "type": "bytes32"
        },
        {
          "name": "_scoreIndex",
          "type": "bytes32"
        }
      ],
      "name": "getUserJoinedGameScoreInfo",
      "outputs": [
        {
          "name": "score",
          "type": "string"
        },
        {
          "name": "value",
          "type": "uint256"
        },
        {
          "name": "paid",
          "type": "bool"
        }
      ],
      "payable": false,
      "stateMutability": "view",
      "type": "function"
    },
    {
      "constant": true,
      "inputs": [
        {
          "name": "_gameIndex",
          "type": "bytes32"
        }
      ],
      "name": "getGameScoreIndexes",
      "outputs": [
        {
          "name": "",
          "type": "bytes32[]"
        }
      ],
      "payable": false,
      "stateMutability": "view",
      "type": "function"
    },
    {
      "constant": false,
      "inputs": [
        {
          "name": "_index",
          "type": "bytes32"
        },
        {
          "name": "_p1",
          "type": "string"
        },
        {
          "name": "_p2",
          "type": "string"
        },
        {
          "name": "_gameType",
          "type": "uint8"
        },
        {
          "name": "_time",
          "type": "uint256"
        }
      ],
      "name": "setGame",
      "outputs": [],
      "payable": false,
      "stateMutability": "nonpayable",
      "type": "function"
    },
    {
      "constant": false,
      "inputs": [
        {
          "name": "admin",
          "type": "address"
        }
      ],
      "name": "setAdmin",
      "outputs": [],
      "payable": false,
      "stateMutability": "nonpayable",
      "type": "function"
    },
    {
      "constant": true,
      "inputs": [
        {
          "name": "_gameIndex",
          "type": "bytes32"
        }
      ],
      "name": "isJoinedGame",
      "outputs": [
        {
          "name": "",
          "type": "bool"
        }
      ],
      "payable": false,
      "stateMutability": "view",
      "type": "function"
    },
    {
      "constant": true,
      "inputs": [],
      "name": "owner",
      "outputs": [
        {
          "name": "",
          "type": "address"
        }
      ],
      "payable": false,
      "stateMutability": "view",
      "type": "function"
    },
    {
      "constant": true,
      "inputs": [
        {
          "name": "",
          "type": "bytes32"
        }
      ],
      "name": "playerNames",
      "outputs": [
        {
          "name": "p1",
          "type": "string"
        },
        {
          "name": "p2",
          "type": "string"
        }
      ],
      "payable": false,
      "stateMutability": "view",
      "type": "function"
    },
    {
      "constant": true,
      "inputs": [
        {
          "name": "",
          "type": "uint256"
        }
      ],
      "name": "gameIndexes",
      "outputs": [
        {
          "name": "",
          "type": "bytes32"
        }
      ],
      "payable": false,
      "stateMutability": "view",
      "type": "function"
    },
    {
      "constant": true,
      "inputs": [
        {
          "name": "_gameIndex",
          "type": "bytes32"
        }
      ],
      "name": "getGameInfo",
      "outputs": [
        {
          "name": "p1",
          "type": "string"
        },
        {
          "name": "p2",
          "type": "string"
        },
        {
          "name": "time",
          "type": "uint256"
        },
        {
          "name": "gameType",
          "type": "uint8"
        },
        {
          "name": "status",
          "type": "uint8"
        },
        {
          "name": "totalValue",
          "type": "uint256"
        },
        {
          "name": "totalBets",
          "type": "uint256"
        }
      ],
      "payable": false,
      "stateMutability": "view",
      "type": "function"
    },
    {
      "constant": false,
      "inputs": [],
      "name": "gamesUpdate",
      "outputs": [],
      "payable": false,
      "stateMutability": "nonpayable",
      "type": "function"
    },
    {
      "constant": true,
      "inputs": [],
      "name": "getUserJoinedGameIndexes",
      "outputs": [
        {
          "name": "",
          "type": "bytes32[]"
        }
      ],
      "payable": false,
      "stateMutability": "view",
      "type": "function"
    },
    {
      "constant": false,
      "inputs": [
        {
          "name": "user",
          "type": "address"
        },
        {
          "name": "value",
          "type": "uint256"
        },
        {
          "name": "gameIndex",
          "type": "bytes32"
        },
        {
          "name": "score",
          "type": "string"
        },
        {
          "name": "scoreIndex",
          "type": "bytes32"
        }
      ],
      "name": "userJoin",
      "outputs": [],
      "payable": false,
      "stateMutability": "nonpayable",
      "type": "function"
    },
    {
      "constant": true,
      "inputs": [],
      "name": "getAllGameIndexes",
      "outputs": [
        {
          "name": "",
          "type": "bytes32[]"
        }
      ],
      "payable": false,
      "stateMutability": "view",
      "type": "function"
    },
    {
      "constant": false,
      "inputs": [
        {
          "name": "_gameIndex",
          "type": "bytes32"
        }
      ],
      "name": "removeGame",
      "outputs": [],
      "payable": false,
      "stateMutability": "nonpayable",
      "type": "function"
    },
    {
      "constant": false,
      "inputs": [
        {
          "name": "newOwner",
          "type": "address"
        }
      ],
      "name": "transferOwnership",
      "outputs": [],
      "payable": false,
      "stateMutability": "nonpayable",
      "type": "function"
    },
    {
      "constant": true,
      "inputs": [
        {
          "name": "",
          "type": "bytes32"
        }
      ],
      "name": "games",
      "outputs": [
        {
          "name": "p1",
          "type": "string"
        },
        {
          "name": "p2",
          "type": "string"
        },
        {
          "name": "time",
          "type": "uint256"
        },
        {
          "name": "gameType",
          "type": "uint8"
        },
        {
          "name": "status",
          "type": "uint8"
        },
        {
          "name": "i",
          "type": "uint256"
        }
      ],
      "payable": false,
      "stateMutability": "view",
      "type": "function"
    },
    {
      "constant": true,
      "inputs": [
        {
          "name": "",
          "type": "bytes32"
        },
        {
          "name": "",
          "type": "bytes32"
        }
      ],
      "name": "gameScoreTotalInfos",
      "outputs": [
        {
          "name": "score",
          "type": "string"
        },
        {
          "name": "totalValue",
          "type": "uint256"
        },
        {
          "name": "totalBets",
          "type": "uint256"
        }
      ],
      "payable": false,
      "stateMutability": "view",
      "type": "function"
    },
    {
      "anonymous": false,
      "inputs": [
        {
          "indexed": true,
          "name": "previousOwner",
          "type": "address"
        },
        {
          "indexed": true,
          "name": "newOwner",
          "type": "address"
        }
      ],
      "name": "OwnershipTransferred",
      "type": "event"
    }
  ],
  "bytecode": "0x6060604052336000806101000a81548173ffffffffffffffffffffffffffffffffffffffff021916908373ffffffffffffffffffffffffffffffffffffffff160217905550612d2a806100536000396000f300606060405260043610610154576000357c0100000000000000000000000000000000000000000000000000000000900463ffffffff16806304aa46471461015957806312e871d1146101ac5780631edfa307146101fb57806321cc6b39146102245780632ddadfdf1461025f578063429b62e51461031a578063449f4d971461036b57806347d3265c146103c25780635368c8e5146103f55780635c33f329146104f05780635dc20c6a146105af5780636da406cb1461062b578063704b6c021461068f5780638b5ff5fd146106c85780638da5cb5b14610707578063937289bf1461075c578063ac5c8d1f146108a2578063b2c553b2146108e1578063b79a13b814610a2c578063cdcb102914610a41578063d22705e614610aab578063e2bc7fdf14610b1b578063eb2b8db014610b85578063f2fde38b14610bac578063f579f88214610be5578063f7cf67d114610d63575b600080fd5b341561016457600080fd5b6101aa6004808035600019169060200190919080356000191690602001909190803573ffffffffffffffffffffffffffffffffffffffff16906020019091905050610e3b565b005b34156101b757600080fd5b6101f960048080356000191690602001909190803590602001908201803590602001919091929080359060200190820180359060200191909192905050610f25565b005b341561020657600080fd5b61020e611085565b6040518082815260200191505060405180910390f35b341561022f57600080fd5b61024960048080356000191690602001909190505061108b565b6040518082815260200191505060405180910390f35b341561026a57600080fd5b61029160048080356000191690602001909190803560001916906020019091905050611154565b6040518080602001848152602001838152602001828103825285818151815260200191508051906020019080838360005b838110156102dd5780820151818401526020810190506102c2565b50505050905090810190601f16801561030a5780820380516001836020036101000a031916815260200191505b5094505050505060405180910390f35b341561032557600080fd5b610351600480803573ffffffffffffffffffffffffffffffffffffffff1690602001909190505061124f565b604051808215151515815260200191505060405180910390f35b341561037657600080fd5b6103c060048080359060200190820180359060200191909192908035906020019082018035906020019190919290803560ff1690602001909190803590602001909190505061126f565b005b34156103cd57600080fd5b6103f360048080356000191690602001909190803560ff16906020019091905050611504565b005b341561040057600080fd5b61044660048080356000191690602001909190803573ffffffffffffffffffffffffffffffffffffffff16906020019091908035600019169060200190919050506115c7565b6040518080602001848152602001831515151581526020018281038252858181546001816001161561010002031660029004815260200191508054600181600116156101000203166002900480156104df5780601f106104b4576101008083540402835291602001916104df565b820191906000526020600020905b8154815290600101906020018083116104c257829003601f168201915b505094505050505060405180910390f35b34156104fb57600080fd5b61052260048080356000191690602001909190803560001916906020019091905050611617565b604051808060200184815260200183151515158152602001828103825285818151815260200191508051906020019080838360005b83811015610572578082015181840152602081019050610557565b50505050905090810190601f16801561059f5780820380516001836020036101000a031916815260200191505b5094505050505060405180910390f35b34156105ba57600080fd5b6105d460048080356000191690602001909190505061175c565b6040518080602001828103825283818151815260200191508051906020019060200280838360005b838110156106175780820151818401526020810190506105fc565b505050509050019250505060405180910390f35b341561063657600080fd5b61068d6004808035600019169060200190919080359060200190820180359060200191909192908035906020019082018035906020019190919290803560ff169060200190919080359060200190919050506117d9565b005b341561069a57600080fd5b6106c6600480803573ffffffffffffffffffffffffffffffffffffffff16906020019091905050611a07565b005b34156106d357600080fd5b6106ed600480803560001916906020019091905050611b10565b604051808215151515815260200191505060405180910390f35b341561071257600080fd5b61071a611bf0565b604051808273ffffffffffffffffffffffffffffffffffffffff1673ffffffffffffffffffffffffffffffffffffffff16815260200191505060405180910390f35b341561076757600080fd5b610781600480803560001916906020019091905050611c15565b60405180806020018060200183810383528581815460018160011615610100020316600290048152602001915080546001816001161561010002031660029004801561080e5780601f106107e35761010080835404028352916020019161080e565b820191906000526020600020905b8154815290600101906020018083116107f157829003601f168201915b50508381038252848181546001816001161561010002031660029004815260200191508054600181600116156101000203166002900480156108915780601f1061086657610100808354040283529160200191610891565b820191906000526020600020905b81548152906001019060200180831161087457829003601f168201915b505094505050505060405180910390f35b34156108ad57600080fd5b6108c36004808035906020019091905050611c37565b60405180826000191660001916815260200191505060405180910390f35b34156108ec57600080fd5b610906600480803560001916906020019091905050611c5b565b60405180806020018060200188815260200187600581111561092457fe5b60ff16815260200186600481111561093857fe5b60ff16815260200185815260200184815260200183810383528a818151815260200191508051906020019080838360005b83811015610984578082015181840152602081019050610969565b50505050905090810190601f1680156109b15780820380516001836020036101000a031916815260200191505b50838103825289818151815260200191508051906020019080838360005b838110156109ea5780820151818401526020810190506109cf565b50505050905090810190601f168015610a175780820380516001836020036101000a031916815260200191505b50995050505050505050505060405180910390f35b3415610a3757600080fd5b610a3f611f58565b005b3415610a4c57600080fd5b610a54611fbc565b6040518080602001828103825283818151815260200191508051906020019060200280838360005b83811015610a97578082015181840152602081019050610a7c565b505050509050019250505060405180910390f35b3415610ab657600080fd5b610b19600480803573ffffffffffffffffffffffffffffffffffffffff169060200190919080359060200190919080356000191690602001909190803590602001908201803590602001919091929080356000191690602001909190505061205b565b005b3415610b2657600080fd5b610b2e61214c565b6040518080602001828103825283818151815260200191508051906020019060200280838360005b83811015610b71578082015181840152602081019050610b56565b505050509050019250505060405180910390f35b3415610b9057600080fd5b610baa6004808035600019169060200190919050506121ae565b005b3415610bb757600080fd5b610be3600480803573ffffffffffffffffffffffffffffffffffffffff1690602001909190505061232e565b005b3415610bf057600080fd5b610c0a600480803560001916906020019091905050612483565b604051808060200180602001878152602001866005811115610c2857fe5b60ff168152602001856004811115610c3c57fe5b60ff168152602001848152602001838103835289818154600181600116156101000203166002900481526020019150805460018160011615610100020316600290048015610ccb5780601f10610ca057610100808354040283529160200191610ccb565b820191906000526020600020905b815481529060010190602001808311610cae57829003601f168201915b5050838103825288818154600181600116156101000203166002900481526020019150805460018160011615610100020316600290048015610d4e5780601f10610d2357610100808354040283529160200191610d4e565b820191906000526020600020905b815481529060010190602001808311610d3157829003601f168201915b50509850505050505050505060405180910390f35b3415610d6e57600080fd5b610d95600480803560001916906020019091908035600019169060200190919050506124d7565b6040518080602001848152602001838152602001828103825285818154600181600116156101000203166002900481526020019150805460018160011615610100020316600290048015610e2a5780601f10610dff57610100808354040283529160200191610e2a565b820191906000526020600020905b815481529060010190602001808311610e0d57829003601f168201915b505094505050505060405180910390f35b600160003373ffffffffffffffffffffffffffffffffffffffff1673ffffffffffffffffffffffffffffffffffffffff16815260200190815260200160002060009054906101000a900460ff161515610e9357600080fd5b600160096000856000191660001916815260200190815260200160002060008373ffffffffffffffffffffffffffffffffffffffff1673ffffffffffffffffffffffffffffffffffffffff1681526020019081526020016000206000846000191660001916815260200190815260200160002060020160006101000a81548160ff021916908315150217905550505050565b6000809054906101000a900473ffffffffffffffffffffffffffffffffffffffff1673ffffffffffffffffffffffffffffffffffffffff163373ffffffffffffffffffffffffffffffffffffffff16141515610f8057600080fd5b600060026000876000191660001916815260200190815260200160002060020154111515610fad57600080fd5b604080519081016040528085858080601f016020809104026020016040519081016040528093929190818152602001838380828437820191505050505050815260200183838080601f016020809104026020016040519081016040528093929190818152602001838380828437820191505050505050815250600360008760001916600019168152602001908152602001600020600082015181600001908051906020019061105d929190612b98565b50602082015181600101908051906020019061107a929190612b98565b509050505050505050565b60055481565b600080600090505b600660008460001916600019168152602001908152602001600020805490508160ff16101561114b5761113c60076000856000191660001916815260200190815260200160002060006006600087600019166000191681526020019081526020016000208460ff1681548110151561110757fe5b90600052602060002090015460001916600019168152602001908152602001600020600101548361250d90919063ffffffff16565b91508080600101915050611093565b81915050919050565b61115c612c18565b60008060006007600087600019166000191681526020019081526020016000206000866000191660001916815260200190815260200160002090508060000181600101548260020154828054600181600116156101000203166002900480601f01602080910402602001604051908101604052809291908181526020018280546001816001161561010002031660029004801561123a5780601f1061120f5761010080835404028352916020019161123a565b820191906000526020600020905b81548152906001019060200180831161121d57829003601f168201915b50505050509250935093509350509250925092565b60016020528060005260406000206000915054906101000a900460ff1681565b6000806000809054906101000a900473ffffffffffffffffffffffffffffffffffffffff1673ffffffffffffffffffffffffffffffffffffffff163373ffffffffffffffffffffffffffffffffffffffff161415156112cd57600080fd5b878787878760405180868680828437820191505084848082843782019150508260058111156112f857fe5b60ff167f0100000000000000000000000000000000000000000000000000000000000000028152600101955050505050506040518091039020915060006002600084600019166000191681526020019081526020016000206002015414151561136057600080fd5b6001600480548060010182816113769190612c2c565b916000526020600020900160008590919091509060001916905503905060c06040519081016040528089898080601f016020809104026020016040519081016040528093929190818152602001838380828437820191505050505050815260200187878080601f016020809104026020016040519081016040528093929190818152602001838380828437820191505050505050815260200184815260200185600581111561142157fe5b81526020016000600481111561143357fe5b8152602001828152506002600084600019166000191681526020019081526020016000206000820151816000019080519060200190611473929190612b98565b506020820151816001019080519060200190611490929190612b98565b506040820151816002015560608201518160030160006101000a81548160ff021916908360058111156114bf57fe5b021790555060808201518160030160016101000a81548160ff021916908360048111156114e857fe5b021790555060a082015181600401559050505050505050505050565b600160003373ffffffffffffffffffffffffffffffffffffffff1673ffffffffffffffffffffffffffffffffffffffff16815260200190815260200160002060009054906101000a900460ff16151561155c57600080fd5b60006002600084600019166000191681526020019081526020016000206002015411156115c3578060026000846000191660001916815260200190815260200160002060030160016101000a81548160ff021916908360048111156115bd57fe5b02179055505b5050565b6009602052826000526040600020602052816000526040600020602052806000526040600020600092509250505080600001908060010154908060020160009054906101000a900460ff16905083565b61161f612c18565b600080600060096000876000191660001916815260200190815260200160002060003373ffffffffffffffffffffffffffffffffffffffff1673ffffffffffffffffffffffffffffffffffffffff1681526020019081526020016000206000866000191660001916815260200190815260200160002090508060000181600101548260020160009054906101000a900460ff16828054600181600116156101000203166002900480601f0160208091040260200160405190810160405280929190818152602001828054600181600116156101000203166002900480156117475780601f1061171c57610100808354040283529160200191611747565b820191906000526020600020905b81548152906001019060200180831161172a57829003601f168201915b50505050509250935093509350509250925092565b611764612c58565b6006600083600019166000191681526020019081526020016000208054806020026020016040519081016040528092919081815260200182805480156117cd57602002820191906000526020600020905b815460001916815260200190600101908083116117b5575b50505050509050919050565b60008060009054906101000a900473ffffffffffffffffffffffffffffffffffffffff1673ffffffffffffffffffffffffffffffffffffffff163373ffffffffffffffffffffffffffffffffffffffff1614151561183657600080fd5b6000600260008a600019166000191681526020019081526020016000206002015414151561186357600080fd5b6001600480548060010182816118799190612c2c565b916000526020600020900160008b90919091509060001916905503905060c06040519081016040528088888080601f016020809104026020016040519081016040528093929190818152602001838380828437820191505050505050815260200186868080601f016020809104026020016040519081016040528093929190818152602001838380828437820191505050505050815260200183815260200184600581111561192457fe5b81526020016000600481111561193657fe5b815260200182815250600260008a600019166000191681526020019081526020016000206000820151816000019080519060200190611976929190612b98565b506020820151816001019080519060200190611993929190612b98565b506040820151816002015560608201518160030160006101000a81548160ff021916908360058111156119c257fe5b021790555060808201518160030160016101000a81548160ff021916908360048111156119eb57fe5b021790555060a082015181600401559050505050505050505050565b6000809054906101000a900473ffffffffffffffffffffffffffffffffffffffff1673ffffffffffffffffffffffffffffffffffffffff163373ffffffffffffffffffffffffffffffffffffffff16141515611a6257600080fd5b600160008273ffffffffffffffffffffffffffffffffffffffff1673ffffffffffffffffffffffffffffffffffffffff16815260200190815260200160002060009054906101000a900460ff161515611b0d5760018060008373ffffffffffffffffffffffffffffffffffffffff1673ffffffffffffffffffffffffffffffffffffffff16815260200190815260200160002060006101000a81548160ff0219169083151502179055505b50565b600080600090505b600860003373ffffffffffffffffffffffffffffffffffffffff1673ffffffffffffffffffffffffffffffffffffffff168152602001908152602001600020805490508160ff161015611be5578260001916600860003373ffffffffffffffffffffffffffffffffffffffff1673ffffffffffffffffffffffffffffffffffffffff1681526020019081526020016000208260ff16815481101515611bb957fe5b906000526020600020900154600019161415611bd85760019150611bea565b8080600101915050611b18565b600091505b50919050565b6000809054906101000a900473ffffffffffffffffffffffffffffffffffffffff1681565b6003602052806000526040600020600091509050806000019080600101905082565b600481815481101515611c4657fe5b90600052602060002090016000915090505481565b611c63612c18565b611c6b612c18565b6000806000806000806000600260008b600019166000191681526020019081526020016000209150600090505b600660008b60001916600019168152602001908152602001600020805490508160ff161015611dd257611d41600760008c600019166000191681526020019081526020016000206000600660008e600019166000191681526020019081526020016000208460ff16815481101515611d0c57fe5b90600052602060002090015460001916600019168152602001908152602001600020600101548561250d90919063ffffffff16565b9350611dc3600760008c600019166000191681526020019081526020016000206000600660008e600019166000191681526020019081526020016000208460ff16815481101515611d8e57fe5b90600052602060002090015460001916600019168152602001908152602001600020600201548461250d90919063ffffffff16565b92508080600101915050611c98565b816000018260010183600201548460030160009054906101000a900460ff168560030160019054906101000a900460ff168888868054600181600116156101000203166002900480601f016020809104026020016040519081016040528092919081815260200182805460018160011615610100020316600290048015611e9a5780601f10611e6f57610100808354040283529160200191611e9a565b820191906000526020600020905b815481529060010190602001808311611e7d57829003601f168201915b50505050509650858054600181600116156101000203166002900480601f016020809104026020016040519081016040528092919081815260200182805460018160011615610100020316600290048015611f365780601f10611f0b57610100808354040283529160200191611f36565b820191906000526020600020905b815481529060010190602001808311611f1957829003601f168201915b5050505050955098509850985098509850985098505050919395979092949650565b6000809054906101000a900473ffffffffffffffffffffffffffffffffffffffff1673ffffffffffffffffffffffffffffffffffffffff163373ffffffffffffffffffffffffffffffffffffffff16141515611fb357600080fd5b42600581905550565b611fc4612c58565b600860003373ffffffffffffffffffffffffffffffffffffffff1673ffffffffffffffffffffffffffffffffffffffff16815260200190815260200160002080548060200260200160405190810160405280929190818152602001828054801561205157602002820191906000526020600020905b81546000191681526020019060010190808311612039575b5050505050905090565b600160003373ffffffffffffffffffffffffffffffffffffffff1673ffffffffffffffffffffffffffffffffffffffff16815260200190815260200160002060009054906101000a900460ff1615156120b357600080fd5b6120bd848261252b565b6120fb848285858080601f016020809104026020016040519081016040528093929190818152602001838380828437820191505050505050886125b8565b6121058685612755565b61214486858386868080601f016020809104026020016040519081016040528093929190818152602001838380828437820191505050505050896128a8565b505050505050565b612154612c58565b60048054806020026020016040519081016040528092919081815260200182805480156121a457602002820191906000526020600020905b8154600019168152602001906001019080831161218c575b5050505050905090565b60008060009054906101000a900473ffffffffffffffffffffffffffffffffffffffff1673ffffffffffffffffffffffffffffffffffffffff163373ffffffffffffffffffffffffffffffffffffffff1614151561220b57600080fd5b60006002600084600019166000191681526020019081526020016000206002015411151561223857600080fd5b6000600481111561224557fe5b60026000846000191660001916815260200190815260200160002060030160019054906101000a900460ff16600481111561227c57fe5b14151561228857600080fd5b600260008360001916600019168152602001908152602001600020600401549050600260008360001916600019168152602001908152602001600020600080820160006122d59190612c6c565b6001820160006122e59190612c6c565b60028201600090556003820160006101000a81549060ff02191690556003820160016101000a81549060ff02191690556004820160009055505061232a600482612b0b565b5050565b6000809054906101000a900473ffffffffffffffffffffffffffffffffffffffff1673ffffffffffffffffffffffffffffffffffffffff163373ffffffffffffffffffffffffffffffffffffffff1614151561238957600080fd5b600073ffffffffffffffffffffffffffffffffffffffff168173ffffffffffffffffffffffffffffffffffffffff16141515156123c557600080fd5b8073ffffffffffffffffffffffffffffffffffffffff166000809054906101000a900473ffffffffffffffffffffffffffffffffffffffff1673ffffffffffffffffffffffffffffffffffffffff167f8be0079c531659141344cd1fd0a4f28419497f9722a3daafe3b4186f6b6457e060405160405180910390a3806000806101000a81548173ffffffffffffffffffffffffffffffffffffffff021916908373ffffffffffffffffffffffffffffffffffffffff16021790555050565b6002602052806000526040600020600091509050806000019080600101908060020154908060030160009054906101000a900460ff16908060030160019054906101000a900460ff16908060040154905086565b60076020528160005260406000206020528060005260406000206000915091505080600001908060010154908060020154905083565b600080828401905083811015151561252157fe5b8091505092915050565b6000600760008460001916600019168152602001908152602001600020600083600019166000191681526020019081526020016000206002015414156125b45760066000836000191660001916815260200190815260200160002080548060010182816125989190612c2c565b9160005260206000209001600083909190915090600019169055505b5050565b6000600760008660001916600019168152602001908152602001600020600085600019166000191681526020019081526020016000206002015411156126c95761264281600760008760001916600019168152602001908152602001600020600086600019166000191681526020019081526020016000206001015461250d90919063ffffffff16565b6007600086600019166000191681526020019081526020016000206000856000191660001916815260200190815260200160002060010181905550600760008560001916600019168152602001908152602001600020600084600019166000191681526020019081526020016000206002016000815480929190600101919050555061274f565b6060604051908101604052808381526020018281526020016001815250600760008660001916600019168152602001908152602001600020600085600019166000191681526020019081526020016000206000820151816000019080519060200190612736929190612b98565b5060208201518160010155604082015181600201559050505b50505050565b60008060009150600090505b600860008573ffffffffffffffffffffffffffffffffffffffff1673ffffffffffffffffffffffffffffffffffffffff168152602001908152602001600020805490508160ff16101561282e578260001916600860008673ffffffffffffffffffffffffffffffffffffffff1673ffffffffffffffffffffffffffffffffffffffff1681526020019081526020016000208260ff1681548110151561280257fe5b906000526020600020900154600019161415612821576001915061282e565b8080600101915050612761565b8115156128a257600860008573ffffffffffffffffffffffffffffffffffffffff1673ffffffffffffffffffffffffffffffffffffffff16815260200190815260200160002080548060010182816128869190612c2c565b9160005260206000209001600085909190915090600019169055505b50505050565b600060096000866000191660001916815260200190815260200160002060008773ffffffffffffffffffffffffffffffffffffffff1673ffffffffffffffffffffffffffffffffffffffff16815260200190815260200160002060008560001916600019168152602001908152602001600020600101541115612a29576129ac8160096000876000191660001916815260200190815260200160002060008873ffffffffffffffffffffffffffffffffffffffff1673ffffffffffffffffffffffffffffffffffffffff168152602001908152602001600020600086600019166000191681526020019081526020016000206001015461250d90919063ffffffff16565b60096000866000191660001916815260200190815260200160002060008773ffffffffffffffffffffffffffffffffffffffff1673ffffffffffffffffffffffffffffffffffffffff1681526020019081526020016000206000856000191660001916815260200190815260200160002060010181905550612b04565b6060604051908101604052808381526020018281526020016000151581525060096000866000191660001916815260200190815260200160002060008773ffffffffffffffffffffffffffffffffffffffff1673ffffffffffffffffffffffffffffffffffffffff168152602001908152602001600020600085600019166000191681526020019081526020016000206000820151816000019080519060200190612ad5929190612b98565b506020820151816001015560408201518160020160006101000a81548160ff0219169083151502179055509050505b5050505050565b6000828054905082101515612b1f57612b93565b8190505b6001838054905003811015612b7d578260018201815481101515612b4357fe5b9060005260206000209001548382815481101515612b5d57fe5b906000526020600020900181600019169055508080600101915050612b23565b82805480919060019003612b919190612c2c565b505b505050565b828054600181600116156101000203166002900490600052602060002090601f016020900481019282601f10612bd957805160ff1916838001178555612c07565b82800160010185558215612c07579182015b82811115612c06578251825591602001919060010190612beb565b5b509050612c149190612cb4565b5090565b602060405190810160405280600081525090565b815481835581811511612c5357818360005260206000209182019101612c529190612cd9565b5b505050565b602060405190810160405280600081525090565b50805460018160011615610100020316600290046000825580601f10612c925750612cb1565b601f016020900490600052602060002090810190612cb09190612cb4565b5b50565b612cd691905b80821115612cd2576000816000905550600101612cba565b5090565b90565b612cfb91905b80821115612cf7576000816000905550600101612cdf565b5090565b905600a165627a7a7230582035cf8a18e5bfb0f3e6993581dd7c8518c042c9f482b064a622d2652e84c176d40029",
  "source": "pragma solidity ^0.4.18;\nimport '../node_modules/zeppelin-solidity/contracts/ownership/Ownable.sol';\nimport '../node_modules/zeppelin-solidity/contracts/math/SafeMath.sol';\ncontract WccStorage is Ownable {\n    using SafeMath for uint256;\n    enum GameType { First_stage, Round_of_16, Quarter_finals, Semi_finals, For_third, Final }\n    enum GameStatus { Standby, Playing, Voting, Paying, End}\n    mapping(address => bool) public admins;\n    modifier onlyAdmin() {\n        require(admins[msg.sender]);\n        _;\n    }\n    function setAdmin(address admin) public onlyOwner {\n        if (!admins[admin]) {\n            admins[admin] = true;\n        }\n    }\n    struct GameInfo {\n        string p1;\n        string p2;\n        uint time;\n        GameType gameType;\n        GameStatus status;\n        uint i;\n    }\n    struct PlayerName {\n        string p1;\n        string p2;\n    }\n    mapping(bytes32 => GameInfo) public games;\n    mapping(bytes32 => PlayerName) public playerNames;\n    bytes32[] public gameIndexes;\n    uint public gamesUpdated;\n\n    struct ScoreTotal {\n        string score;\n        uint totalValue;\n        uint totalBets;\n    }\n    // gameIndex => scoreIndex[]\n    mapping(bytes32 => bytes32[]) gameScoreIndexes;\n    // gameIndex => scoreIndex => scoreTotalInfo\n    mapping(bytes32 => mapping(bytes32 => ScoreTotal)) public gameScoreTotalInfos;\n    function setGame(string _p1, string _p2, GameType _gameType, uint _time) external onlyOwner {\n        bytes32 index = keccak256(_p1, _p2, _gameType);\n        require(games[index].time == 0);\n        uint i = gameIndexes.push(index) - 1;\n        games[index] = GameInfo({\n            p1: _p1,\n            p2: _p2,\n            time: _time,\n            gameType: _gameType,\n            status: GameStatus.Standby,\n            i: i\n        });\n    }\n    function gamesUpdate() external onlyOwner {\n        gamesUpdated = block.timestamp;\n    }\n    function setGame(bytes32 _index, string _p1, string _p2, GameType _gameType, uint _time) external onlyOwner {\n        require(games[_index].time == 0);\n        uint i = gameIndexes.push(_index) - 1;\n        games[_index] = GameInfo({\n            p1: _p1,\n            p2: _p2,\n            time: _time,\n            gameType: _gameType,\n            status: GameStatus.Standby,\n            i: i\n        });\n    }\n    function setPlayer(bytes32 _index, string _p1, string _p2) external onlyOwner {\n        require(games[_index].time > 0);\n        playerNames[_index] = PlayerName({\n            p1: _p1,\n            p2: _p2\n        });\n    }\n    function arrayRemove(bytes32[] storage array, uint index) internal {\n        if (index >= array.length) return;\n        for (uint i = index; i<array.length-1; i++){\n            array[i] = array[i+1];\n        }\n        array.length--;\n    }\n    function removeGame(bytes32 _gameIndex) external onlyOwner {\n        require(games[_gameIndex].time > 0);\n        require(games[_gameIndex].status == GameStatus.Standby);\n        uint i = games[_gameIndex].i;\n        delete games[_gameIndex];\n        arrayRemove(gameIndexes, i);\n    }\n    mapping(address => bytes32[]) userJoinedGameIndexes;\n    struct Score {\n        string score;\n        uint value;\n        bool paid;\n    }\n    // mapping(bytes32 => mapping(address => bool)) public joinedGames;\n    // mapping(bytes32 => mapping(address => bytes32[])) public joinedGamesScoreIndexes;\n    mapping(bytes32 => mapping(address => mapping(bytes32 => Score))) public joinedGamesScoreInfo;\n\n    \n    function userJoin(address user, uint value, bytes32 gameIndex, string score, bytes32 scoreIndex) external onlyAdmin {\n        // bytes32 scoreIndex = keccak256(score);\n\n        setGameScoreTotalIndex(gameIndex, scoreIndex);\n        setGameScoreTotalInfo(gameIndex, scoreIndex, score, value);\n        setUserJoinedGameIndexes(user, gameIndex);\n        // setJoinedGame(user, gameIndex);\n        // setJoinedGameScoreIndex(user, gameIndex, scoreIndex);\n        setJoinedGameScoreInfo(user, gameIndex, scoreIndex, score, value);\n    }\n\n    function setGameScoreTotalIndex(bytes32 _gameIndex, bytes32 _scoreIndex) private {\n        if (gameScoreTotalInfos[_gameIndex][_scoreIndex].totalBets == 0) {\n            gameScoreIndexes[_gameIndex].push(_scoreIndex);\n        }\n    }\n    function setGameScoreTotalInfo(bytes32 _gameIndex, bytes32 _scoreIndex, string _score, uint _value) private {\n        if (gameScoreTotalInfos[_gameIndex][_scoreIndex].totalBets > 0) {\n            gameScoreTotalInfos[_gameIndex][_scoreIndex].totalValue = gameScoreTotalInfos[_gameIndex][_scoreIndex].totalValue.add(_value);\n            gameScoreTotalInfos[_gameIndex][_scoreIndex].totalBets ++;\n        } else {\n            gameScoreTotalInfos[_gameIndex][_scoreIndex] = ScoreTotal({\n                score: _score,\n                totalValue: _value,\n                totalBets: 1\n            });\n        }\n        // games[_gameIndex].totalValue = games[_gameIndex].totalValue.add(_value);\n        // games[_gameIndex].totalBets ++; \n    }\n    function setUserJoinedGameIndexes(address _user, bytes32 _gameIndex) private {\n        bool exist = false;\n        for (uint8 index = 0; index < userJoinedGameIndexes[_user].length; index ++) {\n            if (userJoinedGameIndexes[_user][index] == _gameIndex) {\n                exist = true;\n                break;\n            }\n        }\n        if(!exist) {\n            userJoinedGameIndexes[_user].push(_gameIndex);\n        }\n    }\n    // function setJoinedGame(address _user, bytes32 _gameIndex) private {\n    //     if(!joinedGames[_gameIndex][_user]) {\n    //         joinedGames[_gameIndex][_user] = true;\n    //     }\n    // }\n    // function setJoinedGameScoreIndex(address _user, bytes32 _gameIndex, bytes32 _scoreIndex) private {\n    //     if(joinedGamesScoreInfo[_gameIndex][_user][_scoreIndex].value == 0) {\n    //         joinedGamesScoreIndexes[_gameIndex][_user].push(_scoreIndex);\n    //     }\n    // }\n    function setJoinedGameScoreInfo(address _user, bytes32 _gameIndex, bytes32 _scoreIndex, string _score, uint _value) internal {\n        if(joinedGamesScoreInfo[_gameIndex][_user][_scoreIndex].value > 0) {\n            joinedGamesScoreInfo[_gameIndex][_user][_scoreIndex].value = joinedGamesScoreInfo[_gameIndex][_user][_scoreIndex].value.add(_value);\n        } else {\n            joinedGamesScoreInfo[_gameIndex][_user][_scoreIndex] = Score({\n                score: _score,\n                value: _value,\n                paid: false\n            });\n        }\n    }\n    function setGameStatus(bytes32 _gameIndex, GameStatus _status) external onlyAdmin {\n        if (games[_gameIndex].time > 0) {\n            games[_gameIndex].status = _status;\n        }\n    }\n    function getAllGameIndexes() public view returns(bytes32[]) {\n        return gameIndexes;\n    }\n    function getGameInfo(bytes32 _gameIndex) public view returns(string p1, string p2, uint time, GameType gameType, GameStatus status, uint totalValue, uint totalBets) {\n        GameInfo storage gameInfo = games[_gameIndex];\n        for (uint8 index = 0; index < gameScoreIndexes[_gameIndex].length; index ++ ) {\n            totalValue = totalValue.add(gameScoreTotalInfos[_gameIndex][gameScoreIndexes[_gameIndex][index]].totalValue);\n            totalBets = totalBets.add(gameScoreTotalInfos[_gameIndex][gameScoreIndexes[_gameIndex][index]].totalBets);\n        }\n        return (gameInfo.p1, gameInfo.p2, gameInfo.time, gameInfo.gameType, gameInfo.status, totalValue, totalBets);\n    }\n    function getGameTotalValue(bytes32 _gameIndex) public view returns(uint totalValue) {\n        for (uint8 index = 0; index < gameScoreIndexes[_gameIndex].length; index ++ ) {\n            totalValue = totalValue.add(gameScoreTotalInfos[_gameIndex][gameScoreIndexes[_gameIndex][index]].totalValue);\n        }\n        return totalValue;\n    }\n    function getGameScoreIndexes(bytes32 _gameIndex) public view returns(bytes32[]) {\n        return gameScoreIndexes[_gameIndex];\n    }\n    function getGameScoreTotalInfo(bytes32 _gameIndex, bytes32 _scoreIndex) public view returns(string score, uint totalValue, uint totalBets) {\n        ScoreTotal storage scoreTotal = gameScoreTotalInfos[_gameIndex][_scoreIndex];\n        return (scoreTotal.score, scoreTotal.totalValue, scoreTotal.totalBets);\n    }\n    function getUserJoinedGameIndexes() public view returns(bytes32[]){\n        return userJoinedGameIndexes[msg.sender];\n    }\n    function isJoinedGame(bytes32 _gameIndex) public view returns(bool) {\n        for (uint8 index = 0; index < userJoinedGameIndexes[msg.sender].length; index ++) {\n            if (userJoinedGameIndexes[msg.sender][index] == _gameIndex) {\n                return true;\n            }\n        }\n        return false;\n    }\n    // function getUserJoinedGameScoreIndexes(bytes32 _gameIndex) public view returns(bytes32[]) {\n    //     return joinedGamesScoreIndexes[_gameIndex][msg.sender];\n    // }\n    function getUserJoinedGameScoreInfo(bytes32 _gameIndex, bytes32 _scoreIndex) public view returns(string score, uint value, bool paid) {\n        Score storage scoreInfo = joinedGamesScoreInfo[_gameIndex][msg.sender][_scoreIndex];\n        return (scoreInfo.score, scoreInfo.value, scoreInfo.paid);\n    }\n    function setUserScorePaid(bytes32 _gameIndex, bytes32 _scoreIndex, address user) external onlyAdmin {\n        joinedGamesScoreInfo[_gameIndex][user][_scoreIndex].paid = true;\n    }\n}\n",
  "sourcePath": "/Users/hanting/workspace/ethereum/truffle/huibaoSC/contracts/WccStorage.sol",
  "compiler": {
    "name": "solc",
    "version": "0.4.18+commit.9cf6e910.Emscripten.clang"
  },
  "schemaVersion": "1.0.1",
  "updatedAt": "2018-05-29T03:06:32.374Z"
}