{
  "contractName": "WccVoter",
  "abi": [
    {
      "constant": false,
      "inputs": [
        {
          "name": "_gameIndex",
          "type": "bytes32"
        }
      ],
      "name": "endVoteByAdmin",
      "outputs": [],
      "payable": false,
      "stateMutability": "nonpayable",
      "type": "function"
    },
    {
      "constant": false,
      "inputs": [
        {
          "name": "tokenAddress",
          "type": "address"
        }
      ],
      "name": "setToken",
      "outputs": [],
      "payable": false,
      "stateMutability": "nonpayable",
      "type": "function"
    },
    {
      "constant": true,
      "inputs": [
        {
          "name": "_gameIndex",
          "type": "bytes32"
        }
      ],
      "name": "endVoteCheck",
      "outputs": [
        {
          "name": "",
          "type": "uint256"
        }
      ],
      "payable": false,
      "stateMutability": "view",
      "type": "function"
    },
    {
      "constant": false,
      "inputs": [
        {
          "name": "_gameIndex",
          "type": "bytes32"
        }
      ],
      "name": "setGameStart",
      "outputs": [],
      "payable": false,
      "stateMutability": "nonpayable",
      "type": "function"
    },
    {
      "constant": true,
      "inputs": [
        {
          "name": "",
          "type": "bytes32"
        }
      ],
      "name": "canEnd",
      "outputs": [
        {
          "name": "",
          "type": "bool"
        }
      ],
      "payable": false,
      "stateMutability": "view",
      "type": "function"
    },
    {
      "constant": true,
      "inputs": [
        {
          "name": "_gameIndex",
          "type": "bytes32"
        }
      ],
      "name": "canEndCheck",
      "outputs": [
        {
          "name": "",
          "type": "uint256"
        }
      ],
      "payable": false,
      "stateMutability": "view",
      "type": "function"
    },
    {
      "constant": false,
      "inputs": [],
      "name": "emergencyStop",
      "outputs": [],
      "payable": false,
      "stateMutability": "nonpayable",
      "type": "function"
    },
    {
      "constant": true,
      "inputs": [],
      "name": "stopped",
      "outputs": [
        {
          "name": "",
          "type": "bool"
        }
      ],
      "payable": false,
      "stateMutability": "view",
      "type": "function"
    },
    {
      "constant": false,
      "inputs": [
        {
          "name": "csAddress",
          "type": "address"
        }
      ],
      "name": "setWccs",
      "outputs": [],
      "payable": false,
      "stateMutability": "nonpayable",
      "type": "function"
    },
    {
      "constant": true,
      "inputs": [
        {
          "name": "_gameIndex",
          "type": "bytes32"
        }
      ],
      "name": "endVoteByAdminCheck",
      "outputs": [
        {
          "name": "",
          "type": "uint256"
        }
      ],
      "payable": false,
      "stateMutability": "view",
      "type": "function"
    },
    {
      "constant": false,
      "inputs": [
        {
          "name": "_gameIndex",
          "type": "bytes32"
        },
        {
          "name": "_result",
          "type": "string"
        }
      ],
      "name": "changeResult",
      "outputs": [],
      "payable": false,
      "stateMutability": "nonpayable",
      "type": "function"
    },
    {
      "constant": true,
      "inputs": [
        {
          "name": "",
          "type": "address"
        }
      ],
      "name": "judges",
      "outputs": [
        {
          "name": "",
          "type": "bool"
        }
      ],
      "payable": false,
      "stateMutability": "view",
      "type": "function"
    },
    {
      "constant": false,
      "inputs": [
        {
          "name": "vsAddress",
          "type": "address"
        }
      ],
      "name": "setVs",
      "outputs": [],
      "payable": false,
      "stateMutability": "nonpayable",
      "type": "function"
    },
    {
      "constant": true,
      "inputs": [],
      "name": "owner",
      "outputs": [
        {
          "name": "",
          "type": "address"
        }
      ],
      "payable": false,
      "stateMutability": "view",
      "type": "function"
    },
    {
      "constant": false,
      "inputs": [
        {
          "name": "_gameIndex",
          "type": "bytes32"
        },
        {
          "name": "yesOrNo",
          "type": "bool"
        }
      ],
      "name": "vote",
      "outputs": [],
      "payable": false,
      "stateMutability": "nonpayable",
      "type": "function"
    },
    {
      "constant": false,
      "inputs": [
        {
          "name": "judge",
          "type": "address"
        }
      ],
      "name": "setJudge",
      "outputs": [],
      "payable": false,
      "stateMutability": "nonpayable",
      "type": "function"
    },
    {
      "constant": false,
      "inputs": [
        {
          "name": "_gameIndex",
          "type": "bytes32"
        }
      ],
      "name": "endVote",
      "outputs": [],
      "payable": false,
      "stateMutability": "nonpayable",
      "type": "function"
    },
    {
      "constant": true,
      "inputs": [
        {
          "name": "_gameIndex",
          "type": "bytes32"
        }
      ],
      "name": "voteCheck",
      "outputs": [
        {
          "name": "",
          "type": "uint256"
        }
      ],
      "payable": false,
      "stateMutability": "view",
      "type": "function"
    },
    {
      "constant": true,
      "inputs": [
        {
          "name": "_gameIndex",
          "type": "bytes32"
        }
      ],
      "name": "startVoteCheck",
      "outputs": [
        {
          "name": "",
          "type": "uint256"
        }
      ],
      "payable": false,
      "stateMutability": "view",
      "type": "function"
    },
    {
      "constant": false,
      "inputs": [],
      "name": "start",
      "outputs": [],
      "payable": false,
      "stateMutability": "nonpayable",
      "type": "function"
    },
    {
      "constant": false,
      "inputs": [
        {
          "name": "_gameIndex",
          "type": "bytes32"
        },
        {
          "name": "_result",
          "type": "string"
        }
      ],
      "name": "startVote",
      "outputs": [],
      "payable": false,
      "stateMutability": "nonpayable",
      "type": "function"
    },
    {
      "constant": false,
      "inputs": [
        {
          "name": "_gameIndex",
          "type": "bytes32"
        }
      ],
      "name": "setCanEnd",
      "outputs": [],
      "payable": false,
      "stateMutability": "nonpayable",
      "type": "function"
    },
    {
      "constant": true,
      "inputs": [
        {
          "name": "user",
          "type": "address"
        }
      ],
      "name": "isJudge",
      "outputs": [
        {
          "name": "",
          "type": "bool"
        }
      ],
      "payable": false,
      "stateMutability": "view",
      "type": "function"
    },
    {
      "constant": false,
      "inputs": [
        {
          "name": "newOwner",
          "type": "address"
        }
      ],
      "name": "transferOwnership",
      "outputs": [],
      "payable": false,
      "stateMutability": "nonpayable",
      "type": "function"
    },
    {
      "inputs": [
        {
          "name": "wccsAddress",
          "type": "address"
        },
        {
          "name": "vsAddress",
          "type": "address"
        },
        {
          "name": "tokenAddress",
          "type": "address"
        }
      ],
      "payable": false,
      "stateMutability": "nonpayable",
      "type": "constructor"
    },
    {
      "anonymous": false,
      "inputs": [
        {
          "indexed": true,
          "name": "_gameIndex",
          "type": "bytes32"
        },
        {
          "indexed": false,
          "name": "_result",
          "type": "string"
        }
      ],
      "name": "StartVote",
      "type": "event"
    },
    {
      "anonymous": false,
      "inputs": [
        {
          "indexed": true,
          "name": "_gameIndex",
          "type": "bytes32"
        },
        {
          "indexed": false,
          "name": "_result",
          "type": "string"
        }
      ],
      "name": "ChangeVote",
      "type": "event"
    },
    {
      "anonymous": false,
      "inputs": [
        {
          "indexed": true,
          "name": "_gameIndex",
          "type": "bytes32"
        },
        {
          "indexed": false,
          "name": "yesOrNo",
          "type": "bool"
        },
        {
          "indexed": false,
          "name": "user",
          "type": "address"
        }
      ],
      "name": "UserVote",
      "type": "event"
    },
    {
      "anonymous": false,
      "inputs": [
        {
          "indexed": false,
          "name": "_gameIndex",
          "type": "bytes32"
        }
      ],
      "name": "EndVote",
      "type": "event"
    },
    {
      "anonymous": false,
      "inputs": [
        {
          "indexed": true,
          "name": "previousOwner",
          "type": "address"
        },
        {
          "indexed": true,
          "name": "newOwner",
          "type": "address"
        }
      ],
      "name": "OwnershipTransferred",
      "type": "event"
    }
  ],
  "bytecode": "0x6060604052341561000f57600080fd5b604051606080612a2a8339810160405280805190602001909190805190602001909190805190602001909190505033336000806101000a81548173ffffffffffffffffffffffffffffffffffffffff021916908373ffffffffffffffffffffffffffffffffffffffff16021790555080600160006101000a81548173ffffffffffffffffffffffffffffffffffffffff021916908373ffffffffffffffffffffffffffffffffffffffff1602179055506000600160146101000a81548160ff0219169083151502179055505082600260006101000a81548173ffffffffffffffffffffffffffffffffffffffff021916908373ffffffffffffffffffffffffffffffffffffffff16021790555081600360006101000a81548173ffffffffffffffffffffffffffffffffffffffff021916908373ffffffffffffffffffffffffffffffffffffffff16021790555080600460006101000a81548173ffffffffffffffffffffffffffffffffffffffff021916908373ffffffffffffffffffffffffffffffffffffffff16021790555050505061287a806101b06000396000f30060606040526004361061013e576000357c0100000000000000000000000000000000000000000000000000000000900463ffffffff168063029ddc8314610143578063144fa6d71461016a5780631919a5f3146101a35780634a847247146101de5780634e4200da146102055780635573afc21461024457806363a599a41461027f57806375f12b21146102945780637813dbd9146102c15780637a87803f146102fa57806381797a98146103355780638422a2f21461037057806388b157ac146103c15780638da5cb5b146103fa5780639f2ce6781461044f578063b157c5cd14610481578063bb123803146104ba578063bd8fc8b8146104e1578063be6aa9b81461051c578063be9a655514610557578063bf4ddf5c1461056c578063ca4b780a146105a7578063ed896d66146105ce578063f2fde38b1461061f575b600080fd5b341561014e57600080fd5b610168600480803560001916906020019091905050610658565b005b341561017557600080fd5b6101a1600480803573ffffffffffffffffffffffffffffffffffffffff16906020019091905050610904565b005b34156101ae57600080fd5b6101c86004808035600019169060200190919050506109a3565b6040518082815260200191505060405180910390f35b34156101e957600080fd5b610203600480803560001916906020019091905050610c36565b005b341561021057600080fd5b61022a600480803560001916906020019091905050610dc7565b604051808215151515815260200191505060405180910390f35b341561024f57600080fd5b610269600480803560001916906020019091905050610de7565b6040518082815260200191505060405180910390f35b341561028a57600080fd5b61029261102b565b005b341561029f57600080fd5b6102a76110a3565b604051808215151515815260200191505060405180910390f35b34156102cc57600080fd5b6102f8600480803573ffffffffffffffffffffffffffffffffffffffff169060200190919050506110b6565b005b341561030557600080fd5b61031f600480803560001916906020019091905050611155565b6040518082815260200191505060405180910390f35b341561034057600080fd5b61036e6004808035600019169060200190919080359060200190820180359060200191909192905050611399565b005b341561037b57600080fd5b6103a7600480803573ffffffffffffffffffffffffffffffffffffffff169060200190919050506115a4565b604051808215151515815260200191505060405180910390f35b34156103cc57600080fd5b6103f8600480803573ffffffffffffffffffffffffffffffffffffffff169060200190919050506115c4565b005b341561040557600080fd5b61040d611663565b604051808273ffffffffffffffffffffffffffffffffffffffff1673ffffffffffffffffffffffffffffffffffffffff16815260200191505060405180910390f35b341561045a57600080fd5b61047f6004808035600019169060200190919080351515906020019091905050611688565b005b341561048c57600080fd5b6104b8600480803573ffffffffffffffffffffffffffffffffffffffff1690602001909190505061192a565b005b34156104c557600080fd5b6104df600480803560001916906020019091905050611a34565b005b34156104ec57600080fd5b610506600480803560001916906020019091905050611c31565b6040518082815260200191505060405180910390f35b341561052757600080fd5b6105416004808035600019169060200190919050506120dc565b6040518082815260200191505060405180910390f35b341561056257600080fd5b61056a61220a565b005b341561057757600080fd5b6105a56004808035600019169060200190919080359060200190820180359060200191909192905050612283565b005b34156105b257600080fd5b6105cc600480803560001916906020019091905050612551565b005b34156105d957600080fd5b610605600480803573ffffffffffffffffffffffffffffffffffffffff1690602001909190505061266a565b604051808215151515815260200191505060405180910390f35b341561062a57600080fd5b610656600480803573ffffffffffffffffffffffffffffffffffffffff169060200190919050506126c0565b005b600160149054906101000a900460ff1615151561067457600080fd5b600660003373ffffffffffffffffffffffffffffffffffffffff1673ffffffffffffffffffffffffffffffffffffffff16815260200190815260200160002060009054906101000a900460ff168061071857506000809054906101000a900473ffffffffffffffffffffffffffffffffffffffff1673ffffffffffffffffffffffffffffffffffffffff163373ffffffffffffffffffffffffffffffffffffffff16145b151561072357600080fd5b600061072e82611155565b14151561073a57600080fd5b600260009054906101000a900473ffffffffffffffffffffffffffffffffffffffff1673ffffffffffffffffffffffffffffffffffffffff166347d3265c8260036040518363ffffffff167c01000000000000000000000000000000000000000000000000000000000281526004018083600019166000191681526020018260048111156107c457fe5b60ff16815260200192505050600060405180830381600087803b15156107e957600080fd5b6102c65a03f115156107fa57600080fd5b505050600360009054906101000a900473ffffffffffffffffffffffffffffffffffffffff1673ffffffffffffffffffffffffffffffffffffffff16633f21eefd826001806040518463ffffffff167c010000000000000000000000000000000000000000000000000000000002815260040180846000191660001916815260200183151515158152602001821515151581526020019350505050600060405180830381600087803b15156108ae57600080fd5b6102c65a03f115156108bf57600080fd5b5050507fe9e6dbf89d1d699e9b3f4480a8d9ce6cb0048776d5b003d83ee459e4c85046928160405180826000191660001916815260200191505060405180910390a150565b6000809054906101000a900473ffffffffffffffffffffffffffffffffffffffff1673ffffffffffffffffffffffffffffffffffffffff163373ffffffffffffffffffffffffffffffffffffffff1614151561095f57600080fd5b80600460006101000a81548173ffffffffffffffffffffffffffffffffffffffff021916908373ffffffffffffffffffffffffffffffffffffffff16021790555050565b6000806000806000600260009054906101000a900473ffffffffffffffffffffffffffffffffffffffff1673ffffffffffffffffffffffffffffffffffffffff1663f579f88287600060405160c001526040518263ffffffff167c010000000000000000000000000000000000000000000000000000000002815260040180826000191660001916815260200191505060c060405180830381600087803b1515610a4c57600080fd5b6102c65a03f11515610a5d57600080fd5b5050506040518051906020018051906020018051906020018051906020018051906020018051905050965050955050506000841415610a9f5760019450610c2d565b60026004811115610aac57fe5b836004811115610ab857fe5b141515610ac85760029450610c2d565b60056000876000191660001916815260200190815260200160002060009054906101000a900460ff161515610b005760039450610c2d565b600360009054906101000a900473ffffffffffffffffffffffffffffffffffffffff1673ffffffffffffffffffffffffffffffffffffffff1663385afd8c87600060405161010001526040518263ffffffff167c010000000000000000000000000000000000000000000000000000000002815260040180826000191660001916815260200191505061010060405180830381600087803b1515610ba357600080fd5b6102c65a03f11515610bb457600080fd5b5050506040518051906020018051906020018051906020018051906020018051906020018051906020018051906020018051905050505050509250925050610c18600a610c0a838561281590919063ffffffff16565b61283390919063ffffffff16565b821015610c285760049450610c2d565b600094505b50505050919050565b600160149054906101000a900460ff16151515610c5257600080fd5b600660003373ffffffffffffffffffffffffffffffffffffffff1673ffffffffffffffffffffffffffffffffffffffff16815260200190815260200160002060009054906101000a900460ff1680610cf657506000809054906101000a900473ffffffffffffffffffffffffffffffffffffffff1673ffffffffffffffffffffffffffffffffffffffff163373ffffffffffffffffffffffffffffffffffffffff16145b1515610d0157600080fd5b600260009054906101000a900473ffffffffffffffffffffffffffffffffffffffff1673ffffffffffffffffffffffffffffffffffffffff166347d3265c8260016040518363ffffffff167c0100000000000000000000000000000000000000000000000000000000028152600401808360001916600019168152602001826004811115610d8b57fe5b60ff16815260200192505050600060405180830381600087803b1515610db057600080fd5b6102c65a03f11515610dc157600080fd5b50505050565b60056020528060005260406000206000915054906101000a900460ff1681565b6000806000806000600260009054906101000a900473ffffffffffffffffffffffffffffffffffffffff1673ffffffffffffffffffffffffffffffffffffffff1663f579f88287600060405160c001526040518263ffffffff167c010000000000000000000000000000000000000000000000000000000002815260040180826000191660001916815260200191505060c060405180830381600087803b1515610e9057600080fd5b6102c65a03f11515610ea157600080fd5b5050506040518051906020018051906020018051906020018051906020018051906020018051905050965050955050506000841415610ee35760019450611022565b60026004811115610ef057fe5b836004811115610efc57fe5b141515610f0c5760029450611022565b600360009054906101000a900473ffffffffffffffffffffffffffffffffffffffff1673ffffffffffffffffffffffffffffffffffffffff1663385afd8c87600060405161010001526040518263ffffffff167c010000000000000000000000000000000000000000000000000000000002815260040180826000191660001916815260200191505061010060405180830381600087803b1515610faf57600080fd5b6102c65a03f11515610fc057600080fd5b5050506040518051906020018051906020018051906020018051906020018051906020018051906020018051906020018051905050965050955050505050811561100d5760039450611022565b80151561101d5760049450611022565b600094505b50505050919050565b600160009054906101000a900473ffffffffffffffffffffffffffffffffffffffff1673ffffffffffffffffffffffffffffffffffffffff163373ffffffffffffffffffffffffffffffffffffffff1614151561108757600080fd5b60018060146101000a81548160ff021916908315150217905550565b600160149054906101000a900460ff1681565b6000809054906101000a900473ffffffffffffffffffffffffffffffffffffffff1673ffffffffffffffffffffffffffffffffffffffff163373ffffffffffffffffffffffffffffffffffffffff1614151561111157600080fd5b80600260006101000a81548173ffffffffffffffffffffffffffffffffffffffff021916908373ffffffffffffffffffffffffffffffffffffffff16021790555050565b6000806000806000600260009054906101000a900473ffffffffffffffffffffffffffffffffffffffff1673ffffffffffffffffffffffffffffffffffffffff1663f579f88287600060405160c001526040518263ffffffff167c010000000000000000000000000000000000000000000000000000000002815260040180826000191660001916815260200191505060c060405180830381600087803b15156111fe57600080fd5b6102c65a03f1151561120f57600080fd5b50505060405180519060200180519060200180519060200180519060200180519060200180519050509650509550505060008414156112515760019450611390565b6002600481111561125e57fe5b83600481111561126a57fe5b14151561127a5760029450611390565b600360009054906101000a900473ffffffffffffffffffffffffffffffffffffffff1673ffffffffffffffffffffffffffffffffffffffff1663385afd8c87600060405161010001526040518263ffffffff167c010000000000000000000000000000000000000000000000000000000002815260040180826000191660001916815260200191505061010060405180830381600087803b151561131d57600080fd5b6102c65a03f1151561132e57600080fd5b5050506040518051906020018051906020018051906020018051906020018051906020018051906020018051906020018051905050965050955050505050811561137b5760039450611390565b80151561138b5760049450611390565b600094505b50505050919050565b600160149054906101000a900460ff161515156113b557600080fd5b600660003373ffffffffffffffffffffffffffffffffffffffff1673ffffffffffffffffffffffffffffffffffffffff16815260200190815260200160002060009054906101000a900460ff168061145957506000809054906101000a900473ffffffffffffffffffffffffffffffffffffffff1673ffffffffffffffffffffffffffffffffffffffff163373ffffffffffffffffffffffffffffffffffffffff16145b151561146457600080fd5b600061146f846120dc565b14151561147b57600080fd5b600360009054906101000a900473ffffffffffffffffffffffffffffffffffffffff1673ffffffffffffffffffffffffffffffffffffffff16634824420c8484846040518463ffffffff167c01000000000000000000000000000000000000000000000000000000000281526004018084600019166000191681526020018060200182810382528484828181526020019250808284378201915050945050505050600060405180830381600087803b151561153557600080fd5b6102c65a03f1151561154657600080fd5b50505082600019167f758e2eea4350ebda0867814593fa9eaaf6c7d3235c67073a3f00ebab22bfc2d08383604051808060200182810382528484828181526020019250808284378201915050935050505060405180910390a2505050565b60066020528060005260406000206000915054906101000a900460ff1681565b6000809054906101000a900473ffffffffffffffffffffffffffffffffffffffff1673ffffffffffffffffffffffffffffffffffffffff163373ffffffffffffffffffffffffffffffffffffffff1614151561161f57600080fd5b80600360006101000a81548173ffffffffffffffffffffffffffffffffffffffff021916908373ffffffffffffffffffffffffffffffffffffffff16021790555050565b6000809054906101000a900473ffffffffffffffffffffffffffffffffffffffff1681565b600160149054906101000a900460ff161515156116a457600080fd5b60006116af83611c31565b1415156116bb57600080fd5b600360009054906101000a900473ffffffffffffffffffffffffffffffffffffffff1673ffffffffffffffffffffffffffffffffffffffff1663df5283d5838333600460009054906101000a900473ffffffffffffffffffffffffffffffffffffffff1673ffffffffffffffffffffffffffffffffffffffff166370a08231336000604051602001526040518263ffffffff167c0100000000000000000000000000000000000000000000000000000000028152600401808273ffffffffffffffffffffffffffffffffffffffff1673ffffffffffffffffffffffffffffffffffffffff168152602001915050602060405180830381600087803b15156117c157600080fd5b6102c65a03f115156117d257600080fd5b505050604051805190506040518563ffffffff167c0100000000000000000000000000000000000000000000000000000000028152600401808560001916600019168152602001841515151581526020018373ffffffffffffffffffffffffffffffffffffffff1673ffffffffffffffffffffffffffffffffffffffff168152602001828152602001945050505050600060405180830381600087803b151561187a57600080fd5b6102c65a03f1151561188b57600080fd5b5050506000611899836109a3565b1480156118a35750805b156118b2576118b182611a34565b5b81600019167f30e30b3927df689f79aaa46d4a2ac57b407681bf6515c2ccfe401ee11b42a0ae823360405180831515151581526020018273ffffffffffffffffffffffffffffffffffffffff1673ffffffffffffffffffffffffffffffffffffffff1681526020019250505060405180910390a25050565b6000809054906101000a900473ffffffffffffffffffffffffffffffffffffffff1673ffffffffffffffffffffffffffffffffffffffff163373ffffffffffffffffffffffffffffffffffffffff1614151561198557600080fd5b600660008273ffffffffffffffffffffffffffffffffffffffff1673ffffffffffffffffffffffffffffffffffffffff16815260200190815260200160002060009054906101000a900460ff161515611a31576001600660008373ffffffffffffffffffffffffffffffffffffffff1673ffffffffffffffffffffffffffffffffffffffff16815260200190815260200160002060006101000a81548160ff0219169083151502179055505b50565b600160149054906101000a900460ff16151515611a5057600080fd5b6000611a5b826109a3565b141515611a6757600080fd5b600260009054906101000a900473ffffffffffffffffffffffffffffffffffffffff1673ffffffffffffffffffffffffffffffffffffffff166347d3265c8260036040518363ffffffff167c0100000000000000000000000000000000000000000000000000000000028152600401808360001916600019168152602001826004811115611af157fe5b60ff16815260200192505050600060405180830381600087803b1515611b1657600080fd5b6102c65a03f11515611b2757600080fd5b505050600360009054906101000a900473ffffffffffffffffffffffffffffffffffffffff1673ffffffffffffffffffffffffffffffffffffffff16633f21eefd826001806040518463ffffffff167c010000000000000000000000000000000000000000000000000000000002815260040180846000191660001916815260200183151515158152602001821515151581526020019350505050600060405180830381600087803b1515611bdb57600080fd5b6102c65a03f11515611bec57600080fd5b5050507fe9e6dbf89d1d699e9b3f4480a8d9ce6cb0048776d5b003d83ee459e4c85046928160405180826000191660001916815260200191505060405180910390a150565b600080600080600080600260009054906101000a900473ffffffffffffffffffffffffffffffffffffffff1673ffffffffffffffffffffffffffffffffffffffff1663f579f88288600060405160c001526040518263ffffffff167c010000000000000000000000000000000000000000000000000000000002815260040180826000191660001916815260200191505060c060405180830381600087803b1515611cdb57600080fd5b6102c65a03f11515611cec57600080fd5b5050506040518051906020018051906020018051906020018051906020018051906020018051905050975050965050506000851415611d2e57600195506120d2565b60026004811115611d3b57fe5b846004811115611d4757fe5b141515611d5757600295506120d2565b600360009054906101000a900473ffffffffffffffffffffffffffffffffffffffff1673ffffffffffffffffffffffffffffffffffffffff1663385afd8c88600060405161010001526040518263ffffffff167c010000000000000000000000000000000000000000000000000000000002815260040180826000191660001916815260200191505061010060405180830381600087803b1515611dfa57600080fd5b6102c65a03f11515611e0b57600080fd5b50505060405180519060200180519060200180519060200180519060200180519060200180519060200180519060200180519050509750509650505050508215611e5857600395506120d2565b811515611e6857600495506120d2565b600360009054906101000a900473ffffffffffffffffffffffffffffffffffffffff1673ffffffffffffffffffffffffffffffffffffffff166382b2fa7e88336000604051608001526040518363ffffffff167c01000000000000000000000000000000000000000000000000000000000281526004018083600019166000191681526020018273ffffffffffffffffffffffffffffffffffffffff1673ffffffffffffffffffffffffffffffffffffffff16815260200192505050608060405180830381600087803b1515611f3d57600080fd5b6102c65a03f11515611f4e57600080fd5b5050506040518051906020018051906020018051906020018051905093505050508015611f7e57600595506120d2565b6000600460009054906101000a900473ffffffffffffffffffffffffffffffffffffffff1673ffffffffffffffffffffffffffffffffffffffff166370a08231336000604051602001526040518263ffffffff167c0100000000000000000000000000000000000000000000000000000000028152600401808273ffffffffffffffffffffffffffffffffffffffff1673ffffffffffffffffffffffffffffffffffffffff168152602001915050602060405180830381600087803b151561204557600080fd5b6102c65a03f1151561205657600080fd5b50505060405180519050141561206f57600695506120d2565b6000809054906101000a900473ffffffffffffffffffffffffffffffffffffffff1673ffffffffffffffffffffffffffffffffffffffff163373ffffffffffffffffffffffffffffffffffffffff1614156120cd57600795506120d2565b600095505b5050505050919050565b6000806000600260009054906101000a900473ffffffffffffffffffffffffffffffffffffffff1673ffffffffffffffffffffffffffffffffffffffff1663f579f88285600060405160c001526040518263ffffffff167c010000000000000000000000000000000000000000000000000000000002815260040180826000191660001916815260200191505060c060405180830381600087803b151561218257600080fd5b6102c65a03f1151561219357600080fd5b50505060405180519060200180519060200180519060200180519060200180519060200180519050509450509350505060008214156121d55760019250612203565b600160048111156121e257fe5b8160048111156121ee57fe5b1415156121fe5760029250612203565b600092505b5050919050565b600160009054906101000a900473ffffffffffffffffffffffffffffffffffffffff1673ffffffffffffffffffffffffffffffffffffffff163373ffffffffffffffffffffffffffffffffffffffff1614151561226657600080fd5b6000600160146101000a81548160ff021916908315150217905550565b600160149054906101000a900460ff1615151561229f57600080fd5b600660003373ffffffffffffffffffffffffffffffffffffffff1673ffffffffffffffffffffffffffffffffffffffff16815260200190815260200160002060009054906101000a900460ff168061234357506000809054906101000a900473ffffffffffffffffffffffffffffffffffffffff1673ffffffffffffffffffffffffffffffffffffffff163373ffffffffffffffffffffffffffffffffffffffff16145b151561234e57600080fd5b6000612359846120dc565b14151561236557600080fd5b600260009054906101000a900473ffffffffffffffffffffffffffffffffffffffff1673ffffffffffffffffffffffffffffffffffffffff166347d3265c8460026040518363ffffffff167c01000000000000000000000000000000000000000000000000000000000281526004018083600019166000191681526020018260048111156123ef57fe5b60ff16815260200192505050600060405180830381600087803b151561241457600080fd5b6102c65a03f1151561242557600080fd5b505050600360009054906101000a900473ffffffffffffffffffffffffffffffffffffffff1673ffffffffffffffffffffffffffffffffffffffff16634824420c8484846040518463ffffffff167c01000000000000000000000000000000000000000000000000000000000281526004018084600019166000191681526020018060200182810382528484828181526020019250808284378201915050945050505050600060405180830381600087803b15156124e257600080fd5b6102c65a03f115156124f357600080fd5b50505082600019167f195f0a6fcb79ef2134122485d9e816371421e5589ce5c8581ad99c2f4806ca188383604051808060200182810382528484828181526020019250808284378201915050935050505060405180910390a2505050565b600160149054906101000a900460ff1615151561256d57600080fd5b600660003373ffffffffffffffffffffffffffffffffffffffff1673ffffffffffffffffffffffffffffffffffffffff16815260200190815260200160002060009054906101000a900460ff168061261157506000809054906101000a900473ffffffffffffffffffffffffffffffffffffffff1673ffffffffffffffffffffffffffffffffffffffff163373ffffffffffffffffffffffffffffffffffffffff16145b151561261c57600080fd5b600061262782610de7565b14151561263357600080fd5b600160056000836000191660001916815260200190815260200160002060006101000a81548160ff02191690831515021790555050565b6000600660008373ffffffffffffffffffffffffffffffffffffffff1673ffffffffffffffffffffffffffffffffffffffff16815260200190815260200160002060009054906101000a900460ff169050919050565b6000809054906101000a900473ffffffffffffffffffffffffffffffffffffffff1673ffffffffffffffffffffffffffffffffffffffff163373ffffffffffffffffffffffffffffffffffffffff1614151561271b57600080fd5b600073ffffffffffffffffffffffffffffffffffffffff168173ffffffffffffffffffffffffffffffffffffffff161415151561275757600080fd5b8073ffffffffffffffffffffffffffffffffffffffff166000809054906101000a900473ffffffffffffffffffffffffffffffffffffffff1673ffffffffffffffffffffffffffffffffffffffff167f8be0079c531659141344cd1fd0a4f28419497f9722a3daafe3b4186f6b6457e060405160405180910390a3806000806101000a81548173ffffffffffffffffffffffffffffffffffffffff021916908373ffffffffffffffffffffffffffffffffffffffff16021790555050565b600080828401905083811015151561282957fe5b8091505092915050565b600080828481151561284157fe5b04905080915050929150505600a165627a7a72305820343c07d133485329a1a90978160c06f0f519ed88fbcc15695a303b002e3dd7e70029",
  "source": "pragma solidity ^0.4.18;\nimport '../node_modules/zeppelin-solidity/contracts/ownership/Ownable.sol';\nimport '../node_modules/zeppelin-solidity/contracts/math/SafeMath.sol';\nimport './WccStorage.sol';\nimport './WccVoteStorage.sol';\nimport './common/Stoppable.sol';\nimport './common/KnotToken.sol';\ncontract WccVoter is Ownable, Stoppable{\n    using SafeMath for uint256;\n    WccStorage wccs;\n    WccVoteStorage vs;\n    KnotToken token;\n    // uint public testOK;\n    mapping(bytes32 => bool) public canEnd;\n    mapping(address => bool) public judges;\n    modifier onlyJudge() {\n        require(judges[msg.sender] || msg.sender == owner);\n        _;\n    }\n    function setJudge(address judge) public onlyOwner {\n        if (!judges[judge]) {\n            judges[judge] = true;\n        }\n    }\n    function isJudge(address user) public view returns(bool) {\n        return judges[user];\n    }\n    function WccVoter(address wccsAddress, address vsAddress, address tokenAddress) public Stoppable(msg.sender){\n        wccs = WccStorage(wccsAddress);\n        vs = WccVoteStorage(vsAddress);\n        token = KnotToken(tokenAddress);\n    }\n    function setWccs(address csAddress) external onlyOwner {\n        wccs = WccStorage(csAddress);\n    }\n    function setVs(address vsAddress) external onlyOwner {\n        vs = WccVoteStorage(vsAddress);\n    }\n    function setToken(address tokenAddress) external onlyOwner {\n        token = KnotToken(tokenAddress);\n    }\n    /// @author Bob Clampett\n    /// @notice set game status to Playing\n    /// @param _gameIndex game index  \n    function setGameStart(bytes32 _gameIndex) external stopInEmergency onlyJudge {\n        wccs.setGameStatus(_gameIndex, WccStorage.GameStatus.Playing);\n    }\n    /// @author Bob Clampett\n    /// @notice judge start vote check\n    /// @param _gameIndex game index\n    /// @return 0 if check passed\n    function startVoteCheck(bytes32 _gameIndex) public view returns(uint) {\n        var (,,time,,status,) = wccs.games(_gameIndex);\n        if (time == 0) {\n            return 1; //game not exist\n        }\n        if (status != WccStorage.GameStatus.Playing) {\n            return 2; //wrong status\n        }\n        return 0;\n    }\n\n    event StartVote(bytes32 indexed _gameIndex, string _result);\n    /// @author Bob Clampett\n    /// @notice judge start vote\n    /// @param _gameIndex game index\n    /// @param _result vote target   \n    function startVote(bytes32 _gameIndex, string _result) external stopInEmergency onlyJudge {\n        require(startVoteCheck(_gameIndex) == 0);\n        // change game status to Voting\n        wccs.setGameStatus(_gameIndex, WccStorage.GameStatus.Voting);\n        // create new Vote info\n        vs.setVote(_gameIndex, _result);\n        // testOK = block.number;\n        StartVote(_gameIndex, _result);\n    }\n    event ChangeVote(bytes32 indexed _gameIndex, string _result);\n    /// @author Bob Clampett\n    /// @notice judge change vote target\n    /// @param _gameIndex game index\n    /// @param _result vote target \n    function changeResult(bytes32 _gameIndex, string _result) external stopInEmergency onlyJudge {\n        require(startVoteCheck(_gameIndex) == 0);\n        vs.setVote(_gameIndex, _result);\n        // testOK = block.number;\n        ChangeVote(_gameIndex, _result);\n    }\n    /// @author Bob Clampett\n    /// @notice user vote check\n    /// @param _gameIndex  game index\n    /// @return 0 if check passed\n    function voteCheck(bytes32 _gameIndex) public view returns(uint) {\n        var (,,time,,status,) = wccs.games(_gameIndex);\n        if (time == 0) {\n            return 1; //game not exist\n        }\n        if (status != WccStorage.GameStatus.Voting) {\n            return 2; //wrong status\n        }\n        var (,,,,ended,,voteValued,) = vs.voteInfos(_gameIndex);\n        if (ended) {\n            return 3; //vote ended\n        }\n        if (!voteValued) {\n            return 4; //vote not exist\n        }\n        var (,,,isValued) = vs.userVotes(_gameIndex, msg.sender);\n        if (isValued) {\n            return 5; //has voted\n        }\n        if (token.balanceOf(msg.sender) == 0) {\n            return 6; //no vote token\n        }\n        if (msg.sender == owner) {\n            return 7; //owner can not vote\n        }\n        return 0;\n    }\n    event UserVote(bytes32 indexed _gameIndex, bool yesOrNo, address user);\n    /// @author Bob Clampett\n    /// @notice user vote\n    /// @param _gameIndex game index\n    /// @param yesOrNo agree or deny    \n    function vote(bytes32 _gameIndex, bool yesOrNo) external stopInEmergency {\n        require(voteCheck(_gameIndex) == 0);\n        // add vote info\n        vs.setUserVote(_gameIndex, yesOrNo, msg.sender, token.balanceOf(msg.sender));\n        // check can end vote\n        if (endVoteCheck(_gameIndex) == 0 && yesOrNo) {\n            endVote(_gameIndex);\n        }\n        // testOK = block.number;\n        UserVote(_gameIndex, yesOrNo, msg.sender);\n    }\n    function canEndCheck(bytes32 _gameIndex) public view returns(uint) {\n        var (,,time,,status,) = wccs.games(_gameIndex);\n        if (time == 0) {\n            return 1; //game not exist\n        }\n        if (status != WccStorage.GameStatus.Voting) {\n            return 2; //wrong status\n        }\n        var (,,,,ended,,voteValued,) = vs.voteInfos(_gameIndex);\n        if (ended) {\n            return 3; //vote ended\n        }\n        if (!voteValued) {\n            return 4; //vote not exist\n        }\n        return 0;\n    }\n    function setCanEnd(bytes32 _gameIndex) external stopInEmergency onlyJudge {\n        // need to add more condition\n        require(canEndCheck(_gameIndex) == 0);\n        canEnd[_gameIndex] = true;\n    }\n    function endVoteCheck(bytes32 _gameIndex) public view returns(uint) {\n        var (,,time,,status,) = wccs.games(_gameIndex);\n        if (time == 0) {\n            return 1; //game not exist\n        }\n        if (status != WccStorage.GameStatus.Voting) {\n            return 2; //wrong status\n        }\n        if (!canEnd[_gameIndex]) {\n            return 3; // can not end\n        }\n        var (,yesCount,noCount,,,,,) = vs.voteInfos(_gameIndex);\n        // need change in future\n        if (yesCount < yesCount.add(noCount).div(10)) {\n            return 4; // not enough yes vote\n        }\n        return 0;\n    }\n    event EndVote(bytes32 _gameIndex);\n    function endVote(bytes32 _gameIndex) public stopInEmergency {\n        require(endVoteCheck(_gameIndex) == 0);\n        // change game status to Paying\n        wccs.setGameStatus(_gameIndex, WccStorage.GameStatus.Paying);\n        vs.updateVote(_gameIndex, true, true);\n        // testOK = block.number;\n        EndVote(_gameIndex);\n    }\n    function endVoteByAdminCheck(bytes32 _gameIndex) public view returns(uint) {\n        var (,,time,,status,) = wccs.games(_gameIndex);\n        if (time == 0) {\n            return 1; //game not exist\n        }\n        if (status != WccStorage.GameStatus.Voting) {\n            return 2; //wrong status\n        }\n        var (,,,,ended,,voteValued,) = vs.voteInfos(_gameIndex);\n        if (ended) {\n            return 3; //vote ended\n        }\n        if (!voteValued) {\n            return 4; //vote not exist\n        }\n        return 0;\n    }\n    function endVoteByAdmin(bytes32 _gameIndex) external stopInEmergency onlyJudge {\n        require(endVoteByAdminCheck(_gameIndex) == 0);\n        // change game status to Paying\n        wccs.setGameStatus(_gameIndex, WccStorage.GameStatus.Paying);\n        vs.updateVote(_gameIndex, true, true);\n        // testOK = block.number;\n        EndVote(_gameIndex);\n    }\n}",
  "sourcePath": "/Users/hanting/workspace/ethereum/truffle/huibaoSC/contracts/WccVoter.sol",
  "compiler": {
    "name": "solc",
    "version": "0.4.18+commit.9cf6e910.Emscripten.clang"
  },
  "schemaVersion": "1.0.1",
  "updatedAt": "2018-05-29T03:06:32.377Z"
}