{
  "contractName": "WccVoteStorage",
  "abi": [
    {
      "constant": false,
      "inputs": [
        {
          "name": "_gameIndex",
          "type": "bytes32"
        },
        {
          "name": "user",
          "type": "address"
        }
      ],
      "name": "setUserVotePaid",
      "outputs": [],
      "payable": false,
      "stateMutability": "nonpayable",
      "type": "function"
    },
    {
      "constant": true,
      "inputs": [
        {
          "name": "_gameIndex",
          "type": "bytes32"
        }
      ],
      "name": "getVoteTarget",
      "outputs": [
        {
          "name": "",
          "type": "bytes32"
        }
      ],
      "payable": false,
      "stateMutability": "view",
      "type": "function"
    },
    {
      "constant": true,
      "inputs": [
        {
          "name": "",
          "type": "bytes32"
        }
      ],
      "name": "voteInfos",
      "outputs": [
        {
          "name": "target",
          "type": "string"
        },
        {
          "name": "yesCount",
          "type": "uint256"
        },
        {
          "name": "noCount",
          "type": "uint256"
        },
        {
          "name": "passed",
          "type": "bool"
        },
        {
          "name": "ended",
          "type": "bool"
        },
        {
          "name": "changed",
          "type": "bool"
        },
        {
          "name": "isValued",
          "type": "bool"
        },
        {
          "name": "number",
          "type": "uint256"
        }
      ],
      "payable": false,
      "stateMutability": "view",
      "type": "function"
    },
    {
      "constant": false,
      "inputs": [
        {
          "name": "_gameIndex",
          "type": "bytes32"
        },
        {
          "name": "_passed",
          "type": "bool"
        },
        {
          "name": "_ended",
          "type": "bool"
        }
      ],
      "name": "updateVote",
      "outputs": [],
      "payable": false,
      "stateMutability": "nonpayable",
      "type": "function"
    },
    {
      "constant": true,
      "inputs": [
        {
          "name": "",
          "type": "address"
        }
      ],
      "name": "admins",
      "outputs": [
        {
          "name": "",
          "type": "bool"
        }
      ],
      "payable": false,
      "stateMutability": "view",
      "type": "function"
    },
    {
      "constant": false,
      "inputs": [
        {
          "name": "_gameIndex",
          "type": "bytes32"
        },
        {
          "name": "_result",
          "type": "string"
        }
      ],
      "name": "setVote",
      "outputs": [],
      "payable": false,
      "stateMutability": "nonpayable",
      "type": "function"
    },
    {
      "constant": false,
      "inputs": [
        {
          "name": "admin",
          "type": "address"
        }
      ],
      "name": "setAdmin",
      "outputs": [],
      "payable": false,
      "stateMutability": "nonpayable",
      "type": "function"
    },
    {
      "constant": true,
      "inputs": [
        {
          "name": "",
          "type": "bytes32"
        },
        {
          "name": "",
          "type": "address"
        }
      ],
      "name": "userVotes",
      "outputs": [
        {
          "name": "vote",
          "type": "bool"
        },
        {
          "name": "value",
          "type": "uint256"
        },
        {
          "name": "paid",
          "type": "bool"
        },
        {
          "name": "isValued",
          "type": "bool"
        }
      ],
      "payable": false,
      "stateMutability": "view",
      "type": "function"
    },
    {
      "constant": true,
      "inputs": [],
      "name": "owner",
      "outputs": [
        {
          "name": "",
          "type": "address"
        }
      ],
      "payable": false,
      "stateMutability": "view",
      "type": "function"
    },
    {
      "constant": true,
      "inputs": [],
      "name": "getUserVotedGameIndex",
      "outputs": [
        {
          "name": "",
          "type": "bytes32[]"
        }
      ],
      "payable": false,
      "stateMutability": "view",
      "type": "function"
    },
    {
      "constant": false,
      "inputs": [
        {
          "name": "_gameIndex",
          "type": "bytes32"
        },
        {
          "name": "yesOrNo",
          "type": "bool"
        },
        {
          "name": "user",
          "type": "address"
        },
        {
          "name": "votes",
          "type": "uint256"
        }
      ],
      "name": "setUserVote",
      "outputs": [],
      "payable": false,
      "stateMutability": "nonpayable",
      "type": "function"
    },
    {
      "constant": false,
      "inputs": [
        {
          "name": "newOwner",
          "type": "address"
        }
      ],
      "name": "transferOwnership",
      "outputs": [],
      "payable": false,
      "stateMutability": "nonpayable",
      "type": "function"
    },
    {
      "anonymous": false,
      "inputs": [
        {
          "indexed": true,
          "name": "previousOwner",
          "type": "address"
        },
        {
          "indexed": true,
          "name": "newOwner",
          "type": "address"
        }
      ],
      "name": "OwnershipTransferred",
      "type": "event"
    }
  ],
  "bytecode": "0x6060604052336000806101000a81548173ffffffffffffffffffffffffffffffffffffffff021916908373ffffffffffffffffffffffffffffffffffffffff160217905550611339806100536000396000f3006060604052600436106100ba576000357c0100000000000000000000000000000000000000000000000000000000900463ffffffff1680632190a8d9146100bf5780632d4f20e314610105578063385afd8c146101485780633f21eefd14610246578063429b62e5146102835780634824420c146102d4578063704b6c021461030f57806382b2fa7e146103485780638da5cb5b146103c3578063b5924b9a14610418578063df5283d514610482578063f2fde38b146104dc575b600080fd5b34156100ca57600080fd5b61010360048080356000191690602001909190803573ffffffffffffffffffffffffffffffffffffffff16906020019091905050610515565b005b341561011057600080fd5b61012a6004808035600019169060200190919050506105e5565b60405180826000191660001916815260200191505060405180910390f35b341561015357600080fd5b61016d600480803560001916906020019091905050610674565b60405180806020018981526020018881526020018715151515815260200186151515158152602001851515151581526020018415151515815260200183815260200182810382528a8181546001816001161561010002031660029004815260200191508054600181600116156101000203166002900480156102305780601f1061020557610100808354040283529160200191610230565b820191906000526020600020905b81548152906001019060200180831161021357829003601f168201915b5050995050505050505050505060405180910390f35b341561025157600080fd5b610281600480803560001916906020019091908035151590602001909190803515159060200190919050506106ef565b005b341561028e57600080fd5b6102ba600480803573ffffffffffffffffffffffffffffffffffffffff169060200190919050506107e2565b604051808215151515815260200191505060405180910390f35b34156102df57600080fd5b61030d6004808035600019169060200190919080359060200190820180359060200191909192905050610802565b005b341561031a57600080fd5b610346600480803573ffffffffffffffffffffffffffffffffffffffff16906020019091905050610b04565b005b341561035357600080fd5b61038c60048080356000191690602001909190803573ffffffffffffffffffffffffffffffffffffffff16906020019091905050610c0d565b6040518085151515158152602001848152602001831515151581526020018215151515815260200194505050505060405180910390f35b34156103ce57600080fd5b6103d6610c71565b604051808273ffffffffffffffffffffffffffffffffffffffff1673ffffffffffffffffffffffffffffffffffffffff16815260200191505060405180910390f35b341561042357600080fd5b61042b610c96565b6040518080602001828103825283818151815260200191508051906020019060200280838360005b8381101561046e578082015181840152602081019050610453565b505050509050019250505060405180910390f35b341561048d57600080fd5b6104da600480803560001916906020019091908035151590602001909190803573ffffffffffffffffffffffffffffffffffffffff16906020019091908035906020019091905050610d35565b005b34156104e757600080fd5b610513600480803573ffffffffffffffffffffffffffffffffffffffff16906020019091905050611010565b005b600160003373ffffffffffffffffffffffffffffffffffffffff1673ffffffffffffffffffffffffffffffffffffffff16815260200190815260200160002060009054906101000a900460ff16151561056d57600080fd5b600160046000846000191660001916815260200190815260200160002060008373ffffffffffffffffffffffffffffffffffffffff1673ffffffffffffffffffffffffffffffffffffffff16815260200190815260200160002060020160006101000a81548160ff0219169083151502179055505050565b600060026000836000191660001916815260200190815260200160002060000160405180828054600181600116156101000203166002900480156106605780601f1061063e576101008083540402835291820191610660565b820191906000526020600020905b81548152906001019060200180831161064c575b505091505060405180910390209050919050565b600260205280600052604060002060009150905080600001908060010154908060020154908060030160009054906101000a900460ff16908060030160019054906101000a900460ff16908060030160029054906101000a900460ff16908060030160039054906101000a900460ff16908060040154905088565b600160003373ffffffffffffffffffffffffffffffffffffffff1673ffffffffffffffffffffffffffffffffffffffff16815260200190815260200160002060009054906101000a900460ff16151561074757600080fd5b8160026000856000191660001916815260200190815260200160002060030160006101000a81548160ff0219169083151502179055508060026000856000191660001916815260200190815260200160002060030160016101000a81548160ff02191690831515021790555080156107dd5743600260008560001916600019168152602001908152602001600020600401819055505b505050565b60016020528060005260406000206000915054906101000a900460ff1681565b600160003373ffffffffffffffffffffffffffffffffffffffff1673ffffffffffffffffffffffffffffffffffffffff16815260200190815260200160002060009054906101000a900460ff16151561085a57600080fd5b60026000846000191660001916815260200190815260200160002060030160039054906101000a900460ff1615156109e6576101006040519081016040528083838080601f016020809104026020016040519081016040528093929190818152602001838380828437820191505050505050815260200160008152602001600081526020016000151581526020016000151581526020016000151581526020016001151581526020016000815250600260008560001916600019168152602001908152602001600020600082015181600001908051906020019061093f929190611183565b50602082015181600101556040820151816002015560608201518160030160006101000a81548160ff02191690831515021790555060808201518160030160016101000a81548160ff02191690831515021790555060a08201518160030160026101000a81548160ff02191690831515021790555060c08201518160030160036101000a81548160ff02191690831515021790555060e08201518160040155905050610aff565b8181604051808383808284378201915050925050506040518091039020600019166002600085600019166000191681526020019081526020016000206000016040518082805460018160011615610100020316600290048015610a805780601f10610a5e576101008083540402835291820191610a80565b820191906000526020600020905b815481529060010190602001808311610a6c575b5050915050604051809103902060001916141515610afe5781816002600086600019166000191681526020019081526020016000206000019190610ac5929190611203565b50600160026000856000191660001916815260200190815260200160002060030160026101000a81548160ff0219169083151502179055505b5b505050565b6000809054906101000a900473ffffffffffffffffffffffffffffffffffffffff1673ffffffffffffffffffffffffffffffffffffffff163373ffffffffffffffffffffffffffffffffffffffff16141515610b5f57600080fd5b600160008273ffffffffffffffffffffffffffffffffffffffff1673ffffffffffffffffffffffffffffffffffffffff16815260200190815260200160002060009054906101000a900460ff161515610c0a5760018060008373ffffffffffffffffffffffffffffffffffffffff1673ffffffffffffffffffffffffffffffffffffffff16815260200190815260200160002060006101000a81548160ff0219169083151502179055505b50565b6004602052816000526040600020602052806000526040600020600091509150508060000160009054906101000a900460ff16908060010154908060020160009054906101000a900460ff16908060020160019054906101000a900460ff16905084565b6000809054906101000a900473ffffffffffffffffffffffffffffffffffffffff1681565b610c9e611283565b600360003373ffffffffffffffffffffffffffffffffffffffff1673ffffffffffffffffffffffffffffffffffffffff168152602001908152602001600020805480602002602001604051908101604052809291908181526020018280548015610d2b57602002820191906000526020600020905b81546000191681526020019060010190808311610d13575b5050505050905090565b600160003373ffffffffffffffffffffffffffffffffffffffff1673ffffffffffffffffffffffffffffffffffffffff16815260200190815260200160002060009054906101000a900460ff161515610d8d57600080fd5b60046000856000191660001916815260200190815260200160002060008373ffffffffffffffffffffffffffffffffffffffff1673ffffffffffffffffffffffffffffffffffffffff16815260200190815260200160002060020160019054906101000a900460ff16151561100a5760806040519081016040528084151581526020018281526020016000151581526020016001151581525060046000866000191660001916815260200190815260200160002060008473ffffffffffffffffffffffffffffffffffffffff1673ffffffffffffffffffffffffffffffffffffffff16815260200190815260200160002060008201518160000160006101000a81548160ff0219169083151502179055506020820151816001015560408201518160020160006101000a81548160ff02191690831515021790555060608201518160020160016101000a81548160ff0219169083151502179055509050508215610f4957610f22816002600087600019166000191681526020019081526020016000206001015461116590919063ffffffff16565b60026000866000191660001916815260200190815260200160002060010181905550610f9d565b610f7a816002600087600019166000191681526020019081526020016000206002015461116590919063ffffffff16565b600260008660001916600019168152602001908152602001600020600201819055505b600360008373ffffffffffffffffffffffffffffffffffffffff1673ffffffffffffffffffffffffffffffffffffffff1681526020019081526020016000208054806001018281610fee9190611297565b9160005260206000209001600086909190915090600019169055505b50505050565b6000809054906101000a900473ffffffffffffffffffffffffffffffffffffffff1673ffffffffffffffffffffffffffffffffffffffff163373ffffffffffffffffffffffffffffffffffffffff1614151561106b57600080fd5b600073ffffffffffffffffffffffffffffffffffffffff168173ffffffffffffffffffffffffffffffffffffffff16141515156110a757600080fd5b8073ffffffffffffffffffffffffffffffffffffffff166000809054906101000a900473ffffffffffffffffffffffffffffffffffffffff1673ffffffffffffffffffffffffffffffffffffffff167f8be0079c531659141344cd1fd0a4f28419497f9722a3daafe3b4186f6b6457e060405160405180910390a3806000806101000a81548173ffffffffffffffffffffffffffffffffffffffff021916908373ffffffffffffffffffffffffffffffffffffffff16021790555050565b600080828401905083811015151561117957fe5b8091505092915050565b828054600181600116156101000203166002900490600052602060002090601f016020900481019282601f106111c457805160ff19168380011785556111f2565b828001600101855582156111f2579182015b828111156111f15782518255916020019190600101906111d6565b5b5090506111ff91906112c3565b5090565b828054600181600116156101000203166002900490600052602060002090601f016020900481019282601f1061124457803560ff1916838001178555611272565b82800160010185558215611272579182015b82811115611271578235825591602001919060010190611256565b5b50905061127f91906112c3565b5090565b602060405190810160405280600081525090565b8154818355818115116112be578183600052602060002091820191016112bd91906112e8565b5b505050565b6112e591905b808211156112e15760008160009055506001016112c9565b5090565b90565b61130a91905b808211156113065760008160009055506001016112ee565b5090565b905600a165627a7a723058205121236ff3dfd6245a9a5aa877e6631ebd2beed1b1472159e056ba2059843ce90029",
  "source": "pragma solidity ^0.4.18;\nimport '../node_modules/zeppelin-solidity/contracts/ownership/Ownable.sol';\nimport '../node_modules/zeppelin-solidity/contracts/math/SafeMath.sol';\ncontract WccVoteStorage is Ownable {\n    using SafeMath for uint256;\n    // enum GameType { First_stage, Round_of_16, Quarter_finals, Semi_finals, For_third, Final }\n    // enum GameStatus { Standby, Playing, Voting, Paying, End}\n    mapping(address => bool) public admins;\n    modifier onlyAdmin() {\n        require(admins[msg.sender]);\n        _;\n    }\n    function setAdmin(address admin) public onlyOwner {\n        if (!admins[admin]) {\n            admins[admin] = true;\n        }\n    }\n    struct VoteInfo {\n        string target;\n        uint yesCount;\n        uint noCount;\n        bool passed;\n        bool ended;\n        bool changed;\n        bool isValued;\n        uint number;\n    }\n    struct UserVote {\n        bool vote;\n        uint value;\n        bool paid;\n        bool isValued;\n    }\n    mapping(bytes32 => VoteInfo) public voteInfos;\n    mapping(address => bytes32[]) userVotedGameIndexes;\n    mapping(bytes32 => mapping(address => UserVote)) public userVotes;\n\n    function setVote(bytes32 _gameIndex, string _result) external onlyAdmin {\n        if (!voteInfos[_gameIndex].isValued) {\n            voteInfos[_gameIndex] = VoteInfo({\n                target: _result,\n                yesCount: 0,\n                noCount: 0,\n                passed: false,\n                ended: false,\n                changed: false,\n                isValued: true,\n                number: 0\n            });\n        } else {\n            if (keccak256(voteInfos[_gameIndex].target) != keccak256(_result)) {\n                voteInfos[_gameIndex].target = _result;\n                voteInfos[_gameIndex].changed = true;\n            }\n        }\n    }\n    function getVoteTarget(bytes32 _gameIndex) external view returns(bytes32) {\n        return keccak256(voteInfos[_gameIndex].target);\n    }\n    // function getVoteTargetValue(bytes32 _gameIndex) external view returns(string) {\n    //     return voteInfos[_gameIndex].target;\n    // }\n    function updateVote(bytes32 _gameIndex, bool _passed, bool _ended) external onlyAdmin {\n        voteInfos[_gameIndex].passed = _passed;\n        voteInfos[_gameIndex].ended = _ended;\n        if (_ended) {\n            voteInfos[_gameIndex].number = block.number;\n        }\n    }\n    function setUserVote(bytes32 _gameIndex, bool yesOrNo, address user, uint votes) external onlyAdmin {\n        if (!userVotes[_gameIndex][user].isValued) {\n            userVotes[_gameIndex][user] = UserVote({\n                vote: yesOrNo,\n                value: votes,\n                paid: false,\n                isValued: true\n            });\n            if (yesOrNo) {\n                voteInfos[_gameIndex].yesCount = voteInfos[_gameIndex].yesCount.add(votes);\n            } else {\n                voteInfos[_gameIndex].noCount = voteInfos[_gameIndex].noCount.add(votes);\n            }\n            userVotedGameIndexes[user].push(_gameIndex);\n        }    \n    }\n    function setUserVotePaid(bytes32 _gameIndex, address user) external onlyAdmin {\n        userVotes[_gameIndex][user].paid = true;\n    }\n    function getUserVotedGameIndex() external view returns(bytes32[]){\n        return userVotedGameIndexes[msg.sender];\n    }\n}",
  "sourcePath": "/Users/hanting/workspace/ethereum/truffle/huibaoSC/contracts/WccVoteStorage.sol",
  "compiler": {
    "name": "solc",
    "version": "0.4.18+commit.9cf6e910.Emscripten.clang"
  },
  "schemaVersion": "1.0.1",
  "updatedAt": "2018-05-08T05:36:47.125Z"
}